{
	"contracts/Portfolio.sol": {
		"Portfolio": {
			"abi": [
				{
					"inputs": [],
					"stateMutability": "nonpayable",
					"type": "constructor"
				},
				{
					"inputs": [],
					"name": "allEducationDetails",
					"outputs": [
						{
							"components": [
								{
									"internalType": "uint256",
									"name": "id",
									"type": "uint256"
								},
								{
									"internalType": "string",
									"name": "date",
									"type": "string"
								},
								{
									"internalType": "string",
									"name": "degree",
									"type": "string"
								},
								{
									"internalType": "string",
									"name": "knowledgeAcquired",
									"type": "string"
								},
								{
									"internalType": "string",
									"name": "instutionName",
									"type": "string"
								}
							],
							"internalType": "struct Portfolio.Education[4]",
							"name": "",
							"type": "tuple[4]"
						}
					],
					"stateMutability": "view",
					"type": "function"
				},
				{
					"inputs": [],
					"name": "allExperienceDetails",
					"outputs": [
						{
							"components": [
								{
									"internalType": "uint256",
									"name": "id",
									"type": "uint256"
								},
								{
									"internalType": "string",
									"name": "date",
									"type": "string"
								},
								{
									"internalType": "string",
									"name": "post",
									"type": "string"
								},
								{
									"internalType": "string",
									"name": "knowledgeAcquired",
									"type": "string"
								},
								{
									"internalType": "string",
									"name": "compamyName",
									"type": "string"
								}
							],
							"internalType": "struct Portfolio.Experience[4]",
							"name": "",
							"type": "tuple[4]"
						}
					],
					"stateMutability": "view",
					"type": "function"
				},
				{
					"inputs": [],
					"name": "allProjects",
					"outputs": [
						{
							"components": [
								{
									"internalType": "uint256",
									"name": "id",
									"type": "uint256"
								},
								{
									"internalType": "string",
									"name": "name",
									"type": "string"
								},
								{
									"internalType": "string",
									"name": "description",
									"type": "string"
								},
								{
									"internalType": "string",
									"name": "image",
									"type": "string"
								},
								{
									"internalType": "string",
									"name": "githubLink",
									"type": "string"
								}
							],
							"internalType": "struct Portfolio.Project[14]",
							"name": "",
							"type": "tuple[14]"
						}
					],
					"stateMutability": "view",
					"type": "function"
				},
				{
					"inputs": [
						{
							"internalType": "string",
							"name": "_description",
							"type": "string"
						}
					],
					"name": "changeDescription",
					"outputs": [],
					"stateMutability": "nonpayable",
					"type": "function"
				},
				{
					"inputs": [
						{
							"internalType": "string",
							"name": "_date",
							"type": "string"
						},
						{
							"internalType": "string",
							"name": "_degree",
							"type": "string"
						},
						{
							"internalType": "string",
							"name": "_knowledgeAcquired",
							"type": "string"
						},
						{
							"internalType": "string",
							"name": "_instutionName",
							"type": "string"
						},
						{
							"internalType": "uint256",
							"name": "_educationDetailCount",
							"type": "uint256"
						}
					],
					"name": "changeEducation",
					"outputs": [],
					"stateMutability": "nonpayable",
					"type": "function"
				},
				{
					"inputs": [
						{
							"internalType": "string",
							"name": "_date",
							"type": "string"
						},
						{
							"internalType": "string",
							"name": "_post",
							"type": "string"
						},
						{
							"internalType": "string",
							"name": "_knowledgeAcquired",
							"type": "string"
						},
						{
							"internalType": "string",
							"name": "_companyName",
							"type": "string"
						},
						{
							"internalType": "uint256",
							"name": "_experienceDetailCount",
							"type": "uint256"
						}
					],
					"name": "changeExperience",
					"outputs": [],
					"stateMutability": "nonpayable",
					"type": "function"
				},
				{
					"inputs": [
						{
							"internalType": "string",
							"name": "_imageLink",
							"type": "string"
						}
					],
					"name": "changeImageLink",
					"outputs": [],
					"stateMutability": "nonpayable",
					"type": "function"
				},
				{
					"inputs": [
						{
							"internalType": "string",
							"name": "_name",
							"type": "string"
						},
						{
							"internalType": "string",
							"name": "_description",
							"type": "string"
						},
						{
							"internalType": "string",
							"name": "_image",
							"type": "string"
						},
						{
							"internalType": "string",
							"name": "_githubLink",
							"type": "string"
						},
						{
							"internalType": "uint256",
							"name": "_projectCount",
							"type": "uint256"
						}
					],
					"name": "changeProject",
					"outputs": [],
					"stateMutability": "nonpayable",
					"type": "function"
				},
				{
					"inputs": [
						{
							"internalType": "string",
							"name": "_resumeLink",
							"type": "string"
						}
					],
					"name": "changeResumeLink",
					"outputs": [],
					"stateMutability": "nonpayable",
					"type": "function"
				},
				{
					"inputs": [],
					"name": "description",
					"outputs": [
						{
							"internalType": "string",
							"name": "",
							"type": "string"
						}
					],
					"stateMutability": "view",
					"type": "function"
				},
				{
					"inputs": [],
					"name": "donate",
					"outputs": [],
					"stateMutability": "payable",
					"type": "function"
				},
				{
					"inputs": [
						{
							"internalType": "uint256",
							"name": "",
							"type": "uint256"
						}
					],
					"name": "educationDetails",
					"outputs": [
						{
							"internalType": "uint256",
							"name": "id",
							"type": "uint256"
						},
						{
							"internalType": "string",
							"name": "date",
							"type": "string"
						},
						{
							"internalType": "string",
							"name": "degree",
							"type": "string"
						},
						{
							"internalType": "string",
							"name": "knowledgeAcquired",
							"type": "string"
						},
						{
							"internalType": "string",
							"name": "instutionName",
							"type": "string"
						}
					],
					"stateMutability": "view",
					"type": "function"
				},
				{
					"inputs": [
						{
							"internalType": "uint256",
							"name": "",
							"type": "uint256"
						}
					],
					"name": "experienceDetails",
					"outputs": [
						{
							"internalType": "uint256",
							"name": "id",
							"type": "uint256"
						},
						{
							"internalType": "string",
							"name": "date",
							"type": "string"
						},
						{
							"internalType": "string",
							"name": "post",
							"type": "string"
						},
						{
							"internalType": "string",
							"name": "knowledgeAcquired",
							"type": "string"
						},
						{
							"internalType": "string",
							"name": "compamyName",
							"type": "string"
						}
					],
					"stateMutability": "view",
					"type": "function"
				},
				{
					"inputs": [],
					"name": "imageLink",
					"outputs": [
						{
							"internalType": "string",
							"name": "",
							"type": "string"
						}
					],
					"stateMutability": "view",
					"type": "function"
				},
				{
					"inputs": [
						{
							"internalType": "string",
							"name": "_date",
							"type": "string"
						},
						{
							"internalType": "string",
							"name": "_degree",
							"type": "string"
						},
						{
							"internalType": "string",
							"name": "_knowledgeAcquired",
							"type": "string"
						},
						{
							"internalType": "string",
							"name": "_instutionName",
							"type": "string"
						}
					],
					"name": "insertEducation",
					"outputs": [],
					"stateMutability": "nonpayable",
					"type": "function"
				},
				{
					"inputs": [
						{
							"internalType": "string",
							"name": "_date",
							"type": "string"
						},
						{
							"internalType": "string",
							"name": "_post",
							"type": "string"
						},
						{
							"internalType": "string",
							"name": "_knowledgeAcquired",
							"type": "string"
						},
						{
							"internalType": "string",
							"name": "_companyName",
							"type": "string"
						}
					],
					"name": "insertExperience",
					"outputs": [],
					"stateMutability": "nonpayable",
					"type": "function"
				},
				{
					"inputs": [
						{
							"internalType": "string",
							"name": "_name",
							"type": "string"
						},
						{
							"internalType": "string",
							"name": "_description",
							"type": "string"
						},
						{
							"internalType": "string",
							"name": "_image",
							"type": "string"
						},
						{
							"internalType": "string",
							"name": "_githubLink",
							"type": "string"
						}
					],
					"name": "insertProject",
					"outputs": [],
					"stateMutability": "nonpayable",
					"type": "function"
				},
				{
					"inputs": [],
					"name": "owner",
					"outputs": [
						{
							"internalType": "address",
							"name": "",
							"type": "address"
						}
					],
					"stateMutability": "view",
					"type": "function"
				},
				{
					"inputs": [
						{
							"internalType": "uint256",
							"name": "",
							"type": "uint256"
						}
					],
					"name": "projects",
					"outputs": [
						{
							"internalType": "uint256",
							"name": "id",
							"type": "uint256"
						},
						{
							"internalType": "string",
							"name": "name",
							"type": "string"
						},
						{
							"internalType": "string",
							"name": "description",
							"type": "string"
						},
						{
							"internalType": "string",
							"name": "image",
							"type": "string"
						},
						{
							"internalType": "string",
							"name": "githubLink",
							"type": "string"
						}
					],
					"stateMutability": "view",
					"type": "function"
				},
				{
					"inputs": [],
					"name": "resumeLink",
					"outputs": [
						{
							"internalType": "string",
							"name": "",
							"type": "string"
						}
					],
					"stateMutability": "view",
					"type": "function"
				}
			],
			"devdoc": {
				"kind": "dev",
				"methods": {},
				"version": 1
			},
			"evm": {
				"assembly": "    /* \"contracts/Portfolio.sol\":58:5059  contract Portfolio {... */\n  mstore(0x40, 0x80)\n    /* \"contracts/Portfolio.sol\":1537:1609  string public imageLink=\"Qmaa53YdQpXBucFvS8SJRWNrNk467WmU5ewVz6NidpT4Lg\" */\n  mload(0x40)\n  dup1\n  0x60\n  add\n  0x40\n  mstore\n  dup1\n  0x2e\n  dup2\n  mstore\n  0x20\n  add\n  data_4a5852362ab1fefd54e93794045bbb47ed07bad0d097229c3cdfe15e7c9fbf51\n  0x2e\n  swap2\n  codecopy\n  0x6e\n  swap1\n  dup2\n  tag_1\n  swap2\n  swap1\n  tag_2\n  jump\t// in\ntag_1:\n  pop\n    /* \"contracts/Portfolio.sol\":1611:1755  string public description=\"Over six months of relevant experience and solid expertise in blockchain development.I contribute to web3 community.\" */\n  mload(0x40)\n  dup1\n  0xa0\n  add\n  0x40\n  mstore\n  dup1\n  0x74\n  dup2\n  mstore\n  0x20\n  add\n  data_d0d44c0deed019bb87ecbff24f3daa207bbf63ebdf69e0d584202458737c9c3f\n  0x74\n  swap2\n  codecopy\n  0x6f\n  swap1\n  dup2\n  tag_3\n  swap2\n  swap1\n  tag_2\n  jump\t// in\ntag_3:\n  pop\n    /* \"contracts/Portfolio.sol\":1757:1830  string public resumeLink=\"QmcDBQSWSTgQdbZSek1fNkXAAZSbB8DXC66stBegbkkDgW\" */\n  mload(0x40)\n  dup1\n  0x60\n  add\n  0x40\n  mstore\n  dup1\n  0x2e\n  dup2\n  mstore\n  0x20\n  add\n  data_c6eb57c683ef9536f03fa30a3d02fa0eb3e32154bc442c4b320d7e5640c19213\n  0x2e\n  swap2\n  codecopy\n  0x70\n  swap1\n  dup2\n  tag_4\n  swap2\n  swap1\n  tag_2\n  jump\t// in\ntag_4:\n  pop\n    /* \"contracts/Portfolio.sol\":1930:1967  constructor() {... */\n  callvalue\n  dup1\n  iszero\n  tag_5\n  jumpi\n  0x00\n  dup1\n  revert\ntag_5:\n  pop\n    /* \"contracts/Portfolio.sol\":1954:1964  msg.sender */\n  caller\n    /* \"contracts/Portfolio.sol\":1946:1951  owner */\n  0x74\n  0x00\n    /* \"contracts/Portfolio.sol\":1946:1964  owner = msg.sender */\n  0x0100\n  exp\n  dup2\n  sload\n  dup2\n  0xffffffffffffffffffffffffffffffffffffffff\n  mul\n  not\n  and\n  swap1\n  dup4\n  0xffffffffffffffffffffffffffffffffffffffff\n  and\n  mul\n  or\n  swap1\n  sstore\n  pop\n    /* \"contracts/Portfolio.sol\":58:5059  contract Portfolio {... */\n  jump(tag_8)\n    /* \"#utility.yul\":7:106   */\ntag_9:\n    /* \"#utility.yul\":59:65   */\n  0x00\n    /* \"#utility.yul\":93:98   */\n  dup2\n    /* \"#utility.yul\":87:99   */\n  mload\n    /* \"#utility.yul\":77:99   */\n  swap1\n  pop\n    /* \"#utility.yul\":7:106   */\n  swap2\n  swap1\n  pop\n  jump\t// out\n    /* \"#utility.yul\":112:292   */\ntag_10:\n    /* \"#utility.yul\":160:237   */\n  0x4e487b7100000000000000000000000000000000000000000000000000000000\n    /* \"#utility.yul\":157:158   */\n  0x00\n    /* \"#utility.yul\":150:238   */\n  mstore\n    /* \"#utility.yul\":257:261   */\n  0x41\n    /* \"#utility.yul\":254:255   */\n  0x04\n    /* \"#utility.yul\":247:262   */\n  mstore\n    /* \"#utility.yul\":281:285   */\n  0x24\n    /* \"#utility.yul\":278:279   */\n  0x00\n    /* \"#utility.yul\":271:286   */\n  revert\n    /* \"#utility.yul\":298:478   */\ntag_11:\n    /* \"#utility.yul\":346:423   */\n  0x4e487b7100000000000000000000000000000000000000000000000000000000\n    /* \"#utility.yul\":343:344   */\n  0x00\n    /* \"#utility.yul\":336:424   */\n  mstore\n    /* \"#utility.yul\":443:447   */\n  0x22\n    /* \"#utility.yul\":440:441   */\n  0x04\n    /* \"#utility.yul\":433:448   */\n  mstore\n    /* \"#utility.yul\":467:471   */\n  0x24\n    /* \"#utility.yul\":464:465   */\n  0x00\n    /* \"#utility.yul\":457:472   */\n  revert\n    /* \"#utility.yul\":484:804   */\ntag_12:\n    /* \"#utility.yul\":528:534   */\n  0x00\n    /* \"#utility.yul\":565:566   */\n  0x02\n    /* \"#utility.yul\":559:563   */\n  dup3\n    /* \"#utility.yul\":555:567   */\n  div\n    /* \"#utility.yul\":545:567   */\n  swap1\n  pop\n    /* \"#utility.yul\":612:613   */\n  0x01\n    /* \"#utility.yul\":606:610   */\n  dup3\n    /* \"#utility.yul\":602:614   */\n  and\n    /* \"#utility.yul\":633:651   */\n  dup1\n    /* \"#utility.yul\":623:704   */\n  tag_34\n  jumpi\n    /* \"#utility.yul\":689:693   */\n  0x7f\n    /* \"#utility.yul\":681:687   */\n  dup3\n    /* \"#utility.yul\":677:694   */\n  and\n    /* \"#utility.yul\":667:694   */\n  swap2\n  pop\n    /* \"#utility.yul\":623:704   */\ntag_34:\n    /* \"#utility.yul\":751:753   */\n  0x20\n    /* \"#utility.yul\":743:749   */\n  dup3\n    /* \"#utility.yul\":740:754   */\n  lt\n    /* \"#utility.yul\":720:738   */\n  dup2\n    /* \"#utility.yul\":717:755   */\n  sub\n    /* \"#utility.yul\":714:798   */\n  tag_35\n  jumpi\n    /* \"#utility.yul\":770:788   */\n  tag_36\n  tag_11\n  jump\t// in\ntag_36:\n    /* \"#utility.yul\":714:798   */\ntag_35:\n    /* \"#utility.yul\":535:804   */\n  pop\n    /* \"#utility.yul\":484:804   */\n  swap2\n  swap1\n  pop\n  jump\t// out\n    /* \"#utility.yul\":810:951   */\ntag_13:\n    /* \"#utility.yul\":859:863   */\n  0x00\n    /* \"#utility.yul\":882:885   */\n  dup2\n    /* \"#utility.yul\":874:885   */\n  swap1\n  pop\n    /* \"#utility.yul\":905:908   */\n  dup2\n    /* \"#utility.yul\":902:903   */\n  0x00\n    /* \"#utility.yul\":895:909   */\n  mstore\n    /* \"#utility.yul\":939:943   */\n  0x20\n    /* \"#utility.yul\":936:937   */\n  0x00\n    /* \"#utility.yul\":926:944   */\n  keccak256\n    /* \"#utility.yul\":918:944   */\n  swap1\n  pop\n    /* \"#utility.yul\":810:951   */\n  swap2\n  swap1\n  pop\n  jump\t// out\n    /* \"#utility.yul\":957:1050   */\ntag_14:\n    /* \"#utility.yul\":994:1000   */\n  0x00\n    /* \"#utility.yul\":1041:1043   */\n  0x20\n    /* \"#utility.yul\":1036:1038   */\n  0x1f\n    /* \"#utility.yul\":1029:1034   */\n  dup4\n    /* \"#utility.yul\":1025:1039   */\n  add\n    /* \"#utility.yul\":1021:1044   */\n  div\n    /* \"#utility.yul\":1011:1044   */\n  swap1\n  pop\n    /* \"#utility.yul\":957:1050   */\n  swap2\n  swap1\n  pop\n  jump\t// out\n    /* \"#utility.yul\":1056:1163   */\ntag_15:\n    /* \"#utility.yul\":1100:1108   */\n  0x00\n    /* \"#utility.yul\":1150:1155   */\n  dup3\n    /* \"#utility.yul\":1144:1148   */\n  dup3\n    /* \"#utility.yul\":1140:1156   */\n  shl\n    /* \"#utility.yul\":1119:1156   */\n  swap1\n  pop\n    /* \"#utility.yul\":1056:1163   */\n  swap3\n  swap2\n  pop\n  pop\n  jump\t// out\n    /* \"#utility.yul\":1169:1562   */\ntag_16:\n    /* \"#utility.yul\":1238:1244   */\n  0x00\n    /* \"#utility.yul\":1288:1289   */\n  0x08\n    /* \"#utility.yul\":1276:1286   */\n  dup4\n    /* \"#utility.yul\":1272:1290   */\n  mul\n    /* \"#utility.yul\":1311:1408   */\n  tag_41\n    /* \"#utility.yul\":1341:1407   */\n  0xffffffffffffffffffffffffffffffffffffffffffffffffffffffffffffffff\n    /* \"#utility.yul\":1330:1339   */\n  dup3\n    /* \"#utility.yul\":1311:1408   */\n  tag_15\n  jump\t// in\ntag_41:\n    /* \"#utility.yul\":1429:1468   */\n  tag_42\n    /* \"#utility.yul\":1459:1467   */\n  dup7\n    /* \"#utility.yul\":1448:1457   */\n  dup4\n    /* \"#utility.yul\":1429:1468   */\n  tag_15\n  jump\t// in\ntag_42:\n    /* \"#utility.yul\":1417:1468   */\n  swap6\n  pop\n    /* \"#utility.yul\":1501:1505   */\n  dup1\n    /* \"#utility.yul\":1497:1506   */\n  not\n    /* \"#utility.yul\":1490:1495   */\n  dup5\n    /* \"#utility.yul\":1486:1507   */\n  and\n    /* \"#utility.yul\":1477:1507   */\n  swap4\n  pop\n    /* \"#utility.yul\":1550:1554   */\n  dup1\n    /* \"#utility.yul\":1540:1548   */\n  dup7\n    /* \"#utility.yul\":1536:1555   */\n  and\n    /* \"#utility.yul\":1529:1534   */\n  dup5\n    /* \"#utility.yul\":1526:1556   */\n  or\n    /* \"#utility.yul\":1516:1556   */\n  swap3\n  pop\n    /* \"#utility.yul\":1245:1562   */\n  pop\n  pop\n    /* \"#utility.yul\":1169:1562   */\n  swap4\n  swap3\n  pop\n  pop\n  pop\n  jump\t// out\n    /* \"#utility.yul\":1568:1645   */\ntag_17:\n    /* \"#utility.yul\":1605:1612   */\n  0x00\n    /* \"#utility.yul\":1634:1639   */\n  dup2\n    /* \"#utility.yul\":1623:1639   */\n  swap1\n  pop\n    /* \"#utility.yul\":1568:1645   */\n  swap2\n  swap1\n  pop\n  jump\t// out\n    /* \"#utility.yul\":1651:1711   */\ntag_18:\n    /* \"#utility.yul\":1679:1682   */\n  0x00\n    /* \"#utility.yul\":1700:1705   */\n  dup2\n    /* \"#utility.yul\":1693:1705   */\n  swap1\n  pop\n    /* \"#utility.yul\":1651:1711   */\n  swap2\n  swap1\n  pop\n  jump\t// out\n    /* \"#utility.yul\":1717:1859   */\ntag_19:\n    /* \"#utility.yul\":1767:1776   */\n  0x00\n    /* \"#utility.yul\":1800:1853   */\n  tag_46\n    /* \"#utility.yul\":1818:1852   */\n  tag_47\n    /* \"#utility.yul\":1827:1851   */\n  tag_48\n    /* \"#utility.yul\":1845:1850   */\n  dup5\n    /* \"#utility.yul\":1827:1851   */\n  tag_17\n  jump\t// in\ntag_48:\n    /* \"#utility.yul\":1818:1852   */\n  tag_18\n  jump\t// in\ntag_47:\n    /* \"#utility.yul\":1800:1853   */\n  tag_17\n  jump\t// in\ntag_46:\n    /* \"#utility.yul\":1787:1853   */\n  swap1\n  pop\n    /* \"#utility.yul\":1717:1859   */\n  swap2\n  swap1\n  pop\n  jump\t// out\n    /* \"#utility.yul\":1865:1940   */\ntag_20:\n    /* \"#utility.yul\":1908:1911   */\n  0x00\n    /* \"#utility.yul\":1929:1934   */\n  dup2\n    /* \"#utility.yul\":1922:1934   */\n  swap1\n  pop\n    /* \"#utility.yul\":1865:1940   */\n  swap2\n  swap1\n  pop\n  jump\t// out\n    /* \"#utility.yul\":1946:2215   */\ntag_21:\n    /* \"#utility.yul\":2056:2095   */\n  tag_51\n    /* \"#utility.yul\":2087:2094   */\n  dup4\n    /* \"#utility.yul\":2056:2095   */\n  tag_19\n  jump\t// in\ntag_51:\n    /* \"#utility.yul\":2117:2208   */\n  tag_52\n    /* \"#utility.yul\":2166:2207   */\n  tag_53\n    /* \"#utility.yul\":2190:2206   */\n  dup3\n    /* \"#utility.yul\":2166:2207   */\n  tag_20\n  jump\t// in\ntag_53:\n    /* \"#utility.yul\":2158:2164   */\n  dup5\n    /* \"#utility.yul\":2151:2155   */\n  dup5\n    /* \"#utility.yul\":2145:2156   */\n  sload\n    /* \"#utility.yul\":2117:2208   */\n  tag_16\n  jump\t// in\ntag_52:\n    /* \"#utility.yul\":2111:2115   */\n  dup3\n    /* \"#utility.yul\":2104:2209   */\n  sstore\n    /* \"#utility.yul\":2022:2215   */\n  pop\n    /* \"#utility.yul\":1946:2215   */\n  pop\n  pop\n  pop\n  jump\t// out\n    /* \"#utility.yul\":2221:2294   */\ntag_22:\n    /* \"#utility.yul\":2266:2269   */\n  0x00\n    /* \"#utility.yul\":2221:2294   */\n  swap1\n  jump\t// out\n    /* \"#utility.yul\":2300:2489   */\ntag_23:\n    /* \"#utility.yul\":2377:2409   */\n  tag_56\n  tag_22\n  jump\t// in\ntag_56:\n    /* \"#utility.yul\":2418:2483   */\n  tag_57\n    /* \"#utility.yul\":2476:2482   */\n  dup2\n    /* \"#utility.yul\":2468:2474   */\n  dup5\n    /* \"#utility.yul\":2462:2466   */\n  dup5\n    /* \"#utility.yul\":2418:2483   */\n  tag_21\n  jump\t// in\ntag_57:\n    /* \"#utility.yul\":2353:2489   */\n  pop\n    /* \"#utility.yul\":2300:2489   */\n  pop\n  pop\n  jump\t// out\n    /* \"#utility.yul\":2495:2681   */\ntag_24:\n    /* \"#utility.yul\":2555:2675   */\ntag_59:\n    /* \"#utility.yul\":2572:2575   */\n  dup2\n    /* \"#utility.yul\":2565:2570   */\n  dup2\n    /* \"#utility.yul\":2562:2576   */\n  lt\n    /* \"#utility.yul\":2555:2675   */\n  iszero\n  tag_61\n  jumpi\n    /* \"#utility.yul\":2626:2665   */\n  tag_62\n    /* \"#utility.yul\":2663:2664   */\n  0x00\n    /* \"#utility.yul\":2656:2661   */\n  dup3\n    /* \"#utility.yul\":2626:2665   */\n  tag_23\n  jump\t// in\ntag_62:\n    /* \"#utility.yul\":2599:2600   */\n  0x01\n    /* \"#utility.yul\":2592:2597   */\n  dup2\n    /* \"#utility.yul\":2588:2601   */\n  add\n    /* \"#utility.yul\":2579:2601   */\n  swap1\n  pop\n    /* \"#utility.yul\":2555:2675   */\n  jump(tag_59)\ntag_61:\n    /* \"#utility.yul\":2495:2681   */\n  pop\n  pop\n  jump\t// out\n    /* \"#utility.yul\":2687:3230   */\ntag_25:\n    /* \"#utility.yul\":2788:2790   */\n  0x1f\n    /* \"#utility.yul\":2783:2786   */\n  dup3\n    /* \"#utility.yul\":2780:2791   */\n  gt\n    /* \"#utility.yul\":2777:3223   */\n  iszero\n  tag_64\n  jumpi\n    /* \"#utility.yul\":2822:2860   */\n  tag_65\n    /* \"#utility.yul\":2854:2859   */\n  dup2\n    /* \"#utility.yul\":2822:2860   */\n  tag_13\n  jump\t// in\ntag_65:\n    /* \"#utility.yul\":2906:2935   */\n  tag_66\n    /* \"#utility.yul\":2924:2934   */\n  dup5\n    /* \"#utility.yul\":2906:2935   */\n  tag_14\n  jump\t// in\ntag_66:\n    /* \"#utility.yul\":2896:2904   */\n  dup2\n    /* \"#utility.yul\":2892:2936   */\n  add\n    /* \"#utility.yul\":3089:3091   */\n  0x20\n    /* \"#utility.yul\":3077:3087   */\n  dup6\n    /* \"#utility.yul\":3074:3092   */\n  lt\n    /* \"#utility.yul\":3071:3120   */\n  iszero\n  tag_67\n  jumpi\n    /* \"#utility.yul\":3110:3118   */\n  dup2\n    /* \"#utility.yul\":3095:3118   */\n  swap1\n  pop\n    /* \"#utility.yul\":3071:3120   */\ntag_67:\n    /* \"#utility.yul\":3133:3213   */\n  tag_68\n    /* \"#utility.yul\":3189:3211   */\n  tag_69\n    /* \"#utility.yul\":3207:3210   */\n  dup6\n    /* \"#utility.yul\":3189:3211   */\n  tag_14\n  jump\t// in\ntag_69:\n    /* \"#utility.yul\":3179:3187   */\n  dup4\n    /* \"#utility.yul\":3175:3212   */\n  add\n    /* \"#utility.yul\":3162:3173   */\n  dup3\n    /* \"#utility.yul\":3133:3213   */\n  tag_24\n  jump\t// in\ntag_68:\n    /* \"#utility.yul\":2792:3223   */\n  pop\n  pop\n    /* \"#utility.yul\":2777:3223   */\ntag_64:\n    /* \"#utility.yul\":2687:3230   */\n  pop\n  pop\n  pop\n  jump\t// out\n    /* \"#utility.yul\":3236:3353   */\ntag_26:\n    /* \"#utility.yul\":3290:3298   */\n  0x00\n    /* \"#utility.yul\":3340:3345   */\n  dup3\n    /* \"#utility.yul\":3334:3338   */\n  dup3\n    /* \"#utility.yul\":3330:3346   */\n  shr\n    /* \"#utility.yul\":3309:3346   */\n  swap1\n  pop\n    /* \"#utility.yul\":3236:3353   */\n  swap3\n  swap2\n  pop\n  pop\n  jump\t// out\n    /* \"#utility.yul\":3359:3528   */\ntag_27:\n    /* \"#utility.yul\":3403:3409   */\n  0x00\n    /* \"#utility.yul\":3436:3487   */\n  tag_72\n    /* \"#utility.yul\":3484:3485   */\n  0x00\n    /* \"#utility.yul\":3480:3486   */\n  not\n    /* \"#utility.yul\":3472:3477   */\n  dup5\n    /* \"#utility.yul\":3469:3470   */\n  0x08\n    /* \"#utility.yul\":3465:3478   */\n  mul\n    /* \"#utility.yul\":3436:3487   */\n  tag_26\n  jump\t// in\ntag_72:\n    /* \"#utility.yul\":3432:3488   */\n  not\n    /* \"#utility.yul\":3517:3521   */\n  dup1\n    /* \"#utility.yul\":3511:3515   */\n  dup4\n    /* \"#utility.yul\":3507:3522   */\n  and\n    /* \"#utility.yul\":3497:3522   */\n  swap2\n  pop\n    /* \"#utility.yul\":3410:3528   */\n  pop\n    /* \"#utility.yul\":3359:3528   */\n  swap3\n  swap2\n  pop\n  pop\n  jump\t// out\n    /* \"#utility.yul\":3533:3828   */\ntag_28:\n    /* \"#utility.yul\":3609:3613   */\n  0x00\n    /* \"#utility.yul\":3755:3784   */\n  tag_74\n    /* \"#utility.yul\":3780:3783   */\n  dup4\n    /* \"#utility.yul\":3774:3778   */\n  dup4\n    /* \"#utility.yul\":3755:3784   */\n  tag_27\n  jump\t// in\ntag_74:\n    /* \"#utility.yul\":3747:3784   */\n  swap2\n  pop\n    /* \"#utility.yul\":3817:3820   */\n  dup3\n    /* \"#utility.yul\":3814:3815   */\n  0x02\n    /* \"#utility.yul\":3810:3821   */\n  mul\n    /* \"#utility.yul\":3804:3808   */\n  dup3\n    /* \"#utility.yul\":3801:3822   */\n  or\n    /* \"#utility.yul\":3793:3822   */\n  swap1\n  pop\n    /* \"#utility.yul\":3533:3828   */\n  swap3\n  swap2\n  pop\n  pop\n  jump\t// out\n    /* \"#utility.yul\":3833:5228   */\ntag_2:\n    /* \"#utility.yul\":3950:3987   */\n  tag_76\n    /* \"#utility.yul\":3983:3986   */\n  dup3\n    /* \"#utility.yul\":3950:3987   */\n  tag_9\n  jump\t// in\ntag_76:\n    /* \"#utility.yul\":4052:4070   */\n  0xffffffffffffffff\n    /* \"#utility.yul\":4044:4050   */\n  dup2\n    /* \"#utility.yul\":4041:4071   */\n  gt\n    /* \"#utility.yul\":4038:4094   */\n  iszero\n  tag_77\n  jumpi\n    /* \"#utility.yul\":4074:4092   */\n  tag_78\n  tag_10\n  jump\t// in\ntag_78:\n    /* \"#utility.yul\":4038:4094   */\ntag_77:\n    /* \"#utility.yul\":4118:4156   */\n  tag_79\n    /* \"#utility.yul\":4150:4154   */\n  dup3\n    /* \"#utility.yul\":4144:4155   */\n  sload\n    /* \"#utility.yul\":4118:4156   */\n  tag_12\n  jump\t// in\ntag_79:\n    /* \"#utility.yul\":4203:4270   */\n  tag_80\n    /* \"#utility.yul\":4263:4269   */\n  dup3\n    /* \"#utility.yul\":4255:4261   */\n  dup3\n    /* \"#utility.yul\":4249:4253   */\n  dup6\n    /* \"#utility.yul\":4203:4270   */\n  tag_25\n  jump\t// in\ntag_80:\n    /* \"#utility.yul\":4297:4298   */\n  0x00\n    /* \"#utility.yul\":4321:4325   */\n  0x20\n    /* \"#utility.yul\":4308:4325   */\n  swap1\n  pop\n    /* \"#utility.yul\":4353:4355   */\n  0x1f\n    /* \"#utility.yul\":4345:4351   */\n  dup4\n    /* \"#utility.yul\":4342:4356   */\n  gt\n    /* \"#utility.yul\":4370:4371   */\n  0x01\n    /* \"#utility.yul\":4365:4983   */\n  dup2\n  eq\n  tag_82\n  jumpi\n    /* \"#utility.yul\":5027:5028   */\n  0x00\n    /* \"#utility.yul\":5044:5050   */\n  dup5\n    /* \"#utility.yul\":5041:5118   */\n  iszero\n  tag_83\n  jumpi\n    /* \"#utility.yul\":5093:5102   */\n  dup3\n    /* \"#utility.yul\":5088:5091   */\n  dup8\n    /* \"#utility.yul\":5084:5103   */\n  add\n    /* \"#utility.yul\":5078:5104   */\n  mload\n    /* \"#utility.yul\":5069:5104   */\n  swap1\n  pop\n    /* \"#utility.yul\":5041:5118   */\ntag_83:\n    /* \"#utility.yul\":5144:5211   */\n  tag_84\n    /* \"#utility.yul\":5204:5210   */\n  dup6\n    /* \"#utility.yul\":5197:5202   */\n  dup3\n    /* \"#utility.yul\":5144:5211   */\n  tag_28\n  jump\t// in\ntag_84:\n    /* \"#utility.yul\":5138:5142   */\n  dup7\n    /* \"#utility.yul\":5131:5212   */\n  sstore\n    /* \"#utility.yul\":5000:5222   */\n  pop\n    /* \"#utility.yul\":4335:5222   */\n  jump(tag_81)\n    /* \"#utility.yul\":4365:4983   */\ntag_82:\n    /* \"#utility.yul\":4417:4421   */\n  0x1f\n    /* \"#utility.yul\":4413:4422   */\n  not\n    /* \"#utility.yul\":4405:4411   */\n  dup5\n    /* \"#utility.yul\":4401:4423   */\n  and\n    /* \"#utility.yul\":4451:4488   */\n  tag_85\n    /* \"#utility.yul\":4483:4487   */\n  dup7\n    /* \"#utility.yul\":4451:4488   */\n  tag_13\n  jump\t// in\ntag_85:\n    /* \"#utility.yul\":4510:4511   */\n  0x00\n    /* \"#utility.yul\":4524:4732   */\ntag_86:\n    /* \"#utility.yul\":4538:4545   */\n  dup3\n    /* \"#utility.yul\":4535:4536   */\n  dup2\n    /* \"#utility.yul\":4532:4546   */\n  lt\n    /* \"#utility.yul\":4524:4732   */\n  iszero\n  tag_88\n  jumpi\n    /* \"#utility.yul\":4617:4626   */\n  dup5\n    /* \"#utility.yul\":4612:4615   */\n  dup10\n    /* \"#utility.yul\":4608:4627   */\n  add\n    /* \"#utility.yul\":4602:4628   */\n  mload\n    /* \"#utility.yul\":4594:4600   */\n  dup3\n    /* \"#utility.yul\":4587:4629   */\n  sstore\n    /* \"#utility.yul\":4668:4669   */\n  0x01\n    /* \"#utility.yul\":4660:4666   */\n  dup3\n    /* \"#utility.yul\":4656:4670   */\n  add\n    /* \"#utility.yul\":4646:4670   */\n  swap2\n  pop\n    /* \"#utility.yul\":4715:4717   */\n  0x20\n    /* \"#utility.yul\":4704:4713   */\n  dup6\n    /* \"#utility.yul\":4700:4718   */\n  add\n    /* \"#utility.yul\":4687:4718   */\n  swap5\n  pop\n    /* \"#utility.yul\":4561:4565   */\n  0x20\n    /* \"#utility.yul\":4558:4559   */\n  dup2\n    /* \"#utility.yul\":4554:4566   */\n  add\n    /* \"#utility.yul\":4549:4566   */\n  swap1\n  pop\n    /* \"#utility.yul\":4524:4732   */\n  jump(tag_86)\ntag_88:\n    /* \"#utility.yul\":4760:4766   */\n  dup7\n    /* \"#utility.yul\":4751:4758   */\n  dup4\n    /* \"#utility.yul\":4748:4767   */\n  lt\n    /* \"#utility.yul\":4745:4924   */\n  iszero\n  tag_89\n  jumpi\n    /* \"#utility.yul\":4818:4827   */\n  dup5\n    /* \"#utility.yul\":4813:4816   */\n  dup10\n    /* \"#utility.yul\":4809:4828   */\n  add\n    /* \"#utility.yul\":4803:4829   */\n  mload\n    /* \"#utility.yul\":4861:4909   */\n  tag_90\n    /* \"#utility.yul\":4903:4907   */\n  0x1f\n    /* \"#utility.yul\":4895:4901   */\n  dup10\n    /* \"#utility.yul\":4891:4908   */\n  and\n    /* \"#utility.yul\":4880:4889   */\n  dup3\n    /* \"#utility.yul\":4861:4909   */\n  tag_27\n  jump\t// in\ntag_90:\n    /* \"#utility.yul\":4853:4859   */\n  dup4\n    /* \"#utility.yul\":4846:4910   */\n  sstore\n    /* \"#utility.yul\":4768:4924   */\n  pop\n    /* \"#utility.yul\":4745:4924   */\ntag_89:\n    /* \"#utility.yul\":4970:4971   */\n  0x01\n    /* \"#utility.yul\":4966:4967   */\n  0x02\n    /* \"#utility.yul\":4958:4964   */\n  dup9\n    /* \"#utility.yul\":4954:4968   */\n  mul\n    /* \"#utility.yul\":4950:4972   */\n  add\n    /* \"#utility.yul\":4944:4948   */\n  dup9\n    /* \"#utility.yul\":4937:4973   */\n  sstore\n    /* \"#utility.yul\":4372:4983   */\n  pop\n  pop\n  pop\n    /* \"#utility.yul\":4335:5222   */\ntag_81:\n  pop\n    /* \"#utility.yul\":3925:5228   */\n  pop\n  pop\n  pop\n    /* \"#utility.yul\":3833:5228   */\n  pop\n  pop\n  jump\t// out\n    /* \"contracts/Portfolio.sol\":58:5059  contract Portfolio {... */\ntag_8:\n  dataSize(sub_0)\n  dup1\n  dataOffset(sub_0)\n  0x00\n  codecopy\n  0x00\n  return\nstop\ndata_4a5852362ab1fefd54e93794045bbb47ed07bad0d097229c3cdfe15e7c9fbf51 516d61613533596451705842756346765338534a52574e724e6b343637576d55356577567a364e69647054344c67\ndata_c6eb57c683ef9536f03fa30a3d02fa0eb3e32154bc442c4b320d7e5640c19213 516d6344425153575354675164625a53656b31664e6b5841415a5362423844584336367374426567626b6b446757\ndata_d0d44c0deed019bb87ecbff24f3daa207bbf63ebdf69e0d584202458737c9c3f 4f76657220736978206d6f6e746873206f662072656c6576616e7420657870657269656e636520616e6420736f6c69642065787065727469736520696e20626c6f636b636861696e20646576656c6f706d656e742e4920636f6e7472696275746520746f207765623320636f6d6d756e6974792e\n\nsub_0: assembly {\n        /* \"contracts/Portfolio.sol\":58:5059  contract Portfolio {... */\n      mstore(0x40, 0x80)\n      jumpi(tag_1, lt(calldatasize, 0x04))\n      shr(0xe0, calldataload(0x00))\n      dup1\n      0x6fe8e0bd\n      gt\n      tag_22\n      jumpi\n      dup1\n      0xcaf7b759\n      gt\n      tag_23\n      jumpi\n      dup1\n      0xcaf7b759\n      eq\n      tag_17\n      jumpi\n      dup1\n      0xd3cedf11\n      eq\n      tag_18\n      jumpi\n      dup1\n      0xd921fa82\n      eq\n      tag_19\n      jumpi\n      dup1\n      0xe6120413\n      eq\n      tag_20\n      jumpi\n      dup1\n      0xed88c68e\n      eq\n      tag_21\n      jumpi\n      jump(tag_1)\n    tag_23:\n      dup1\n      0x6fe8e0bd\n      eq\n      tag_12\n      jumpi\n      dup1\n      0x7284e416\n      eq\n      tag_13\n      jumpi\n      dup1\n      0x7aea95aa\n      eq\n      tag_14\n      jumpi\n      dup1\n      0x8da5cb5b\n      eq\n      tag_15\n      jumpi\n      dup1\n      0x98f831b6\n      eq\n      tag_16\n      jumpi\n      jump(tag_1)\n    tag_22:\n      dup1\n      0x598e7f37\n      gt\n      tag_24\n      jumpi\n      dup1\n      0x598e7f37\n      eq\n      tag_7\n      jumpi\n      dup1\n      0x5b173a69\n      eq\n      tag_8\n      jumpi\n      dup1\n      0x5cea6a7c\n      eq\n      tag_9\n      jumpi\n      dup1\n      0x5d85a1f4\n      eq\n      tag_10\n      jumpi\n      dup1\n      0x6426d4c3\n      eq\n      tag_11\n      jumpi\n      jump(tag_1)\n    tag_24:\n      dup1\n      0x107046bd\n      eq\n      tag_2\n      jumpi\n      dup1\n      0x10ef62c5\n      eq\n      tag_3\n      jumpi\n      dup1\n      0x2adf13b2\n      eq\n      tag_4\n      jumpi\n      dup1\n      0x36eea422\n      eq\n      tag_5\n      jumpi\n      dup1\n      0x5397c6ec\n      eq\n      tag_6\n      jumpi\n    tag_1:\n      0x00\n      dup1\n      revert\n        /* \"contracts/Portfolio.sol\":1428:1455  Project[14] public projects */\n    tag_2:\n      callvalue\n      dup1\n      iszero\n      tag_25\n      jumpi\n      0x00\n      dup1\n      revert\n    tag_25:\n      pop\n      tag_26\n      0x04\n      dup1\n      calldatasize\n      sub\n      dup2\n      add\n      swap1\n      tag_27\n      swap2\n      swap1\n      tag_28\n      jump\t// in\n    tag_27:\n      tag_29\n      jump\t// in\n    tag_26:\n      mload(0x40)\n      tag_30\n      swap6\n      swap5\n      swap4\n      swap3\n      swap2\n      swap1\n      tag_31\n      jump\t// in\n    tag_30:\n      mload(0x40)\n      dup1\n      swap2\n      sub\n      swap1\n      return\n        /* \"contracts/Portfolio.sol\":1495:1533  Experience[4] public experienceDetails */\n    tag_3:\n      callvalue\n      dup1\n      iszero\n      tag_32\n      jumpi\n      0x00\n      dup1\n      revert\n    tag_32:\n      pop\n      tag_33\n      0x04\n      dup1\n      calldatasize\n      sub\n      dup2\n      add\n      swap1\n      tag_34\n      swap2\n      swap1\n      tag_28\n      jump\t// in\n    tag_34:\n      tag_35\n      jump\t// in\n    tag_33:\n      mload(0x40)\n      tag_36\n      swap6\n      swap5\n      swap4\n      swap3\n      swap2\n      swap1\n      tag_31\n      jump\t// in\n    tag_36:\n      mload(0x40)\n      dup1\n      swap2\n      sub\n      swap1\n      return\n        /* \"contracts/Portfolio.sol\":2710:2806  function allProjects() external view returns(Project[14] memory){... */\n    tag_4:\n      callvalue\n      dup1\n      iszero\n      tag_37\n      jumpi\n      0x00\n      dup1\n      revert\n    tag_37:\n      pop\n      tag_38\n      tag_39\n      jump\t// in\n    tag_38:\n      mload(0x40)\n      tag_40\n      swap2\n      swap1\n      tag_41\n      jump\t// in\n    tag_40:\n      mload(0x40)\n      dup1\n      swap2\n      sub\n      swap1\n      return\n        /* \"contracts/Portfolio.sol\":4493:4607  function allExperienceDetails() external view returns(Experience[4] memory){... */\n    tag_5:\n      callvalue\n      dup1\n      iszero\n      tag_42\n      jumpi\n      0x00\n      dup1\n      revert\n    tag_42:\n      pop\n      tag_43\n      tag_44\n      jump\t// in\n    tag_43:\n      mload(0x40)\n      tag_45\n      swap2\n      swap1\n      tag_46\n      jump\t// in\n    tag_45:\n      mload(0x40)\n      dup1\n      swap2\n      sub\n      swap1\n      return\n        /* \"contracts/Portfolio.sol\":3593:3699  function allEducationDetails() external view returns(Education[4] memory) {... */\n    tag_6:\n      callvalue\n      dup1\n      iszero\n      tag_47\n      jumpi\n      0x00\n      dup1\n      revert\n    tag_47:\n      pop\n      tag_48\n      tag_49\n      jump\t// in\n    tag_48:\n      mload(0x40)\n      tag_50\n      swap2\n      swap1\n      tag_51\n      jump\t// in\n    tag_50:\n      mload(0x40)\n      dup1\n      swap2\n      sub\n      swap1\n      return\n        /* \"contracts/Portfolio.sol\":4823:4922  function changeImageLink(string calldata _imageLink) external onlyOwner {... */\n    tag_7:\n      callvalue\n      dup1\n      iszero\n      tag_52\n      jumpi\n      0x00\n      dup1\n      revert\n    tag_52:\n      pop\n      tag_53\n      0x04\n      dup1\n      calldatasize\n      sub\n      dup2\n      add\n      swap1\n      tag_54\n      swap2\n      swap1\n      tag_55\n      jump\t// in\n    tag_54:\n      tag_56\n      jump\t// in\n    tag_53:\n      stop\n        /* \"contracts/Portfolio.sol\":3178:3590  function changeEducation(string calldata _date,string calldata _degree,string calldata _knowledgeAcquired,string calldata _instutionName,uint256 _educationDetailCount) external onlyOwner{... */\n    tag_8:\n      callvalue\n      dup1\n      iszero\n      tag_57\n      jumpi\n      0x00\n      dup1\n      revert\n    tag_57:\n      pop\n      tag_58\n      0x04\n      dup1\n      calldatasize\n      sub\n      dup2\n      add\n      swap1\n      tag_59\n      swap2\n      swap1\n      tag_60\n      jump\t// in\n    tag_59:\n      tag_61\n      jump\t// in\n    tag_58:\n      stop\n        /* \"contracts/Portfolio.sol\":1757:1830  string public resumeLink=\"QmcDBQSWSTgQdbZSek1fNkXAAZSbB8DXC66stBegbkkDgW\" */\n    tag_9:\n      callvalue\n      dup1\n      iszero\n      tag_62\n      jumpi\n      0x00\n      dup1\n      revert\n    tag_62:\n      pop\n      tag_63\n      tag_64\n      jump\t// in\n    tag_63:\n      mload(0x40)\n      tag_65\n      swap2\n      swap1\n      tag_66\n      jump\t// in\n    tag_65:\n      mload(0x40)\n      dup1\n      swap2\n      sub\n      swap1\n      return\n        /* \"contracts/Portfolio.sol\":3702:4067  function insertExperience(string calldata _date,string calldata _post,string calldata _knowledgeAcquired,string calldata _companyName) external onlyOwner{... */\n    tag_10:\n      callvalue\n      dup1\n      iszero\n      tag_67\n      jumpi\n      0x00\n      dup1\n      revert\n    tag_67:\n      pop\n      tag_68\n      0x04\n      dup1\n      calldatasize\n      sub\n      dup2\n      add\n      swap1\n      tag_69\n      swap2\n      swap1\n      tag_70\n      jump\t// in\n    tag_69:\n      tag_71\n      jump\t// in\n    tag_68:\n      stop\n        /* \"contracts/Portfolio.sol\":2054:2366  function insertProject(string calldata _name,string calldata _description,string calldata _image,string calldata _githubLink) external{... */\n    tag_11:\n      callvalue\n      dup1\n      iszero\n      tag_72\n      jumpi\n      0x00\n      dup1\n      revert\n    tag_72:\n      pop\n      tag_73\n      0x04\n      dup1\n      calldatasize\n      sub\n      dup2\n      add\n      swap1\n      tag_74\n      swap2\n      swap1\n      tag_70\n      jump\t// in\n    tag_74:\n      tag_75\n      jump\t// in\n    tag_73:\n      stop\n        /* \"contracts/Portfolio.sol\":2370:2706  function changeProject(string calldata _name,string calldata _description,string calldata _image,string calldata _githubLink,uint256 _projectCount) external{... */\n    tag_12:\n      callvalue\n      dup1\n      iszero\n      tag_76\n      jumpi\n      0x00\n      dup1\n      revert\n    tag_76:\n      pop\n      tag_77\n      0x04\n      dup1\n      calldatasize\n      sub\n      dup2\n      add\n      swap1\n      tag_78\n      swap2\n      swap1\n      tag_60\n      jump\t// in\n    tag_78:\n      tag_79\n      jump\t// in\n    tag_77:\n      stop\n        /* \"contracts/Portfolio.sol\":1611:1755  string public description=\"Over six months of relevant experience and solid expertise in blockchain development.I contribute to web3 community.\" */\n    tag_13:\n      callvalue\n      dup1\n      iszero\n      tag_80\n      jumpi\n      0x00\n      dup1\n      revert\n    tag_80:\n      pop\n      tag_81\n      tag_82\n      jump\t// in\n    tag_81:\n      mload(0x40)\n      tag_83\n      swap2\n      swap1\n      tag_66\n      jump\t// in\n    tag_83:\n      mload(0x40)\n      dup1\n      swap2\n      sub\n      swap1\n      return\n        /* \"contracts/Portfolio.sol\":1457:1493  Education[4] public educationDetails */\n    tag_14:\n      callvalue\n      dup1\n      iszero\n      tag_84\n      jumpi\n      0x00\n      dup1\n      revert\n    tag_84:\n      pop\n      tag_85\n      0x04\n      dup1\n      calldatasize\n      sub\n      dup2\n      add\n      swap1\n      tag_86\n      swap2\n      swap1\n      tag_28\n      jump\t// in\n    tag_86:\n      tag_87\n      jump\t// in\n    tag_85:\n      mload(0x40)\n      tag_88\n      swap6\n      swap5\n      swap4\n      swap3\n      swap2\n      swap1\n      tag_31\n      jump\t// in\n    tag_88:\n      mload(0x40)\n      dup1\n      swap2\n      sub\n      swap1\n      return\n        /* \"contracts/Portfolio.sol\":1906:1926  address public owner */\n    tag_15:\n      callvalue\n      dup1\n      iszero\n      tag_89\n      jumpi\n      0x00\n      dup1\n      revert\n    tag_89:\n      pop\n      tag_90\n      tag_91\n      jump\t// in\n    tag_90:\n      mload(0x40)\n      tag_92\n      swap2\n      swap1\n      tag_93\n      jump\t// in\n    tag_92:\n      mload(0x40)\n      dup1\n      swap2\n      sub\n      swap1\n      return\n        /* \"contracts/Portfolio.sol\":2808:3174  function insertEducation(string calldata _date,string calldata _degree,string calldata _knowledgeAcquired,string calldata _instutionName) external onlyOwner{... */\n    tag_16:\n      callvalue\n      dup1\n      iszero\n      tag_94\n      jumpi\n      0x00\n      dup1\n      revert\n    tag_94:\n      pop\n      tag_95\n      0x04\n      dup1\n      calldatasize\n      sub\n      dup2\n      add\n      swap1\n      tag_96\n      swap2\n      swap1\n      tag_70\n      jump\t// in\n    tag_96:\n      tag_97\n      jump\t// in\n    tag_95:\n      stop\n        /* \"contracts/Portfolio.sol\":1537:1609  string public imageLink=\"Qmaa53YdQpXBucFvS8SJRWNrNk467WmU5ewVz6NidpT4Lg\" */\n    tag_17:\n      callvalue\n      dup1\n      iszero\n      tag_98\n      jumpi\n      0x00\n      dup1\n      revert\n    tag_98:\n      pop\n      tag_99\n      tag_100\n      jump\t// in\n    tag_99:\n      mload(0x40)\n      tag_101\n      swap2\n      swap1\n      tag_66\n      jump\t// in\n    tag_101:\n      mload(0x40)\n      dup1\n      swap2\n      sub\n      swap1\n      return\n        /* \"contracts/Portfolio.sol\":4714:4821  function changeResumeLink(string calldata _resumeLink) external onlyOwner {... */\n    tag_18:\n      callvalue\n      dup1\n      iszero\n      tag_102\n      jumpi\n      0x00\n      dup1\n      revert\n    tag_102:\n      pop\n      tag_103\n      0x04\n      dup1\n      calldatasize\n      sub\n      dup2\n      add\n      swap1\n      tag_104\n      swap2\n      swap1\n      tag_55\n      jump\t// in\n    tag_104:\n      tag_105\n      jump\t// in\n    tag_103:\n      stop\n        /* \"contracts/Portfolio.sol\":4073:4483  function changeExperience(string calldata _date,string calldata _post,string calldata _knowledgeAcquired,string calldata _companyName,uint _experienceDetailCount) external onlyOwner{... */\n    tag_19:\n      callvalue\n      dup1\n      iszero\n      tag_106\n      jumpi\n      0x00\n      dup1\n      revert\n    tag_106:\n      pop\n      tag_107\n      0x04\n      dup1\n      calldatasize\n      sub\n      dup2\n      add\n      swap1\n      tag_108\n      swap2\n      swap1\n      tag_60\n      jump\t// in\n    tag_108:\n      tag_109\n      jump\t// in\n    tag_107:\n      stop\n        /* \"contracts/Portfolio.sol\":4610:4712  function changeDescription(string calldata _description) external {... */\n    tag_20:\n      callvalue\n      dup1\n      iszero\n      tag_110\n      jumpi\n      0x00\n      dup1\n      revert\n    tag_110:\n      pop\n      tag_111\n      0x04\n      dup1\n      calldatasize\n      sub\n      dup2\n      add\n      swap1\n      tag_112\n      swap2\n      swap1\n      tag_55\n      jump\t// in\n    tag_112:\n      tag_113\n      jump\t// in\n    tag_111:\n      stop\n        /* \"contracts/Portfolio.sol\":4924:5055  function donate() public payable {... */\n    tag_21:\n      tag_114\n      tag_115\n      jump\t// in\n    tag_114:\n      stop\n        /* \"contracts/Portfolio.sol\":1428:1455  Project[14] public projects */\n    tag_29:\n      0x00\n      dup2\n      0x0e\n      dup2\n      lt\n      tag_116\n      jumpi\n      0x00\n      dup1\n      revert\n    tag_116:\n      0x05\n      mul\n      add\n      0x00\n      swap2\n      pop\n      swap1\n      pop\n      dup1\n      0x00\n      add\n      sload\n      swap1\n      dup1\n      0x01\n      add\n      dup1\n      sload\n      tag_118\n      swap1\n      tag_119\n      jump\t// in\n    tag_118:\n      dup1\n      0x1f\n      add\n      0x20\n      dup1\n      swap2\n      div\n      mul\n      0x20\n      add\n      mload(0x40)\n      swap1\n      dup2\n      add\n      0x40\n      mstore\n      dup1\n      swap3\n      swap2\n      swap1\n      dup2\n      dup2\n      mstore\n      0x20\n      add\n      dup3\n      dup1\n      sload\n      tag_120\n      swap1\n      tag_119\n      jump\t// in\n    tag_120:\n      dup1\n      iszero\n      tag_121\n      jumpi\n      dup1\n      0x1f\n      lt\n      tag_122\n      jumpi\n      0x0100\n      dup1\n      dup4\n      sload\n      div\n      mul\n      dup4\n      mstore\n      swap2\n      0x20\n      add\n      swap2\n      jump(tag_121)\n    tag_122:\n      dup3\n      add\n      swap2\n      swap1\n      0x00\n      mstore\n      keccak256(0x00, 0x20)\n      swap1\n    tag_123:\n      dup2\n      sload\n      dup2\n      mstore\n      swap1\n      0x01\n      add\n      swap1\n      0x20\n      add\n      dup1\n      dup4\n      gt\n      tag_123\n      jumpi\n      dup3\n      swap1\n      sub\n      0x1f\n      and\n      dup3\n      add\n      swap2\n    tag_121:\n      pop\n      pop\n      pop\n      pop\n      pop\n      swap1\n      dup1\n      0x02\n      add\n      dup1\n      sload\n      tag_124\n      swap1\n      tag_119\n      jump\t// in\n    tag_124:\n      dup1\n      0x1f\n      add\n      0x20\n      dup1\n      swap2\n      div\n      mul\n      0x20\n      add\n      mload(0x40)\n      swap1\n      dup2\n      add\n      0x40\n      mstore\n      dup1\n      swap3\n      swap2\n      swap1\n      dup2\n      dup2\n      mstore\n      0x20\n      add\n      dup3\n      dup1\n      sload\n      tag_125\n      swap1\n      tag_119\n      jump\t// in\n    tag_125:\n      dup1\n      iszero\n      tag_126\n      jumpi\n      dup1\n      0x1f\n      lt\n      tag_127\n      jumpi\n      0x0100\n      dup1\n      dup4\n      sload\n      div\n      mul\n      dup4\n      mstore\n      swap2\n      0x20\n      add\n      swap2\n      jump(tag_126)\n    tag_127:\n      dup3\n      add\n      swap2\n      swap1\n      0x00\n      mstore\n      keccak256(0x00, 0x20)\n      swap1\n    tag_128:\n      dup2\n      sload\n      dup2\n      mstore\n      swap1\n      0x01\n      add\n      swap1\n      0x20\n      add\n      dup1\n      dup4\n      gt\n      tag_128\n      jumpi\n      dup3\n      swap1\n      sub\n      0x1f\n      and\n      dup3\n      add\n      swap2\n    tag_126:\n      pop\n      pop\n      pop\n      pop\n      pop\n      swap1\n      dup1\n      0x03\n      add\n      dup1\n      sload\n      tag_129\n      swap1\n      tag_119\n      jump\t// in\n    tag_129:\n      dup1\n      0x1f\n      add\n      0x20\n      dup1\n      swap2\n      div\n      mul\n      0x20\n      add\n      mload(0x40)\n      swap1\n      dup2\n      add\n      0x40\n      mstore\n      dup1\n      swap3\n      swap2\n      swap1\n      dup2\n      dup2\n      mstore\n      0x20\n      add\n      dup3\n      dup1\n      sload\n      tag_130\n      swap1\n      tag_119\n      jump\t// in\n    tag_130:\n      dup1\n      iszero\n      tag_131\n      jumpi\n      dup1\n      0x1f\n      lt\n      tag_132\n      jumpi\n      0x0100\n      dup1\n      dup4\n      sload\n      div\n      mul\n      dup4\n      mstore\n      swap2\n      0x20\n      add\n      swap2\n      jump(tag_131)\n    tag_132:\n      dup3\n      add\n      swap2\n      swap1\n      0x00\n      mstore\n      keccak256(0x00, 0x20)\n      swap1\n    tag_133:\n      dup2\n      sload\n      dup2\n      mstore\n      swap1\n      0x01\n      add\n      swap1\n      0x20\n      add\n      dup1\n      dup4\n      gt\n      tag_133\n      jumpi\n      dup3\n      swap1\n      sub\n      0x1f\n      and\n      dup3\n      add\n      swap2\n    tag_131:\n      pop\n      pop\n      pop\n      pop\n      pop\n      swap1\n      dup1\n      0x04\n      add\n      dup1\n      sload\n      tag_134\n      swap1\n      tag_119\n      jump\t// in\n    tag_134:\n      dup1\n      0x1f\n      add\n      0x20\n      dup1\n      swap2\n      div\n      mul\n      0x20\n      add\n      mload(0x40)\n      swap1\n      dup2\n      add\n      0x40\n      mstore\n      dup1\n      swap3\n      swap2\n      swap1\n      dup2\n      dup2\n      mstore\n      0x20\n      add\n      dup3\n      dup1\n      sload\n      tag_135\n      swap1\n      tag_119\n      jump\t// in\n    tag_135:\n      dup1\n      iszero\n      tag_136\n      jumpi\n      dup1\n      0x1f\n      lt\n      tag_137\n      jumpi\n      0x0100\n      dup1\n      dup4\n      sload\n      div\n      mul\n      dup4\n      mstore\n      swap2\n      0x20\n      add\n      swap2\n      jump(tag_136)\n    tag_137:\n      dup3\n      add\n      swap2\n      swap1\n      0x00\n      mstore\n      keccak256(0x00, 0x20)\n      swap1\n    tag_138:\n      dup2\n      sload\n      dup2\n      mstore\n      swap1\n      0x01\n      add\n      swap1\n      0x20\n      add\n      dup1\n      dup4\n      gt\n      tag_138\n      jumpi\n      dup3\n      swap1\n      sub\n      0x1f\n      and\n      dup3\n      add\n      swap2\n    tag_136:\n      pop\n      pop\n      pop\n      pop\n      pop\n      swap1\n      pop\n      dup6\n      jump\t// out\n        /* \"contracts/Portfolio.sol\":1495:1533  Experience[4] public experienceDetails */\n    tag_35:\n      0x5a\n      dup2\n      0x04\n      dup2\n      lt\n      tag_139\n      jumpi\n      0x00\n      dup1\n      revert\n    tag_139:\n      0x05\n      mul\n      add\n      0x00\n      swap2\n      pop\n      swap1\n      pop\n      dup1\n      0x00\n      add\n      sload\n      swap1\n      dup1\n      0x01\n      add\n      dup1\n      sload\n      tag_141\n      swap1\n      tag_119\n      jump\t// in\n    tag_141:\n      dup1\n      0x1f\n      add\n      0x20\n      dup1\n      swap2\n      div\n      mul\n      0x20\n      add\n      mload(0x40)\n      swap1\n      dup2\n      add\n      0x40\n      mstore\n      dup1\n      swap3\n      swap2\n      swap1\n      dup2\n      dup2\n      mstore\n      0x20\n      add\n      dup3\n      dup1\n      sload\n      tag_142\n      swap1\n      tag_119\n      jump\t// in\n    tag_142:\n      dup1\n      iszero\n      tag_143\n      jumpi\n      dup1\n      0x1f\n      lt\n      tag_144\n      jumpi\n      0x0100\n      dup1\n      dup4\n      sload\n      div\n      mul\n      dup4\n      mstore\n      swap2\n      0x20\n      add\n      swap2\n      jump(tag_143)\n    tag_144:\n      dup3\n      add\n      swap2\n      swap1\n      0x00\n      mstore\n      keccak256(0x00, 0x20)\n      swap1\n    tag_145:\n      dup2\n      sload\n      dup2\n      mstore\n      swap1\n      0x01\n      add\n      swap1\n      0x20\n      add\n      dup1\n      dup4\n      gt\n      tag_145\n      jumpi\n      dup3\n      swap1\n      sub\n      0x1f\n      and\n      dup3\n      add\n      swap2\n    tag_143:\n      pop\n      pop\n      pop\n      pop\n      pop\n      swap1\n      dup1\n      0x02\n      add\n      dup1\n      sload\n      tag_146\n      swap1\n      tag_119\n      jump\t// in\n    tag_146:\n      dup1\n      0x1f\n      add\n      0x20\n      dup1\n      swap2\n      div\n      mul\n      0x20\n      add\n      mload(0x40)\n      swap1\n      dup2\n      add\n      0x40\n      mstore\n      dup1\n      swap3\n      swap2\n      swap1\n      dup2\n      dup2\n      mstore\n      0x20\n      add\n      dup3\n      dup1\n      sload\n      tag_147\n      swap1\n      tag_119\n      jump\t// in\n    tag_147:\n      dup1\n      iszero\n      tag_148\n      jumpi\n      dup1\n      0x1f\n      lt\n      tag_149\n      jumpi\n      0x0100\n      dup1\n      dup4\n      sload\n      div\n      mul\n      dup4\n      mstore\n      swap2\n      0x20\n      add\n      swap2\n      jump(tag_148)\n    tag_149:\n      dup3\n      add\n      swap2\n      swap1\n      0x00\n      mstore\n      keccak256(0x00, 0x20)\n      swap1\n    tag_150:\n      dup2\n      sload\n      dup2\n      mstore\n      swap1\n      0x01\n      add\n      swap1\n      0x20\n      add\n      dup1\n      dup4\n      gt\n      tag_150\n      jumpi\n      dup3\n      swap1\n      sub\n      0x1f\n      and\n      dup3\n      add\n      swap2\n    tag_148:\n      pop\n      pop\n      pop\n      pop\n      pop\n      swap1\n      dup1\n      0x03\n      add\n      dup1\n      sload\n      tag_151\n      swap1\n      tag_119\n      jump\t// in\n    tag_151:\n      dup1\n      0x1f\n      add\n      0x20\n      dup1\n      swap2\n      div\n      mul\n      0x20\n      add\n      mload(0x40)\n      swap1\n      dup2\n      add\n      0x40\n      mstore\n      dup1\n      swap3\n      swap2\n      swap1\n      dup2\n      dup2\n      mstore\n      0x20\n      add\n      dup3\n      dup1\n      sload\n      tag_152\n      swap1\n      tag_119\n      jump\t// in\n    tag_152:\n      dup1\n      iszero\n      tag_153\n      jumpi\n      dup1\n      0x1f\n      lt\n      tag_154\n      jumpi\n      0x0100\n      dup1\n      dup4\n      sload\n      div\n      mul\n      dup4\n      mstore\n      swap2\n      0x20\n      add\n      swap2\n      jump(tag_153)\n    tag_154:\n      dup3\n      add\n      swap2\n      swap1\n      0x00\n      mstore\n      keccak256(0x00, 0x20)\n      swap1\n    tag_155:\n      dup2\n      sload\n      dup2\n      mstore\n      swap1\n      0x01\n      add\n      swap1\n      0x20\n      add\n      dup1\n      dup4\n      gt\n      tag_155\n      jumpi\n      dup3\n      swap1\n      sub\n      0x1f\n      and\n      dup3\n      add\n      swap2\n    tag_153:\n      pop\n      pop\n      pop\n      pop\n      pop\n      swap1\n      dup1\n      0x04\n      add\n      dup1\n      sload\n      tag_156\n      swap1\n      tag_119\n      jump\t// in\n    tag_156:\n      dup1\n      0x1f\n      add\n      0x20\n      dup1\n      swap2\n      div\n      mul\n      0x20\n      add\n      mload(0x40)\n      swap1\n      dup2\n      add\n      0x40\n      mstore\n      dup1\n      swap3\n      swap2\n      swap1\n      dup2\n      dup2\n      mstore\n      0x20\n      add\n      dup3\n      dup1\n      sload\n      tag_157\n      swap1\n      tag_119\n      jump\t// in\n    tag_157:\n      dup1\n      iszero\n      tag_158\n      jumpi\n      dup1\n      0x1f\n      lt\n      tag_159\n      jumpi\n      0x0100\n      dup1\n      dup4\n      sload\n      div\n      mul\n      dup4\n      mstore\n      swap2\n      0x20\n      add\n      swap2\n      jump(tag_158)\n    tag_159:\n      dup3\n      add\n      swap2\n      swap1\n      0x00\n      mstore\n      keccak256(0x00, 0x20)\n      swap1\n    tag_160:\n      dup2\n      sload\n      dup2\n      mstore\n      swap1\n      0x01\n      add\n      swap1\n      0x20\n      add\n      dup1\n      dup4\n      gt\n      tag_160\n      jumpi\n      dup3\n      swap1\n      sub\n      0x1f\n      and\n      dup3\n      add\n      swap2\n    tag_158:\n      pop\n      pop\n      pop\n      pop\n      pop\n      swap1\n      pop\n      dup6\n      jump\t// out\n        /* \"contracts/Portfolio.sol\":2710:2806  function allProjects() external view returns(Project[14] memory){... */\n    tag_39:\n        /* \"contracts/Portfolio.sol\":2755:2773  Project[14] memory */\n      tag_161\n      tag_162\n      jump\t// in\n    tag_161:\n        /* \"contracts/Portfolio.sol\":2791:2799  projects */\n      0x00\n        /* \"contracts/Portfolio.sol\":2784:2799  return projects */\n      0x0e\n      dup1\n      0x20\n      mul\n      mload(0x40)\n      swap1\n      dup2\n      add\n      0x40\n      mstore\n      dup1\n      swap3\n      swap2\n      swap1\n      0x00\n      swap1\n    tag_164:\n      dup3\n      dup3\n      lt\n      iszero\n      tag_165\n      jumpi\n      dup4\n      dup3\n      0x05\n      mul\n      add\n      mload(0x40)\n      dup1\n      0xa0\n      add\n      0x40\n      mstore\n      swap1\n      dup2\n      0x00\n      dup3\n      add\n      sload\n      dup2\n      mstore\n      0x20\n      add\n      0x01\n      dup3\n      add\n      dup1\n      sload\n      tag_167\n      swap1\n      tag_119\n      jump\t// in\n    tag_167:\n      dup1\n      0x1f\n      add\n      0x20\n      dup1\n      swap2\n      div\n      mul\n      0x20\n      add\n      mload(0x40)\n      swap1\n      dup2\n      add\n      0x40\n      mstore\n      dup1\n      swap3\n      swap2\n      swap1\n      dup2\n      dup2\n      mstore\n      0x20\n      add\n      dup3\n      dup1\n      sload\n      tag_168\n      swap1\n      tag_119\n      jump\t// in\n    tag_168:\n      dup1\n      iszero\n      tag_169\n      jumpi\n      dup1\n      0x1f\n      lt\n      tag_170\n      jumpi\n      0x0100\n      dup1\n      dup4\n      sload\n      div\n      mul\n      dup4\n      mstore\n      swap2\n      0x20\n      add\n      swap2\n      jump(tag_169)\n    tag_170:\n      dup3\n      add\n      swap2\n      swap1\n      0x00\n      mstore\n      keccak256(0x00, 0x20)\n      swap1\n    tag_171:\n      dup2\n      sload\n      dup2\n      mstore\n      swap1\n      0x01\n      add\n      swap1\n      0x20\n      add\n      dup1\n      dup4\n      gt\n      tag_171\n      jumpi\n      dup3\n      swap1\n      sub\n      0x1f\n      and\n      dup3\n      add\n      swap2\n    tag_169:\n      pop\n      pop\n      pop\n      pop\n      pop\n      dup2\n      mstore\n      0x20\n      add\n      0x02\n      dup3\n      add\n      dup1\n      sload\n      tag_172\n      swap1\n      tag_119\n      jump\t// in\n    tag_172:\n      dup1\n      0x1f\n      add\n      0x20\n      dup1\n      swap2\n      div\n      mul\n      0x20\n      add\n      mload(0x40)\n      swap1\n      dup2\n      add\n      0x40\n      mstore\n      dup1\n      swap3\n      swap2\n      swap1\n      dup2\n      dup2\n      mstore\n      0x20\n      add\n      dup3\n      dup1\n      sload\n      tag_173\n      swap1\n      tag_119\n      jump\t// in\n    tag_173:\n      dup1\n      iszero\n      tag_174\n      jumpi\n      dup1\n      0x1f\n      lt\n      tag_175\n      jumpi\n      0x0100\n      dup1\n      dup4\n      sload\n      div\n      mul\n      dup4\n      mstore\n      swap2\n      0x20\n      add\n      swap2\n      jump(tag_174)\n    tag_175:\n      dup3\n      add\n      swap2\n      swap1\n      0x00\n      mstore\n      keccak256(0x00, 0x20)\n      swap1\n    tag_176:\n      dup2\n      sload\n      dup2\n      mstore\n      swap1\n      0x01\n      add\n      swap1\n      0x20\n      add\n      dup1\n      dup4\n      gt\n      tag_176\n      jumpi\n      dup3\n      swap1\n      sub\n      0x1f\n      and\n      dup3\n      add\n      swap2\n    tag_174:\n      pop\n      pop\n      pop\n      pop\n      pop\n      dup2\n      mstore\n      0x20\n      add\n      0x03\n      dup3\n      add\n      dup1\n      sload\n      tag_177\n      swap1\n      tag_119\n      jump\t// in\n    tag_177:\n      dup1\n      0x1f\n      add\n      0x20\n      dup1\n      swap2\n      div\n      mul\n      0x20\n      add\n      mload(0x40)\n      swap1\n      dup2\n      add\n      0x40\n      mstore\n      dup1\n      swap3\n      swap2\n      swap1\n      dup2\n      dup2\n      mstore\n      0x20\n      add\n      dup3\n      dup1\n      sload\n      tag_178\n      swap1\n      tag_119\n      jump\t// in\n    tag_178:\n      dup1\n      iszero\n      tag_179\n      jumpi\n      dup1\n      0x1f\n      lt\n      tag_180\n      jumpi\n      0x0100\n      dup1\n      dup4\n      sload\n      div\n      mul\n      dup4\n      mstore\n      swap2\n      0x20\n      add\n      swap2\n      jump(tag_179)\n    tag_180:\n      dup3\n      add\n      swap2\n      swap1\n      0x00\n      mstore\n      keccak256(0x00, 0x20)\n      swap1\n    tag_181:\n      dup2\n      sload\n      dup2\n      mstore\n      swap1\n      0x01\n      add\n      swap1\n      0x20\n      add\n      dup1\n      dup4\n      gt\n      tag_181\n      jumpi\n      dup3\n      swap1\n      sub\n      0x1f\n      and\n      dup3\n      add\n      swap2\n    tag_179:\n      pop\n      pop\n      pop\n      pop\n      pop\n      dup2\n      mstore\n      0x20\n      add\n      0x04\n      dup3\n      add\n      dup1\n      sload\n      tag_182\n      swap1\n      tag_119\n      jump\t// in\n    tag_182:\n      dup1\n      0x1f\n      add\n      0x20\n      dup1\n      swap2\n      div\n      mul\n      0x20\n      add\n      mload(0x40)\n      swap1\n      dup2\n      add\n      0x40\n      mstore\n      dup1\n      swap3\n      swap2\n      swap1\n      dup2\n      dup2\n      mstore\n      0x20\n      add\n      dup3\n      dup1\n      sload\n      tag_183\n      swap1\n      tag_119\n      jump\t// in\n    tag_183:\n      dup1\n      iszero\n      tag_184\n      jumpi\n      dup1\n      0x1f\n      lt\n      tag_185\n      jumpi\n      0x0100\n      dup1\n      dup4\n      sload\n      div\n      mul\n      dup4\n      mstore\n      swap2\n      0x20\n      add\n      swap2\n      jump(tag_184)\n    tag_185:\n      dup3\n      add\n      swap2\n      swap1\n      0x00\n      mstore\n      keccak256(0x00, 0x20)\n      swap1\n    tag_186:\n      dup2\n      sload\n      dup2\n      mstore\n      swap1\n      0x01\n      add\n      swap1\n      0x20\n      add\n      dup1\n      dup4\n      gt\n      tag_186\n      jumpi\n      dup3\n      swap1\n      sub\n      0x1f\n      and\n      dup3\n      add\n      swap2\n    tag_184:\n      pop\n      pop\n      pop\n      pop\n      pop\n      dup2\n      mstore\n      pop\n      pop\n      dup2\n      mstore\n      0x20\n      add\n      swap1\n      0x01\n      add\n      swap1\n      jump(tag_164)\n    tag_165:\n      pop\n      pop\n      pop\n      pop\n      swap1\n      pop\n        /* \"contracts/Portfolio.sol\":2710:2806  function allProjects() external view returns(Project[14] memory){... */\n      swap1\n      jump\t// out\n        /* \"contracts/Portfolio.sol\":4493:4607  function allExperienceDetails() external view returns(Experience[4] memory){... */\n    tag_44:\n        /* \"contracts/Portfolio.sol\":4547:4567  Experience[4] memory */\n      tag_187\n      tag_188\n      jump\t// in\n    tag_187:\n        /* \"contracts/Portfolio.sol\":4583:4600  experienceDetails */\n      0x5a\n        /* \"contracts/Portfolio.sol\":4576:4600  return experienceDetails */\n      0x04\n      dup1\n      0x20\n      mul\n      mload(0x40)\n      swap1\n      dup2\n      add\n      0x40\n      mstore\n      dup1\n      swap3\n      swap2\n      swap1\n      0x00\n      swap1\n    tag_190:\n      dup3\n      dup3\n      lt\n      iszero\n      tag_191\n      jumpi\n      dup4\n      dup3\n      0x05\n      mul\n      add\n      mload(0x40)\n      dup1\n      0xa0\n      add\n      0x40\n      mstore\n      swap1\n      dup2\n      0x00\n      dup3\n      add\n      sload\n      dup2\n      mstore\n      0x20\n      add\n      0x01\n      dup3\n      add\n      dup1\n      sload\n      tag_193\n      swap1\n      tag_119\n      jump\t// in\n    tag_193:\n      dup1\n      0x1f\n      add\n      0x20\n      dup1\n      swap2\n      div\n      mul\n      0x20\n      add\n      mload(0x40)\n      swap1\n      dup2\n      add\n      0x40\n      mstore\n      dup1\n      swap3\n      swap2\n      swap1\n      dup2\n      dup2\n      mstore\n      0x20\n      add\n      dup3\n      dup1\n      sload\n      tag_194\n      swap1\n      tag_119\n      jump\t// in\n    tag_194:\n      dup1\n      iszero\n      tag_195\n      jumpi\n      dup1\n      0x1f\n      lt\n      tag_196\n      jumpi\n      0x0100\n      dup1\n      dup4\n      sload\n      div\n      mul\n      dup4\n      mstore\n      swap2\n      0x20\n      add\n      swap2\n      jump(tag_195)\n    tag_196:\n      dup3\n      add\n      swap2\n      swap1\n      0x00\n      mstore\n      keccak256(0x00, 0x20)\n      swap1\n    tag_197:\n      dup2\n      sload\n      dup2\n      mstore\n      swap1\n      0x01\n      add\n      swap1\n      0x20\n      add\n      dup1\n      dup4\n      gt\n      tag_197\n      jumpi\n      dup3\n      swap1\n      sub\n      0x1f\n      and\n      dup3\n      add\n      swap2\n    tag_195:\n      pop\n      pop\n      pop\n      pop\n      pop\n      dup2\n      mstore\n      0x20\n      add\n      0x02\n      dup3\n      add\n      dup1\n      sload\n      tag_198\n      swap1\n      tag_119\n      jump\t// in\n    tag_198:\n      dup1\n      0x1f\n      add\n      0x20\n      dup1\n      swap2\n      div\n      mul\n      0x20\n      add\n      mload(0x40)\n      swap1\n      dup2\n      add\n      0x40\n      mstore\n      dup1\n      swap3\n      swap2\n      swap1\n      dup2\n      dup2\n      mstore\n      0x20\n      add\n      dup3\n      dup1\n      sload\n      tag_199\n      swap1\n      tag_119\n      jump\t// in\n    tag_199:\n      dup1\n      iszero\n      tag_200\n      jumpi\n      dup1\n      0x1f\n      lt\n      tag_201\n      jumpi\n      0x0100\n      dup1\n      dup4\n      sload\n      div\n      mul\n      dup4\n      mstore\n      swap2\n      0x20\n      add\n      swap2\n      jump(tag_200)\n    tag_201:\n      dup3\n      add\n      swap2\n      swap1\n      0x00\n      mstore\n      keccak256(0x00, 0x20)\n      swap1\n    tag_202:\n      dup2\n      sload\n      dup2\n      mstore\n      swap1\n      0x01\n      add\n      swap1\n      0x20\n      add\n      dup1\n      dup4\n      gt\n      tag_202\n      jumpi\n      dup3\n      swap1\n      sub\n      0x1f\n      and\n      dup3\n      add\n      swap2\n    tag_200:\n      pop\n      pop\n      pop\n      pop\n      pop\n      dup2\n      mstore\n      0x20\n      add\n      0x03\n      dup3\n      add\n      dup1\n      sload\n      tag_203\n      swap1\n      tag_119\n      jump\t// in\n    tag_203:\n      dup1\n      0x1f\n      add\n      0x20\n      dup1\n      swap2\n      div\n      mul\n      0x20\n      add\n      mload(0x40)\n      swap1\n      dup2\n      add\n      0x40\n      mstore\n      dup1\n      swap3\n      swap2\n      swap1\n      dup2\n      dup2\n      mstore\n      0x20\n      add\n      dup3\n      dup1\n      sload\n      tag_204\n      swap1\n      tag_119\n      jump\t// in\n    tag_204:\n      dup1\n      iszero\n      tag_205\n      jumpi\n      dup1\n      0x1f\n      lt\n      tag_206\n      jumpi\n      0x0100\n      dup1\n      dup4\n      sload\n      div\n      mul\n      dup4\n      mstore\n      swap2\n      0x20\n      add\n      swap2\n      jump(tag_205)\n    tag_206:\n      dup3\n      add\n      swap2\n      swap1\n      0x00\n      mstore\n      keccak256(0x00, 0x20)\n      swap1\n    tag_207:\n      dup2\n      sload\n      dup2\n      mstore\n      swap1\n      0x01\n      add\n      swap1\n      0x20\n      add\n      dup1\n      dup4\n      gt\n      tag_207\n      jumpi\n      dup3\n      swap1\n      sub\n      0x1f\n      and\n      dup3\n      add\n      swap2\n    tag_205:\n      pop\n      pop\n      pop\n      pop\n      pop\n      dup2\n      mstore\n      0x20\n      add\n      0x04\n      dup3\n      add\n      dup1\n      sload\n      tag_208\n      swap1\n      tag_119\n      jump\t// in\n    tag_208:\n      dup1\n      0x1f\n      add\n      0x20\n      dup1\n      swap2\n      div\n      mul\n      0x20\n      add\n      mload(0x40)\n      swap1\n      dup2\n      add\n      0x40\n      mstore\n      dup1\n      swap3\n      swap2\n      swap1\n      dup2\n      dup2\n      mstore\n      0x20\n      add\n      dup3\n      dup1\n      sload\n      tag_209\n      swap1\n      tag_119\n      jump\t// in\n    tag_209:\n      dup1\n      iszero\n      tag_210\n      jumpi\n      dup1\n      0x1f\n      lt\n      tag_211\n      jumpi\n      0x0100\n      dup1\n      dup4\n      sload\n      div\n      mul\n      dup4\n      mstore\n      swap2\n      0x20\n      add\n      swap2\n      jump(tag_210)\n    tag_211:\n      dup3\n      add\n      swap2\n      swap1\n      0x00\n      mstore\n      keccak256(0x00, 0x20)\n      swap1\n    tag_212:\n      dup2\n      sload\n      dup2\n      mstore\n      swap1\n      0x01\n      add\n      swap1\n      0x20\n      add\n      dup1\n      dup4\n      gt\n      tag_212\n      jumpi\n      dup3\n      swap1\n      sub\n      0x1f\n      and\n      dup3\n      add\n      swap2\n    tag_210:\n      pop\n      pop\n      pop\n      pop\n      pop\n      dup2\n      mstore\n      pop\n      pop\n      dup2\n      mstore\n      0x20\n      add\n      swap1\n      0x01\n      add\n      swap1\n      jump(tag_190)\n    tag_191:\n      pop\n      pop\n      pop\n      pop\n      swap1\n      pop\n        /* \"contracts/Portfolio.sol\":4493:4607  function allExperienceDetails() external view returns(Experience[4] memory){... */\n      swap1\n      jump\t// out\n        /* \"contracts/Portfolio.sol\":3593:3699  function allEducationDetails() external view returns(Education[4] memory) {... */\n    tag_49:\n        /* \"contracts/Portfolio.sol\":3646:3665  Education[4] memory */\n      tag_213\n      tag_214\n      jump\t// in\n    tag_213:\n        /* \"contracts/Portfolio.sol\":3680:3696  educationDetails */\n      0x46\n        /* \"contracts/Portfolio.sol\":3673:3696  return educationDetails */\n      0x04\n      dup1\n      0x20\n      mul\n      mload(0x40)\n      swap1\n      dup2\n      add\n      0x40\n      mstore\n      dup1\n      swap3\n      swap2\n      swap1\n      0x00\n      swap1\n    tag_216:\n      dup3\n      dup3\n      lt\n      iszero\n      tag_217\n      jumpi\n      dup4\n      dup3\n      0x05\n      mul\n      add\n      mload(0x40)\n      dup1\n      0xa0\n      add\n      0x40\n      mstore\n      swap1\n      dup2\n      0x00\n      dup3\n      add\n      sload\n      dup2\n      mstore\n      0x20\n      add\n      0x01\n      dup3\n      add\n      dup1\n      sload\n      tag_219\n      swap1\n      tag_119\n      jump\t// in\n    tag_219:\n      dup1\n      0x1f\n      add\n      0x20\n      dup1\n      swap2\n      div\n      mul\n      0x20\n      add\n      mload(0x40)\n      swap1\n      dup2\n      add\n      0x40\n      mstore\n      dup1\n      swap3\n      swap2\n      swap1\n      dup2\n      dup2\n      mstore\n      0x20\n      add\n      dup3\n      dup1\n      sload\n      tag_220\n      swap1\n      tag_119\n      jump\t// in\n    tag_220:\n      dup1\n      iszero\n      tag_221\n      jumpi\n      dup1\n      0x1f\n      lt\n      tag_222\n      jumpi\n      0x0100\n      dup1\n      dup4\n      sload\n      div\n      mul\n      dup4\n      mstore\n      swap2\n      0x20\n      add\n      swap2\n      jump(tag_221)\n    tag_222:\n      dup3\n      add\n      swap2\n      swap1\n      0x00\n      mstore\n      keccak256(0x00, 0x20)\n      swap1\n    tag_223:\n      dup2\n      sload\n      dup2\n      mstore\n      swap1\n      0x01\n      add\n      swap1\n      0x20\n      add\n      dup1\n      dup4\n      gt\n      tag_223\n      jumpi\n      dup3\n      swap1\n      sub\n      0x1f\n      and\n      dup3\n      add\n      swap2\n    tag_221:\n      pop\n      pop\n      pop\n      pop\n      pop\n      dup2\n      mstore\n      0x20\n      add\n      0x02\n      dup3\n      add\n      dup1\n      sload\n      tag_224\n      swap1\n      tag_119\n      jump\t// in\n    tag_224:\n      dup1\n      0x1f\n      add\n      0x20\n      dup1\n      swap2\n      div\n      mul\n      0x20\n      add\n      mload(0x40)\n      swap1\n      dup2\n      add\n      0x40\n      mstore\n      dup1\n      swap3\n      swap2\n      swap1\n      dup2\n      dup2\n      mstore\n      0x20\n      add\n      dup3\n      dup1\n      sload\n      tag_225\n      swap1\n      tag_119\n      jump\t// in\n    tag_225:\n      dup1\n      iszero\n      tag_226\n      jumpi\n      dup1\n      0x1f\n      lt\n      tag_227\n      jumpi\n      0x0100\n      dup1\n      dup4\n      sload\n      div\n      mul\n      dup4\n      mstore\n      swap2\n      0x20\n      add\n      swap2\n      jump(tag_226)\n    tag_227:\n      dup3\n      add\n      swap2\n      swap1\n      0x00\n      mstore\n      keccak256(0x00, 0x20)\n      swap1\n    tag_228:\n      dup2\n      sload\n      dup2\n      mstore\n      swap1\n      0x01\n      add\n      swap1\n      0x20\n      add\n      dup1\n      dup4\n      gt\n      tag_228\n      jumpi\n      dup3\n      swap1\n      sub\n      0x1f\n      and\n      dup3\n      add\n      swap2\n    tag_226:\n      pop\n      pop\n      pop\n      pop\n      pop\n      dup2\n      mstore\n      0x20\n      add\n      0x03\n      dup3\n      add\n      dup1\n      sload\n      tag_229\n      swap1\n      tag_119\n      jump\t// in\n    tag_229:\n      dup1\n      0x1f\n      add\n      0x20\n      dup1\n      swap2\n      div\n      mul\n      0x20\n      add\n      mload(0x40)\n      swap1\n      dup2\n      add\n      0x40\n      mstore\n      dup1\n      swap3\n      swap2\n      swap1\n      dup2\n      dup2\n      mstore\n      0x20\n      add\n      dup3\n      dup1\n      sload\n      tag_230\n      swap1\n      tag_119\n      jump\t// in\n    tag_230:\n      dup1\n      iszero\n      tag_231\n      jumpi\n      dup1\n      0x1f\n      lt\n      tag_232\n      jumpi\n      0x0100\n      dup1\n      dup4\n      sload\n      div\n      mul\n      dup4\n      mstore\n      swap2\n      0x20\n      add\n      swap2\n      jump(tag_231)\n    tag_232:\n      dup3\n      add\n      swap2\n      swap1\n      0x00\n      mstore\n      keccak256(0x00, 0x20)\n      swap1\n    tag_233:\n      dup2\n      sload\n      dup2\n      mstore\n      swap1\n      0x01\n      add\n      swap1\n      0x20\n      add\n      dup1\n      dup4\n      gt\n      tag_233\n      jumpi\n      dup3\n      swap1\n      sub\n      0x1f\n      and\n      dup3\n      add\n      swap2\n    tag_231:\n      pop\n      pop\n      pop\n      pop\n      pop\n      dup2\n      mstore\n      0x20\n      add\n      0x04\n      dup3\n      add\n      dup1\n      sload\n      tag_234\n      swap1\n      tag_119\n      jump\t// in\n    tag_234:\n      dup1\n      0x1f\n      add\n      0x20\n      dup1\n      swap2\n      div\n      mul\n      0x20\n      add\n      mload(0x40)\n      swap1\n      dup2\n      add\n      0x40\n      mstore\n      dup1\n      swap3\n      swap2\n      swap1\n      dup2\n      dup2\n      mstore\n      0x20\n      add\n      dup3\n      dup1\n      sload\n      tag_235\n      swap1\n      tag_119\n      jump\t// in\n    tag_235:\n      dup1\n      iszero\n      tag_236\n      jumpi\n      dup1\n      0x1f\n      lt\n      tag_237\n      jumpi\n      0x0100\n      dup1\n      dup4\n      sload\n      div\n      mul\n      dup4\n      mstore\n      swap2\n      0x20\n      add\n      swap2\n      jump(tag_236)\n    tag_237:\n      dup3\n      add\n      swap2\n      swap1\n      0x00\n      mstore\n      keccak256(0x00, 0x20)\n      swap1\n    tag_238:\n      dup2\n      sload\n      dup2\n      mstore\n      swap1\n      0x01\n      add\n      swap1\n      0x20\n      add\n      dup1\n      dup4\n      gt\n      tag_238\n      jumpi\n      dup3\n      swap1\n      sub\n      0x1f\n      and\n      dup3\n      add\n      swap2\n    tag_236:\n      pop\n      pop\n      pop\n      pop\n      pop\n      dup2\n      mstore\n      pop\n      pop\n      dup2\n      mstore\n      0x20\n      add\n      swap1\n      0x01\n      add\n      swap1\n      jump(tag_216)\n    tag_217:\n      pop\n      pop\n      pop\n      pop\n      swap1\n      pop\n        /* \"contracts/Portfolio.sol\":3593:3699  function allEducationDetails() external view returns(Education[4] memory) {... */\n      swap1\n      jump\t// out\n        /* \"contracts/Portfolio.sol\":4823:4922  function changeImageLink(string calldata _imageLink) external onlyOwner {... */\n    tag_56:\n        /* \"contracts/Portfolio.sol\":2009:2019  msg.sender */\n      caller\n        /* \"contracts/Portfolio.sol\":2000:2019  owner == msg.sender */\n      0xffffffffffffffffffffffffffffffffffffffff\n      and\n        /* \"contracts/Portfolio.sol\":2000:2005  owner */\n      0x74\n      0x00\n      swap1\n      sload\n      swap1\n      0x0100\n      exp\n      swap1\n      div\n      0xffffffffffffffffffffffffffffffffffffffff\n      and\n        /* \"contracts/Portfolio.sol\":2000:2019  owner == msg.sender */\n      0xffffffffffffffffffffffffffffffffffffffff\n      and\n      eq\n        /* \"contracts/Portfolio.sol\":1992:2045  require(owner == msg.sender, \"You are not the owner\") */\n      tag_240\n      jumpi\n      mload(0x40)\n      0x08c379a000000000000000000000000000000000000000000000000000000000\n      dup2\n      mstore\n      0x04\n      add\n      tag_241\n      swap1\n      tag_242\n      jump\t// in\n    tag_241:\n      mload(0x40)\n      dup1\n      swap2\n      sub\n      swap1\n      revert\n    tag_240:\n        /* \"contracts/Portfolio.sol\":4909:4919  _imageLink */\n      dup2\n      dup2\n        /* \"contracts/Portfolio.sol\":4897:4906  imageLink */\n      0x6e\n        /* \"contracts/Portfolio.sol\":4897:4919  imageLink = _imageLink */\n      swap2\n      dup3\n      tag_244\n      swap3\n      swap2\n      swap1\n      tag_245\n      jump\t// in\n    tag_244:\n      pop\n        /* \"contracts/Portfolio.sol\":4823:4922  function changeImageLink(string calldata _imageLink) external onlyOwner {... */\n      pop\n      pop\n      jump\t// out\n        /* \"contracts/Portfolio.sol\":3178:3590  function changeEducation(string calldata _date,string calldata _degree,string calldata _knowledgeAcquired,string calldata _instutionName,uint256 _educationDetailCount) external onlyOwner{... */\n    tag_61:\n        /* \"contracts/Portfolio.sol\":2009:2019  msg.sender */\n      caller\n        /* \"contracts/Portfolio.sol\":2000:2019  owner == msg.sender */\n      0xffffffffffffffffffffffffffffffffffffffff\n      and\n        /* \"contracts/Portfolio.sol\":2000:2005  owner */\n      0x74\n      0x00\n      swap1\n      sload\n      swap1\n      0x0100\n      exp\n      swap1\n      div\n      0xffffffffffffffffffffffffffffffffffffffff\n      and\n        /* \"contracts/Portfolio.sol\":2000:2019  owner == msg.sender */\n      0xffffffffffffffffffffffffffffffffffffffff\n      and\n      eq\n        /* \"contracts/Portfolio.sol\":1992:2045  require(owner == msg.sender, \"You are not the owner\") */\n      tag_247\n      jumpi\n      mload(0x40)\n      0x08c379a000000000000000000000000000000000000000000000000000000000\n      dup2\n      mstore\n      0x04\n      add\n      tag_248\n      swap1\n      tag_242\n      jump\t// in\n    tag_248:\n      mload(0x40)\n      dup1\n      swap2\n      sub\n      swap1\n      revert\n    tag_247:\n        /* \"contracts/Portfolio.sol\":3403:3404  0 */\n      0x00\n        /* \"contracts/Portfolio.sol\":3380:3401  _educationDetailCount */\n      dup2\n        /* \"contracts/Portfolio.sol\":3380:3404  _educationDetailCount>=0 */\n      lt\n      iszero\n        /* \"contracts/Portfolio.sol\":3380:3431  _educationDetailCount>=0 && _educationDetailCount<4 */\n      dup1\n      iszero\n      tag_250\n      jumpi\n      pop\n        /* \"contracts/Portfolio.sol\":3430:3431  4 */\n      0x04\n        /* \"contracts/Portfolio.sol\":3408:3429  _educationDetailCount */\n      dup2\n        /* \"contracts/Portfolio.sol\":3408:3431  _educationDetailCount<4 */\n      lt\n        /* \"contracts/Portfolio.sol\":3380:3431  _educationDetailCount>=0 && _educationDetailCount<4 */\n    tag_250:\n        /* \"contracts/Portfolio.sol\":3372:3457  require(_educationDetailCount>=0 && _educationDetailCount<4,\"Invalid educationCount\") */\n      tag_251\n      jumpi\n      mload(0x40)\n      0x08c379a000000000000000000000000000000000000000000000000000000000\n      dup2\n      mstore\n      0x04\n      add\n      tag_252\n      swap1\n      tag_253\n      jump\t// in\n    tag_252:\n      mload(0x40)\n      dup1\n      swap2\n      sub\n      swap1\n      revert\n    tag_251:\n        /* \"contracts/Portfolio.sol\":3505:3585  Education(_educationDetailCount,_date,_degree,_knowledgeAcquired,_instutionName) */\n      mload(0x40)\n      dup1\n      0xa0\n      add\n      0x40\n      mstore\n      dup1\n        /* \"contracts/Portfolio.sol\":3515:3536  _educationDetailCount */\n      dup3\n        /* \"contracts/Portfolio.sol\":3505:3585  Education(_educationDetailCount,_date,_degree,_knowledgeAcquired,_instutionName) */\n      dup2\n      mstore\n      0x20\n      add\n        /* \"contracts/Portfolio.sol\":3537:3542  _date */\n      dup11\n      dup11\n        /* \"contracts/Portfolio.sol\":3505:3585  Education(_educationDetailCount,_date,_degree,_knowledgeAcquired,_instutionName) */\n      dup1\n      dup1\n      0x1f\n      add\n      0x20\n      dup1\n      swap2\n      div\n      mul\n      0x20\n      add\n      mload(0x40)\n      swap1\n      dup2\n      add\n      0x40\n      mstore\n      dup1\n      swap4\n      swap3\n      swap2\n      swap1\n      dup2\n      dup2\n      mstore\n      0x20\n      add\n      dup4\n      dup4\n      dup1\n      dup3\n      dup5\n      calldatacopy\n      0x00\n      dup2\n      dup5\n      add\n      mstore\n      not(0x1f)\n      0x1f\n      dup3\n      add\n      and\n      swap1\n      pop\n      dup1\n      dup4\n      add\n      swap3\n      pop\n      pop\n      pop\n      pop\n      pop\n      pop\n      pop\n      dup2\n      mstore\n      0x20\n      add\n        /* \"contracts/Portfolio.sol\":3543:3550  _degree */\n      dup9\n      dup9\n        /* \"contracts/Portfolio.sol\":3505:3585  Education(_educationDetailCount,_date,_degree,_knowledgeAcquired,_instutionName) */\n      dup1\n      dup1\n      0x1f\n      add\n      0x20\n      dup1\n      swap2\n      div\n      mul\n      0x20\n      add\n      mload(0x40)\n      swap1\n      dup2\n      add\n      0x40\n      mstore\n      dup1\n      swap4\n      swap3\n      swap2\n      swap1\n      dup2\n      dup2\n      mstore\n      0x20\n      add\n      dup4\n      dup4\n      dup1\n      dup3\n      dup5\n      calldatacopy\n      0x00\n      dup2\n      dup5\n      add\n      mstore\n      not(0x1f)\n      0x1f\n      dup3\n      add\n      and\n      swap1\n      pop\n      dup1\n      dup4\n      add\n      swap3\n      pop\n      pop\n      pop\n      pop\n      pop\n      pop\n      pop\n      dup2\n      mstore\n      0x20\n      add\n        /* \"contracts/Portfolio.sol\":3551:3569  _knowledgeAcquired */\n      dup7\n      dup7\n        /* \"contracts/Portfolio.sol\":3505:3585  Education(_educationDetailCount,_date,_degree,_knowledgeAcquired,_instutionName) */\n      dup1\n      dup1\n      0x1f\n      add\n      0x20\n      dup1\n      swap2\n      div\n      mul\n      0x20\n      add\n      mload(0x40)\n      swap1\n      dup2\n      add\n      0x40\n      mstore\n      dup1\n      swap4\n      swap3\n      swap2\n      swap1\n      dup2\n      dup2\n      mstore\n      0x20\n      add\n      dup4\n      dup4\n      dup1\n      dup3\n      dup5\n      calldatacopy\n      0x00\n      dup2\n      dup5\n      add\n      mstore\n      not(0x1f)\n      0x1f\n      dup3\n      add\n      and\n      swap1\n      pop\n      dup1\n      dup4\n      add\n      swap3\n      pop\n      pop\n      pop\n      pop\n      pop\n      pop\n      pop\n      dup2\n      mstore\n      0x20\n      add\n        /* \"contracts/Portfolio.sol\":3570:3584  _instutionName */\n      dup5\n      dup5\n        /* \"contracts/Portfolio.sol\":3505:3585  Education(_educationDetailCount,_date,_degree,_knowledgeAcquired,_instutionName) */\n      dup1\n      dup1\n      0x1f\n      add\n      0x20\n      dup1\n      swap2\n      div\n      mul\n      0x20\n      add\n      mload(0x40)\n      swap1\n      dup2\n      add\n      0x40\n      mstore\n      dup1\n      swap4\n      swap3\n      swap2\n      swap1\n      dup2\n      dup2\n      mstore\n      0x20\n      add\n      dup4\n      dup4\n      dup1\n      dup3\n      dup5\n      calldatacopy\n      0x00\n      dup2\n      dup5\n      add\n      mstore\n      not(0x1f)\n      0x1f\n      dup3\n      add\n      and\n      swap1\n      pop\n      dup1\n      dup4\n      add\n      swap3\n      pop\n      pop\n      pop\n      pop\n      pop\n      pop\n      pop\n      dup2\n      mstore\n      pop\n        /* \"contracts/Portfolio.sol\":3465:3481  educationDetails */\n      0x46\n        /* \"contracts/Portfolio.sol\":3482:3503  _educationDetailCount */\n      dup3\n        /* \"contracts/Portfolio.sol\":3465:3504  educationDetails[_educationDetailCount] */\n      0x04\n      dup2\n      lt\n      tag_254\n      jumpi\n      tag_255\n      tag_256\n      jump\t// in\n    tag_255:\n    tag_254:\n      0x05\n      mul\n      add\n        /* \"contracts/Portfolio.sol\":3465:3585  educationDetails[_educationDetailCount]=Education(_educationDetailCount,_date,_degree,_knowledgeAcquired,_instutionName) */\n      0x00\n      dup3\n      add\n      mload\n      dup2\n      0x00\n      add\n      sstore\n      0x20\n      dup3\n      add\n      mload\n      dup2\n      0x01\n      add\n      swap1\n      dup2\n      tag_258\n      swap2\n      swap1\n      tag_259\n      jump\t// in\n    tag_258:\n      pop\n      0x40\n      dup3\n      add\n      mload\n      dup2\n      0x02\n      add\n      swap1\n      dup2\n      tag_260\n      swap2\n      swap1\n      tag_259\n      jump\t// in\n    tag_260:\n      pop\n      0x60\n      dup3\n      add\n      mload\n      dup2\n      0x03\n      add\n      swap1\n      dup2\n      tag_261\n      swap2\n      swap1\n      tag_259\n      jump\t// in\n    tag_261:\n      pop\n      0x80\n      dup3\n      add\n      mload\n      dup2\n      0x04\n      add\n      swap1\n      dup2\n      tag_262\n      swap2\n      swap1\n      tag_259\n      jump\t// in\n    tag_262:\n      pop\n      swap1\n      pop\n      pop\n        /* \"contracts/Portfolio.sol\":3178:3590  function changeEducation(string calldata _date,string calldata _degree,string calldata _knowledgeAcquired,string calldata _instutionName,uint256 _educationDetailCount) external onlyOwner{... */\n      pop\n      pop\n      pop\n      pop\n      pop\n      pop\n      pop\n      pop\n      pop\n      jump\t// out\n        /* \"contracts/Portfolio.sol\":1757:1830  string public resumeLink=\"QmcDBQSWSTgQdbZSek1fNkXAAZSbB8DXC66stBegbkkDgW\" */\n    tag_64:\n      0x70\n      dup1\n      sload\n      tag_263\n      swap1\n      tag_119\n      jump\t// in\n    tag_263:\n      dup1\n      0x1f\n      add\n      0x20\n      dup1\n      swap2\n      div\n      mul\n      0x20\n      add\n      mload(0x40)\n      swap1\n      dup2\n      add\n      0x40\n      mstore\n      dup1\n      swap3\n      swap2\n      swap1\n      dup2\n      dup2\n      mstore\n      0x20\n      add\n      dup3\n      dup1\n      sload\n      tag_264\n      swap1\n      tag_119\n      jump\t// in\n    tag_264:\n      dup1\n      iszero\n      tag_265\n      jumpi\n      dup1\n      0x1f\n      lt\n      tag_266\n      jumpi\n      0x0100\n      dup1\n      dup4\n      sload\n      div\n      mul\n      dup4\n      mstore\n      swap2\n      0x20\n      add\n      swap2\n      jump(tag_265)\n    tag_266:\n      dup3\n      add\n      swap2\n      swap1\n      0x00\n      mstore\n      keccak256(0x00, 0x20)\n      swap1\n    tag_267:\n      dup2\n      sload\n      dup2\n      mstore\n      swap1\n      0x01\n      add\n      swap1\n      0x20\n      add\n      dup1\n      dup4\n      gt\n      tag_267\n      jumpi\n      dup3\n      swap1\n      sub\n      0x1f\n      and\n      dup3\n      add\n      swap2\n    tag_265:\n      pop\n      pop\n      pop\n      pop\n      pop\n      dup2\n      jump\t// out\n        /* \"contracts/Portfolio.sol\":3702:4067  function insertExperience(string calldata _date,string calldata _post,string calldata _knowledgeAcquired,string calldata _companyName) external onlyOwner{... */\n    tag_71:\n        /* \"contracts/Portfolio.sol\":2009:2019  msg.sender */\n      caller\n        /* \"contracts/Portfolio.sol\":2000:2019  owner == msg.sender */\n      0xffffffffffffffffffffffffffffffffffffffff\n      and\n        /* \"contracts/Portfolio.sol\":2000:2005  owner */\n      0x74\n      0x00\n      swap1\n      sload\n      swap1\n      0x0100\n      exp\n      swap1\n      div\n      0xffffffffffffffffffffffffffffffffffffffff\n      and\n        /* \"contracts/Portfolio.sol\":2000:2019  owner == msg.sender */\n      0xffffffffffffffffffffffffffffffffffffffff\n      and\n      eq\n        /* \"contracts/Portfolio.sol\":1992:2045  require(owner == msg.sender, \"You are not the owner\") */\n      tag_269\n      jumpi\n      mload(0x40)\n      0x08c379a000000000000000000000000000000000000000000000000000000000\n      dup2\n      mstore\n      0x04\n      add\n      tag_270\n      swap1\n      tag_242\n      jump\t// in\n    tag_270:\n      mload(0x40)\n      dup1\n      swap2\n      sub\n      swap1\n      revert\n    tag_269:\n        /* \"contracts/Portfolio.sol\":3886:3887  3 */\n      0x03\n        /* \"contracts/Portfolio.sol\":3870:3885  experienceCount */\n      sload(0x73)\n        /* \"contracts/Portfolio.sol\":3870:3887  experienceCount<3 */\n      lt\n        /* \"contracts/Portfolio.sol\":3862:3923  require(experienceCount<3,\"Only 4 education details allowed\") */\n      tag_272\n      jumpi\n      mload(0x40)\n      0x08c379a000000000000000000000000000000000000000000000000000000000\n      dup2\n      mstore\n      0x04\n      add\n      tag_273\n      swap1\n      tag_274\n      jump\t// in\n    tag_273:\n      mload(0x40)\n      dup1\n      swap2\n      sub\n      swap1\n      revert\n    tag_272:\n        /* \"contracts/Portfolio.sol\":3965:4036  Experience(experienceCount,_date,_post,_knowledgeAcquired,_companyName) */\n      mload(0x40)\n      dup1\n      0xa0\n      add\n      0x40\n      mstore\n      dup1\n        /* \"contracts/Portfolio.sol\":3976:3991  experienceCount */\n      sload(0x73)\n        /* \"contracts/Portfolio.sol\":3965:4036  Experience(experienceCount,_date,_post,_knowledgeAcquired,_companyName) */\n      dup2\n      mstore\n      0x20\n      add\n        /* \"contracts/Portfolio.sol\":3992:3997  _date */\n      dup10\n      dup10\n        /* \"contracts/Portfolio.sol\":3965:4036  Experience(experienceCount,_date,_post,_knowledgeAcquired,_companyName) */\n      dup1\n      dup1\n      0x1f\n      add\n      0x20\n      dup1\n      swap2\n      div\n      mul\n      0x20\n      add\n      mload(0x40)\n      swap1\n      dup2\n      add\n      0x40\n      mstore\n      dup1\n      swap4\n      swap3\n      swap2\n      swap1\n      dup2\n      dup2\n      mstore\n      0x20\n      add\n      dup4\n      dup4\n      dup1\n      dup3\n      dup5\n      calldatacopy\n      0x00\n      dup2\n      dup5\n      add\n      mstore\n      not(0x1f)\n      0x1f\n      dup3\n      add\n      and\n      swap1\n      pop\n      dup1\n      dup4\n      add\n      swap3\n      pop\n      pop\n      pop\n      pop\n      pop\n      pop\n      pop\n      dup2\n      mstore\n      0x20\n      add\n        /* \"contracts/Portfolio.sol\":3998:4003  _post */\n      dup8\n      dup8\n        /* \"contracts/Portfolio.sol\":3965:4036  Experience(experienceCount,_date,_post,_knowledgeAcquired,_companyName) */\n      dup1\n      dup1\n      0x1f\n      add\n      0x20\n      dup1\n      swap2\n      div\n      mul\n      0x20\n      add\n      mload(0x40)\n      swap1\n      dup2\n      add\n      0x40\n      mstore\n      dup1\n      swap4\n      swap3\n      swap2\n      swap1\n      dup2\n      dup2\n      mstore\n      0x20\n      add\n      dup4\n      dup4\n      dup1\n      dup3\n      dup5\n      calldatacopy\n      0x00\n      dup2\n      dup5\n      add\n      mstore\n      not(0x1f)\n      0x1f\n      dup3\n      add\n      and\n      swap1\n      pop\n      dup1\n      dup4\n      add\n      swap3\n      pop\n      pop\n      pop\n      pop\n      pop\n      pop\n      pop\n      dup2\n      mstore\n      0x20\n      add\n        /* \"contracts/Portfolio.sol\":4004:4022  _knowledgeAcquired */\n      dup6\n      dup6\n        /* \"contracts/Portfolio.sol\":3965:4036  Experience(experienceCount,_date,_post,_knowledgeAcquired,_companyName) */\n      dup1\n      dup1\n      0x1f\n      add\n      0x20\n      dup1\n      swap2\n      div\n      mul\n      0x20\n      add\n      mload(0x40)\n      swap1\n      dup2\n      add\n      0x40\n      mstore\n      dup1\n      swap4\n      swap3\n      swap2\n      swap1\n      dup2\n      dup2\n      mstore\n      0x20\n      add\n      dup4\n      dup4\n      dup1\n      dup3\n      dup5\n      calldatacopy\n      0x00\n      dup2\n      dup5\n      add\n      mstore\n      not(0x1f)\n      0x1f\n      dup3\n      add\n      and\n      swap1\n      pop\n      dup1\n      dup4\n      add\n      swap3\n      pop\n      pop\n      pop\n      pop\n      pop\n      pop\n      pop\n      dup2\n      mstore\n      0x20\n      add\n        /* \"contracts/Portfolio.sol\":4023:4035  _companyName */\n      dup4\n      dup4\n        /* \"contracts/Portfolio.sol\":3965:4036  Experience(experienceCount,_date,_post,_knowledgeAcquired,_companyName) */\n      dup1\n      dup1\n      0x1f\n      add\n      0x20\n      dup1\n      swap2\n      div\n      mul\n      0x20\n      add\n      mload(0x40)\n      swap1\n      dup2\n      add\n      0x40\n      mstore\n      dup1\n      swap4\n      swap3\n      swap2\n      swap1\n      dup2\n      dup2\n      mstore\n      0x20\n      add\n      dup4\n      dup4\n      dup1\n      dup3\n      dup5\n      calldatacopy\n      0x00\n      dup2\n      dup5\n      add\n      mstore\n      not(0x1f)\n      0x1f\n      dup3\n      add\n      and\n      swap1\n      pop\n      dup1\n      dup4\n      add\n      swap3\n      pop\n      pop\n      pop\n      pop\n      pop\n      pop\n      pop\n      dup2\n      mstore\n      pop\n        /* \"contracts/Portfolio.sol\":3930:3947  experienceDetails */\n      0x5a\n        /* \"contracts/Portfolio.sol\":3948:3963  experienceCount */\n      sload(0x73)\n        /* \"contracts/Portfolio.sol\":3930:3964  experienceDetails[experienceCount] */\n      0x04\n      dup2\n      lt\n      tag_275\n      jumpi\n      tag_276\n      tag_256\n      jump\t// in\n    tag_276:\n    tag_275:\n      0x05\n      mul\n      add\n        /* \"contracts/Portfolio.sol\":3930:4036  experienceDetails[experienceCount]=Experience(experienceCount,_date,_post,_knowledgeAcquired,_companyName) */\n      0x00\n      dup3\n      add\n      mload\n      dup2\n      0x00\n      add\n      sstore\n      0x20\n      dup3\n      add\n      mload\n      dup2\n      0x01\n      add\n      swap1\n      dup2\n      tag_278\n      swap2\n      swap1\n      tag_259\n      jump\t// in\n    tag_278:\n      pop\n      0x40\n      dup3\n      add\n      mload\n      dup2\n      0x02\n      add\n      swap1\n      dup2\n      tag_279\n      swap2\n      swap1\n      tag_259\n      jump\t// in\n    tag_279:\n      pop\n      0x60\n      dup3\n      add\n      mload\n      dup2\n      0x03\n      add\n      swap1\n      dup2\n      tag_280\n      swap2\n      swap1\n      tag_259\n      jump\t// in\n    tag_280:\n      pop\n      0x80\n      dup3\n      add\n      mload\n      dup2\n      0x04\n      add\n      swap1\n      dup2\n      tag_281\n      swap2\n      swap1\n      tag_259\n      jump\t// in\n    tag_281:\n      pop\n      swap1\n      pop\n      pop\n        /* \"contracts/Portfolio.sol\":4043:4058  experienceCount */\n      0x73\n      0x00\n        /* \"contracts/Portfolio.sol\":4043:4060  experienceCount++ */\n      dup2\n      sload\n      dup1\n      swap3\n      swap2\n      swap1\n      tag_282\n      swap1\n      tag_283\n      jump\t// in\n    tag_282:\n      swap2\n      swap1\n      pop\n      sstore\n      pop\n        /* \"contracts/Portfolio.sol\":3702:4067  function insertExperience(string calldata _date,string calldata _post,string calldata _knowledgeAcquired,string calldata _companyName) external onlyOwner{... */\n      pop\n      pop\n      pop\n      pop\n      pop\n      pop\n      pop\n      pop\n      jump\t// out\n        /* \"contracts/Portfolio.sol\":2054:2366  function insertProject(string calldata _name,string calldata _description,string calldata _image,string calldata _githubLink) external{... */\n    tag_75:\n        /* \"contracts/Portfolio.sol\":2217:2219  14 */\n      0x0e\n        /* \"contracts/Portfolio.sol\":2204:2216  projectCount */\n      sload(0x71)\n        /* \"contracts/Portfolio.sol\":2204:2219  projectCount<14 */\n      lt\n        /* \"contracts/Portfolio.sol\":2196:2248  require(projectCount<14, \"Only 14 projects allowed\") */\n      tag_285\n      jumpi\n      mload(0x40)\n      0x08c379a000000000000000000000000000000000000000000000000000000000\n      dup2\n      mstore\n      0x04\n      add\n      tag_286\n      swap1\n      tag_287\n      jump\t// in\n    tag_286:\n      mload(0x40)\n      dup1\n      swap2\n      sub\n      swap1\n      revert\n    tag_285:\n        /* \"contracts/Portfolio.sol\":2281:2340  Project(projectCount,_name,_description,_image,_githubLink) */\n      mload(0x40)\n      dup1\n      0xa0\n      add\n      0x40\n      mstore\n      dup1\n        /* \"contracts/Portfolio.sol\":2289:2301  projectCount */\n      sload(0x71)\n        /* \"contracts/Portfolio.sol\":2281:2340  Project(projectCount,_name,_description,_image,_githubLink) */\n      dup2\n      mstore\n      0x20\n      add\n        /* \"contracts/Portfolio.sol\":2302:2307  _name */\n      dup10\n      dup10\n        /* \"contracts/Portfolio.sol\":2281:2340  Project(projectCount,_name,_description,_image,_githubLink) */\n      dup1\n      dup1\n      0x1f\n      add\n      0x20\n      dup1\n      swap2\n      div\n      mul\n      0x20\n      add\n      mload(0x40)\n      swap1\n      dup2\n      add\n      0x40\n      mstore\n      dup1\n      swap4\n      swap3\n      swap2\n      swap1\n      dup2\n      dup2\n      mstore\n      0x20\n      add\n      dup4\n      dup4\n      dup1\n      dup3\n      dup5\n      calldatacopy\n      0x00\n      dup2\n      dup5\n      add\n      mstore\n      not(0x1f)\n      0x1f\n      dup3\n      add\n      and\n      swap1\n      pop\n      dup1\n      dup4\n      add\n      swap3\n      pop\n      pop\n      pop\n      pop\n      pop\n      pop\n      pop\n      dup2\n      mstore\n      0x20\n      add\n        /* \"contracts/Portfolio.sol\":2308:2320  _description */\n      dup8\n      dup8\n        /* \"contracts/Portfolio.sol\":2281:2340  Project(projectCount,_name,_description,_image,_githubLink) */\n      dup1\n      dup1\n      0x1f\n      add\n      0x20\n      dup1\n      swap2\n      div\n      mul\n      0x20\n      add\n      mload(0x40)\n      swap1\n      dup2\n      add\n      0x40\n      mstore\n      dup1\n      swap4\n      swap3\n      swap2\n      swap1\n      dup2\n      dup2\n      mstore\n      0x20\n      add\n      dup4\n      dup4\n      dup1\n      dup3\n      dup5\n      calldatacopy\n      0x00\n      dup2\n      dup5\n      add\n      mstore\n      not(0x1f)\n      0x1f\n      dup3\n      add\n      and\n      swap1\n      pop\n      dup1\n      dup4\n      add\n      swap3\n      pop\n      pop\n      pop\n      pop\n      pop\n      pop\n      pop\n      dup2\n      mstore\n      0x20\n      add\n        /* \"contracts/Portfolio.sol\":2321:2327  _image */\n      dup6\n      dup6\n        /* \"contracts/Portfolio.sol\":2281:2340  Project(projectCount,_name,_description,_image,_githubLink) */\n      dup1\n      dup1\n      0x1f\n      add\n      0x20\n      dup1\n      swap2\n      div\n      mul\n      0x20\n      add\n      mload(0x40)\n      swap1\n      dup2\n      add\n      0x40\n      mstore\n      dup1\n      swap4\n      swap3\n      swap2\n      swap1\n      dup2\n      dup2\n      mstore\n      0x20\n      add\n      dup4\n      dup4\n      dup1\n      dup3\n      dup5\n      calldatacopy\n      0x00\n      dup2\n      dup5\n      add\n      mstore\n      not(0x1f)\n      0x1f\n      dup3\n      add\n      and\n      swap1\n      pop\n      dup1\n      dup4\n      add\n      swap3\n      pop\n      pop\n      pop\n      pop\n      pop\n      pop\n      pop\n      dup2\n      mstore\n      0x20\n      add\n        /* \"contracts/Portfolio.sol\":2328:2339  _githubLink */\n      dup4\n      dup4\n        /* \"contracts/Portfolio.sol\":2281:2340  Project(projectCount,_name,_description,_image,_githubLink) */\n      dup1\n      dup1\n      0x1f\n      add\n      0x20\n      dup1\n      swap2\n      div\n      mul\n      0x20\n      add\n      mload(0x40)\n      swap1\n      dup2\n      add\n      0x40\n      mstore\n      dup1\n      swap4\n      swap3\n      swap2\n      swap1\n      dup2\n      dup2\n      mstore\n      0x20\n      add\n      dup4\n      dup4\n      dup1\n      dup3\n      dup5\n      calldatacopy\n      0x00\n      dup2\n      dup5\n      add\n      mstore\n      not(0x1f)\n      0x1f\n      dup3\n      add\n      and\n      swap1\n      pop\n      dup1\n      dup4\n      add\n      swap3\n      pop\n      pop\n      pop\n      pop\n      pop\n      pop\n      pop\n      dup2\n      mstore\n      pop\n        /* \"contracts/Portfolio.sol\":2256:2264  projects */\n      0x00\n        /* \"contracts/Portfolio.sol\":2265:2277  projectCount */\n      sload(0x71)\n        /* \"contracts/Portfolio.sol\":2256:2278  projects[projectCount] */\n      0x0e\n      dup2\n      lt\n      tag_288\n      jumpi\n      tag_289\n      tag_256\n      jump\t// in\n    tag_289:\n    tag_288:\n      0x05\n      mul\n      add\n        /* \"contracts/Portfolio.sol\":2256:2340  projects[projectCount] = Project(projectCount,_name,_description,_image,_githubLink) */\n      0x00\n      dup3\n      add\n      mload\n      dup2\n      0x00\n      add\n      sstore\n      0x20\n      dup3\n      add\n      mload\n      dup2\n      0x01\n      add\n      swap1\n      dup2\n      tag_291\n      swap2\n      swap1\n      tag_259\n      jump\t// in\n    tag_291:\n      pop\n      0x40\n      dup3\n      add\n      mload\n      dup2\n      0x02\n      add\n      swap1\n      dup2\n      tag_292\n      swap2\n      swap1\n      tag_259\n      jump\t// in\n    tag_292:\n      pop\n      0x60\n      dup3\n      add\n      mload\n      dup2\n      0x03\n      add\n      swap1\n      dup2\n      tag_293\n      swap2\n      swap1\n      tag_259\n      jump\t// in\n    tag_293:\n      pop\n      0x80\n      dup3\n      add\n      mload\n      dup2\n      0x04\n      add\n      swap1\n      dup2\n      tag_294\n      swap2\n      swap1\n      tag_259\n      jump\t// in\n    tag_294:\n      pop\n      swap1\n      pop\n      pop\n        /* \"contracts/Portfolio.sol\":2347:2359  projectCount */\n      0x71\n      0x00\n        /* \"contracts/Portfolio.sol\":2347:2361  projectCount++ */\n      dup2\n      sload\n      dup1\n      swap3\n      swap2\n      swap1\n      tag_295\n      swap1\n      tag_283\n      jump\t// in\n    tag_295:\n      swap2\n      swap1\n      pop\n      sstore\n      pop\n        /* \"contracts/Portfolio.sol\":2054:2366  function insertProject(string calldata _name,string calldata _description,string calldata _image,string calldata _githubLink) external{... */\n      pop\n      pop\n      pop\n      pop\n      pop\n      pop\n      pop\n      pop\n      jump\t// out\n        /* \"contracts/Portfolio.sol\":2370:2706  function changeProject(string calldata _name,string calldata _description,string calldata _image,string calldata _githubLink,uint256 _projectCount) external{... */\n    tag_79:\n        /* \"contracts/Portfolio.sol\":2558:2559  0 */\n      0x00\n        /* \"contracts/Portfolio.sol\":2543:2556  _projectCount */\n      dup2\n        /* \"contracts/Portfolio.sol\":2543:2559  _projectCount>=0 */\n      lt\n      iszero\n        /* \"contracts/Portfolio.sol\":2543:2579  _projectCount>=0 && _projectCount<14 */\n      dup1\n      iszero\n      tag_297\n      jumpi\n      pop\n        /* \"contracts/Portfolio.sol\":2577:2579  14 */\n      0x0e\n        /* \"contracts/Portfolio.sol\":2563:2576  _projectCount */\n      dup2\n        /* \"contracts/Portfolio.sol\":2563:2579  _projectCount<14 */\n      lt\n        /* \"contracts/Portfolio.sol\":2543:2579  _projectCount>=0 && _projectCount<14 */\n    tag_297:\n        /* \"contracts/Portfolio.sol\":2535:2607  require(_projectCount>=0 && _projectCount<14,\"Only 14 projects allowed\") */\n      tag_298\n      jumpi\n      mload(0x40)\n      0x08c379a000000000000000000000000000000000000000000000000000000000\n      dup2\n      mstore\n      0x04\n      add\n      tag_299\n      swap1\n      tag_287\n      jump\t// in\n    tag_299:\n      mload(0x40)\n      dup1\n      swap2\n      sub\n      swap1\n      revert\n    tag_298:\n        /* \"contracts/Portfolio.sol\":2641:2701  Project(_projectCount,_name,_description,_image,_githubLink) */\n      mload(0x40)\n      dup1\n      0xa0\n      add\n      0x40\n      mstore\n      dup1\n        /* \"contracts/Portfolio.sol\":2649:2662  _projectCount */\n      dup3\n        /* \"contracts/Portfolio.sol\":2641:2701  Project(_projectCount,_name,_description,_image,_githubLink) */\n      dup2\n      mstore\n      0x20\n      add\n        /* \"contracts/Portfolio.sol\":2663:2668  _name */\n      dup11\n      dup11\n        /* \"contracts/Portfolio.sol\":2641:2701  Project(_projectCount,_name,_description,_image,_githubLink) */\n      dup1\n      dup1\n      0x1f\n      add\n      0x20\n      dup1\n      swap2\n      div\n      mul\n      0x20\n      add\n      mload(0x40)\n      swap1\n      dup2\n      add\n      0x40\n      mstore\n      dup1\n      swap4\n      swap3\n      swap2\n      swap1\n      dup2\n      dup2\n      mstore\n      0x20\n      add\n      dup4\n      dup4\n      dup1\n      dup3\n      dup5\n      calldatacopy\n      0x00\n      dup2\n      dup5\n      add\n      mstore\n      not(0x1f)\n      0x1f\n      dup3\n      add\n      and\n      swap1\n      pop\n      dup1\n      dup4\n      add\n      swap3\n      pop\n      pop\n      pop\n      pop\n      pop\n      pop\n      pop\n      dup2\n      mstore\n      0x20\n      add\n        /* \"contracts/Portfolio.sol\":2669:2681  _description */\n      dup9\n      dup9\n        /* \"contracts/Portfolio.sol\":2641:2701  Project(_projectCount,_name,_description,_image,_githubLink) */\n      dup1\n      dup1\n      0x1f\n      add\n      0x20\n      dup1\n      swap2\n      div\n      mul\n      0x20\n      add\n      mload(0x40)\n      swap1\n      dup2\n      add\n      0x40\n      mstore\n      dup1\n      swap4\n      swap3\n      swap2\n      swap1\n      dup2\n      dup2\n      mstore\n      0x20\n      add\n      dup4\n      dup4\n      dup1\n      dup3\n      dup5\n      calldatacopy\n      0x00\n      dup2\n      dup5\n      add\n      mstore\n      not(0x1f)\n      0x1f\n      dup3\n      add\n      and\n      swap1\n      pop\n      dup1\n      dup4\n      add\n      swap3\n      pop\n      pop\n      pop\n      pop\n      pop\n      pop\n      pop\n      dup2\n      mstore\n      0x20\n      add\n        /* \"contracts/Portfolio.sol\":2682:2688  _image */\n      dup7\n      dup7\n        /* \"contracts/Portfolio.sol\":2641:2701  Project(_projectCount,_name,_description,_image,_githubLink) */\n      dup1\n      dup1\n      0x1f\n      add\n      0x20\n      dup1\n      swap2\n      div\n      mul\n      0x20\n      add\n      mload(0x40)\n      swap1\n      dup2\n      add\n      0x40\n      mstore\n      dup1\n      swap4\n      swap3\n      swap2\n      swap1\n      dup2\n      dup2\n      mstore\n      0x20\n      add\n      dup4\n      dup4\n      dup1\n      dup3\n      dup5\n      calldatacopy\n      0x00\n      dup2\n      dup5\n      add\n      mstore\n      not(0x1f)\n      0x1f\n      dup3\n      add\n      and\n      swap1\n      pop\n      dup1\n      dup4\n      add\n      swap3\n      pop\n      pop\n      pop\n      pop\n      pop\n      pop\n      pop\n      dup2\n      mstore\n      0x20\n      add\n        /* \"contracts/Portfolio.sol\":2689:2700  _githubLink */\n      dup5\n      dup5\n        /* \"contracts/Portfolio.sol\":2641:2701  Project(_projectCount,_name,_description,_image,_githubLink) */\n      dup1\n      dup1\n      0x1f\n      add\n      0x20\n      dup1\n      swap2\n      div\n      mul\n      0x20\n      add\n      mload(0x40)\n      swap1\n      dup2\n      add\n      0x40\n      mstore\n      dup1\n      swap4\n      swap3\n      swap2\n      swap1\n      dup2\n      dup2\n      mstore\n      0x20\n      add\n      dup4\n      dup4\n      dup1\n      dup3\n      dup5\n      calldatacopy\n      0x00\n      dup2\n      dup5\n      add\n      mstore\n      not(0x1f)\n      0x1f\n      dup3\n      add\n      and\n      swap1\n      pop\n      dup1\n      dup4\n      add\n      swap3\n      pop\n      pop\n      pop\n      pop\n      pop\n      pop\n      pop\n      dup2\n      mstore\n      pop\n        /* \"contracts/Portfolio.sol\":2615:2623  projects */\n      0x00\n        /* \"contracts/Portfolio.sol\":2624:2637  _projectCount */\n      dup3\n        /* \"contracts/Portfolio.sol\":2615:2638  projects[_projectCount] */\n      0x0e\n      dup2\n      lt\n      tag_300\n      jumpi\n      tag_301\n      tag_256\n      jump\t// in\n    tag_301:\n    tag_300:\n      0x05\n      mul\n      add\n        /* \"contracts/Portfolio.sol\":2615:2701  projects[_projectCount] = Project(_projectCount,_name,_description,_image,_githubLink) */\n      0x00\n      dup3\n      add\n      mload\n      dup2\n      0x00\n      add\n      sstore\n      0x20\n      dup3\n      add\n      mload\n      dup2\n      0x01\n      add\n      swap1\n      dup2\n      tag_303\n      swap2\n      swap1\n      tag_259\n      jump\t// in\n    tag_303:\n      pop\n      0x40\n      dup3\n      add\n      mload\n      dup2\n      0x02\n      add\n      swap1\n      dup2\n      tag_304\n      swap2\n      swap1\n      tag_259\n      jump\t// in\n    tag_304:\n      pop\n      0x60\n      dup3\n      add\n      mload\n      dup2\n      0x03\n      add\n      swap1\n      dup2\n      tag_305\n      swap2\n      swap1\n      tag_259\n      jump\t// in\n    tag_305:\n      pop\n      0x80\n      dup3\n      add\n      mload\n      dup2\n      0x04\n      add\n      swap1\n      dup2\n      tag_306\n      swap2\n      swap1\n      tag_259\n      jump\t// in\n    tag_306:\n      pop\n      swap1\n      pop\n      pop\n        /* \"contracts/Portfolio.sol\":2370:2706  function changeProject(string calldata _name,string calldata _description,string calldata _image,string calldata _githubLink,uint256 _projectCount) external{... */\n      pop\n      pop\n      pop\n      pop\n      pop\n      pop\n      pop\n      pop\n      pop\n      jump\t// out\n        /* \"contracts/Portfolio.sol\":1611:1755  string public description=\"Over six months of relevant experience and solid expertise in blockchain development.I contribute to web3 community.\" */\n    tag_82:\n      0x6f\n      dup1\n      sload\n      tag_307\n      swap1\n      tag_119\n      jump\t// in\n    tag_307:\n      dup1\n      0x1f\n      add\n      0x20\n      dup1\n      swap2\n      div\n      mul\n      0x20\n      add\n      mload(0x40)\n      swap1\n      dup2\n      add\n      0x40\n      mstore\n      dup1\n      swap3\n      swap2\n      swap1\n      dup2\n      dup2\n      mstore\n      0x20\n      add\n      dup3\n      dup1\n      sload\n      tag_308\n      swap1\n      tag_119\n      jump\t// in\n    tag_308:\n      dup1\n      iszero\n      tag_309\n      jumpi\n      dup1\n      0x1f\n      lt\n      tag_310\n      jumpi\n      0x0100\n      dup1\n      dup4\n      sload\n      div\n      mul\n      dup4\n      mstore\n      swap2\n      0x20\n      add\n      swap2\n      jump(tag_309)\n    tag_310:\n      dup3\n      add\n      swap2\n      swap1\n      0x00\n      mstore\n      keccak256(0x00, 0x20)\n      swap1\n    tag_311:\n      dup2\n      sload\n      dup2\n      mstore\n      swap1\n      0x01\n      add\n      swap1\n      0x20\n      add\n      dup1\n      dup4\n      gt\n      tag_311\n      jumpi\n      dup3\n      swap1\n      sub\n      0x1f\n      and\n      dup3\n      add\n      swap2\n    tag_309:\n      pop\n      pop\n      pop\n      pop\n      pop\n      dup2\n      jump\t// out\n        /* \"contracts/Portfolio.sol\":1457:1493  Education[4] public educationDetails */\n    tag_87:\n      0x46\n      dup2\n      0x04\n      dup2\n      lt\n      tag_312\n      jumpi\n      0x00\n      dup1\n      revert\n    tag_312:\n      0x05\n      mul\n      add\n      0x00\n      swap2\n      pop\n      swap1\n      pop\n      dup1\n      0x00\n      add\n      sload\n      swap1\n      dup1\n      0x01\n      add\n      dup1\n      sload\n      tag_314\n      swap1\n      tag_119\n      jump\t// in\n    tag_314:\n      dup1\n      0x1f\n      add\n      0x20\n      dup1\n      swap2\n      div\n      mul\n      0x20\n      add\n      mload(0x40)\n      swap1\n      dup2\n      add\n      0x40\n      mstore\n      dup1\n      swap3\n      swap2\n      swap1\n      dup2\n      dup2\n      mstore\n      0x20\n      add\n      dup3\n      dup1\n      sload\n      tag_315\n      swap1\n      tag_119\n      jump\t// in\n    tag_315:\n      dup1\n      iszero\n      tag_316\n      jumpi\n      dup1\n      0x1f\n      lt\n      tag_317\n      jumpi\n      0x0100\n      dup1\n      dup4\n      sload\n      div\n      mul\n      dup4\n      mstore\n      swap2\n      0x20\n      add\n      swap2\n      jump(tag_316)\n    tag_317:\n      dup3\n      add\n      swap2\n      swap1\n      0x00\n      mstore\n      keccak256(0x00, 0x20)\n      swap1\n    tag_318:\n      dup2\n      sload\n      dup2\n      mstore\n      swap1\n      0x01\n      add\n      swap1\n      0x20\n      add\n      dup1\n      dup4\n      gt\n      tag_318\n      jumpi\n      dup3\n      swap1\n      sub\n      0x1f\n      and\n      dup3\n      add\n      swap2\n    tag_316:\n      pop\n      pop\n      pop\n      pop\n      pop\n      swap1\n      dup1\n      0x02\n      add\n      dup1\n      sload\n      tag_319\n      swap1\n      tag_119\n      jump\t// in\n    tag_319:\n      dup1\n      0x1f\n      add\n      0x20\n      dup1\n      swap2\n      div\n      mul\n      0x20\n      add\n      mload(0x40)\n      swap1\n      dup2\n      add\n      0x40\n      mstore\n      dup1\n      swap3\n      swap2\n      swap1\n      dup2\n      dup2\n      mstore\n      0x20\n      add\n      dup3\n      dup1\n      sload\n      tag_320\n      swap1\n      tag_119\n      jump\t// in\n    tag_320:\n      dup1\n      iszero\n      tag_321\n      jumpi\n      dup1\n      0x1f\n      lt\n      tag_322\n      jumpi\n      0x0100\n      dup1\n      dup4\n      sload\n      div\n      mul\n      dup4\n      mstore\n      swap2\n      0x20\n      add\n      swap2\n      jump(tag_321)\n    tag_322:\n      dup3\n      add\n      swap2\n      swap1\n      0x00\n      mstore\n      keccak256(0x00, 0x20)\n      swap1\n    tag_323:\n      dup2\n      sload\n      dup2\n      mstore\n      swap1\n      0x01\n      add\n      swap1\n      0x20\n      add\n      dup1\n      dup4\n      gt\n      tag_323\n      jumpi\n      dup3\n      swap1\n      sub\n      0x1f\n      and\n      dup3\n      add\n      swap2\n    tag_321:\n      pop\n      pop\n      pop\n      pop\n      pop\n      swap1\n      dup1\n      0x03\n      add\n      dup1\n      sload\n      tag_324\n      swap1\n      tag_119\n      jump\t// in\n    tag_324:\n      dup1\n      0x1f\n      add\n      0x20\n      dup1\n      swap2\n      div\n      mul\n      0x20\n      add\n      mload(0x40)\n      swap1\n      dup2\n      add\n      0x40\n      mstore\n      dup1\n      swap3\n      swap2\n      swap1\n      dup2\n      dup2\n      mstore\n      0x20\n      add\n      dup3\n      dup1\n      sload\n      tag_325\n      swap1\n      tag_119\n      jump\t// in\n    tag_325:\n      dup1\n      iszero\n      tag_326\n      jumpi\n      dup1\n      0x1f\n      lt\n      tag_327\n      jumpi\n      0x0100\n      dup1\n      dup4\n      sload\n      div\n      mul\n      dup4\n      mstore\n      swap2\n      0x20\n      add\n      swap2\n      jump(tag_326)\n    tag_327:\n      dup3\n      add\n      swap2\n      swap1\n      0x00\n      mstore\n      keccak256(0x00, 0x20)\n      swap1\n    tag_328:\n      dup2\n      sload\n      dup2\n      mstore\n      swap1\n      0x01\n      add\n      swap1\n      0x20\n      add\n      dup1\n      dup4\n      gt\n      tag_328\n      jumpi\n      dup3\n      swap1\n      sub\n      0x1f\n      and\n      dup3\n      add\n      swap2\n    tag_326:\n      pop\n      pop\n      pop\n      pop\n      pop\n      swap1\n      dup1\n      0x04\n      add\n      dup1\n      sload\n      tag_329\n      swap1\n      tag_119\n      jump\t// in\n    tag_329:\n      dup1\n      0x1f\n      add\n      0x20\n      dup1\n      swap2\n      div\n      mul\n      0x20\n      add\n      mload(0x40)\n      swap1\n      dup2\n      add\n      0x40\n      mstore\n      dup1\n      swap3\n      swap2\n      swap1\n      dup2\n      dup2\n      mstore\n      0x20\n      add\n      dup3\n      dup1\n      sload\n      tag_330\n      swap1\n      tag_119\n      jump\t// in\n    tag_330:\n      dup1\n      iszero\n      tag_331\n      jumpi\n      dup1\n      0x1f\n      lt\n      tag_332\n      jumpi\n      0x0100\n      dup1\n      dup4\n      sload\n      div\n      mul\n      dup4\n      mstore\n      swap2\n      0x20\n      add\n      swap2\n      jump(tag_331)\n    tag_332:\n      dup3\n      add\n      swap2\n      swap1\n      0x00\n      mstore\n      keccak256(0x00, 0x20)\n      swap1\n    tag_333:\n      dup2\n      sload\n      dup2\n      mstore\n      swap1\n      0x01\n      add\n      swap1\n      0x20\n      add\n      dup1\n      dup4\n      gt\n      tag_333\n      jumpi\n      dup3\n      swap1\n      sub\n      0x1f\n      and\n      dup3\n      add\n      swap2\n    tag_331:\n      pop\n      pop\n      pop\n      pop\n      pop\n      swap1\n      pop\n      dup6\n      jump\t// out\n        /* \"contracts/Portfolio.sol\":1906:1926  address public owner */\n    tag_91:\n      0x74\n      0x00\n      swap1\n      sload\n      swap1\n      0x0100\n      exp\n      swap1\n      div\n      0xffffffffffffffffffffffffffffffffffffffff\n      and\n      dup2\n      jump\t// out\n        /* \"contracts/Portfolio.sol\":2808:3174  function insertEducation(string calldata _date,string calldata _degree,string calldata _knowledgeAcquired,string calldata _instutionName) external onlyOwner{... */\n    tag_97:\n        /* \"contracts/Portfolio.sol\":2009:2019  msg.sender */\n      caller\n        /* \"contracts/Portfolio.sol\":2000:2019  owner == msg.sender */\n      0xffffffffffffffffffffffffffffffffffffffff\n      and\n        /* \"contracts/Portfolio.sol\":2000:2005  owner */\n      0x74\n      0x00\n      swap1\n      sload\n      swap1\n      0x0100\n      exp\n      swap1\n      div\n      0xffffffffffffffffffffffffffffffffffffffff\n      and\n        /* \"contracts/Portfolio.sol\":2000:2019  owner == msg.sender */\n      0xffffffffffffffffffffffffffffffffffffffff\n      and\n      eq\n        /* \"contracts/Portfolio.sol\":1992:2045  require(owner == msg.sender, \"You are not the owner\") */\n      tag_335\n      jumpi\n      mload(0x40)\n      0x08c379a000000000000000000000000000000000000000000000000000000000\n      dup2\n      mstore\n      0x04\n      add\n      tag_336\n      swap1\n      tag_242\n      jump\t// in\n    tag_336:\n      mload(0x40)\n      dup1\n      swap2\n      sub\n      swap1\n      revert\n    tag_335:\n        /* \"contracts/Portfolio.sol\":2994:2995  4 */\n      0x04\n        /* \"contracts/Portfolio.sol\":2979:2993  educationCount */\n      sload(0x72)\n        /* \"contracts/Portfolio.sol\":2979:2995  educationCount<4 */\n      lt\n        /* \"contracts/Portfolio.sol\":2971:3031  require(educationCount<4,\"Only 4 education details allowed\") */\n      tag_338\n      jumpi\n      mload(0x40)\n      0x08c379a000000000000000000000000000000000000000000000000000000000\n      dup2\n      mstore\n      0x04\n      add\n      tag_339\n      swap1\n      tag_274\n      jump\t// in\n    tag_339:\n      mload(0x40)\n      dup1\n      swap2\n      sub\n      swap1\n      revert\n    tag_338:\n        /* \"contracts/Portfolio.sol\":3071:3144  Education(educationCount,_date,_degree,_knowledgeAcquired,_instutionName) */\n      mload(0x40)\n      dup1\n      0xa0\n      add\n      0x40\n      mstore\n      dup1\n        /* \"contracts/Portfolio.sol\":3081:3095  educationCount */\n      sload(0x72)\n        /* \"contracts/Portfolio.sol\":3071:3144  Education(educationCount,_date,_degree,_knowledgeAcquired,_instutionName) */\n      dup2\n      mstore\n      0x20\n      add\n        /* \"contracts/Portfolio.sol\":3096:3101  _date */\n      dup10\n      dup10\n        /* \"contracts/Portfolio.sol\":3071:3144  Education(educationCount,_date,_degree,_knowledgeAcquired,_instutionName) */\n      dup1\n      dup1\n      0x1f\n      add\n      0x20\n      dup1\n      swap2\n      div\n      mul\n      0x20\n      add\n      mload(0x40)\n      swap1\n      dup2\n      add\n      0x40\n      mstore\n      dup1\n      swap4\n      swap3\n      swap2\n      swap1\n      dup2\n      dup2\n      mstore\n      0x20\n      add\n      dup4\n      dup4\n      dup1\n      dup3\n      dup5\n      calldatacopy\n      0x00\n      dup2\n      dup5\n      add\n      mstore\n      not(0x1f)\n      0x1f\n      dup3\n      add\n      and\n      swap1\n      pop\n      dup1\n      dup4\n      add\n      swap3\n      pop\n      pop\n      pop\n      pop\n      pop\n      pop\n      pop\n      dup2\n      mstore\n      0x20\n      add\n        /* \"contracts/Portfolio.sol\":3102:3109  _degree */\n      dup8\n      dup8\n        /* \"contracts/Portfolio.sol\":3071:3144  Education(educationCount,_date,_degree,_knowledgeAcquired,_instutionName) */\n      dup1\n      dup1\n      0x1f\n      add\n      0x20\n      dup1\n      swap2\n      div\n      mul\n      0x20\n      add\n      mload(0x40)\n      swap1\n      dup2\n      add\n      0x40\n      mstore\n      dup1\n      swap4\n      swap3\n      swap2\n      swap1\n      dup2\n      dup2\n      mstore\n      0x20\n      add\n      dup4\n      dup4\n      dup1\n      dup3\n      dup5\n      calldatacopy\n      0x00\n      dup2\n      dup5\n      add\n      mstore\n      not(0x1f)\n      0x1f\n      dup3\n      add\n      and\n      swap1\n      pop\n      dup1\n      dup4\n      add\n      swap3\n      pop\n      pop\n      pop\n      pop\n      pop\n      pop\n      pop\n      dup2\n      mstore\n      0x20\n      add\n        /* \"contracts/Portfolio.sol\":3110:3128  _knowledgeAcquired */\n      dup6\n      dup6\n        /* \"contracts/Portfolio.sol\":3071:3144  Education(educationCount,_date,_degree,_knowledgeAcquired,_instutionName) */\n      dup1\n      dup1\n      0x1f\n      add\n      0x20\n      dup1\n      swap2\n      div\n      mul\n      0x20\n      add\n      mload(0x40)\n      swap1\n      dup2\n      add\n      0x40\n      mstore\n      dup1\n      swap4\n      swap3\n      swap2\n      swap1\n      dup2\n      dup2\n      mstore\n      0x20\n      add\n      dup4\n      dup4\n      dup1\n      dup3\n      dup5\n      calldatacopy\n      0x00\n      dup2\n      dup5\n      add\n      mstore\n      not(0x1f)\n      0x1f\n      dup3\n      add\n      and\n      swap1\n      pop\n      dup1\n      dup4\n      add\n      swap3\n      pop\n      pop\n      pop\n      pop\n      pop\n      pop\n      pop\n      dup2\n      mstore\n      0x20\n      add\n        /* \"contracts/Portfolio.sol\":3129:3143  _instutionName */\n      dup4\n      dup4\n        /* \"contracts/Portfolio.sol\":3071:3144  Education(educationCount,_date,_degree,_knowledgeAcquired,_instutionName) */\n      dup1\n      dup1\n      0x1f\n      add\n      0x20\n      dup1\n      swap2\n      div\n      mul\n      0x20\n      add\n      mload(0x40)\n      swap1\n      dup2\n      add\n      0x40\n      mstore\n      dup1\n      swap4\n      swap3\n      swap2\n      swap1\n      dup2\n      dup2\n      mstore\n      0x20\n      add\n      dup4\n      dup4\n      dup1\n      dup3\n      dup5\n      calldatacopy\n      0x00\n      dup2\n      dup5\n      add\n      mstore\n      not(0x1f)\n      0x1f\n      dup3\n      add\n      and\n      swap1\n      pop\n      dup1\n      dup4\n      add\n      swap3\n      pop\n      pop\n      pop\n      pop\n      pop\n      pop\n      pop\n      dup2\n      mstore\n      pop\n        /* \"contracts/Portfolio.sol\":3038:3054  educationDetails */\n      0x46\n        /* \"contracts/Portfolio.sol\":3055:3069  educationCount */\n      sload(0x72)\n        /* \"contracts/Portfolio.sol\":3038:3070  educationDetails[educationCount] */\n      0x04\n      dup2\n      lt\n      tag_340\n      jumpi\n      tag_341\n      tag_256\n      jump\t// in\n    tag_341:\n    tag_340:\n      0x05\n      mul\n      add\n        /* \"contracts/Portfolio.sol\":3038:3144  educationDetails[educationCount]=Education(educationCount,_date,_degree,_knowledgeAcquired,_instutionName) */\n      0x00\n      dup3\n      add\n      mload\n      dup2\n      0x00\n      add\n      sstore\n      0x20\n      dup3\n      add\n      mload\n      dup2\n      0x01\n      add\n      swap1\n      dup2\n      tag_343\n      swap2\n      swap1\n      tag_259\n      jump\t// in\n    tag_343:\n      pop\n      0x40\n      dup3\n      add\n      mload\n      dup2\n      0x02\n      add\n      swap1\n      dup2\n      tag_344\n      swap2\n      swap1\n      tag_259\n      jump\t// in\n    tag_344:\n      pop\n      0x60\n      dup3\n      add\n      mload\n      dup2\n      0x03\n      add\n      swap1\n      dup2\n      tag_345\n      swap2\n      swap1\n      tag_259\n      jump\t// in\n    tag_345:\n      pop\n      0x80\n      dup3\n      add\n      mload\n      dup2\n      0x04\n      add\n      swap1\n      dup2\n      tag_346\n      swap2\n      swap1\n      tag_259\n      jump\t// in\n    tag_346:\n      pop\n      swap1\n      pop\n      pop\n        /* \"contracts/Portfolio.sol\":3151:3165  educationCount */\n      0x72\n      0x00\n        /* \"contracts/Portfolio.sol\":3151:3167  educationCount++ */\n      dup2\n      sload\n      dup1\n      swap3\n      swap2\n      swap1\n      tag_347\n      swap1\n      tag_283\n      jump\t// in\n    tag_347:\n      swap2\n      swap1\n      pop\n      sstore\n      pop\n        /* \"contracts/Portfolio.sol\":2808:3174  function insertEducation(string calldata _date,string calldata _degree,string calldata _knowledgeAcquired,string calldata _instutionName) external onlyOwner{... */\n      pop\n      pop\n      pop\n      pop\n      pop\n      pop\n      pop\n      pop\n      jump\t// out\n        /* \"contracts/Portfolio.sol\":1537:1609  string public imageLink=\"Qmaa53YdQpXBucFvS8SJRWNrNk467WmU5ewVz6NidpT4Lg\" */\n    tag_100:\n      0x6e\n      dup1\n      sload\n      tag_348\n      swap1\n      tag_119\n      jump\t// in\n    tag_348:\n      dup1\n      0x1f\n      add\n      0x20\n      dup1\n      swap2\n      div\n      mul\n      0x20\n      add\n      mload(0x40)\n      swap1\n      dup2\n      add\n      0x40\n      mstore\n      dup1\n      swap3\n      swap2\n      swap1\n      dup2\n      dup2\n      mstore\n      0x20\n      add\n      dup3\n      dup1\n      sload\n      tag_349\n      swap1\n      tag_119\n      jump\t// in\n    tag_349:\n      dup1\n      iszero\n      tag_350\n      jumpi\n      dup1\n      0x1f\n      lt\n      tag_351\n      jumpi\n      0x0100\n      dup1\n      dup4\n      sload\n      div\n      mul\n      dup4\n      mstore\n      swap2\n      0x20\n      add\n      swap2\n      jump(tag_350)\n    tag_351:\n      dup3\n      add\n      swap2\n      swap1\n      0x00\n      mstore\n      keccak256(0x00, 0x20)\n      swap1\n    tag_352:\n      dup2\n      sload\n      dup2\n      mstore\n      swap1\n      0x01\n      add\n      swap1\n      0x20\n      add\n      dup1\n      dup4\n      gt\n      tag_352\n      jumpi\n      dup3\n      swap1\n      sub\n      0x1f\n      and\n      dup3\n      add\n      swap2\n    tag_350:\n      pop\n      pop\n      pop\n      pop\n      pop\n      dup2\n      jump\t// out\n        /* \"contracts/Portfolio.sol\":4714:4821  function changeResumeLink(string calldata _resumeLink) external onlyOwner {... */\n    tag_105:\n        /* \"contracts/Portfolio.sol\":2009:2019  msg.sender */\n      caller\n        /* \"contracts/Portfolio.sol\":2000:2019  owner == msg.sender */\n      0xffffffffffffffffffffffffffffffffffffffff\n      and\n        /* \"contracts/Portfolio.sol\":2000:2005  owner */\n      0x74\n      0x00\n      swap1\n      sload\n      swap1\n      0x0100\n      exp\n      swap1\n      div\n      0xffffffffffffffffffffffffffffffffffffffff\n      and\n        /* \"contracts/Portfolio.sol\":2000:2019  owner == msg.sender */\n      0xffffffffffffffffffffffffffffffffffffffff\n      and\n      eq\n        /* \"contracts/Portfolio.sol\":1992:2045  require(owner == msg.sender, \"You are not the owner\") */\n      tag_354\n      jumpi\n      mload(0x40)\n      0x08c379a000000000000000000000000000000000000000000000000000000000\n      dup2\n      mstore\n      0x04\n      add\n      tag_355\n      swap1\n      tag_242\n      jump\t// in\n    tag_355:\n      mload(0x40)\n      dup1\n      swap2\n      sub\n      swap1\n      revert\n    tag_354:\n        /* \"contracts/Portfolio.sol\":4807:4818  _resumeLink */\n      dup2\n      dup2\n        /* \"contracts/Portfolio.sol\":4794:4804  resumeLink */\n      0x70\n        /* \"contracts/Portfolio.sol\":4794:4818  resumeLink = _resumeLink */\n      swap2\n      dup3\n      tag_357\n      swap3\n      swap2\n      swap1\n      tag_245\n      jump\t// in\n    tag_357:\n      pop\n        /* \"contracts/Portfolio.sol\":4714:4821  function changeResumeLink(string calldata _resumeLink) external onlyOwner {... */\n      pop\n      pop\n      jump\t// out\n        /* \"contracts/Portfolio.sol\":4073:4483  function changeExperience(string calldata _date,string calldata _post,string calldata _knowledgeAcquired,string calldata _companyName,uint _experienceDetailCount) external onlyOwner{... */\n    tag_109:\n        /* \"contracts/Portfolio.sol\":2009:2019  msg.sender */\n      caller\n        /* \"contracts/Portfolio.sol\":2000:2019  owner == msg.sender */\n      0xffffffffffffffffffffffffffffffffffffffff\n      and\n        /* \"contracts/Portfolio.sol\":2000:2005  owner */\n      0x74\n      0x00\n      swap1\n      sload\n      swap1\n      0x0100\n      exp\n      swap1\n      div\n      0xffffffffffffffffffffffffffffffffffffffff\n      and\n        /* \"contracts/Portfolio.sol\":2000:2019  owner == msg.sender */\n      0xffffffffffffffffffffffffffffffffffffffff\n      and\n      eq\n        /* \"contracts/Portfolio.sol\":1992:2045  require(owner == msg.sender, \"You are not the owner\") */\n      tag_359\n      jumpi\n      mload(0x40)\n      0x08c379a000000000000000000000000000000000000000000000000000000000\n      dup2\n      mstore\n      0x04\n      add\n      tag_360\n      swap1\n      tag_242\n      jump\t// in\n    tag_360:\n      mload(0x40)\n      dup1\n      swap2\n      sub\n      swap1\n      revert\n    tag_359:\n        /* \"contracts/Portfolio.sol\":4293:4294  0 */\n      0x00\n        /* \"contracts/Portfolio.sol\":4269:4291  _experienceDetailCount */\n      dup2\n        /* \"contracts/Portfolio.sol\":4269:4294  _experienceDetailCount>=0 */\n      lt\n      iszero\n        /* \"contracts/Portfolio.sol\":4269:4322  _experienceDetailCount>=0 && _experienceDetailCount<4 */\n      dup1\n      iszero\n      tag_362\n      jumpi\n      pop\n        /* \"contracts/Portfolio.sol\":4321:4322  4 */\n      0x04\n        /* \"contracts/Portfolio.sol\":4298:4320  _experienceDetailCount */\n      dup2\n        /* \"contracts/Portfolio.sol\":4298:4322  _experienceDetailCount<4 */\n      lt\n        /* \"contracts/Portfolio.sol\":4269:4322  _experienceDetailCount>=0 && _experienceDetailCount<4 */\n    tag_362:\n        /* \"contracts/Portfolio.sol\":4261:4349  require(_experienceDetailCount>=0 && _experienceDetailCount<4,\"Invalid experienceCount\") */\n      tag_363\n      jumpi\n      mload(0x40)\n      0x08c379a000000000000000000000000000000000000000000000000000000000\n      dup2\n      mstore\n      0x04\n      add\n      tag_364\n      swap1\n      tag_365\n      jump\t// in\n    tag_364:\n      mload(0x40)\n      dup1\n      swap2\n      sub\n      swap1\n      revert\n    tag_363:\n        /* \"contracts/Portfolio.sol\":4398:4476  Experience(_experienceDetailCount,_date,_post,_knowledgeAcquired,_companyName) */\n      mload(0x40)\n      dup1\n      0xa0\n      add\n      0x40\n      mstore\n      dup1\n        /* \"contracts/Portfolio.sol\":4409:4431  _experienceDetailCount */\n      dup3\n        /* \"contracts/Portfolio.sol\":4398:4476  Experience(_experienceDetailCount,_date,_post,_knowledgeAcquired,_companyName) */\n      dup2\n      mstore\n      0x20\n      add\n        /* \"contracts/Portfolio.sol\":4432:4437  _date */\n      dup11\n      dup11\n        /* \"contracts/Portfolio.sol\":4398:4476  Experience(_experienceDetailCount,_date,_post,_knowledgeAcquired,_companyName) */\n      dup1\n      dup1\n      0x1f\n      add\n      0x20\n      dup1\n      swap2\n      div\n      mul\n      0x20\n      add\n      mload(0x40)\n      swap1\n      dup2\n      add\n      0x40\n      mstore\n      dup1\n      swap4\n      swap3\n      swap2\n      swap1\n      dup2\n      dup2\n      mstore\n      0x20\n      add\n      dup4\n      dup4\n      dup1\n      dup3\n      dup5\n      calldatacopy\n      0x00\n      dup2\n      dup5\n      add\n      mstore\n      not(0x1f)\n      0x1f\n      dup3\n      add\n      and\n      swap1\n      pop\n      dup1\n      dup4\n      add\n      swap3\n      pop\n      pop\n      pop\n      pop\n      pop\n      pop\n      pop\n      dup2\n      mstore\n      0x20\n      add\n        /* \"contracts/Portfolio.sol\":4438:4443  _post */\n      dup9\n      dup9\n        /* \"contracts/Portfolio.sol\":4398:4476  Experience(_experienceDetailCount,_date,_post,_knowledgeAcquired,_companyName) */\n      dup1\n      dup1\n      0x1f\n      add\n      0x20\n      dup1\n      swap2\n      div\n      mul\n      0x20\n      add\n      mload(0x40)\n      swap1\n      dup2\n      add\n      0x40\n      mstore\n      dup1\n      swap4\n      swap3\n      swap2\n      swap1\n      dup2\n      dup2\n      mstore\n      0x20\n      add\n      dup4\n      dup4\n      dup1\n      dup3\n      dup5\n      calldatacopy\n      0x00\n      dup2\n      dup5\n      add\n      mstore\n      not(0x1f)\n      0x1f\n      dup3\n      add\n      and\n      swap1\n      pop\n      dup1\n      dup4\n      add\n      swap3\n      pop\n      pop\n      pop\n      pop\n      pop\n      pop\n      pop\n      dup2\n      mstore\n      0x20\n      add\n        /* \"contracts/Portfolio.sol\":4444:4462  _knowledgeAcquired */\n      dup7\n      dup7\n        /* \"contracts/Portfolio.sol\":4398:4476  Experience(_experienceDetailCount,_date,_post,_knowledgeAcquired,_companyName) */\n      dup1\n      dup1\n      0x1f\n      add\n      0x20\n      dup1\n      swap2\n      div\n      mul\n      0x20\n      add\n      mload(0x40)\n      swap1\n      dup2\n      add\n      0x40\n      mstore\n      dup1\n      swap4\n      swap3\n      swap2\n      swap1\n      dup2\n      dup2\n      mstore\n      0x20\n      add\n      dup4\n      dup4\n      dup1\n      dup3\n      dup5\n      calldatacopy\n      0x00\n      dup2\n      dup5\n      add\n      mstore\n      not(0x1f)\n      0x1f\n      dup3\n      add\n      and\n      swap1\n      pop\n      dup1\n      dup4\n      add\n      swap3\n      pop\n      pop\n      pop\n      pop\n      pop\n      pop\n      pop\n      dup2\n      mstore\n      0x20\n      add\n        /* \"contracts/Portfolio.sol\":4463:4475  _companyName */\n      dup5\n      dup5\n        /* \"contracts/Portfolio.sol\":4398:4476  Experience(_experienceDetailCount,_date,_post,_knowledgeAcquired,_companyName) */\n      dup1\n      dup1\n      0x1f\n      add\n      0x20\n      dup1\n      swap2\n      div\n      mul\n      0x20\n      add\n      mload(0x40)\n      swap1\n      dup2\n      add\n      0x40\n      mstore\n      dup1\n      swap4\n      swap3\n      swap2\n      swap1\n      dup2\n      dup2\n      mstore\n      0x20\n      add\n      dup4\n      dup4\n      dup1\n      dup3\n      dup5\n      calldatacopy\n      0x00\n      dup2\n      dup5\n      add\n      mstore\n      not(0x1f)\n      0x1f\n      dup3\n      add\n      and\n      swap1\n      pop\n      dup1\n      dup4\n      add\n      swap3\n      pop\n      pop\n      pop\n      pop\n      pop\n      pop\n      pop\n      dup2\n      mstore\n      pop\n        /* \"contracts/Portfolio.sol\":4356:4373  experienceDetails */\n      0x5a\n        /* \"contracts/Portfolio.sol\":4374:4396  _experienceDetailCount */\n      dup3\n        /* \"contracts/Portfolio.sol\":4356:4397  experienceDetails[_experienceDetailCount] */\n      0x04\n      dup2\n      lt\n      tag_366\n      jumpi\n      tag_367\n      tag_256\n      jump\t// in\n    tag_367:\n    tag_366:\n      0x05\n      mul\n      add\n        /* \"contracts/Portfolio.sol\":4356:4476  experienceDetails[_experienceDetailCount]=Experience(_experienceDetailCount,_date,_post,_knowledgeAcquired,_companyName) */\n      0x00\n      dup3\n      add\n      mload\n      dup2\n      0x00\n      add\n      sstore\n      0x20\n      dup3\n      add\n      mload\n      dup2\n      0x01\n      add\n      swap1\n      dup2\n      tag_369\n      swap2\n      swap1\n      tag_259\n      jump\t// in\n    tag_369:\n      pop\n      0x40\n      dup3\n      add\n      mload\n      dup2\n      0x02\n      add\n      swap1\n      dup2\n      tag_370\n      swap2\n      swap1\n      tag_259\n      jump\t// in\n    tag_370:\n      pop\n      0x60\n      dup3\n      add\n      mload\n      dup2\n      0x03\n      add\n      swap1\n      dup2\n      tag_371\n      swap2\n      swap1\n      tag_259\n      jump\t// in\n    tag_371:\n      pop\n      0x80\n      dup3\n      add\n      mload\n      dup2\n      0x04\n      add\n      swap1\n      dup2\n      tag_372\n      swap2\n      swap1\n      tag_259\n      jump\t// in\n    tag_372:\n      pop\n      swap1\n      pop\n      pop\n        /* \"contracts/Portfolio.sol\":4073:4483  function changeExperience(string calldata _date,string calldata _post,string calldata _knowledgeAcquired,string calldata _companyName,uint _experienceDetailCount) external onlyOwner{... */\n      pop\n      pop\n      pop\n      pop\n      pop\n      pop\n      pop\n      pop\n      pop\n      jump\t// out\n        /* \"contracts/Portfolio.sol\":4610:4712  function changeDescription(string calldata _description) external {... */\n    tag_113:\n        /* \"contracts/Portfolio.sol\":4696:4708  _description */\n      dup2\n      dup2\n        /* \"contracts/Portfolio.sol\":4682:4693  description */\n      0x6f\n        /* \"contracts/Portfolio.sol\":4682:4708  description = _description */\n      swap2\n      dup3\n      tag_374\n      swap3\n      swap2\n      swap1\n      tag_245\n      jump\t// in\n    tag_374:\n      pop\n        /* \"contracts/Portfolio.sol\":4610:4712  function changeDescription(string calldata _description) external {... */\n      pop\n      pop\n      jump\t// out\n        /* \"contracts/Portfolio.sol\":4924:5055  function donate() public payable {... */\n    tag_115:\n        /* \"contracts/Portfolio.sol\":4960:4972  bool success */\n      0x00\n        /* \"contracts/Portfolio.sol\":4978:4983  owner */\n      0x74\n      0x00\n      swap1\n      sload\n      swap1\n      0x0100\n      exp\n      swap1\n      div\n      0xffffffffffffffffffffffffffffffffffffffff\n      and\n        /* \"contracts/Portfolio.sol\":4978:4988  owner.call */\n      0xffffffffffffffffffffffffffffffffffffffff\n      and\n        /* \"contracts/Portfolio.sol\":4996:5005  msg.value */\n      callvalue\n        /* \"contracts/Portfolio.sol\":4978:5010  owner.call{value: msg.value}(\"\") */\n      mload(0x40)\n      tag_376\n      swap1\n      tag_377\n      jump\t// in\n    tag_376:\n      0x00\n      mload(0x40)\n      dup1\n      dup4\n      sub\n      dup2\n      dup6\n      dup8\n      gas\n      call\n      swap3\n      pop\n      pop\n      pop\n      returndatasize\n      dup1\n      0x00\n      dup2\n      eq\n      tag_380\n      jumpi\n      mload(0x40)\n      swap2\n      pop\n      and(add(returndatasize, 0x3f), not(0x1f))\n      dup3\n      add\n      0x40\n      mstore\n      returndatasize\n      dup3\n      mstore\n      returndatasize\n      0x00\n      0x20\n      dup5\n      add\n      returndatacopy\n      jump(tag_379)\n    tag_380:\n      0x60\n      swap2\n      pop\n    tag_379:\n      pop\n        /* \"contracts/Portfolio.sol\":4959:5010  (bool success, ) = owner.call{value: msg.value}(\"\") */\n      pop\n      swap1\n      pop\n        /* \"contracts/Portfolio.sol\":5020:5027  success */\n      dup1\n        /* \"contracts/Portfolio.sol\":5012:5052  require(success, \"Failed to send ether\") */\n      tag_381\n      jumpi\n      mload(0x40)\n      0x08c379a000000000000000000000000000000000000000000000000000000000\n      dup2\n      mstore\n      0x04\n      add\n      tag_382\n      swap1\n      tag_383\n      jump\t// in\n    tag_382:\n      mload(0x40)\n      dup1\n      swap2\n      sub\n      swap1\n      revert\n    tag_381:\n        /* \"contracts/Portfolio.sol\":4957:5055  {... */\n      pop\n        /* \"contracts/Portfolio.sol\":4924:5055  function donate() public payable {... */\n      jump\t// out\n    tag_162:\n      mload(0x40)\n      dup1\n      0x01c0\n      add\n      0x40\n      mstore\n      dup1\n      0x0e\n      swap1\n    tag_384:\n      tag_385\n      tag_386\n      jump\t// in\n    tag_385:\n      dup2\n      mstore\n      0x20\n      add\n      swap1\n      0x01\n      swap1\n      sub\n      swap1\n      dup2\n      tag_384\n      jumpi\n      swap1\n      pop\n      pop\n      swap1\n      jump\t// out\n    tag_188:\n      mload(0x40)\n      dup1\n      0x80\n      add\n      0x40\n      mstore\n      dup1\n      0x04\n      swap1\n    tag_387:\n      tag_388\n      tag_389\n      jump\t// in\n    tag_388:\n      dup2\n      mstore\n      0x20\n      add\n      swap1\n      0x01\n      swap1\n      sub\n      swap1\n      dup2\n      tag_387\n      jumpi\n      swap1\n      pop\n      pop\n      swap1\n      jump\t// out\n    tag_214:\n      mload(0x40)\n      dup1\n      0x80\n      add\n      0x40\n      mstore\n      dup1\n      0x04\n      swap1\n    tag_390:\n      tag_391\n      tag_392\n      jump\t// in\n    tag_391:\n      dup2\n      mstore\n      0x20\n      add\n      swap1\n      0x01\n      swap1\n      sub\n      swap1\n      dup2\n      tag_390\n      jumpi\n      swap1\n      pop\n      pop\n      swap1\n      jump\t// out\n    tag_386:\n      mload(0x40)\n      dup1\n      0xa0\n      add\n      0x40\n      mstore\n      dup1\n      0x00\n      dup2\n      mstore\n      0x20\n      add\n      0x60\n      dup2\n      mstore\n      0x20\n      add\n      0x60\n      dup2\n      mstore\n      0x20\n      add\n      0x60\n      dup2\n      mstore\n      0x20\n      add\n      0x60\n      dup2\n      mstore\n      pop\n      swap1\n      jump\t// out\n    tag_389:\n      mload(0x40)\n      dup1\n      0xa0\n      add\n      0x40\n      mstore\n      dup1\n      0x00\n      dup2\n      mstore\n      0x20\n      add\n      0x60\n      dup2\n      mstore\n      0x20\n      add\n      0x60\n      dup2\n      mstore\n      0x20\n      add\n      0x60\n      dup2\n      mstore\n      0x20\n      add\n      0x60\n      dup2\n      mstore\n      pop\n      swap1\n      jump\t// out\n    tag_392:\n      mload(0x40)\n      dup1\n      0xa0\n      add\n      0x40\n      mstore\n      dup1\n      0x00\n      dup2\n      mstore\n      0x20\n      add\n      0x60\n      dup2\n      mstore\n      0x20\n      add\n      0x60\n      dup2\n      mstore\n      0x20\n      add\n      0x60\n      dup2\n      mstore\n      0x20\n      add\n      0x60\n      dup2\n      mstore\n      pop\n      swap1\n      jump\t// out\n        /* \"#utility.yul\":88:205   */\n    tag_394:\n        /* \"#utility.yul\":197:198   */\n      0x00\n        /* \"#utility.yul\":194:195   */\n      dup1\n        /* \"#utility.yul\":187:199   */\n      revert\n        /* \"#utility.yul\":211:328   */\n    tag_395:\n        /* \"#utility.yul\":320:321   */\n      0x00\n        /* \"#utility.yul\":317:318   */\n      dup1\n        /* \"#utility.yul\":310:322   */\n      revert\n        /* \"#utility.yul\":334:411   */\n    tag_396:\n        /* \"#utility.yul\":371:378   */\n      0x00\n        /* \"#utility.yul\":400:405   */\n      dup2\n        /* \"#utility.yul\":389:405   */\n      swap1\n      pop\n        /* \"#utility.yul\":334:411   */\n      swap2\n      swap1\n      pop\n      jump\t// out\n        /* \"#utility.yul\":417:539   */\n    tag_397:\n        /* \"#utility.yul\":490:514   */\n      tag_476\n        /* \"#utility.yul\":508:513   */\n      dup2\n        /* \"#utility.yul\":490:514   */\n      tag_396\n      jump\t// in\n    tag_476:\n        /* \"#utility.yul\":483:488   */\n      dup2\n        /* \"#utility.yul\":480:515   */\n      eq\n        /* \"#utility.yul\":470:533   */\n      tag_477\n      jumpi\n        /* \"#utility.yul\":529:530   */\n      0x00\n        /* \"#utility.yul\":526:527   */\n      dup1\n        /* \"#utility.yul\":519:531   */\n      revert\n        /* \"#utility.yul\":470:533   */\n    tag_477:\n        /* \"#utility.yul\":417:539   */\n      pop\n      jump\t// out\n        /* \"#utility.yul\":545:684   */\n    tag_398:\n        /* \"#utility.yul\":591:596   */\n      0x00\n        /* \"#utility.yul\":629:635   */\n      dup2\n        /* \"#utility.yul\":616:636   */\n      calldataload\n        /* \"#utility.yul\":607:636   */\n      swap1\n      pop\n        /* \"#utility.yul\":645:678   */\n      tag_479\n        /* \"#utility.yul\":672:677   */\n      dup2\n        /* \"#utility.yul\":645:678   */\n      tag_397\n      jump\t// in\n    tag_479:\n        /* \"#utility.yul\":545:684   */\n      swap3\n      swap2\n      pop\n      pop\n      jump\t// out\n        /* \"#utility.yul\":690:1019   */\n    tag_28:\n        /* \"#utility.yul\":749:755   */\n      0x00\n        /* \"#utility.yul\":798:800   */\n      0x20\n        /* \"#utility.yul\":786:795   */\n      dup3\n        /* \"#utility.yul\":777:784   */\n      dup5\n        /* \"#utility.yul\":773:796   */\n      sub\n        /* \"#utility.yul\":769:801   */\n      slt\n        /* \"#utility.yul\":766:885   */\n      iszero\n      tag_481\n      jumpi\n        /* \"#utility.yul\":804:883   */\n      tag_482\n      tag_394\n      jump\t// in\n    tag_482:\n        /* \"#utility.yul\":766:885   */\n    tag_481:\n        /* \"#utility.yul\":924:925   */\n      0x00\n        /* \"#utility.yul\":949:1002   */\n      tag_483\n        /* \"#utility.yul\":994:1001   */\n      dup5\n        /* \"#utility.yul\":985:991   */\n      dup3\n        /* \"#utility.yul\":974:983   */\n      dup6\n        /* \"#utility.yul\":970:992   */\n      add\n        /* \"#utility.yul\":949:1002   */\n      tag_398\n      jump\t// in\n    tag_483:\n        /* \"#utility.yul\":939:1002   */\n      swap2\n      pop\n        /* \"#utility.yul\":895:1012   */\n      pop\n        /* \"#utility.yul\":690:1019   */\n      swap3\n      swap2\n      pop\n      pop\n      jump\t// out\n        /* \"#utility.yul\":1025:1143   */\n    tag_399:\n        /* \"#utility.yul\":1112:1136   */\n      tag_485\n        /* \"#utility.yul\":1130:1135   */\n      dup2\n        /* \"#utility.yul\":1112:1136   */\n      tag_396\n      jump\t// in\n    tag_485:\n        /* \"#utility.yul\":1107:1110   */\n      dup3\n        /* \"#utility.yul\":1100:1137   */\n      mstore\n        /* \"#utility.yul\":1025:1143   */\n      pop\n      pop\n      jump\t// out\n        /* \"#utility.yul\":1149:1248   */\n    tag_400:\n        /* \"#utility.yul\":1201:1207   */\n      0x00\n        /* \"#utility.yul\":1235:1240   */\n      dup2\n        /* \"#utility.yul\":1229:1241   */\n      mload\n        /* \"#utility.yul\":1219:1241   */\n      swap1\n      pop\n        /* \"#utility.yul\":1149:1248   */\n      swap2\n      swap1\n      pop\n      jump\t// out\n        /* \"#utility.yul\":1254:1423   */\n    tag_401:\n        /* \"#utility.yul\":1338:1349   */\n      0x00\n        /* \"#utility.yul\":1372:1378   */\n      dup3\n        /* \"#utility.yul\":1367:1370   */\n      dup3\n        /* \"#utility.yul\":1360:1379   */\n      mstore\n        /* \"#utility.yul\":1412:1416   */\n      0x20\n        /* \"#utility.yul\":1407:1410   */\n      dup3\n        /* \"#utility.yul\":1403:1417   */\n      add\n        /* \"#utility.yul\":1388:1417   */\n      swap1\n      pop\n        /* \"#utility.yul\":1254:1423   */\n      swap3\n      swap2\n      pop\n      pop\n      jump\t// out\n        /* \"#utility.yul\":1429:1675   */\n    tag_402:\n        /* \"#utility.yul\":1510:1511   */\n      0x00\n        /* \"#utility.yul\":1520:1633   */\n    tag_489:\n        /* \"#utility.yul\":1534:1540   */\n      dup4\n        /* \"#utility.yul\":1531:1532   */\n      dup2\n        /* \"#utility.yul\":1528:1541   */\n      lt\n        /* \"#utility.yul\":1520:1633   */\n      iszero\n      tag_491\n      jumpi\n        /* \"#utility.yul\":1619:1620   */\n      dup1\n        /* \"#utility.yul\":1614:1617   */\n      dup3\n        /* \"#utility.yul\":1610:1621   */\n      add\n        /* \"#utility.yul\":1604:1622   */\n      mload\n        /* \"#utility.yul\":1600:1601   */\n      dup2\n        /* \"#utility.yul\":1595:1598   */\n      dup5\n        /* \"#utility.yul\":1591:1602   */\n      add\n        /* \"#utility.yul\":1584:1623   */\n      mstore\n        /* \"#utility.yul\":1556:1558   */\n      0x20\n        /* \"#utility.yul\":1553:1554   */\n      dup2\n        /* \"#utility.yul\":1549:1559   */\n      add\n        /* \"#utility.yul\":1544:1559   */\n      swap1\n      pop\n        /* \"#utility.yul\":1520:1633   */\n      jump(tag_489)\n    tag_491:\n        /* \"#utility.yul\":1667:1668   */\n      0x00\n        /* \"#utility.yul\":1658:1664   */\n      dup5\n        /* \"#utility.yul\":1653:1656   */\n      dup5\n        /* \"#utility.yul\":1649:1665   */\n      add\n        /* \"#utility.yul\":1642:1669   */\n      mstore\n        /* \"#utility.yul\":1491:1675   */\n      pop\n        /* \"#utility.yul\":1429:1675   */\n      pop\n      pop\n      pop\n      jump\t// out\n        /* \"#utility.yul\":1681:1783   */\n    tag_403:\n        /* \"#utility.yul\":1722:1728   */\n      0x00\n        /* \"#utility.yul\":1773:1775   */\n      0x1f\n        /* \"#utility.yul\":1769:1776   */\n      not\n        /* \"#utility.yul\":1764:1766   */\n      0x1f\n        /* \"#utility.yul\":1757:1762   */\n      dup4\n        /* \"#utility.yul\":1753:1767   */\n      add\n        /* \"#utility.yul\":1749:1777   */\n      and\n        /* \"#utility.yul\":1739:1777   */\n      swap1\n      pop\n        /* \"#utility.yul\":1681:1783   */\n      swap2\n      swap1\n      pop\n      jump\t// out\n        /* \"#utility.yul\":1789:2166   */\n    tag_404:\n        /* \"#utility.yul\":1877:1880   */\n      0x00\n        /* \"#utility.yul\":1905:1944   */\n      tag_494\n        /* \"#utility.yul\":1938:1943   */\n      dup3\n        /* \"#utility.yul\":1905:1944   */\n      tag_400\n      jump\t// in\n    tag_494:\n        /* \"#utility.yul\":1960:2031   */\n      tag_495\n        /* \"#utility.yul\":2024:2030   */\n      dup2\n        /* \"#utility.yul\":2019:2022   */\n      dup6\n        /* \"#utility.yul\":1960:2031   */\n      tag_401\n      jump\t// in\n    tag_495:\n        /* \"#utility.yul\":1953:2031   */\n      swap4\n      pop\n        /* \"#utility.yul\":2040:2105   */\n      tag_496\n        /* \"#utility.yul\":2098:2104   */\n      dup2\n        /* \"#utility.yul\":2093:2096   */\n      dup6\n        /* \"#utility.yul\":2086:2090   */\n      0x20\n        /* \"#utility.yul\":2079:2084   */\n      dup7\n        /* \"#utility.yul\":2075:2091   */\n      add\n        /* \"#utility.yul\":2040:2105   */\n      tag_402\n      jump\t// in\n    tag_496:\n        /* \"#utility.yul\":2130:2159   */\n      tag_497\n        /* \"#utility.yul\":2152:2158   */\n      dup2\n        /* \"#utility.yul\":2130:2159   */\n      tag_403\n      jump\t// in\n    tag_497:\n        /* \"#utility.yul\":2125:2128   */\n      dup5\n        /* \"#utility.yul\":2121:2160   */\n      add\n        /* \"#utility.yul\":2114:2160   */\n      swap2\n      pop\n        /* \"#utility.yul\":1881:2166   */\n      pop\n        /* \"#utility.yul\":1789:2166   */\n      swap3\n      swap2\n      pop\n      pop\n      jump\t// out\n        /* \"#utility.yul\":2172:3200   */\n    tag_31:\n        /* \"#utility.yul\":2457:2461   */\n      0x00\n        /* \"#utility.yul\":2495:2498   */\n      0xa0\n        /* \"#utility.yul\":2484:2493   */\n      dup3\n        /* \"#utility.yul\":2480:2499   */\n      add\n        /* \"#utility.yul\":2472:2499   */\n      swap1\n      pop\n        /* \"#utility.yul\":2509:2580   */\n      tag_499\n        /* \"#utility.yul\":2577:2578   */\n      0x00\n        /* \"#utility.yul\":2566:2575   */\n      dup4\n        /* \"#utility.yul\":2562:2579   */\n      add\n        /* \"#utility.yul\":2553:2559   */\n      dup9\n        /* \"#utility.yul\":2509:2580   */\n      tag_399\n      jump\t// in\n    tag_499:\n        /* \"#utility.yul\":2627:2636   */\n      dup2\n        /* \"#utility.yul\":2621:2625   */\n      dup2\n        /* \"#utility.yul\":2617:2637   */\n      sub\n        /* \"#utility.yul\":2612:2614   */\n      0x20\n        /* \"#utility.yul\":2601:2610   */\n      dup4\n        /* \"#utility.yul\":2597:2615   */\n      add\n        /* \"#utility.yul\":2590:2638   */\n      mstore\n        /* \"#utility.yul\":2655:2733   */\n      tag_500\n        /* \"#utility.yul\":2728:2732   */\n      dup2\n        /* \"#utility.yul\":2719:2725   */\n      dup8\n        /* \"#utility.yul\":2655:2733   */\n      tag_404\n      jump\t// in\n    tag_500:\n        /* \"#utility.yul\":2647:2733   */\n      swap1\n      pop\n        /* \"#utility.yul\":2780:2789   */\n      dup2\n        /* \"#utility.yul\":2774:2778   */\n      dup2\n        /* \"#utility.yul\":2770:2790   */\n      sub\n        /* \"#utility.yul\":2765:2767   */\n      0x40\n        /* \"#utility.yul\":2754:2763   */\n      dup4\n        /* \"#utility.yul\":2750:2768   */\n      add\n        /* \"#utility.yul\":2743:2791   */\n      mstore\n        /* \"#utility.yul\":2808:2886   */\n      tag_501\n        /* \"#utility.yul\":2881:2885   */\n      dup2\n        /* \"#utility.yul\":2872:2878   */\n      dup7\n        /* \"#utility.yul\":2808:2886   */\n      tag_404\n      jump\t// in\n    tag_501:\n        /* \"#utility.yul\":2800:2886   */\n      swap1\n      pop\n        /* \"#utility.yul\":2933:2942   */\n      dup2\n        /* \"#utility.yul\":2927:2931   */\n      dup2\n        /* \"#utility.yul\":2923:2943   */\n      sub\n        /* \"#utility.yul\":2918:2920   */\n      0x60\n        /* \"#utility.yul\":2907:2916   */\n      dup4\n        /* \"#utility.yul\":2903:2921   */\n      add\n        /* \"#utility.yul\":2896:2944   */\n      mstore\n        /* \"#utility.yul\":2961:3039   */\n      tag_502\n        /* \"#utility.yul\":3034:3038   */\n      dup2\n        /* \"#utility.yul\":3025:3031   */\n      dup6\n        /* \"#utility.yul\":2961:3039   */\n      tag_404\n      jump\t// in\n    tag_502:\n        /* \"#utility.yul\":2953:3039   */\n      swap1\n      pop\n        /* \"#utility.yul\":3087:3096   */\n      dup2\n        /* \"#utility.yul\":3081:3085   */\n      dup2\n        /* \"#utility.yul\":3077:3097   */\n      sub\n        /* \"#utility.yul\":3071:3074   */\n      0x80\n        /* \"#utility.yul\":3060:3069   */\n      dup4\n        /* \"#utility.yul\":3056:3075   */\n      add\n        /* \"#utility.yul\":3049:3098   */\n      mstore\n        /* \"#utility.yul\":3115:3193   */\n      tag_503\n        /* \"#utility.yul\":3188:3192   */\n      dup2\n        /* \"#utility.yul\":3179:3185   */\n      dup5\n        /* \"#utility.yul\":3115:3193   */\n      tag_404\n      jump\t// in\n    tag_503:\n        /* \"#utility.yul\":3107:3193   */\n      swap1\n      pop\n        /* \"#utility.yul\":2172:3200   */\n      swap7\n      swap6\n      pop\n      pop\n      pop\n      pop\n      pop\n      pop\n      jump\t// out\n        /* \"#utility.yul\":3206:3334   */\n    tag_405:\n        /* \"#utility.yul\":3295:3301   */\n      0x00\n        /* \"#utility.yul\":3323:3327   */\n      0x0e\n        /* \"#utility.yul\":3313:3327   */\n      swap1\n      pop\n        /* \"#utility.yul\":3206:3334   */\n      swap2\n      swap1\n      pop\n      jump\t// out\n        /* \"#utility.yul\":3340:3507   */\n    tag_406:\n        /* \"#utility.yul\":3461:3472   */\n      0x00\n        /* \"#utility.yul\":3498:3501   */\n      dup2\n        /* \"#utility.yul\":3483:3501   */\n      swap1\n      pop\n        /* \"#utility.yul\":3340:3507   */\n      swap3\n      swap2\n      pop\n      pop\n      jump\t// out\n        /* \"#utility.yul\":3513:3635   */\n    tag_407:\n        /* \"#utility.yul\":3602:3606   */\n      0x00\n        /* \"#utility.yul\":3625:3628   */\n      dup2\n        /* \"#utility.yul\":3617:3628   */\n      swap1\n      pop\n        /* \"#utility.yul\":3513:3635   */\n      swap2\n      swap1\n      pop\n      jump\t// out\n        /* \"#utility.yul\":3641:3749   */\n    tag_408:\n        /* \"#utility.yul\":3718:3742   */\n      tag_508\n        /* \"#utility.yul\":3736:3741   */\n      dup2\n        /* \"#utility.yul\":3718:3742   */\n      tag_396\n      jump\t// in\n    tag_508:\n        /* \"#utility.yul\":3713:3716   */\n      dup3\n        /* \"#utility.yul\":3706:3743   */\n      mstore\n        /* \"#utility.yul\":3641:3749   */\n      pop\n      pop\n      jump\t// out\n        /* \"#utility.yul\":3755:3914   */\n    tag_409:\n        /* \"#utility.yul\":3829:3840   */\n      0x00\n        /* \"#utility.yul\":3863:3869   */\n      dup3\n        /* \"#utility.yul\":3858:3861   */\n      dup3\n        /* \"#utility.yul\":3851:3870   */\n      mstore\n        /* \"#utility.yul\":3903:3907   */\n      0x20\n        /* \"#utility.yul\":3898:3901   */\n      dup3\n        /* \"#utility.yul\":3894:3908   */\n      add\n        /* \"#utility.yul\":3879:3908   */\n      swap1\n      pop\n        /* \"#utility.yul\":3755:3914   */\n      swap3\n      swap2\n      pop\n      pop\n      jump\t// out\n        /* \"#utility.yul\":3920:4277   */\n    tag_410:\n        /* \"#utility.yul\":3998:4001   */\n      0x00\n        /* \"#utility.yul\":4026:4065   */\n      tag_511\n        /* \"#utility.yul\":4059:4064   */\n      dup3\n        /* \"#utility.yul\":4026:4065   */\n      tag_400\n      jump\t// in\n    tag_511:\n        /* \"#utility.yul\":4081:4142   */\n      tag_512\n        /* \"#utility.yul\":4135:4141   */\n      dup2\n        /* \"#utility.yul\":4130:4133   */\n      dup6\n        /* \"#utility.yul\":4081:4142   */\n      tag_409\n      jump\t// in\n    tag_512:\n        /* \"#utility.yul\":4074:4142   */\n      swap4\n      pop\n        /* \"#utility.yul\":4151:4216   */\n      tag_513\n        /* \"#utility.yul\":4209:4215   */\n      dup2\n        /* \"#utility.yul\":4204:4207   */\n      dup6\n        /* \"#utility.yul\":4197:4201   */\n      0x20\n        /* \"#utility.yul\":4190:4195   */\n      dup7\n        /* \"#utility.yul\":4186:4202   */\n      add\n        /* \"#utility.yul\":4151:4216   */\n      tag_402\n      jump\t// in\n    tag_513:\n        /* \"#utility.yul\":4241:4270   */\n      tag_514\n        /* \"#utility.yul\":4263:4269   */\n      dup2\n        /* \"#utility.yul\":4241:4270   */\n      tag_403\n      jump\t// in\n    tag_514:\n        /* \"#utility.yul\":4236:4239   */\n      dup5\n        /* \"#utility.yul\":4232:4271   */\n      add\n        /* \"#utility.yul\":4225:4271   */\n      swap2\n      pop\n        /* \"#utility.yul\":4002:4277   */\n      pop\n        /* \"#utility.yul\":3920:4277   */\n      swap3\n      swap2\n      pop\n      pop\n      jump\t// out\n        /* \"#utility.yul\":4343:5682   */\n    tag_411:\n        /* \"#utility.yul\":4448:4451   */\n      0x00\n        /* \"#utility.yul\":4484:4488   */\n      0xa0\n        /* \"#utility.yul\":4479:4482   */\n      dup4\n        /* \"#utility.yul\":4475:4489   */\n      add\n        /* \"#utility.yul\":4569:4573   */\n      0x00\n        /* \"#utility.yul\":4562:4567   */\n      dup4\n        /* \"#utility.yul\":4558:4574   */\n      add\n        /* \"#utility.yul\":4552:4575   */\n      mload\n        /* \"#utility.yul\":4588:4651   */\n      tag_516\n        /* \"#utility.yul\":4645:4649   */\n      0x00\n        /* \"#utility.yul\":4640:4643   */\n      dup7\n        /* \"#utility.yul\":4636:4650   */\n      add\n        /* \"#utility.yul\":4622:4634   */\n      dup3\n        /* \"#utility.yul\":4588:4651   */\n      tag_408\n      jump\t// in\n    tag_516:\n        /* \"#utility.yul\":4499:4661   */\n      pop\n        /* \"#utility.yul\":4743:4747   */\n      0x20\n        /* \"#utility.yul\":4736:4741   */\n      dup4\n        /* \"#utility.yul\":4732:4748   */\n      add\n        /* \"#utility.yul\":4726:4749   */\n      mload\n        /* \"#utility.yul\":4796:4799   */\n      dup5\n        /* \"#utility.yul\":4790:4794   */\n      dup3\n        /* \"#utility.yul\":4786:4800   */\n      sub\n        /* \"#utility.yul\":4779:4783   */\n      0x20\n        /* \"#utility.yul\":4774:4777   */\n      dup7\n        /* \"#utility.yul\":4770:4784   */\n      add\n        /* \"#utility.yul\":4763:4801   */\n      mstore\n        /* \"#utility.yul\":4822:4895   */\n      tag_517\n        /* \"#utility.yul\":4890:4894   */\n      dup3\n        /* \"#utility.yul\":4876:4888   */\n      dup3\n        /* \"#utility.yul\":4822:4895   */\n      tag_410\n      jump\t// in\n    tag_517:\n        /* \"#utility.yul\":4814:4895   */\n      swap2\n      pop\n        /* \"#utility.yul\":4671:4906   */\n      pop\n        /* \"#utility.yul\":4995:4999   */\n      0x40\n        /* \"#utility.yul\":4988:4993   */\n      dup4\n        /* \"#utility.yul\":4984:5000   */\n      add\n        /* \"#utility.yul\":4978:5001   */\n      mload\n        /* \"#utility.yul\":5048:5051   */\n      dup5\n        /* \"#utility.yul\":5042:5046   */\n      dup3\n        /* \"#utility.yul\":5038:5052   */\n      sub\n        /* \"#utility.yul\":5031:5035   */\n      0x40\n        /* \"#utility.yul\":5026:5029   */\n      dup7\n        /* \"#utility.yul\":5022:5036   */\n      add\n        /* \"#utility.yul\":5015:5053   */\n      mstore\n        /* \"#utility.yul\":5074:5147   */\n      tag_518\n        /* \"#utility.yul\":5142:5146   */\n      dup3\n        /* \"#utility.yul\":5128:5140   */\n      dup3\n        /* \"#utility.yul\":5074:5147   */\n      tag_410\n      jump\t// in\n    tag_518:\n        /* \"#utility.yul\":5066:5147   */\n      swap2\n      pop\n        /* \"#utility.yul\":4916:5158   */\n      pop\n        /* \"#utility.yul\":5241:5245   */\n      0x60\n        /* \"#utility.yul\":5234:5239   */\n      dup4\n        /* \"#utility.yul\":5230:5246   */\n      add\n        /* \"#utility.yul\":5224:5247   */\n      mload\n        /* \"#utility.yul\":5294:5297   */\n      dup5\n        /* \"#utility.yul\":5288:5292   */\n      dup3\n        /* \"#utility.yul\":5284:5298   */\n      sub\n        /* \"#utility.yul\":5277:5281   */\n      0x60\n        /* \"#utility.yul\":5272:5275   */\n      dup7\n        /* \"#utility.yul\":5268:5282   */\n      add\n        /* \"#utility.yul\":5261:5299   */\n      mstore\n        /* \"#utility.yul\":5320:5393   */\n      tag_519\n        /* \"#utility.yul\":5388:5392   */\n      dup3\n        /* \"#utility.yul\":5374:5386   */\n      dup3\n        /* \"#utility.yul\":5320:5393   */\n      tag_410\n      jump\t// in\n    tag_519:\n        /* \"#utility.yul\":5312:5393   */\n      swap2\n      pop\n        /* \"#utility.yul\":5168:5404   */\n      pop\n        /* \"#utility.yul\":5492:5496   */\n      0x80\n        /* \"#utility.yul\":5485:5490   */\n      dup4\n        /* \"#utility.yul\":5481:5497   */\n      add\n        /* \"#utility.yul\":5475:5498   */\n      mload\n        /* \"#utility.yul\":5545:5548   */\n      dup5\n        /* \"#utility.yul\":5539:5543   */\n      dup3\n        /* \"#utility.yul\":5535:5549   */\n      sub\n        /* \"#utility.yul\":5528:5532   */\n      0x80\n        /* \"#utility.yul\":5523:5526   */\n      dup7\n        /* \"#utility.yul\":5519:5533   */\n      add\n        /* \"#utility.yul\":5512:5550   */\n      mstore\n        /* \"#utility.yul\":5571:5644   */\n      tag_520\n        /* \"#utility.yul\":5639:5643   */\n      dup3\n        /* \"#utility.yul\":5625:5637   */\n      dup3\n        /* \"#utility.yul\":5571:5644   */\n      tag_410\n      jump\t// in\n    tag_520:\n        /* \"#utility.yul\":5563:5644   */\n      swap2\n      pop\n        /* \"#utility.yul\":5414:5655   */\n      pop\n        /* \"#utility.yul\":5672:5676   */\n      dup1\n        /* \"#utility.yul\":5665:5676   */\n      swap2\n      pop\n        /* \"#utility.yul\":4453:5682   */\n      pop\n        /* \"#utility.yul\":4343:5682   */\n      swap3\n      swap2\n      pop\n      pop\n      jump\t// out\n        /* \"#utility.yul\":5688:5936   */\n    tag_412:\n        /* \"#utility.yul\":5803:5813   */\n      0x00\n        /* \"#utility.yul\":5838:5930   */\n      tag_522\n        /* \"#utility.yul\":5926:5929   */\n      dup4\n        /* \"#utility.yul\":5918:5924   */\n      dup4\n        /* \"#utility.yul\":5838:5930   */\n      tag_411\n      jump\t// in\n    tag_522:\n        /* \"#utility.yul\":5824:5930   */\n      swap1\n      pop\n        /* \"#utility.yul\":5688:5936   */\n      swap3\n      swap2\n      pop\n      pop\n      jump\t// out\n        /* \"#utility.yul\":5942:6077   */\n    tag_413:\n        /* \"#utility.yul\":6034:6038   */\n      0x00\n        /* \"#utility.yul\":6066:6070   */\n      0x20\n        /* \"#utility.yul\":6061:6064   */\n      dup3\n        /* \"#utility.yul\":6057:6071   */\n      add\n        /* \"#utility.yul\":6049:6071   */\n      swap1\n      pop\n        /* \"#utility.yul\":5942:6077   */\n      swap2\n      swap1\n      pop\n      jump\t// out\n        /* \"#utility.yul\":6151:7240   */\n    tag_414:\n        /* \"#utility.yul\":6314:6317   */\n      0x00\n        /* \"#utility.yul\":6343:6419   */\n      tag_525\n        /* \"#utility.yul\":6413:6418   */\n      dup3\n        /* \"#utility.yul\":6343:6419   */\n      tag_405\n      jump\t// in\n    tag_525:\n        /* \"#utility.yul\":6435:6543   */\n      tag_526\n        /* \"#utility.yul\":6536:6542   */\n      dup2\n        /* \"#utility.yul\":6531:6534   */\n      dup6\n        /* \"#utility.yul\":6435:6543   */\n      tag_406\n      jump\t// in\n    tag_526:\n        /* \"#utility.yul\":6428:6543   */\n      swap4\n      pop\n        /* \"#utility.yul\":6569:6572   */\n      dup4\n        /* \"#utility.yul\":6614:6618   */\n      0x20\n        /* \"#utility.yul\":6606:6612   */\n      dup3\n        /* \"#utility.yul\":6602:6619   */\n      mul\n        /* \"#utility.yul\":6597:6600   */\n      dup6\n        /* \"#utility.yul\":6593:6620   */\n      add\n        /* \"#utility.yul\":6644:6722   */\n      tag_527\n        /* \"#utility.yul\":6716:6721   */\n      dup6\n        /* \"#utility.yul\":6644:6722   */\n      tag_407\n      jump\t// in\n    tag_527:\n        /* \"#utility.yul\":6745:6752   */\n      dup1\n        /* \"#utility.yul\":6776:6777   */\n      0x00\n        /* \"#utility.yul\":6761:7195   */\n    tag_528:\n        /* \"#utility.yul\":6786:6792   */\n      dup6\n        /* \"#utility.yul\":6783:6784   */\n      dup2\n        /* \"#utility.yul\":6780:6793   */\n      lt\n        /* \"#utility.yul\":6761:7195   */\n      iszero\n      tag_530\n      jumpi\n        /* \"#utility.yul\":6857:6866   */\n      dup5\n        /* \"#utility.yul\":6851:6855   */\n      dup5\n        /* \"#utility.yul\":6847:6867   */\n      sub\n        /* \"#utility.yul\":6842:6845   */\n      dup10\n        /* \"#utility.yul\":6835:6868   */\n      mstore\n        /* \"#utility.yul\":6908:6914   */\n      dup2\n        /* \"#utility.yul\":6902:6915   */\n      mload\n        /* \"#utility.yul\":6936:7046   */\n      tag_531\n        /* \"#utility.yul\":7041:7045   */\n      dup6\n        /* \"#utility.yul\":7026:7039   */\n      dup3\n        /* \"#utility.yul\":6936:7046   */\n      tag_412\n      jump\t// in\n    tag_531:\n        /* \"#utility.yul\":6928:7046   */\n      swap5\n      pop\n        /* \"#utility.yul\":7069:7151   */\n      tag_532\n        /* \"#utility.yul\":7144:7150   */\n      dup4\n        /* \"#utility.yul\":7069:7151   */\n      tag_413\n      jump\t// in\n    tag_532:\n        /* \"#utility.yul\":7059:7151   */\n      swap3\n      pop\n        /* \"#utility.yul\":7180:7184   */\n      0x20\n        /* \"#utility.yul\":7175:7178   */\n      dup11\n        /* \"#utility.yul\":7171:7185   */\n      add\n        /* \"#utility.yul\":7164:7185   */\n      swap10\n      pop\n        /* \"#utility.yul\":6821:7195   */\n      pop\n        /* \"#utility.yul\":6808:6809   */\n      0x01\n        /* \"#utility.yul\":6805:6806   */\n      dup2\n        /* \"#utility.yul\":6801:6810   */\n      add\n        /* \"#utility.yul\":6796:6810   */\n      swap1\n      pop\n        /* \"#utility.yul\":6761:7195   */\n      jump(tag_528)\n    tag_530:\n        /* \"#utility.yul\":6765:6779   */\n      pop\n        /* \"#utility.yul\":7211:7215   */\n      dup3\n        /* \"#utility.yul\":7204:7215   */\n      swap8\n      pop\n        /* \"#utility.yul\":7231:7234   */\n      dup8\n        /* \"#utility.yul\":7224:7234   */\n      swap6\n      pop\n        /* \"#utility.yul\":6319:7240   */\n      pop\n      pop\n      pop\n      pop\n      pop\n        /* \"#utility.yul\":6151:7240   */\n      swap3\n      swap2\n      pop\n      pop\n      jump\t// out\n        /* \"#utility.yul\":7246:7707   */\n    tag_41:\n        /* \"#utility.yul\":7433:7437   */\n      0x00\n        /* \"#utility.yul\":7471:7473   */\n      0x20\n        /* \"#utility.yul\":7460:7469   */\n      dup3\n        /* \"#utility.yul\":7456:7474   */\n      add\n        /* \"#utility.yul\":7448:7474   */\n      swap1\n      pop\n        /* \"#utility.yul\":7520:7529   */\n      dup2\n        /* \"#utility.yul\":7514:7518   */\n      dup2\n        /* \"#utility.yul\":7510:7530   */\n      sub\n        /* \"#utility.yul\":7506:7507   */\n      0x00\n        /* \"#utility.yul\":7495:7504   */\n      dup4\n        /* \"#utility.yul\":7491:7508   */\n      add\n        /* \"#utility.yul\":7484:7531   */\n      mstore\n        /* \"#utility.yul\":7548:7700   */\n      tag_534\n        /* \"#utility.yul\":7695:7699   */\n      dup2\n        /* \"#utility.yul\":7686:7692   */\n      dup5\n        /* \"#utility.yul\":7548:7700   */\n      tag_414\n      jump\t// in\n    tag_534:\n        /* \"#utility.yul\":7540:7700   */\n      swap1\n      pop\n        /* \"#utility.yul\":7246:7707   */\n      swap3\n      swap2\n      pop\n      pop\n      jump\t// out\n        /* \"#utility.yul\":7713:7843   */\n    tag_415:\n        /* \"#utility.yul\":7804:7810   */\n      0x00\n        /* \"#utility.yul\":7832:7836   */\n      0x04\n        /* \"#utility.yul\":7822:7836   */\n      swap1\n      pop\n        /* \"#utility.yul\":7713:7843   */\n      swap2\n      swap1\n      pop\n      jump\t// out\n        /* \"#utility.yul\":7849:8018   */\n    tag_416:\n        /* \"#utility.yul\":7972:7983   */\n      0x00\n        /* \"#utility.yul\":8009:8012   */\n      dup2\n        /* \"#utility.yul\":7994:8012   */\n      swap1\n      pop\n        /* \"#utility.yul\":7849:8018   */\n      swap3\n      swap2\n      pop\n      pop\n      jump\t// out\n        /* \"#utility.yul\":8024:8148   */\n    tag_417:\n        /* \"#utility.yul\":8115:8119   */\n      0x00\n        /* \"#utility.yul\":8138:8141   */\n      dup2\n        /* \"#utility.yul\":8130:8141   */\n      swap1\n      pop\n        /* \"#utility.yul\":8024:8148   */\n      swap2\n      swap1\n      pop\n      jump\t// out\n        /* \"#utility.yul\":8220:9571   */\n    tag_418:\n        /* \"#utility.yul\":8331:8334   */\n      0x00\n        /* \"#utility.yul\":8367:8371   */\n      0xa0\n        /* \"#utility.yul\":8362:8365   */\n      dup4\n        /* \"#utility.yul\":8358:8372   */\n      add\n        /* \"#utility.yul\":8452:8456   */\n      0x00\n        /* \"#utility.yul\":8445:8450   */\n      dup4\n        /* \"#utility.yul\":8441:8457   */\n      add\n        /* \"#utility.yul\":8435:8458   */\n      mload\n        /* \"#utility.yul\":8471:8534   */\n      tag_539\n        /* \"#utility.yul\":8528:8532   */\n      0x00\n        /* \"#utility.yul\":8523:8526   */\n      dup7\n        /* \"#utility.yul\":8519:8533   */\n      add\n        /* \"#utility.yul\":8505:8517   */\n      dup3\n        /* \"#utility.yul\":8471:8534   */\n      tag_408\n      jump\t// in\n    tag_539:\n        /* \"#utility.yul\":8382:8544   */\n      pop\n        /* \"#utility.yul\":8626:8630   */\n      0x20\n        /* \"#utility.yul\":8619:8624   */\n      dup4\n        /* \"#utility.yul\":8615:8631   */\n      add\n        /* \"#utility.yul\":8609:8632   */\n      mload\n        /* \"#utility.yul\":8679:8682   */\n      dup5\n        /* \"#utility.yul\":8673:8677   */\n      dup3\n        /* \"#utility.yul\":8669:8683   */\n      sub\n        /* \"#utility.yul\":8662:8666   */\n      0x20\n        /* \"#utility.yul\":8657:8660   */\n      dup7\n        /* \"#utility.yul\":8653:8667   */\n      add\n        /* \"#utility.yul\":8646:8684   */\n      mstore\n        /* \"#utility.yul\":8705:8778   */\n      tag_540\n        /* \"#utility.yul\":8773:8777   */\n      dup3\n        /* \"#utility.yul\":8759:8771   */\n      dup3\n        /* \"#utility.yul\":8705:8778   */\n      tag_410\n      jump\t// in\n    tag_540:\n        /* \"#utility.yul\":8697:8778   */\n      swap2\n      pop\n        /* \"#utility.yul\":8554:8789   */\n      pop\n        /* \"#utility.yul\":8871:8875   */\n      0x40\n        /* \"#utility.yul\":8864:8869   */\n      dup4\n        /* \"#utility.yul\":8860:8876   */\n      add\n        /* \"#utility.yul\":8854:8877   */\n      mload\n        /* \"#utility.yul\":8924:8927   */\n      dup5\n        /* \"#utility.yul\":8918:8922   */\n      dup3\n        /* \"#utility.yul\":8914:8928   */\n      sub\n        /* \"#utility.yul\":8907:8911   */\n      0x40\n        /* \"#utility.yul\":8902:8905   */\n      dup7\n        /* \"#utility.yul\":8898:8912   */\n      add\n        /* \"#utility.yul\":8891:8929   */\n      mstore\n        /* \"#utility.yul\":8950:9023   */\n      tag_541\n        /* \"#utility.yul\":9018:9022   */\n      dup3\n        /* \"#utility.yul\":9004:9016   */\n      dup3\n        /* \"#utility.yul\":8950:9023   */\n      tag_410\n      jump\t// in\n    tag_541:\n        /* \"#utility.yul\":8942:9023   */\n      swap2\n      pop\n        /* \"#utility.yul\":8799:9034   */\n      pop\n        /* \"#utility.yul\":9129:9133   */\n      0x60\n        /* \"#utility.yul\":9122:9127   */\n      dup4\n        /* \"#utility.yul\":9118:9134   */\n      add\n        /* \"#utility.yul\":9112:9135   */\n      mload\n        /* \"#utility.yul\":9182:9185   */\n      dup5\n        /* \"#utility.yul\":9176:9180   */\n      dup3\n        /* \"#utility.yul\":9172:9186   */\n      sub\n        /* \"#utility.yul\":9165:9169   */\n      0x60\n        /* \"#utility.yul\":9160:9163   */\n      dup7\n        /* \"#utility.yul\":9156:9170   */\n      add\n        /* \"#utility.yul\":9149:9187   */\n      mstore\n        /* \"#utility.yul\":9208:9281   */\n      tag_542\n        /* \"#utility.yul\":9276:9280   */\n      dup3\n        /* \"#utility.yul\":9262:9274   */\n      dup3\n        /* \"#utility.yul\":9208:9281   */\n      tag_410\n      jump\t// in\n    tag_542:\n        /* \"#utility.yul\":9200:9281   */\n      swap2\n      pop\n        /* \"#utility.yul\":9044:9292   */\n      pop\n        /* \"#utility.yul\":9381:9385   */\n      0x80\n        /* \"#utility.yul\":9374:9379   */\n      dup4\n        /* \"#utility.yul\":9370:9386   */\n      add\n        /* \"#utility.yul\":9364:9387   */\n      mload\n        /* \"#utility.yul\":9434:9437   */\n      dup5\n        /* \"#utility.yul\":9428:9432   */\n      dup3\n        /* \"#utility.yul\":9424:9438   */\n      sub\n        /* \"#utility.yul\":9417:9421   */\n      0x80\n        /* \"#utility.yul\":9412:9415   */\n      dup7\n        /* \"#utility.yul\":9408:9422   */\n      add\n        /* \"#utility.yul\":9401:9439   */\n      mstore\n        /* \"#utility.yul\":9460:9533   */\n      tag_543\n        /* \"#utility.yul\":9528:9532   */\n      dup3\n        /* \"#utility.yul\":9514:9526   */\n      dup3\n        /* \"#utility.yul\":9460:9533   */\n      tag_410\n      jump\t// in\n    tag_543:\n        /* \"#utility.yul\":9452:9533   */\n      swap2\n      pop\n        /* \"#utility.yul\":9302:9544   */\n      pop\n        /* \"#utility.yul\":9561:9565   */\n      dup1\n        /* \"#utility.yul\":9554:9565   */\n      swap2\n      pop\n        /* \"#utility.yul\":8336:9571   */\n      pop\n        /* \"#utility.yul\":8220:9571   */\n      swap3\n      swap2\n      pop\n      pop\n      jump\t// out\n        /* \"#utility.yul\":9577:9837   */\n    tag_419:\n        /* \"#utility.yul\":9698:9708   */\n      0x00\n        /* \"#utility.yul\":9733:9831   */\n      tag_545\n        /* \"#utility.yul\":9827:9830   */\n      dup4\n        /* \"#utility.yul\":9819:9825   */\n      dup4\n        /* \"#utility.yul\":9733:9831   */\n      tag_418\n      jump\t// in\n    tag_545:\n        /* \"#utility.yul\":9719:9831   */\n      swap1\n      pop\n        /* \"#utility.yul\":9577:9837   */\n      swap3\n      swap2\n      pop\n      pop\n      jump\t// out\n        /* \"#utility.yul\":9843:9980   */\n    tag_420:\n        /* \"#utility.yul\":9937:9941   */\n      0x00\n        /* \"#utility.yul\":9969:9973   */\n      0x20\n        /* \"#utility.yul\":9964:9967   */\n      dup3\n        /* \"#utility.yul\":9960:9974   */\n      add\n        /* \"#utility.yul\":9952:9974   */\n      swap1\n      pop\n        /* \"#utility.yul\":9843:9980   */\n      swap2\n      swap1\n      pop\n      jump\t// out\n        /* \"#utility.yul\":10058:11165   */\n    tag_421:\n        /* \"#utility.yul\":10225:10228   */\n      0x00\n        /* \"#utility.yul\":10254:10332   */\n      tag_548\n        /* \"#utility.yul\":10326:10331   */\n      dup3\n        /* \"#utility.yul\":10254:10332   */\n      tag_415\n      jump\t// in\n    tag_548:\n        /* \"#utility.yul\":10348:10458   */\n      tag_549\n        /* \"#utility.yul\":10451:10457   */\n      dup2\n        /* \"#utility.yul\":10446:10449   */\n      dup6\n        /* \"#utility.yul\":10348:10458   */\n      tag_416\n      jump\t// in\n    tag_549:\n        /* \"#utility.yul\":10341:10458   */\n      swap4\n      pop\n        /* \"#utility.yul\":10484:10487   */\n      dup4\n        /* \"#utility.yul\":10529:10533   */\n      0x20\n        /* \"#utility.yul\":10521:10527   */\n      dup3\n        /* \"#utility.yul\":10517:10534   */\n      mul\n        /* \"#utility.yul\":10512:10515   */\n      dup6\n        /* \"#utility.yul\":10508:10535   */\n      add\n        /* \"#utility.yul\":10559:10639   */\n      tag_550\n        /* \"#utility.yul\":10633:10638   */\n      dup6\n        /* \"#utility.yul\":10559:10639   */\n      tag_417\n      jump\t// in\n    tag_550:\n        /* \"#utility.yul\":10662:10669   */\n      dup1\n        /* \"#utility.yul\":10693:10694   */\n      0x00\n        /* \"#utility.yul\":10678:11120   */\n    tag_551:\n        /* \"#utility.yul\":10703:10709   */\n      dup6\n        /* \"#utility.yul\":10700:10701   */\n      dup2\n        /* \"#utility.yul\":10697:10710   */\n      lt\n        /* \"#utility.yul\":10678:11120   */\n      iszero\n      tag_553\n      jumpi\n        /* \"#utility.yul\":10774:10783   */\n      dup5\n        /* \"#utility.yul\":10768:10772   */\n      dup5\n        /* \"#utility.yul\":10764:10784   */\n      sub\n        /* \"#utility.yul\":10759:10762   */\n      dup10\n        /* \"#utility.yul\":10752:10785   */\n      mstore\n        /* \"#utility.yul\":10825:10831   */\n      dup2\n        /* \"#utility.yul\":10819:10832   */\n      mload\n        /* \"#utility.yul\":10853:10969   */\n      tag_554\n        /* \"#utility.yul\":10964:10968   */\n      dup6\n        /* \"#utility.yul\":10949:10962   */\n      dup3\n        /* \"#utility.yul\":10853:10969   */\n      tag_419\n      jump\t// in\n    tag_554:\n        /* \"#utility.yul\":10845:10969   */\n      swap5\n      pop\n        /* \"#utility.yul\":10992:11076   */\n      tag_555\n        /* \"#utility.yul\":11069:11075   */\n      dup4\n        /* \"#utility.yul\":10992:11076   */\n      tag_420\n      jump\t// in\n    tag_555:\n        /* \"#utility.yul\":10982:11076   */\n      swap3\n      pop\n        /* \"#utility.yul\":11105:11109   */\n      0x20\n        /* \"#utility.yul\":11100:11103   */\n      dup11\n        /* \"#utility.yul\":11096:11110   */\n      add\n        /* \"#utility.yul\":11089:11110   */\n      swap10\n      pop\n        /* \"#utility.yul\":10738:11120   */\n      pop\n        /* \"#utility.yul\":10725:10726   */\n      0x01\n        /* \"#utility.yul\":10722:10723   */\n      dup2\n        /* \"#utility.yul\":10718:10727   */\n      add\n        /* \"#utility.yul\":10713:10727   */\n      swap1\n      pop\n        /* \"#utility.yul\":10678:11120   */\n      jump(tag_551)\n    tag_553:\n        /* \"#utility.yul\":10682:10696   */\n      pop\n        /* \"#utility.yul\":11136:11140   */\n      dup3\n        /* \"#utility.yul\":11129:11140   */\n      swap8\n      pop\n        /* \"#utility.yul\":11156:11159   */\n      dup8\n        /* \"#utility.yul\":11149:11159   */\n      swap6\n      pop\n        /* \"#utility.yul\":10230:11165   */\n      pop\n      pop\n      pop\n      pop\n      pop\n        /* \"#utility.yul\":10058:11165   */\n      swap3\n      swap2\n      pop\n      pop\n      jump\t// out\n        /* \"#utility.yul\":11171:11640   */\n    tag_46:\n        /* \"#utility.yul\":11362:11366   */\n      0x00\n        /* \"#utility.yul\":11400:11402   */\n      0x20\n        /* \"#utility.yul\":11389:11398   */\n      dup3\n        /* \"#utility.yul\":11385:11403   */\n      add\n        /* \"#utility.yul\":11377:11403   */\n      swap1\n      pop\n        /* \"#utility.yul\":11449:11458   */\n      dup2\n        /* \"#utility.yul\":11443:11447   */\n      dup2\n        /* \"#utility.yul\":11439:11459   */\n      sub\n        /* \"#utility.yul\":11435:11436   */\n      0x00\n        /* \"#utility.yul\":11424:11433   */\n      dup4\n        /* \"#utility.yul\":11420:11437   */\n      add\n        /* \"#utility.yul\":11413:11460   */\n      mstore\n        /* \"#utility.yul\":11477:11633   */\n      tag_557\n        /* \"#utility.yul\":11628:11632   */\n      dup2\n        /* \"#utility.yul\":11619:11625   */\n      dup5\n        /* \"#utility.yul\":11477:11633   */\n      tag_421\n      jump\t// in\n    tag_557:\n        /* \"#utility.yul\":11469:11633   */\n      swap1\n      pop\n        /* \"#utility.yul\":11171:11640   */\n      swap3\n      swap2\n      pop\n      pop\n      jump\t// out\n        /* \"#utility.yul\":11646:11775   */\n    tag_422:\n        /* \"#utility.yul\":11736:11742   */\n      0x00\n        /* \"#utility.yul\":11764:11768   */\n      0x04\n        /* \"#utility.yul\":11754:11768   */\n      swap1\n      pop\n        /* \"#utility.yul\":11646:11775   */\n      swap2\n      swap1\n      pop\n      jump\t// out\n        /* \"#utility.yul\":11781:11949   */\n    tag_423:\n        /* \"#utility.yul\":11903:11914   */\n      0x00\n        /* \"#utility.yul\":11940:11943   */\n      dup2\n        /* \"#utility.yul\":11925:11943   */\n      swap1\n      pop\n        /* \"#utility.yul\":11781:11949   */\n      swap3\n      swap2\n      pop\n      pop\n      jump\t// out\n        /* \"#utility.yul\":11955:12078   */\n    tag_424:\n        /* \"#utility.yul\":12045:12049   */\n      0x00\n        /* \"#utility.yul\":12068:12071   */\n      dup2\n        /* \"#utility.yul\":12060:12071   */\n      swap1\n      pop\n        /* \"#utility.yul\":11955:12078   */\n      swap2\n      swap1\n      pop\n      jump\t// out\n        /* \"#utility.yul\":12148:13501   */\n    tag_425:\n        /* \"#utility.yul\":12257:12260   */\n      0x00\n        /* \"#utility.yul\":12293:12297   */\n      0xa0\n        /* \"#utility.yul\":12288:12291   */\n      dup4\n        /* \"#utility.yul\":12284:12298   */\n      add\n        /* \"#utility.yul\":12378:12382   */\n      0x00\n        /* \"#utility.yul\":12371:12376   */\n      dup4\n        /* \"#utility.yul\":12367:12383   */\n      add\n        /* \"#utility.yul\":12361:12384   */\n      mload\n        /* \"#utility.yul\":12397:12460   */\n      tag_562\n        /* \"#utility.yul\":12454:12458   */\n      0x00\n        /* \"#utility.yul\":12449:12452   */\n      dup7\n        /* \"#utility.yul\":12445:12459   */\n      add\n        /* \"#utility.yul\":12431:12443   */\n      dup3\n        /* \"#utility.yul\":12397:12460   */\n      tag_408\n      jump\t// in\n    tag_562:\n        /* \"#utility.yul\":12308:12470   */\n      pop\n        /* \"#utility.yul\":12552:12556   */\n      0x20\n        /* \"#utility.yul\":12545:12550   */\n      dup4\n        /* \"#utility.yul\":12541:12557   */\n      add\n        /* \"#utility.yul\":12535:12558   */\n      mload\n        /* \"#utility.yul\":12605:12608   */\n      dup5\n        /* \"#utility.yul\":12599:12603   */\n      dup3\n        /* \"#utility.yul\":12595:12609   */\n      sub\n        /* \"#utility.yul\":12588:12592   */\n      0x20\n        /* \"#utility.yul\":12583:12586   */\n      dup7\n        /* \"#utility.yul\":12579:12593   */\n      add\n        /* \"#utility.yul\":12572:12610   */\n      mstore\n        /* \"#utility.yul\":12631:12704   */\n      tag_563\n        /* \"#utility.yul\":12699:12703   */\n      dup3\n        /* \"#utility.yul\":12685:12697   */\n      dup3\n        /* \"#utility.yul\":12631:12704   */\n      tag_410\n      jump\t// in\n    tag_563:\n        /* \"#utility.yul\":12623:12704   */\n      swap2\n      pop\n        /* \"#utility.yul\":12480:12715   */\n      pop\n        /* \"#utility.yul\":12799:12803   */\n      0x40\n        /* \"#utility.yul\":12792:12797   */\n      dup4\n        /* \"#utility.yul\":12788:12804   */\n      add\n        /* \"#utility.yul\":12782:12805   */\n      mload\n        /* \"#utility.yul\":12852:12855   */\n      dup5\n        /* \"#utility.yul\":12846:12850   */\n      dup3\n        /* \"#utility.yul\":12842:12856   */\n      sub\n        /* \"#utility.yul\":12835:12839   */\n      0x40\n        /* \"#utility.yul\":12830:12833   */\n      dup7\n        /* \"#utility.yul\":12826:12840   */\n      add\n        /* \"#utility.yul\":12819:12857   */\n      mstore\n        /* \"#utility.yul\":12878:12951   */\n      tag_564\n        /* \"#utility.yul\":12946:12950   */\n      dup3\n        /* \"#utility.yul\":12932:12944   */\n      dup3\n        /* \"#utility.yul\":12878:12951   */\n      tag_410\n      jump\t// in\n    tag_564:\n        /* \"#utility.yul\":12870:12951   */\n      swap2\n      pop\n        /* \"#utility.yul\":12725:12962   */\n      pop\n        /* \"#utility.yul\":13057:13061   */\n      0x60\n        /* \"#utility.yul\":13050:13055   */\n      dup4\n        /* \"#utility.yul\":13046:13062   */\n      add\n        /* \"#utility.yul\":13040:13063   */\n      mload\n        /* \"#utility.yul\":13110:13113   */\n      dup5\n        /* \"#utility.yul\":13104:13108   */\n      dup3\n        /* \"#utility.yul\":13100:13114   */\n      sub\n        /* \"#utility.yul\":13093:13097   */\n      0x60\n        /* \"#utility.yul\":13088:13091   */\n      dup7\n        /* \"#utility.yul\":13084:13098   */\n      add\n        /* \"#utility.yul\":13077:13115   */\n      mstore\n        /* \"#utility.yul\":13136:13209   */\n      tag_565\n        /* \"#utility.yul\":13204:13208   */\n      dup3\n        /* \"#utility.yul\":13190:13202   */\n      dup3\n        /* \"#utility.yul\":13136:13209   */\n      tag_410\n      jump\t// in\n    tag_565:\n        /* \"#utility.yul\":13128:13209   */\n      swap2\n      pop\n        /* \"#utility.yul\":12972:13220   */\n      pop\n        /* \"#utility.yul\":13311:13315   */\n      0x80\n        /* \"#utility.yul\":13304:13309   */\n      dup4\n        /* \"#utility.yul\":13300:13316   */\n      add\n        /* \"#utility.yul\":13294:13317   */\n      mload\n        /* \"#utility.yul\":13364:13367   */\n      dup5\n        /* \"#utility.yul\":13358:13362   */\n      dup3\n        /* \"#utility.yul\":13354:13368   */\n      sub\n        /* \"#utility.yul\":13347:13351   */\n      0x80\n        /* \"#utility.yul\":13342:13345   */\n      dup7\n        /* \"#utility.yul\":13338:13352   */\n      add\n        /* \"#utility.yul\":13331:13369   */\n      mstore\n        /* \"#utility.yul\":13390:13463   */\n      tag_566\n        /* \"#utility.yul\":13458:13462   */\n      dup3\n        /* \"#utility.yul\":13444:13456   */\n      dup3\n        /* \"#utility.yul\":13390:13463   */\n      tag_410\n      jump\t// in\n    tag_566:\n        /* \"#utility.yul\":13382:13463   */\n      swap2\n      pop\n        /* \"#utility.yul\":13230:13474   */\n      pop\n        /* \"#utility.yul\":13491:13495   */\n      dup1\n        /* \"#utility.yul\":13484:13495   */\n      swap2\n      pop\n        /* \"#utility.yul\":12262:13501   */\n      pop\n        /* \"#utility.yul\":12148:13501   */\n      swap3\n      swap2\n      pop\n      pop\n      jump\t// out\n        /* \"#utility.yul\":13507:13763   */\n    tag_426:\n        /* \"#utility.yul\":13626:13636   */\n      0x00\n        /* \"#utility.yul\":13661:13757   */\n      tag_568\n        /* \"#utility.yul\":13753:13756   */\n      dup4\n        /* \"#utility.yul\":13745:13751   */\n      dup4\n        /* \"#utility.yul\":13661:13757   */\n      tag_425\n      jump\t// in\n    tag_568:\n        /* \"#utility.yul\":13647:13757   */\n      swap1\n      pop\n        /* \"#utility.yul\":13507:13763   */\n      swap3\n      swap2\n      pop\n      pop\n      jump\t// out\n        /* \"#utility.yul\":13769:13905   */\n    tag_427:\n        /* \"#utility.yul\":13862:13866   */\n      0x00\n        /* \"#utility.yul\":13894:13898   */\n      0x20\n        /* \"#utility.yul\":13889:13892   */\n      dup3\n        /* \"#utility.yul\":13885:13899   */\n      add\n        /* \"#utility.yul\":13877:13899   */\n      swap1\n      pop\n        /* \"#utility.yul\":13769:13905   */\n      swap2\n      swap1\n      pop\n      jump\t// out\n        /* \"#utility.yul\":13981:15080   */\n    tag_428:\n        /* \"#utility.yul\":14146:14149   */\n      0x00\n        /* \"#utility.yul\":14175:14252   */\n      tag_571\n        /* \"#utility.yul\":14246:14251   */\n      dup3\n        /* \"#utility.yul\":14175:14252   */\n      tag_422\n      jump\t// in\n    tag_571:\n        /* \"#utility.yul\":14268:14377   */\n      tag_572\n        /* \"#utility.yul\":14370:14376   */\n      dup2\n        /* \"#utility.yul\":14365:14368   */\n      dup6\n        /* \"#utility.yul\":14268:14377   */\n      tag_423\n      jump\t// in\n    tag_572:\n        /* \"#utility.yul\":14261:14377   */\n      swap4\n      pop\n        /* \"#utility.yul\":14403:14406   */\n      dup4\n        /* \"#utility.yul\":14448:14452   */\n      0x20\n        /* \"#utility.yul\":14440:14446   */\n      dup3\n        /* \"#utility.yul\":14436:14453   */\n      mul\n        /* \"#utility.yul\":14431:14434   */\n      dup6\n        /* \"#utility.yul\":14427:14454   */\n      add\n        /* \"#utility.yul\":14478:14557   */\n      tag_573\n        /* \"#utility.yul\":14551:14556   */\n      dup6\n        /* \"#utility.yul\":14478:14557   */\n      tag_424\n      jump\t// in\n    tag_573:\n        /* \"#utility.yul\":14580:14587   */\n      dup1\n        /* \"#utility.yul\":14611:14612   */\n      0x00\n        /* \"#utility.yul\":14596:15035   */\n    tag_574:\n        /* \"#utility.yul\":14621:14627   */\n      dup6\n        /* \"#utility.yul\":14618:14619   */\n      dup2\n        /* \"#utility.yul\":14615:14628   */\n      lt\n        /* \"#utility.yul\":14596:15035   */\n      iszero\n      tag_576\n      jumpi\n        /* \"#utility.yul\":14692:14701   */\n      dup5\n        /* \"#utility.yul\":14686:14690   */\n      dup5\n        /* \"#utility.yul\":14682:14702   */\n      sub\n        /* \"#utility.yul\":14677:14680   */\n      dup10\n        /* \"#utility.yul\":14670:14703   */\n      mstore\n        /* \"#utility.yul\":14743:14749   */\n      dup2\n        /* \"#utility.yul\":14737:14750   */\n      mload\n        /* \"#utility.yul\":14771:14885   */\n      tag_577\n        /* \"#utility.yul\":14880:14884   */\n      dup6\n        /* \"#utility.yul\":14865:14878   */\n      dup3\n        /* \"#utility.yul\":14771:14885   */\n      tag_426\n      jump\t// in\n    tag_577:\n        /* \"#utility.yul\":14763:14885   */\n      swap5\n      pop\n        /* \"#utility.yul\":14908:14991   */\n      tag_578\n        /* \"#utility.yul\":14984:14990   */\n      dup4\n        /* \"#utility.yul\":14908:14991   */\n      tag_427\n      jump\t// in\n    tag_578:\n        /* \"#utility.yul\":14898:14991   */\n      swap3\n      pop\n        /* \"#utility.yul\":15020:15024   */\n      0x20\n        /* \"#utility.yul\":15015:15018   */\n      dup11\n        /* \"#utility.yul\":15011:15025   */\n      add\n        /* \"#utility.yul\":15004:15025   */\n      swap10\n      pop\n        /* \"#utility.yul\":14656:15035   */\n      pop\n        /* \"#utility.yul\":14643:14644   */\n      0x01\n        /* \"#utility.yul\":14640:14641   */\n      dup2\n        /* \"#utility.yul\":14636:14645   */\n      add\n        /* \"#utility.yul\":14631:14645   */\n      swap1\n      pop\n        /* \"#utility.yul\":14596:15035   */\n      jump(tag_574)\n    tag_576:\n        /* \"#utility.yul\":14600:14614   */\n      pop\n        /* \"#utility.yul\":15051:15055   */\n      dup3\n        /* \"#utility.yul\":15044:15055   */\n      swap8\n      pop\n        /* \"#utility.yul\":15071:15074   */\n      dup8\n        /* \"#utility.yul\":15064:15074   */\n      swap6\n      pop\n        /* \"#utility.yul\":14151:15080   */\n      pop\n      pop\n      pop\n      pop\n      pop\n        /* \"#utility.yul\":13981:15080   */\n      swap3\n      swap2\n      pop\n      pop\n      jump\t// out\n        /* \"#utility.yul\":15086:15551   */\n    tag_51:\n        /* \"#utility.yul\":15275:15279   */\n      0x00\n        /* \"#utility.yul\":15313:15315   */\n      0x20\n        /* \"#utility.yul\":15302:15311   */\n      dup3\n        /* \"#utility.yul\":15298:15316   */\n      add\n        /* \"#utility.yul\":15290:15316   */\n      swap1\n      pop\n        /* \"#utility.yul\":15362:15371   */\n      dup2\n        /* \"#utility.yul\":15356:15360   */\n      dup2\n        /* \"#utility.yul\":15352:15372   */\n      sub\n        /* \"#utility.yul\":15348:15349   */\n      0x00\n        /* \"#utility.yul\":15337:15346   */\n      dup4\n        /* \"#utility.yul\":15333:15350   */\n      add\n        /* \"#utility.yul\":15326:15373   */\n      mstore\n        /* \"#utility.yul\":15390:15544   */\n      tag_580\n        /* \"#utility.yul\":15539:15543   */\n      dup2\n        /* \"#utility.yul\":15530:15536   */\n      dup5\n        /* \"#utility.yul\":15390:15544   */\n      tag_428\n      jump\t// in\n    tag_580:\n        /* \"#utility.yul\":15382:15544   */\n      swap1\n      pop\n        /* \"#utility.yul\":15086:15551   */\n      swap3\n      swap2\n      pop\n      pop\n      jump\t// out\n        /* \"#utility.yul\":15557:15674   */\n    tag_429:\n        /* \"#utility.yul\":15666:15667   */\n      0x00\n        /* \"#utility.yul\":15663:15664   */\n      dup1\n        /* \"#utility.yul\":15656:15668   */\n      revert\n        /* \"#utility.yul\":15680:15797   */\n    tag_430:\n        /* \"#utility.yul\":15789:15790   */\n      0x00\n        /* \"#utility.yul\":15786:15787   */\n      dup1\n        /* \"#utility.yul\":15779:15791   */\n      revert\n        /* \"#utility.yul\":15803:15920   */\n    tag_431:\n        /* \"#utility.yul\":15912:15913   */\n      0x00\n        /* \"#utility.yul\":15909:15910   */\n      dup1\n        /* \"#utility.yul\":15902:15914   */\n      revert\n        /* \"#utility.yul\":15940:16493   */\n    tag_432:\n        /* \"#utility.yul\":15998:16006   */\n      0x00\n        /* \"#utility.yul\":16008:16014   */\n      dup1\n        /* \"#utility.yul\":16058:16061   */\n      dup4\n        /* \"#utility.yul\":16051:16055   */\n      0x1f\n        /* \"#utility.yul\":16043:16049   */\n      dup5\n        /* \"#utility.yul\":16039:16056   */\n      add\n        /* \"#utility.yul\":16035:16062   */\n      slt\n        /* \"#utility.yul\":16025:16147   */\n      tag_585\n      jumpi\n        /* \"#utility.yul\":16066:16145   */\n      tag_586\n      tag_429\n      jump\t// in\n    tag_586:\n        /* \"#utility.yul\":16025:16147   */\n    tag_585:\n        /* \"#utility.yul\":16179:16185   */\n      dup3\n        /* \"#utility.yul\":16166:16186   */\n      calldataload\n        /* \"#utility.yul\":16156:16186   */\n      swap1\n      pop\n        /* \"#utility.yul\":16209:16227   */\n      0xffffffffffffffff\n        /* \"#utility.yul\":16201:16207   */\n      dup2\n        /* \"#utility.yul\":16198:16228   */\n      gt\n        /* \"#utility.yul\":16195:16312   */\n      iszero\n      tag_587\n      jumpi\n        /* \"#utility.yul\":16231:16310   */\n      tag_588\n      tag_430\n      jump\t// in\n    tag_588:\n        /* \"#utility.yul\":16195:16312   */\n    tag_587:\n        /* \"#utility.yul\":16345:16349   */\n      0x20\n        /* \"#utility.yul\":16337:16343   */\n      dup4\n        /* \"#utility.yul\":16333:16350   */\n      add\n        /* \"#utility.yul\":16321:16350   */\n      swap2\n      pop\n        /* \"#utility.yul\":16399:16402   */\n      dup4\n        /* \"#utility.yul\":16391:16395   */\n      0x01\n        /* \"#utility.yul\":16383:16389   */\n      dup3\n        /* \"#utility.yul\":16379:16396   */\n      mul\n        /* \"#utility.yul\":16369:16377   */\n      dup4\n        /* \"#utility.yul\":16365:16397   */\n      add\n        /* \"#utility.yul\":16362:16403   */\n      gt\n        /* \"#utility.yul\":16359:16487   */\n      iszero\n      tag_589\n      jumpi\n        /* \"#utility.yul\":16406:16485   */\n      tag_590\n      tag_431\n      jump\t// in\n    tag_590:\n        /* \"#utility.yul\":16359:16487   */\n    tag_589:\n        /* \"#utility.yul\":15940:16493   */\n      swap3\n      pop\n      swap3\n      swap1\n      pop\n      jump\t// out\n        /* \"#utility.yul\":16499:17028   */\n    tag_55:\n        /* \"#utility.yul\":16570:16576   */\n      0x00\n        /* \"#utility.yul\":16578:16584   */\n      dup1\n        /* \"#utility.yul\":16627:16629   */\n      0x20\n        /* \"#utility.yul\":16615:16624   */\n      dup4\n        /* \"#utility.yul\":16606:16613   */\n      dup6\n        /* \"#utility.yul\":16602:16625   */\n      sub\n        /* \"#utility.yul\":16598:16630   */\n      slt\n        /* \"#utility.yul\":16595:16714   */\n      iszero\n      tag_592\n      jumpi\n        /* \"#utility.yul\":16633:16712   */\n      tag_593\n      tag_394\n      jump\t// in\n    tag_593:\n        /* \"#utility.yul\":16595:16714   */\n    tag_592:\n        /* \"#utility.yul\":16781:16782   */\n      0x00\n        /* \"#utility.yul\":16770:16779   */\n      dup4\n        /* \"#utility.yul\":16766:16783   */\n      add\n        /* \"#utility.yul\":16753:16784   */\n      calldataload\n        /* \"#utility.yul\":16811:16829   */\n      0xffffffffffffffff\n        /* \"#utility.yul\":16803:16809   */\n      dup2\n        /* \"#utility.yul\":16800:16830   */\n      gt\n        /* \"#utility.yul\":16797:16914   */\n      iszero\n      tag_594\n      jumpi\n        /* \"#utility.yul\":16833:16912   */\n      tag_595\n      tag_395\n      jump\t// in\n    tag_595:\n        /* \"#utility.yul\":16797:16914   */\n    tag_594:\n        /* \"#utility.yul\":16946:17011   */\n      tag_596\n        /* \"#utility.yul\":17003:17010   */\n      dup6\n        /* \"#utility.yul\":16994:17000   */\n      dup3\n        /* \"#utility.yul\":16983:16992   */\n      dup7\n        /* \"#utility.yul\":16979:17001   */\n      add\n        /* \"#utility.yul\":16946:17011   */\n      tag_432\n      jump\t// in\n    tag_596:\n        /* \"#utility.yul\":16928:17011   */\n      swap3\n      pop\n      swap3\n      pop\n        /* \"#utility.yul\":16724:17021   */\n      pop\n        /* \"#utility.yul\":16499:17028   */\n      swap3\n      pop\n      swap3\n      swap1\n      pop\n      jump\t// out\n        /* \"#utility.yul\":17034:18745   */\n    tag_60:\n        /* \"#utility.yul\":17177:17183   */\n      0x00\n        /* \"#utility.yul\":17185:17191   */\n      dup1\n        /* \"#utility.yul\":17193:17199   */\n      0x00\n        /* \"#utility.yul\":17201:17207   */\n      dup1\n        /* \"#utility.yul\":17209:17215   */\n      0x00\n        /* \"#utility.yul\":17217:17223   */\n      dup1\n        /* \"#utility.yul\":17225:17231   */\n      0x00\n        /* \"#utility.yul\":17233:17239   */\n      dup1\n        /* \"#utility.yul\":17241:17247   */\n      0x00\n        /* \"#utility.yul\":17290:17293   */\n      0xa0\n        /* \"#utility.yul\":17278:17287   */\n      dup11\n        /* \"#utility.yul\":17269:17276   */\n      dup13\n        /* \"#utility.yul\":17265:17288   */\n      sub\n        /* \"#utility.yul\":17261:17294   */\n      slt\n        /* \"#utility.yul\":17258:17378   */\n      iszero\n      tag_598\n      jumpi\n        /* \"#utility.yul\":17297:17376   */\n      tag_599\n      tag_394\n      jump\t// in\n    tag_599:\n        /* \"#utility.yul\":17258:17378   */\n    tag_598:\n        /* \"#utility.yul\":17445:17446   */\n      0x00\n        /* \"#utility.yul\":17434:17443   */\n      dup11\n        /* \"#utility.yul\":17430:17447   */\n      add\n        /* \"#utility.yul\":17417:17448   */\n      calldataload\n        /* \"#utility.yul\":17475:17493   */\n      0xffffffffffffffff\n        /* \"#utility.yul\":17467:17473   */\n      dup2\n        /* \"#utility.yul\":17464:17494   */\n      gt\n        /* \"#utility.yul\":17461:17578   */\n      iszero\n      tag_600\n      jumpi\n        /* \"#utility.yul\":17497:17576   */\n      tag_601\n      tag_395\n      jump\t// in\n    tag_601:\n        /* \"#utility.yul\":17461:17578   */\n    tag_600:\n        /* \"#utility.yul\":17610:17675   */\n      tag_602\n        /* \"#utility.yul\":17667:17674   */\n      dup13\n        /* \"#utility.yul\":17658:17664   */\n      dup3\n        /* \"#utility.yul\":17647:17656   */\n      dup14\n        /* \"#utility.yul\":17643:17665   */\n      add\n        /* \"#utility.yul\":17610:17675   */\n      tag_432\n      jump\t// in\n    tag_602:\n        /* \"#utility.yul\":17592:17675   */\n      swap10\n      pop\n      swap10\n      pop\n        /* \"#utility.yul\":17388:17685   */\n      pop\n        /* \"#utility.yul\":17752:17754   */\n      0x20\n        /* \"#utility.yul\":17741:17750   */\n      dup11\n        /* \"#utility.yul\":17737:17755   */\n      add\n        /* \"#utility.yul\":17724:17756   */\n      calldataload\n        /* \"#utility.yul\":17783:17801   */\n      0xffffffffffffffff\n        /* \"#utility.yul\":17775:17781   */\n      dup2\n        /* \"#utility.yul\":17772:17802   */\n      gt\n        /* \"#utility.yul\":17769:17886   */\n      iszero\n      tag_603\n      jumpi\n        /* \"#utility.yul\":17805:17884   */\n      tag_604\n      tag_395\n      jump\t// in\n    tag_604:\n        /* \"#utility.yul\":17769:17886   */\n    tag_603:\n        /* \"#utility.yul\":17918:17983   */\n      tag_605\n        /* \"#utility.yul\":17975:17982   */\n      dup13\n        /* \"#utility.yul\":17966:17972   */\n      dup3\n        /* \"#utility.yul\":17955:17964   */\n      dup14\n        /* \"#utility.yul\":17951:17973   */\n      add\n        /* \"#utility.yul\":17918:17983   */\n      tag_432\n      jump\t// in\n    tag_605:\n        /* \"#utility.yul\":17900:17983   */\n      swap8\n      pop\n      swap8\n      pop\n        /* \"#utility.yul\":17695:17993   */\n      pop\n        /* \"#utility.yul\":18060:18062   */\n      0x40\n        /* \"#utility.yul\":18049:18058   */\n      dup11\n        /* \"#utility.yul\":18045:18063   */\n      add\n        /* \"#utility.yul\":18032:18064   */\n      calldataload\n        /* \"#utility.yul\":18091:18109   */\n      0xffffffffffffffff\n        /* \"#utility.yul\":18083:18089   */\n      dup2\n        /* \"#utility.yul\":18080:18110   */\n      gt\n        /* \"#utility.yul\":18077:18194   */\n      iszero\n      tag_606\n      jumpi\n        /* \"#utility.yul\":18113:18192   */\n      tag_607\n      tag_395\n      jump\t// in\n    tag_607:\n        /* \"#utility.yul\":18077:18194   */\n    tag_606:\n        /* \"#utility.yul\":18226:18291   */\n      tag_608\n        /* \"#utility.yul\":18283:18290   */\n      dup13\n        /* \"#utility.yul\":18274:18280   */\n      dup3\n        /* \"#utility.yul\":18263:18272   */\n      dup14\n        /* \"#utility.yul\":18259:18281   */\n      add\n        /* \"#utility.yul\":18226:18291   */\n      tag_432\n      jump\t// in\n    tag_608:\n        /* \"#utility.yul\":18208:18291   */\n      swap6\n      pop\n      swap6\n      pop\n        /* \"#utility.yul\":18003:18301   */\n      pop\n        /* \"#utility.yul\":18368:18370   */\n      0x60\n        /* \"#utility.yul\":18357:18366   */\n      dup11\n        /* \"#utility.yul\":18353:18371   */\n      add\n        /* \"#utility.yul\":18340:18372   */\n      calldataload\n        /* \"#utility.yul\":18399:18417   */\n      0xffffffffffffffff\n        /* \"#utility.yul\":18391:18397   */\n      dup2\n        /* \"#utility.yul\":18388:18418   */\n      gt\n        /* \"#utility.yul\":18385:18502   */\n      iszero\n      tag_609\n      jumpi\n        /* \"#utility.yul\":18421:18500   */\n      tag_610\n      tag_395\n      jump\t// in\n    tag_610:\n        /* \"#utility.yul\":18385:18502   */\n    tag_609:\n        /* \"#utility.yul\":18534:18599   */\n      tag_611\n        /* \"#utility.yul\":18591:18598   */\n      dup13\n        /* \"#utility.yul\":18582:18588   */\n      dup3\n        /* \"#utility.yul\":18571:18580   */\n      dup14\n        /* \"#utility.yul\":18567:18589   */\n      add\n        /* \"#utility.yul\":18534:18599   */\n      tag_432\n      jump\t// in\n    tag_611:\n        /* \"#utility.yul\":18516:18599   */\n      swap4\n      pop\n      swap4\n      pop\n        /* \"#utility.yul\":18311:18609   */\n      pop\n        /* \"#utility.yul\":18648:18651   */\n      0x80\n        /* \"#utility.yul\":18675:18728   */\n      tag_612\n        /* \"#utility.yul\":18720:18727   */\n      dup13\n        /* \"#utility.yul\":18711:18717   */\n      dup3\n        /* \"#utility.yul\":18700:18709   */\n      dup14\n        /* \"#utility.yul\":18696:18718   */\n      add\n        /* \"#utility.yul\":18675:18728   */\n      tag_398\n      jump\t// in\n    tag_612:\n        /* \"#utility.yul\":18665:18728   */\n      swap2\n      pop\n        /* \"#utility.yul\":18619:18738   */\n      pop\n        /* \"#utility.yul\":17034:18745   */\n      swap3\n      swap6\n      swap9\n      pop\n      swap3\n      swap6\n      swap9\n      pop\n      swap3\n      swap6\n      swap9\n      jump\t// out\n        /* \"#utility.yul\":18751:19064   */\n    tag_66:\n        /* \"#utility.yul\":18864:18868   */\n      0x00\n        /* \"#utility.yul\":18902:18904   */\n      0x20\n        /* \"#utility.yul\":18891:18900   */\n      dup3\n        /* \"#utility.yul\":18887:18905   */\n      add\n        /* \"#utility.yul\":18879:18905   */\n      swap1\n      pop\n        /* \"#utility.yul\":18951:18960   */\n      dup2\n        /* \"#utility.yul\":18945:18949   */\n      dup2\n        /* \"#utility.yul\":18941:18961   */\n      sub\n        /* \"#utility.yul\":18937:18938   */\n      0x00\n        /* \"#utility.yul\":18926:18935   */\n      dup4\n        /* \"#utility.yul\":18922:18939   */\n      add\n        /* \"#utility.yul\":18915:18962   */\n      mstore\n        /* \"#utility.yul\":18979:19057   */\n      tag_614\n        /* \"#utility.yul\":19052:19056   */\n      dup2\n        /* \"#utility.yul\":19043:19049   */\n      dup5\n        /* \"#utility.yul\":18979:19057   */\n      tag_404\n      jump\t// in\n    tag_614:\n        /* \"#utility.yul\":18971:19057   */\n      swap1\n      pop\n        /* \"#utility.yul\":18751:19064   */\n      swap3\n      swap2\n      pop\n      pop\n      jump\t// out\n        /* \"#utility.yul\":19070:20635   */\n    tag_70:\n        /* \"#utility.yul\":19204:19210   */\n      0x00\n        /* \"#utility.yul\":19212:19218   */\n      dup1\n        /* \"#utility.yul\":19220:19226   */\n      0x00\n        /* \"#utility.yul\":19228:19234   */\n      dup1\n        /* \"#utility.yul\":19236:19242   */\n      0x00\n        /* \"#utility.yul\":19244:19250   */\n      dup1\n        /* \"#utility.yul\":19252:19258   */\n      0x00\n        /* \"#utility.yul\":19260:19266   */\n      dup1\n        /* \"#utility.yul\":19309:19312   */\n      0x80\n        /* \"#utility.yul\":19297:19306   */\n      dup10\n        /* \"#utility.yul\":19288:19295   */\n      dup12\n        /* \"#utility.yul\":19284:19307   */\n      sub\n        /* \"#utility.yul\":19280:19313   */\n      slt\n        /* \"#utility.yul\":19277:19397   */\n      iszero\n      tag_616\n      jumpi\n        /* \"#utility.yul\":19316:19395   */\n      tag_617\n      tag_394\n      jump\t// in\n    tag_617:\n        /* \"#utility.yul\":19277:19397   */\n    tag_616:\n        /* \"#utility.yul\":19464:19465   */\n      0x00\n        /* \"#utility.yul\":19453:19462   */\n      dup10\n        /* \"#utility.yul\":19449:19466   */\n      add\n        /* \"#utility.yul\":19436:19467   */\n      calldataload\n        /* \"#utility.yul\":19494:19512   */\n      0xffffffffffffffff\n        /* \"#utility.yul\":19486:19492   */\n      dup2\n        /* \"#utility.yul\":19483:19513   */\n      gt\n        /* \"#utility.yul\":19480:19597   */\n      iszero\n      tag_618\n      jumpi\n        /* \"#utility.yul\":19516:19595   */\n      tag_619\n      tag_395\n      jump\t// in\n    tag_619:\n        /* \"#utility.yul\":19480:19597   */\n    tag_618:\n        /* \"#utility.yul\":19629:19694   */\n      tag_620\n        /* \"#utility.yul\":19686:19693   */\n      dup12\n        /* \"#utility.yul\":19677:19683   */\n      dup3\n        /* \"#utility.yul\":19666:19675   */\n      dup13\n        /* \"#utility.yul\":19662:19684   */\n      add\n        /* \"#utility.yul\":19629:19694   */\n      tag_432\n      jump\t// in\n    tag_620:\n        /* \"#utility.yul\":19611:19694   */\n      swap9\n      pop\n      swap9\n      pop\n        /* \"#utility.yul\":19407:19704   */\n      pop\n        /* \"#utility.yul\":19771:19773   */\n      0x20\n        /* \"#utility.yul\":19760:19769   */\n      dup10\n        /* \"#utility.yul\":19756:19774   */\n      add\n        /* \"#utility.yul\":19743:19775   */\n      calldataload\n        /* \"#utility.yul\":19802:19820   */\n      0xffffffffffffffff\n        /* \"#utility.yul\":19794:19800   */\n      dup2\n        /* \"#utility.yul\":19791:19821   */\n      gt\n        /* \"#utility.yul\":19788:19905   */\n      iszero\n      tag_621\n      jumpi\n        /* \"#utility.yul\":19824:19903   */\n      tag_622\n      tag_395\n      jump\t// in\n    tag_622:\n        /* \"#utility.yul\":19788:19905   */\n    tag_621:\n        /* \"#utility.yul\":19937:20002   */\n      tag_623\n        /* \"#utility.yul\":19994:20001   */\n      dup12\n        /* \"#utility.yul\":19985:19991   */\n      dup3\n        /* \"#utility.yul\":19974:19983   */\n      dup13\n        /* \"#utility.yul\":19970:19992   */\n      add\n        /* \"#utility.yul\":19937:20002   */\n      tag_432\n      jump\t// in\n    tag_623:\n        /* \"#utility.yul\":19919:20002   */\n      swap7\n      pop\n      swap7\n      pop\n        /* \"#utility.yul\":19714:20012   */\n      pop\n        /* \"#utility.yul\":20079:20081   */\n      0x40\n        /* \"#utility.yul\":20068:20077   */\n      dup10\n        /* \"#utility.yul\":20064:20082   */\n      add\n        /* \"#utility.yul\":20051:20083   */\n      calldataload\n        /* \"#utility.yul\":20110:20128   */\n      0xffffffffffffffff\n        /* \"#utility.yul\":20102:20108   */\n      dup2\n        /* \"#utility.yul\":20099:20129   */\n      gt\n        /* \"#utility.yul\":20096:20213   */\n      iszero\n      tag_624\n      jumpi\n        /* \"#utility.yul\":20132:20211   */\n      tag_625\n      tag_395\n      jump\t// in\n    tag_625:\n        /* \"#utility.yul\":20096:20213   */\n    tag_624:\n        /* \"#utility.yul\":20245:20310   */\n      tag_626\n        /* \"#utility.yul\":20302:20309   */\n      dup12\n        /* \"#utility.yul\":20293:20299   */\n      dup3\n        /* \"#utility.yul\":20282:20291   */\n      dup13\n        /* \"#utility.yul\":20278:20300   */\n      add\n        /* \"#utility.yul\":20245:20310   */\n      tag_432\n      jump\t// in\n    tag_626:\n        /* \"#utility.yul\":20227:20310   */\n      swap5\n      pop\n      swap5\n      pop\n        /* \"#utility.yul\":20022:20320   */\n      pop\n        /* \"#utility.yul\":20387:20389   */\n      0x60\n        /* \"#utility.yul\":20376:20385   */\n      dup10\n        /* \"#utility.yul\":20372:20390   */\n      add\n        /* \"#utility.yul\":20359:20391   */\n      calldataload\n        /* \"#utility.yul\":20418:20436   */\n      0xffffffffffffffff\n        /* \"#utility.yul\":20410:20416   */\n      dup2\n        /* \"#utility.yul\":20407:20437   */\n      gt\n        /* \"#utility.yul\":20404:20521   */\n      iszero\n      tag_627\n      jumpi\n        /* \"#utility.yul\":20440:20519   */\n      tag_628\n      tag_395\n      jump\t// in\n    tag_628:\n        /* \"#utility.yul\":20404:20521   */\n    tag_627:\n        /* \"#utility.yul\":20553:20618   */\n      tag_629\n        /* \"#utility.yul\":20610:20617   */\n      dup12\n        /* \"#utility.yul\":20601:20607   */\n      dup3\n        /* \"#utility.yul\":20590:20599   */\n      dup13\n        /* \"#utility.yul\":20586:20608   */\n      add\n        /* \"#utility.yul\":20553:20618   */\n      tag_432\n      jump\t// in\n    tag_629:\n        /* \"#utility.yul\":20535:20618   */\n      swap3\n      pop\n      swap3\n      pop\n        /* \"#utility.yul\":20330:20628   */\n      pop\n        /* \"#utility.yul\":19070:20635   */\n      swap3\n      swap6\n      swap9\n      pop\n      swap3\n      swap6\n      swap9\n      swap1\n      swap4\n      swap7\n      pop\n      jump\t// out\n        /* \"#utility.yul\":20641:20767   */\n    tag_433:\n        /* \"#utility.yul\":20678:20685   */\n      0x00\n        /* \"#utility.yul\":20718:20760   */\n      0xffffffffffffffffffffffffffffffffffffffff\n        /* \"#utility.yul\":20711:20716   */\n      dup3\n        /* \"#utility.yul\":20707:20761   */\n      and\n        /* \"#utility.yul\":20696:20761   */\n      swap1\n      pop\n        /* \"#utility.yul\":20641:20767   */\n      swap2\n      swap1\n      pop\n      jump\t// out\n        /* \"#utility.yul\":20773:20869   */\n    tag_434:\n        /* \"#utility.yul\":20810:20817   */\n      0x00\n        /* \"#utility.yul\":20839:20863   */\n      tag_632\n        /* \"#utility.yul\":20857:20862   */\n      dup3\n        /* \"#utility.yul\":20839:20863   */\n      tag_433\n      jump\t// in\n    tag_632:\n        /* \"#utility.yul\":20828:20863   */\n      swap1\n      pop\n        /* \"#utility.yul\":20773:20869   */\n      swap2\n      swap1\n      pop\n      jump\t// out\n        /* \"#utility.yul\":20875:20993   */\n    tag_435:\n        /* \"#utility.yul\":20962:20986   */\n      tag_634\n        /* \"#utility.yul\":20980:20985   */\n      dup2\n        /* \"#utility.yul\":20962:20986   */\n      tag_434\n      jump\t// in\n    tag_634:\n        /* \"#utility.yul\":20957:20960   */\n      dup3\n        /* \"#utility.yul\":20950:20987   */\n      mstore\n        /* \"#utility.yul\":20875:20993   */\n      pop\n      pop\n      jump\t// out\n        /* \"#utility.yul\":20999:21221   */\n    tag_93:\n        /* \"#utility.yul\":21092:21096   */\n      0x00\n        /* \"#utility.yul\":21130:21132   */\n      0x20\n        /* \"#utility.yul\":21119:21128   */\n      dup3\n        /* \"#utility.yul\":21115:21133   */\n      add\n        /* \"#utility.yul\":21107:21133   */\n      swap1\n      pop\n        /* \"#utility.yul\":21143:21214   */\n      tag_636\n        /* \"#utility.yul\":21211:21212   */\n      0x00\n        /* \"#utility.yul\":21200:21209   */\n      dup4\n        /* \"#utility.yul\":21196:21213   */\n      add\n        /* \"#utility.yul\":21187:21193   */\n      dup5\n        /* \"#utility.yul\":21143:21214   */\n      tag_435\n      jump\t// in\n    tag_636:\n        /* \"#utility.yul\":20999:21221   */\n      swap3\n      swap2\n      pop\n      pop\n      jump\t// out\n        /* \"#utility.yul\":21227:21407   */\n    tag_436:\n        /* \"#utility.yul\":21275:21352   */\n      0x4e487b7100000000000000000000000000000000000000000000000000000000\n        /* \"#utility.yul\":21272:21273   */\n      0x00\n        /* \"#utility.yul\":21265:21353   */\n      mstore\n        /* \"#utility.yul\":21372:21376   */\n      0x22\n        /* \"#utility.yul\":21369:21370   */\n      0x04\n        /* \"#utility.yul\":21362:21377   */\n      mstore\n        /* \"#utility.yul\":21396:21400   */\n      0x24\n        /* \"#utility.yul\":21393:21394   */\n      0x00\n        /* \"#utility.yul\":21386:21401   */\n      revert\n        /* \"#utility.yul\":21413:21733   */\n    tag_119:\n        /* \"#utility.yul\":21457:21463   */\n      0x00\n        /* \"#utility.yul\":21494:21495   */\n      0x02\n        /* \"#utility.yul\":21488:21492   */\n      dup3\n        /* \"#utility.yul\":21484:21496   */\n      div\n        /* \"#utility.yul\":21474:21496   */\n      swap1\n      pop\n        /* \"#utility.yul\":21541:21542   */\n      0x01\n        /* \"#utility.yul\":21535:21539   */\n      dup3\n        /* \"#utility.yul\":21531:21543   */\n      and\n        /* \"#utility.yul\":21562:21580   */\n      dup1\n        /* \"#utility.yul\":21552:21633   */\n      tag_639\n      jumpi\n        /* \"#utility.yul\":21618:21622   */\n      0x7f\n        /* \"#utility.yul\":21610:21616   */\n      dup3\n        /* \"#utility.yul\":21606:21623   */\n      and\n        /* \"#utility.yul\":21596:21623   */\n      swap2\n      pop\n        /* \"#utility.yul\":21552:21633   */\n    tag_639:\n        /* \"#utility.yul\":21680:21682   */\n      0x20\n        /* \"#utility.yul\":21672:21678   */\n      dup3\n        /* \"#utility.yul\":21669:21683   */\n      lt\n        /* \"#utility.yul\":21649:21667   */\n      dup2\n        /* \"#utility.yul\":21646:21684   */\n      sub\n        /* \"#utility.yul\":21643:21727   */\n      tag_640\n      jumpi\n        /* \"#utility.yul\":21699:21717   */\n      tag_641\n      tag_436\n      jump\t// in\n    tag_641:\n        /* \"#utility.yul\":21643:21727   */\n    tag_640:\n        /* \"#utility.yul\":21464:21733   */\n      pop\n        /* \"#utility.yul\":21413:21733   */\n      swap2\n      swap1\n      pop\n      jump\t// out\n        /* \"#utility.yul\":21739:21910   */\n    tag_437:\n        /* \"#utility.yul\":21879:21902   */\n      0x596f7520617265206e6f7420746865206f776e65720000000000000000000000\n        /* \"#utility.yul\":21875:21876   */\n      0x00\n        /* \"#utility.yul\":21867:21873   */\n      dup3\n        /* \"#utility.yul\":21863:21877   */\n      add\n        /* \"#utility.yul\":21856:21903   */\n      mstore\n        /* \"#utility.yul\":21739:21910   */\n      pop\n      jump\t// out\n        /* \"#utility.yul\":21916:22282   */\n    tag_438:\n        /* \"#utility.yul\":22058:22061   */\n      0x00\n        /* \"#utility.yul\":22079:22146   */\n      tag_644\n        /* \"#utility.yul\":22143:22145   */\n      0x15\n        /* \"#utility.yul\":22138:22141   */\n      dup4\n        /* \"#utility.yul\":22079:22146   */\n      tag_401\n      jump\t// in\n    tag_644:\n        /* \"#utility.yul\":22072:22146   */\n      swap2\n      pop\n        /* \"#utility.yul\":22155:22248   */\n      tag_645\n        /* \"#utility.yul\":22244:22247   */\n      dup3\n        /* \"#utility.yul\":22155:22248   */\n      tag_437\n      jump\t// in\n    tag_645:\n        /* \"#utility.yul\":22273:22275   */\n      0x20\n        /* \"#utility.yul\":22268:22271   */\n      dup3\n        /* \"#utility.yul\":22264:22276   */\n      add\n        /* \"#utility.yul\":22257:22276   */\n      swap1\n      pop\n        /* \"#utility.yul\":21916:22282   */\n      swap2\n      swap1\n      pop\n      jump\t// out\n        /* \"#utility.yul\":22288:22707   */\n    tag_242:\n        /* \"#utility.yul\":22454:22458   */\n      0x00\n        /* \"#utility.yul\":22492:22494   */\n      0x20\n        /* \"#utility.yul\":22481:22490   */\n      dup3\n        /* \"#utility.yul\":22477:22495   */\n      add\n        /* \"#utility.yul\":22469:22495   */\n      swap1\n      pop\n        /* \"#utility.yul\":22541:22550   */\n      dup2\n        /* \"#utility.yul\":22535:22539   */\n      dup2\n        /* \"#utility.yul\":22531:22551   */\n      sub\n        /* \"#utility.yul\":22527:22528   */\n      0x00\n        /* \"#utility.yul\":22516:22525   */\n      dup4\n        /* \"#utility.yul\":22512:22529   */\n      add\n        /* \"#utility.yul\":22505:22552   */\n      mstore\n        /* \"#utility.yul\":22569:22700   */\n      tag_647\n        /* \"#utility.yul\":22695:22699   */\n      dup2\n        /* \"#utility.yul\":22569:22700   */\n      tag_438\n      jump\t// in\n    tag_647:\n        /* \"#utility.yul\":22561:22700   */\n      swap1\n      pop\n        /* \"#utility.yul\":22288:22707   */\n      swap2\n      swap1\n      pop\n      jump\t// out\n        /* \"#utility.yul\":22713:22810   */\n    tag_439:\n        /* \"#utility.yul\":22772:22778   */\n      0x00\n        /* \"#utility.yul\":22800:22803   */\n      dup3\n        /* \"#utility.yul\":22790:22803   */\n      swap1\n      pop\n        /* \"#utility.yul\":22713:22810   */\n      swap3\n      swap2\n      pop\n      pop\n      jump\t// out\n        /* \"#utility.yul\":22816:22996   */\n    tag_440:\n        /* \"#utility.yul\":22864:22941   */\n      0x4e487b7100000000000000000000000000000000000000000000000000000000\n        /* \"#utility.yul\":22861:22862   */\n      0x00\n        /* \"#utility.yul\":22854:22942   */\n      mstore\n        /* \"#utility.yul\":22961:22965   */\n      0x41\n        /* \"#utility.yul\":22958:22959   */\n      0x04\n        /* \"#utility.yul\":22951:22966   */\n      mstore\n        /* \"#utility.yul\":22985:22989   */\n      0x24\n        /* \"#utility.yul\":22982:22983   */\n      0x00\n        /* \"#utility.yul\":22975:22990   */\n      revert\n        /* \"#utility.yul\":23002:23143   */\n    tag_441:\n        /* \"#utility.yul\":23051:23055   */\n      0x00\n        /* \"#utility.yul\":23074:23077   */\n      dup2\n        /* \"#utility.yul\":23066:23077   */\n      swap1\n      pop\n        /* \"#utility.yul\":23097:23100   */\n      dup2\n        /* \"#utility.yul\":23094:23095   */\n      0x00\n        /* \"#utility.yul\":23087:23101   */\n      mstore\n        /* \"#utility.yul\":23131:23135   */\n      0x20\n        /* \"#utility.yul\":23128:23129   */\n      0x00\n        /* \"#utility.yul\":23118:23136   */\n      keccak256\n        /* \"#utility.yul\":23110:23136   */\n      swap1\n      pop\n        /* \"#utility.yul\":23002:23143   */\n      swap2\n      swap1\n      pop\n      jump\t// out\n        /* \"#utility.yul\":23149:23242   */\n    tag_442:\n        /* \"#utility.yul\":23186:23192   */\n      0x00\n        /* \"#utility.yul\":23233:23235   */\n      0x20\n        /* \"#utility.yul\":23228:23230   */\n      0x1f\n        /* \"#utility.yul\":23221:23226   */\n      dup4\n        /* \"#utility.yul\":23217:23231   */\n      add\n        /* \"#utility.yul\":23213:23236   */\n      div\n        /* \"#utility.yul\":23203:23236   */\n      swap1\n      pop\n        /* \"#utility.yul\":23149:23242   */\n      swap2\n      swap1\n      pop\n      jump\t// out\n        /* \"#utility.yul\":23248:23355   */\n    tag_443:\n        /* \"#utility.yul\":23292:23300   */\n      0x00\n        /* \"#utility.yul\":23342:23347   */\n      dup3\n        /* \"#utility.yul\":23336:23340   */\n      dup3\n        /* \"#utility.yul\":23332:23348   */\n      shl\n        /* \"#utility.yul\":23311:23348   */\n      swap1\n      pop\n        /* \"#utility.yul\":23248:23355   */\n      swap3\n      swap2\n      pop\n      pop\n      jump\t// out\n        /* \"#utility.yul\":23361:23754   */\n    tag_444:\n        /* \"#utility.yul\":23430:23436   */\n      0x00\n        /* \"#utility.yul\":23480:23481   */\n      0x08\n        /* \"#utility.yul\":23468:23478   */\n      dup4\n        /* \"#utility.yul\":23464:23482   */\n      mul\n        /* \"#utility.yul\":23503:23600   */\n      tag_654\n        /* \"#utility.yul\":23533:23599   */\n      0xffffffffffffffffffffffffffffffffffffffffffffffffffffffffffffffff\n        /* \"#utility.yul\":23522:23531   */\n      dup3\n        /* \"#utility.yul\":23503:23600   */\n      tag_443\n      jump\t// in\n    tag_654:\n        /* \"#utility.yul\":23621:23660   */\n      tag_655\n        /* \"#utility.yul\":23651:23659   */\n      dup7\n        /* \"#utility.yul\":23640:23649   */\n      dup4\n        /* \"#utility.yul\":23621:23660   */\n      tag_443\n      jump\t// in\n    tag_655:\n        /* \"#utility.yul\":23609:23660   */\n      swap6\n      pop\n        /* \"#utility.yul\":23693:23697   */\n      dup1\n        /* \"#utility.yul\":23689:23698   */\n      not\n        /* \"#utility.yul\":23682:23687   */\n      dup5\n        /* \"#utility.yul\":23678:23699   */\n      and\n        /* \"#utility.yul\":23669:23699   */\n      swap4\n      pop\n        /* \"#utility.yul\":23742:23746   */\n      dup1\n        /* \"#utility.yul\":23732:23740   */\n      dup7\n        /* \"#utility.yul\":23728:23747   */\n      and\n        /* \"#utility.yul\":23721:23726   */\n      dup5\n        /* \"#utility.yul\":23718:23748   */\n      or\n        /* \"#utility.yul\":23708:23748   */\n      swap3\n      pop\n        /* \"#utility.yul\":23437:23754   */\n      pop\n      pop\n        /* \"#utility.yul\":23361:23754   */\n      swap4\n      swap3\n      pop\n      pop\n      pop\n      jump\t// out\n        /* \"#utility.yul\":23760:23820   */\n    tag_445:\n        /* \"#utility.yul\":23788:23791   */\n      0x00\n        /* \"#utility.yul\":23809:23814   */\n      dup2\n        /* \"#utility.yul\":23802:23814   */\n      swap1\n      pop\n        /* \"#utility.yul\":23760:23820   */\n      swap2\n      swap1\n      pop\n      jump\t// out\n        /* \"#utility.yul\":23826:23968   */\n    tag_446:\n        /* \"#utility.yul\":23876:23885   */\n      0x00\n        /* \"#utility.yul\":23909:23962   */\n      tag_658\n        /* \"#utility.yul\":23927:23961   */\n      tag_659\n        /* \"#utility.yul\":23936:23960   */\n      tag_660\n        /* \"#utility.yul\":23954:23959   */\n      dup5\n        /* \"#utility.yul\":23936:23960   */\n      tag_396\n      jump\t// in\n    tag_660:\n        /* \"#utility.yul\":23927:23961   */\n      tag_445\n      jump\t// in\n    tag_659:\n        /* \"#utility.yul\":23909:23962   */\n      tag_396\n      jump\t// in\n    tag_658:\n        /* \"#utility.yul\":23896:23962   */\n      swap1\n      pop\n        /* \"#utility.yul\":23826:23968   */\n      swap2\n      swap1\n      pop\n      jump\t// out\n        /* \"#utility.yul\":23974:24049   */\n    tag_447:\n        /* \"#utility.yul\":24017:24020   */\n      0x00\n        /* \"#utility.yul\":24038:24043   */\n      dup2\n        /* \"#utility.yul\":24031:24043   */\n      swap1\n      pop\n        /* \"#utility.yul\":23974:24049   */\n      swap2\n      swap1\n      pop\n      jump\t// out\n        /* \"#utility.yul\":24055:24324   */\n    tag_448:\n        /* \"#utility.yul\":24165:24204   */\n      tag_663\n        /* \"#utility.yul\":24196:24203   */\n      dup4\n        /* \"#utility.yul\":24165:24204   */\n      tag_446\n      jump\t// in\n    tag_663:\n        /* \"#utility.yul\":24226:24317   */\n      tag_664\n        /* \"#utility.yul\":24275:24316   */\n      tag_665\n        /* \"#utility.yul\":24299:24315   */\n      dup3\n        /* \"#utility.yul\":24275:24316   */\n      tag_447\n      jump\t// in\n    tag_665:\n        /* \"#utility.yul\":24267:24273   */\n      dup5\n        /* \"#utility.yul\":24260:24264   */\n      dup5\n        /* \"#utility.yul\":24254:24265   */\n      sload\n        /* \"#utility.yul\":24226:24317   */\n      tag_444\n      jump\t// in\n    tag_664:\n        /* \"#utility.yul\":24220:24224   */\n      dup3\n        /* \"#utility.yul\":24213:24318   */\n      sstore\n        /* \"#utility.yul\":24131:24324   */\n      pop\n        /* \"#utility.yul\":24055:24324   */\n      pop\n      pop\n      pop\n      jump\t// out\n        /* \"#utility.yul\":24330:24403   */\n    tag_449:\n        /* \"#utility.yul\":24375:24378   */\n      0x00\n        /* \"#utility.yul\":24330:24403   */\n      swap1\n      jump\t// out\n        /* \"#utility.yul\":24409:24598   */\n    tag_450:\n        /* \"#utility.yul\":24486:24518   */\n      tag_668\n      tag_449\n      jump\t// in\n    tag_668:\n        /* \"#utility.yul\":24527:24592   */\n      tag_669\n        /* \"#utility.yul\":24585:24591   */\n      dup2\n        /* \"#utility.yul\":24577:24583   */\n      dup5\n        /* \"#utility.yul\":24571:24575   */\n      dup5\n        /* \"#utility.yul\":24527:24592   */\n      tag_448\n      jump\t// in\n    tag_669:\n        /* \"#utility.yul\":24462:24598   */\n      pop\n        /* \"#utility.yul\":24409:24598   */\n      pop\n      pop\n      jump\t// out\n        /* \"#utility.yul\":24604:24790   */\n    tag_451:\n        /* \"#utility.yul\":24664:24784   */\n    tag_671:\n        /* \"#utility.yul\":24681:24684   */\n      dup2\n        /* \"#utility.yul\":24674:24679   */\n      dup2\n        /* \"#utility.yul\":24671:24685   */\n      lt\n        /* \"#utility.yul\":24664:24784   */\n      iszero\n      tag_673\n      jumpi\n        /* \"#utility.yul\":24735:24774   */\n      tag_674\n        /* \"#utility.yul\":24772:24773   */\n      0x00\n        /* \"#utility.yul\":24765:24770   */\n      dup3\n        /* \"#utility.yul\":24735:24774   */\n      tag_450\n      jump\t// in\n    tag_674:\n        /* \"#utility.yul\":24708:24709   */\n      0x01\n        /* \"#utility.yul\":24701:24706   */\n      dup2\n        /* \"#utility.yul\":24697:24710   */\n      add\n        /* \"#utility.yul\":24688:24710   */\n      swap1\n      pop\n        /* \"#utility.yul\":24664:24784   */\n      jump(tag_671)\n    tag_673:\n        /* \"#utility.yul\":24604:24790   */\n      pop\n      pop\n      jump\t// out\n        /* \"#utility.yul\":24796:25339   */\n    tag_452:\n        /* \"#utility.yul\":24897:24899   */\n      0x1f\n        /* \"#utility.yul\":24892:24895   */\n      dup3\n        /* \"#utility.yul\":24889:24900   */\n      gt\n        /* \"#utility.yul\":24886:25332   */\n      iszero\n      tag_676\n      jumpi\n        /* \"#utility.yul\":24931:24969   */\n      tag_677\n        /* \"#utility.yul\":24963:24968   */\n      dup2\n        /* \"#utility.yul\":24931:24969   */\n      tag_441\n      jump\t// in\n    tag_677:\n        /* \"#utility.yul\":25015:25044   */\n      tag_678\n        /* \"#utility.yul\":25033:25043   */\n      dup5\n        /* \"#utility.yul\":25015:25044   */\n      tag_442\n      jump\t// in\n    tag_678:\n        /* \"#utility.yul\":25005:25013   */\n      dup2\n        /* \"#utility.yul\":25001:25045   */\n      add\n        /* \"#utility.yul\":25198:25200   */\n      0x20\n        /* \"#utility.yul\":25186:25196   */\n      dup6\n        /* \"#utility.yul\":25183:25201   */\n      lt\n        /* \"#utility.yul\":25180:25229   */\n      iszero\n      tag_679\n      jumpi\n        /* \"#utility.yul\":25219:25227   */\n      dup2\n        /* \"#utility.yul\":25204:25227   */\n      swap1\n      pop\n        /* \"#utility.yul\":25180:25229   */\n    tag_679:\n        /* \"#utility.yul\":25242:25322   */\n      tag_680\n        /* \"#utility.yul\":25298:25320   */\n      tag_681\n        /* \"#utility.yul\":25316:25319   */\n      dup6\n        /* \"#utility.yul\":25298:25320   */\n      tag_442\n      jump\t// in\n    tag_681:\n        /* \"#utility.yul\":25288:25296   */\n      dup4\n        /* \"#utility.yul\":25284:25321   */\n      add\n        /* \"#utility.yul\":25271:25282   */\n      dup3\n        /* \"#utility.yul\":25242:25322   */\n      tag_451\n      jump\t// in\n    tag_680:\n        /* \"#utility.yul\":24901:25332   */\n      pop\n      pop\n        /* \"#utility.yul\":24886:25332   */\n    tag_676:\n        /* \"#utility.yul\":24796:25339   */\n      pop\n      pop\n      pop\n      jump\t// out\n        /* \"#utility.yul\":25345:25462   */\n    tag_453:\n        /* \"#utility.yul\":25399:25407   */\n      0x00\n        /* \"#utility.yul\":25449:25454   */\n      dup3\n        /* \"#utility.yul\":25443:25447   */\n      dup3\n        /* \"#utility.yul\":25439:25455   */\n      shr\n        /* \"#utility.yul\":25418:25455   */\n      swap1\n      pop\n        /* \"#utility.yul\":25345:25462   */\n      swap3\n      swap2\n      pop\n      pop\n      jump\t// out\n        /* \"#utility.yul\":25468:25637   */\n    tag_454:\n        /* \"#utility.yul\":25512:25518   */\n      0x00\n        /* \"#utility.yul\":25545:25596   */\n      tag_684\n        /* \"#utility.yul\":25593:25594   */\n      0x00\n        /* \"#utility.yul\":25589:25595   */\n      not\n        /* \"#utility.yul\":25581:25586   */\n      dup5\n        /* \"#utility.yul\":25578:25579   */\n      0x08\n        /* \"#utility.yul\":25574:25587   */\n      mul\n        /* \"#utility.yul\":25545:25596   */\n      tag_453\n      jump\t// in\n    tag_684:\n        /* \"#utility.yul\":25541:25597   */\n      not\n        /* \"#utility.yul\":25626:25630   */\n      dup1\n        /* \"#utility.yul\":25620:25624   */\n      dup4\n        /* \"#utility.yul\":25616:25631   */\n      and\n        /* \"#utility.yul\":25606:25631   */\n      swap2\n      pop\n        /* \"#utility.yul\":25519:25637   */\n      pop\n        /* \"#utility.yul\":25468:25637   */\n      swap3\n      swap2\n      pop\n      pop\n      jump\t// out\n        /* \"#utility.yul\":25642:25937   */\n    tag_455:\n        /* \"#utility.yul\":25718:25722   */\n      0x00\n        /* \"#utility.yul\":25864:25893   */\n      tag_686\n        /* \"#utility.yul\":25889:25892   */\n      dup4\n        /* \"#utility.yul\":25883:25887   */\n      dup4\n        /* \"#utility.yul\":25864:25893   */\n      tag_454\n      jump\t// in\n    tag_686:\n        /* \"#utility.yul\":25856:25893   */\n      swap2\n      pop\n        /* \"#utility.yul\":25926:25929   */\n      dup3\n        /* \"#utility.yul\":25923:25924   */\n      0x02\n        /* \"#utility.yul\":25919:25930   */\n      mul\n        /* \"#utility.yul\":25913:25917   */\n      dup3\n        /* \"#utility.yul\":25910:25931   */\n      or\n        /* \"#utility.yul\":25902:25931   */\n      swap1\n      pop\n        /* \"#utility.yul\":25642:25937   */\n      swap3\n      swap2\n      pop\n      pop\n      jump\t// out\n        /* \"#utility.yul\":25942:27345   */\n    tag_245:\n        /* \"#utility.yul\":26066:26110   */\n      tag_688\n        /* \"#utility.yul\":26106:26109   */\n      dup4\n        /* \"#utility.yul\":26101:26104   */\n      dup4\n        /* \"#utility.yul\":26066:26110   */\n      tag_439\n      jump\t// in\n    tag_688:\n        /* \"#utility.yul\":26175:26193   */\n      0xffffffffffffffff\n        /* \"#utility.yul\":26167:26173   */\n      dup2\n        /* \"#utility.yul\":26164:26194   */\n      gt\n        /* \"#utility.yul\":26161:26217   */\n      iszero\n      tag_689\n      jumpi\n        /* \"#utility.yul\":26197:26215   */\n      tag_690\n      tag_440\n      jump\t// in\n    tag_690:\n        /* \"#utility.yul\":26161:26217   */\n    tag_689:\n        /* \"#utility.yul\":26241:26279   */\n      tag_691\n        /* \"#utility.yul\":26273:26277   */\n      dup3\n        /* \"#utility.yul\":26267:26278   */\n      sload\n        /* \"#utility.yul\":26241:26279   */\n      tag_119\n      jump\t// in\n    tag_691:\n        /* \"#utility.yul\":26326:26393   */\n      tag_692\n        /* \"#utility.yul\":26386:26392   */\n      dup3\n        /* \"#utility.yul\":26378:26384   */\n      dup3\n        /* \"#utility.yul\":26372:26376   */\n      dup6\n        /* \"#utility.yul\":26326:26393   */\n      tag_452\n      jump\t// in\n    tag_692:\n        /* \"#utility.yul\":26420:26421   */\n      0x00\n        /* \"#utility.yul\":26449:26451   */\n      0x1f\n        /* \"#utility.yul\":26441:26447   */\n      dup4\n        /* \"#utility.yul\":26438:26452   */\n      gt\n        /* \"#utility.yul\":26466:26467   */\n      0x01\n        /* \"#utility.yul\":26461:27093   */\n      dup2\n      eq\n      tag_694\n      jumpi\n        /* \"#utility.yul\":27137:27138   */\n      0x00\n        /* \"#utility.yul\":27154:27160   */\n      dup5\n        /* \"#utility.yul\":27151:27235   */\n      iszero\n      tag_695\n      jumpi\n        /* \"#utility.yul\":27210:27219   */\n      dup3\n        /* \"#utility.yul\":27205:27208   */\n      dup8\n        /* \"#utility.yul\":27201:27220   */\n      add\n        /* \"#utility.yul\":27188:27221   */\n      calldataload\n        /* \"#utility.yul\":27179:27221   */\n      swap1\n      pop\n        /* \"#utility.yul\":27151:27235   */\n    tag_695:\n        /* \"#utility.yul\":27261:27328   */\n      tag_696\n        /* \"#utility.yul\":27321:27327   */\n      dup6\n        /* \"#utility.yul\":27314:27319   */\n      dup3\n        /* \"#utility.yul\":27261:27328   */\n      tag_455\n      jump\t// in\n    tag_696:\n        /* \"#utility.yul\":27255:27259   */\n      dup7\n        /* \"#utility.yul\":27248:27329   */\n      sstore\n        /* \"#utility.yul\":27110:27339   */\n      pop\n        /* \"#utility.yul\":26431:27339   */\n      jump(tag_693)\n        /* \"#utility.yul\":26461:27093   */\n    tag_694:\n        /* \"#utility.yul\":26513:26517   */\n      0x1f\n        /* \"#utility.yul\":26509:26518   */\n      not\n        /* \"#utility.yul\":26501:26507   */\n      dup5\n        /* \"#utility.yul\":26497:26519   */\n      and\n        /* \"#utility.yul\":26547:26584   */\n      tag_697\n        /* \"#utility.yul\":26579:26583   */\n      dup7\n        /* \"#utility.yul\":26547:26584   */\n      tag_441\n      jump\t// in\n    tag_697:\n        /* \"#utility.yul\":26606:26607   */\n      0x00\n        /* \"#utility.yul\":26620:26835   */\n    tag_698:\n        /* \"#utility.yul\":26634:26641   */\n      dup3\n        /* \"#utility.yul\":26631:26632   */\n      dup2\n        /* \"#utility.yul\":26628:26642   */\n      lt\n        /* \"#utility.yul\":26620:26835   */\n      iszero\n      tag_700\n      jumpi\n        /* \"#utility.yul\":26720:26729   */\n      dup5\n        /* \"#utility.yul\":26715:26718   */\n      dup10\n        /* \"#utility.yul\":26711:26730   */\n      add\n        /* \"#utility.yul\":26698:26731   */\n      calldataload\n        /* \"#utility.yul\":26690:26696   */\n      dup3\n        /* \"#utility.yul\":26683:26732   */\n      sstore\n        /* \"#utility.yul\":26771:26772   */\n      0x01\n        /* \"#utility.yul\":26763:26769   */\n      dup3\n        /* \"#utility.yul\":26759:26773   */\n      add\n        /* \"#utility.yul\":26749:26773   */\n      swap2\n      pop\n        /* \"#utility.yul\":26818:26820   */\n      0x20\n        /* \"#utility.yul\":26807:26816   */\n      dup6\n        /* \"#utility.yul\":26803:26821   */\n      add\n        /* \"#utility.yul\":26790:26821   */\n      swap5\n      pop\n        /* \"#utility.yul\":26657:26661   */\n      0x20\n        /* \"#utility.yul\":26654:26655   */\n      dup2\n        /* \"#utility.yul\":26650:26662   */\n      add\n        /* \"#utility.yul\":26645:26662   */\n      swap1\n      pop\n        /* \"#utility.yul\":26620:26835   */\n      jump(tag_698)\n    tag_700:\n        /* \"#utility.yul\":26863:26869   */\n      dup7\n        /* \"#utility.yul\":26854:26861   */\n      dup4\n        /* \"#utility.yul\":26851:26870   */\n      lt\n        /* \"#utility.yul\":26848:27034   */\n      iszero\n      tag_701\n      jumpi\n        /* \"#utility.yul\":26928:26937   */\n      dup5\n        /* \"#utility.yul\":26923:26926   */\n      dup10\n        /* \"#utility.yul\":26919:26938   */\n      add\n        /* \"#utility.yul\":26906:26939   */\n      calldataload\n        /* \"#utility.yul\":26971:27019   */\n      tag_702\n        /* \"#utility.yul\":27013:27017   */\n      0x1f\n        /* \"#utility.yul\":27005:27011   */\n      dup10\n        /* \"#utility.yul\":27001:27018   */\n      and\n        /* \"#utility.yul\":26990:26999   */\n      dup3\n        /* \"#utility.yul\":26971:27019   */\n      tag_454\n      jump\t// in\n    tag_702:\n        /* \"#utility.yul\":26963:26969   */\n      dup4\n        /* \"#utility.yul\":26956:27020   */\n      sstore\n        /* \"#utility.yul\":26871:27034   */\n      pop\n        /* \"#utility.yul\":26848:27034   */\n    tag_701:\n        /* \"#utility.yul\":27080:27081   */\n      0x01\n        /* \"#utility.yul\":27076:27077   */\n      0x02\n        /* \"#utility.yul\":27068:27074   */\n      dup9\n        /* \"#utility.yul\":27064:27078   */\n      mul\n        /* \"#utility.yul\":27060:27082   */\n      add\n        /* \"#utility.yul\":27054:27058   */\n      dup9\n        /* \"#utility.yul\":27047:27083   */\n      sstore\n        /* \"#utility.yul\":26468:27093   */\n      pop\n      pop\n      pop\n        /* \"#utility.yul\":26431:27339   */\n    tag_693:\n      pop\n        /* \"#utility.yul\":26041:27345   */\n      pop\n      pop\n      pop\n        /* \"#utility.yul\":25942:27345   */\n      pop\n      pop\n      pop\n      jump\t// out\n        /* \"#utility.yul\":27351:27523   */\n    tag_456:\n        /* \"#utility.yul\":27491:27515   */\n      0x496e76616c696420656475636174696f6e436f756e7400000000000000000000\n        /* \"#utility.yul\":27487:27488   */\n      0x00\n        /* \"#utility.yul\":27479:27485   */\n      dup3\n        /* \"#utility.yul\":27475:27489   */\n      add\n        /* \"#utility.yul\":27468:27516   */\n      mstore\n        /* \"#utility.yul\":27351:27523   */\n      pop\n      jump\t// out\n        /* \"#utility.yul\":27529:27895   */\n    tag_457:\n        /* \"#utility.yul\":27671:27674   */\n      0x00\n        /* \"#utility.yul\":27692:27759   */\n      tag_705\n        /* \"#utility.yul\":27756:27758   */\n      0x16\n        /* \"#utility.yul\":27751:27754   */\n      dup4\n        /* \"#utility.yul\":27692:27759   */\n      tag_401\n      jump\t// in\n    tag_705:\n        /* \"#utility.yul\":27685:27759   */\n      swap2\n      pop\n        /* \"#utility.yul\":27768:27861   */\n      tag_706\n        /* \"#utility.yul\":27857:27860   */\n      dup3\n        /* \"#utility.yul\":27768:27861   */\n      tag_456\n      jump\t// in\n    tag_706:\n        /* \"#utility.yul\":27886:27888   */\n      0x20\n        /* \"#utility.yul\":27881:27884   */\n      dup3\n        /* \"#utility.yul\":27877:27889   */\n      add\n        /* \"#utility.yul\":27870:27889   */\n      swap1\n      pop\n        /* \"#utility.yul\":27529:27895   */\n      swap2\n      swap1\n      pop\n      jump\t// out\n        /* \"#utility.yul\":27901:28320   */\n    tag_253:\n        /* \"#utility.yul\":28067:28071   */\n      0x00\n        /* \"#utility.yul\":28105:28107   */\n      0x20\n        /* \"#utility.yul\":28094:28103   */\n      dup3\n        /* \"#utility.yul\":28090:28108   */\n      add\n        /* \"#utility.yul\":28082:28108   */\n      swap1\n      pop\n        /* \"#utility.yul\":28154:28163   */\n      dup2\n        /* \"#utility.yul\":28148:28152   */\n      dup2\n        /* \"#utility.yul\":28144:28164   */\n      sub\n        /* \"#utility.yul\":28140:28141   */\n      0x00\n        /* \"#utility.yul\":28129:28138   */\n      dup4\n        /* \"#utility.yul\":28125:28142   */\n      add\n        /* \"#utility.yul\":28118:28165   */\n      mstore\n        /* \"#utility.yul\":28182:28313   */\n      tag_708\n        /* \"#utility.yul\":28308:28312   */\n      dup2\n        /* \"#utility.yul\":28182:28313   */\n      tag_457\n      jump\t// in\n    tag_708:\n        /* \"#utility.yul\":28174:28313   */\n      swap1\n      pop\n        /* \"#utility.yul\":27901:28320   */\n      swap2\n      swap1\n      pop\n      jump\t// out\n        /* \"#utility.yul\":28326:28506   */\n    tag_256:\n        /* \"#utility.yul\":28374:28451   */\n      0x4e487b7100000000000000000000000000000000000000000000000000000000\n        /* \"#utility.yul\":28371:28372   */\n      0x00\n        /* \"#utility.yul\":28364:28452   */\n      mstore\n        /* \"#utility.yul\":28471:28475   */\n      0x32\n        /* \"#utility.yul\":28468:28469   */\n      0x04\n        /* \"#utility.yul\":28461:28476   */\n      mstore\n        /* \"#utility.yul\":28495:28499   */\n      0x24\n        /* \"#utility.yul\":28492:28493   */\n      0x00\n        /* \"#utility.yul\":28485:28500   */\n      revert\n        /* \"#utility.yul\":28512:29907   */\n    tag_259:\n        /* \"#utility.yul\":28629:28666   */\n      tag_711\n        /* \"#utility.yul\":28662:28665   */\n      dup3\n        /* \"#utility.yul\":28629:28666   */\n      tag_400\n      jump\t// in\n    tag_711:\n        /* \"#utility.yul\":28731:28749   */\n      0xffffffffffffffff\n        /* \"#utility.yul\":28723:28729   */\n      dup2\n        /* \"#utility.yul\":28720:28750   */\n      gt\n        /* \"#utility.yul\":28717:28773   */\n      iszero\n      tag_712\n      jumpi\n        /* \"#utility.yul\":28753:28771   */\n      tag_713\n      tag_440\n      jump\t// in\n    tag_713:\n        /* \"#utility.yul\":28717:28773   */\n    tag_712:\n        /* \"#utility.yul\":28797:28835   */\n      tag_714\n        /* \"#utility.yul\":28829:28833   */\n      dup3\n        /* \"#utility.yul\":28823:28834   */\n      sload\n        /* \"#utility.yul\":28797:28835   */\n      tag_119\n      jump\t// in\n    tag_714:\n        /* \"#utility.yul\":28882:28949   */\n      tag_715\n        /* \"#utility.yul\":28942:28948   */\n      dup3\n        /* \"#utility.yul\":28934:28940   */\n      dup3\n        /* \"#utility.yul\":28928:28932   */\n      dup6\n        /* \"#utility.yul\":28882:28949   */\n      tag_452\n      jump\t// in\n    tag_715:\n        /* \"#utility.yul\":28976:28977   */\n      0x00\n        /* \"#utility.yul\":29000:29004   */\n      0x20\n        /* \"#utility.yul\":28987:29004   */\n      swap1\n      pop\n        /* \"#utility.yul\":29032:29034   */\n      0x1f\n        /* \"#utility.yul\":29024:29030   */\n      dup4\n        /* \"#utility.yul\":29021:29035   */\n      gt\n        /* \"#utility.yul\":29049:29050   */\n      0x01\n        /* \"#utility.yul\":29044:29662   */\n      dup2\n      eq\n      tag_717\n      jumpi\n        /* \"#utility.yul\":29706:29707   */\n      0x00\n        /* \"#utility.yul\":29723:29729   */\n      dup5\n        /* \"#utility.yul\":29720:29797   */\n      iszero\n      tag_718\n      jumpi\n        /* \"#utility.yul\":29772:29781   */\n      dup3\n        /* \"#utility.yul\":29767:29770   */\n      dup8\n        /* \"#utility.yul\":29763:29782   */\n      add\n        /* \"#utility.yul\":29757:29783   */\n      mload\n        /* \"#utility.yul\":29748:29783   */\n      swap1\n      pop\n        /* \"#utility.yul\":29720:29797   */\n    tag_718:\n        /* \"#utility.yul\":29823:29890   */\n      tag_719\n        /* \"#utility.yul\":29883:29889   */\n      dup6\n        /* \"#utility.yul\":29876:29881   */\n      dup3\n        /* \"#utility.yul\":29823:29890   */\n      tag_455\n      jump\t// in\n    tag_719:\n        /* \"#utility.yul\":29817:29821   */\n      dup7\n        /* \"#utility.yul\":29810:29891   */\n      sstore\n        /* \"#utility.yul\":29679:29901   */\n      pop\n        /* \"#utility.yul\":29014:29901   */\n      jump(tag_716)\n        /* \"#utility.yul\":29044:29662   */\n    tag_717:\n        /* \"#utility.yul\":29096:29100   */\n      0x1f\n        /* \"#utility.yul\":29092:29101   */\n      not\n        /* \"#utility.yul\":29084:29090   */\n      dup5\n        /* \"#utility.yul\":29080:29102   */\n      and\n        /* \"#utility.yul\":29130:29167   */\n      tag_720\n        /* \"#utility.yul\":29162:29166   */\n      dup7\n        /* \"#utility.yul\":29130:29167   */\n      tag_441\n      jump\t// in\n    tag_720:\n        /* \"#utility.yul\":29189:29190   */\n      0x00\n        /* \"#utility.yul\":29203:29411   */\n    tag_721:\n        /* \"#utility.yul\":29217:29224   */\n      dup3\n        /* \"#utility.yul\":29214:29215   */\n      dup2\n        /* \"#utility.yul\":29211:29225   */\n      lt\n        /* \"#utility.yul\":29203:29411   */\n      iszero\n      tag_723\n      jumpi\n        /* \"#utility.yul\":29296:29305   */\n      dup5\n        /* \"#utility.yul\":29291:29294   */\n      dup10\n        /* \"#utility.yul\":29287:29306   */\n      add\n        /* \"#utility.yul\":29281:29307   */\n      mload\n        /* \"#utility.yul\":29273:29279   */\n      dup3\n        /* \"#utility.yul\":29266:29308   */\n      sstore\n        /* \"#utility.yul\":29347:29348   */\n      0x01\n        /* \"#utility.yul\":29339:29345   */\n      dup3\n        /* \"#utility.yul\":29335:29349   */\n      add\n        /* \"#utility.yul\":29325:29349   */\n      swap2\n      pop\n        /* \"#utility.yul\":29394:29396   */\n      0x20\n        /* \"#utility.yul\":29383:29392   */\n      dup6\n        /* \"#utility.yul\":29379:29397   */\n      add\n        /* \"#utility.yul\":29366:29397   */\n      swap5\n      pop\n        /* \"#utility.yul\":29240:29244   */\n      0x20\n        /* \"#utility.yul\":29237:29238   */\n      dup2\n        /* \"#utility.yul\":29233:29245   */\n      add\n        /* \"#utility.yul\":29228:29245   */\n      swap1\n      pop\n        /* \"#utility.yul\":29203:29411   */\n      jump(tag_721)\n    tag_723:\n        /* \"#utility.yul\":29439:29445   */\n      dup7\n        /* \"#utility.yul\":29430:29437   */\n      dup4\n        /* \"#utility.yul\":29427:29446   */\n      lt\n        /* \"#utility.yul\":29424:29603   */\n      iszero\n      tag_724\n      jumpi\n        /* \"#utility.yul\":29497:29506   */\n      dup5\n        /* \"#utility.yul\":29492:29495   */\n      dup10\n        /* \"#utility.yul\":29488:29507   */\n      add\n        /* \"#utility.yul\":29482:29508   */\n      mload\n        /* \"#utility.yul\":29540:29588   */\n      tag_725\n        /* \"#utility.yul\":29582:29586   */\n      0x1f\n        /* \"#utility.yul\":29574:29580   */\n      dup10\n        /* \"#utility.yul\":29570:29587   */\n      and\n        /* \"#utility.yul\":29559:29568   */\n      dup3\n        /* \"#utility.yul\":29540:29588   */\n      tag_454\n      jump\t// in\n    tag_725:\n        /* \"#utility.yul\":29532:29538   */\n      dup4\n        /* \"#utility.yul\":29525:29589   */\n      sstore\n        /* \"#utility.yul\":29447:29603   */\n      pop\n        /* \"#utility.yul\":29424:29603   */\n    tag_724:\n        /* \"#utility.yul\":29649:29650   */\n      0x01\n        /* \"#utility.yul\":29645:29646   */\n      0x02\n        /* \"#utility.yul\":29637:29643   */\n      dup9\n        /* \"#utility.yul\":29633:29647   */\n      mul\n        /* \"#utility.yul\":29629:29651   */\n      add\n        /* \"#utility.yul\":29623:29627   */\n      dup9\n        /* \"#utility.yul\":29616:29652   */\n      sstore\n        /* \"#utility.yul\":29051:29662   */\n      pop\n      pop\n      pop\n        /* \"#utility.yul\":29014:29901   */\n    tag_716:\n      pop\n        /* \"#utility.yul\":28604:29907   */\n      pop\n      pop\n      pop\n        /* \"#utility.yul\":28512:29907   */\n      pop\n      pop\n      jump\t// out\n        /* \"#utility.yul\":29913:30095   */\n    tag_458:\n        /* \"#utility.yul\":30053:30087   */\n      0x4f6e6c79203420656475636174696f6e2064657461696c7320616c6c6f776564\n        /* \"#utility.yul\":30049:30050   */\n      0x00\n        /* \"#utility.yul\":30041:30047   */\n      dup3\n        /* \"#utility.yul\":30037:30051   */\n      add\n        /* \"#utility.yul\":30030:30088   */\n      mstore\n        /* \"#utility.yul\":29913:30095   */\n      pop\n      jump\t// out\n        /* \"#utility.yul\":30101:30467   */\n    tag_459:\n        /* \"#utility.yul\":30243:30246   */\n      0x00\n        /* \"#utility.yul\":30264:30331   */\n      tag_728\n        /* \"#utility.yul\":30328:30330   */\n      0x20\n        /* \"#utility.yul\":30323:30326   */\n      dup4\n        /* \"#utility.yul\":30264:30331   */\n      tag_401\n      jump\t// in\n    tag_728:\n        /* \"#utility.yul\":30257:30331   */\n      swap2\n      pop\n        /* \"#utility.yul\":30340:30433   */\n      tag_729\n        /* \"#utility.yul\":30429:30432   */\n      dup3\n        /* \"#utility.yul\":30340:30433   */\n      tag_458\n      jump\t// in\n    tag_729:\n        /* \"#utility.yul\":30458:30460   */\n      0x20\n        /* \"#utility.yul\":30453:30456   */\n      dup3\n        /* \"#utility.yul\":30449:30461   */\n      add\n        /* \"#utility.yul\":30442:30461   */\n      swap1\n      pop\n        /* \"#utility.yul\":30101:30467   */\n      swap2\n      swap1\n      pop\n      jump\t// out\n        /* \"#utility.yul\":30473:30892   */\n    tag_274:\n        /* \"#utility.yul\":30639:30643   */\n      0x00\n        /* \"#utility.yul\":30677:30679   */\n      0x20\n        /* \"#utility.yul\":30666:30675   */\n      dup3\n        /* \"#utility.yul\":30662:30680   */\n      add\n        /* \"#utility.yul\":30654:30680   */\n      swap1\n      pop\n        /* \"#utility.yul\":30726:30735   */\n      dup2\n        /* \"#utility.yul\":30720:30724   */\n      dup2\n        /* \"#utility.yul\":30716:30736   */\n      sub\n        /* \"#utility.yul\":30712:30713   */\n      0x00\n        /* \"#utility.yul\":30701:30710   */\n      dup4\n        /* \"#utility.yul\":30697:30714   */\n      add\n        /* \"#utility.yul\":30690:30737   */\n      mstore\n        /* \"#utility.yul\":30754:30885   */\n      tag_731\n        /* \"#utility.yul\":30880:30884   */\n      dup2\n        /* \"#utility.yul\":30754:30885   */\n      tag_459\n      jump\t// in\n    tag_731:\n        /* \"#utility.yul\":30746:30885   */\n      swap1\n      pop\n        /* \"#utility.yul\":30473:30892   */\n      swap2\n      swap1\n      pop\n      jump\t// out\n        /* \"#utility.yul\":30898:31078   */\n    tag_460:\n        /* \"#utility.yul\":30946:31023   */\n      0x4e487b7100000000000000000000000000000000000000000000000000000000\n        /* \"#utility.yul\":30943:30944   */\n      0x00\n        /* \"#utility.yul\":30936:31024   */\n      mstore\n        /* \"#utility.yul\":31043:31047   */\n      0x11\n        /* \"#utility.yul\":31040:31041   */\n      0x04\n        /* \"#utility.yul\":31033:31048   */\n      mstore\n        /* \"#utility.yul\":31067:31071   */\n      0x24\n        /* \"#utility.yul\":31064:31065   */\n      0x00\n        /* \"#utility.yul\":31057:31072   */\n      revert\n        /* \"#utility.yul\":31084:31317   */\n    tag_283:\n        /* \"#utility.yul\":31123:31126   */\n      0x00\n        /* \"#utility.yul\":31146:31170   */\n      tag_734\n        /* \"#utility.yul\":31164:31169   */\n      dup3\n        /* \"#utility.yul\":31146:31170   */\n      tag_396\n      jump\t// in\n    tag_734:\n        /* \"#utility.yul\":31137:31170   */\n      swap2\n      pop\n        /* \"#utility.yul\":31192:31258   */\n      0xffffffffffffffffffffffffffffffffffffffffffffffffffffffffffffffff\n        /* \"#utility.yul\":31185:31190   */\n      dup3\n        /* \"#utility.yul\":31182:31259   */\n      sub\n        /* \"#utility.yul\":31179:31282   */\n      tag_735\n      jumpi\n        /* \"#utility.yul\":31262:31280   */\n      tag_736\n      tag_460\n      jump\t// in\n    tag_736:\n        /* \"#utility.yul\":31179:31282   */\n    tag_735:\n        /* \"#utility.yul\":31309:31310   */\n      0x01\n        /* \"#utility.yul\":31302:31307   */\n      dup3\n        /* \"#utility.yul\":31298:31311   */\n      add\n        /* \"#utility.yul\":31291:31311   */\n      swap1\n      pop\n        /* \"#utility.yul\":31084:31317   */\n      swap2\n      swap1\n      pop\n      jump\t// out\n        /* \"#utility.yul\":31323:31497   */\n    tag_461:\n        /* \"#utility.yul\":31463:31489   */\n      0x4f6e6c792031342070726f6a6563747320616c6c6f7765640000000000000000\n        /* \"#utility.yul\":31459:31460   */\n      0x00\n        /* \"#utility.yul\":31451:31457   */\n      dup3\n        /* \"#utility.yul\":31447:31461   */\n      add\n        /* \"#utility.yul\":31440:31490   */\n      mstore\n        /* \"#utility.yul\":31323:31497   */\n      pop\n      jump\t// out\n        /* \"#utility.yul\":31503:31869   */\n    tag_462:\n        /* \"#utility.yul\":31645:31648   */\n      0x00\n        /* \"#utility.yul\":31666:31733   */\n      tag_739\n        /* \"#utility.yul\":31730:31732   */\n      0x18\n        /* \"#utility.yul\":31725:31728   */\n      dup4\n        /* \"#utility.yul\":31666:31733   */\n      tag_401\n      jump\t// in\n    tag_739:\n        /* \"#utility.yul\":31659:31733   */\n      swap2\n      pop\n        /* \"#utility.yul\":31742:31835   */\n      tag_740\n        /* \"#utility.yul\":31831:31834   */\n      dup3\n        /* \"#utility.yul\":31742:31835   */\n      tag_461\n      jump\t// in\n    tag_740:\n        /* \"#utility.yul\":31860:31862   */\n      0x20\n        /* \"#utility.yul\":31855:31858   */\n      dup3\n        /* \"#utility.yul\":31851:31863   */\n      add\n        /* \"#utility.yul\":31844:31863   */\n      swap1\n      pop\n        /* \"#utility.yul\":31503:31869   */\n      swap2\n      swap1\n      pop\n      jump\t// out\n        /* \"#utility.yul\":31875:32294   */\n    tag_287:\n        /* \"#utility.yul\":32041:32045   */\n      0x00\n        /* \"#utility.yul\":32079:32081   */\n      0x20\n        /* \"#utility.yul\":32068:32077   */\n      dup3\n        /* \"#utility.yul\":32064:32082   */\n      add\n        /* \"#utility.yul\":32056:32082   */\n      swap1\n      pop\n        /* \"#utility.yul\":32128:32137   */\n      dup2\n        /* \"#utility.yul\":32122:32126   */\n      dup2\n        /* \"#utility.yul\":32118:32138   */\n      sub\n        /* \"#utility.yul\":32114:32115   */\n      0x00\n        /* \"#utility.yul\":32103:32112   */\n      dup4\n        /* \"#utility.yul\":32099:32116   */\n      add\n        /* \"#utility.yul\":32092:32139   */\n      mstore\n        /* \"#utility.yul\":32156:32287   */\n      tag_742\n        /* \"#utility.yul\":32282:32286   */\n      dup2\n        /* \"#utility.yul\":32156:32287   */\n      tag_462\n      jump\t// in\n    tag_742:\n        /* \"#utility.yul\":32148:32287   */\n      swap1\n      pop\n        /* \"#utility.yul\":31875:32294   */\n      swap2\n      swap1\n      pop\n      jump\t// out\n        /* \"#utility.yul\":32300:32473   */\n    tag_463:\n        /* \"#utility.yul\":32440:32465   */\n      0x496e76616c696420657870657269656e6365436f756e74000000000000000000\n        /* \"#utility.yul\":32436:32437   */\n      0x00\n        /* \"#utility.yul\":32428:32434   */\n      dup3\n        /* \"#utility.yul\":32424:32438   */\n      add\n        /* \"#utility.yul\":32417:32466   */\n      mstore\n        /* \"#utility.yul\":32300:32473   */\n      pop\n      jump\t// out\n        /* \"#utility.yul\":32479:32845   */\n    tag_464:\n        /* \"#utility.yul\":32621:32624   */\n      0x00\n        /* \"#utility.yul\":32642:32709   */\n      tag_745\n        /* \"#utility.yul\":32706:32708   */\n      0x17\n        /* \"#utility.yul\":32701:32704   */\n      dup4\n        /* \"#utility.yul\":32642:32709   */\n      tag_401\n      jump\t// in\n    tag_745:\n        /* \"#utility.yul\":32635:32709   */\n      swap2\n      pop\n        /* \"#utility.yul\":32718:32811   */\n      tag_746\n        /* \"#utility.yul\":32807:32810   */\n      dup3\n        /* \"#utility.yul\":32718:32811   */\n      tag_463\n      jump\t// in\n    tag_746:\n        /* \"#utility.yul\":32836:32838   */\n      0x20\n        /* \"#utility.yul\":32831:32834   */\n      dup3\n        /* \"#utility.yul\":32827:32839   */\n      add\n        /* \"#utility.yul\":32820:32839   */\n      swap1\n      pop\n        /* \"#utility.yul\":32479:32845   */\n      swap2\n      swap1\n      pop\n      jump\t// out\n        /* \"#utility.yul\":32851:33270   */\n    tag_365:\n        /* \"#utility.yul\":33017:33021   */\n      0x00\n        /* \"#utility.yul\":33055:33057   */\n      0x20\n        /* \"#utility.yul\":33044:33053   */\n      dup3\n        /* \"#utility.yul\":33040:33058   */\n      add\n        /* \"#utility.yul\":33032:33058   */\n      swap1\n      pop\n        /* \"#utility.yul\":33104:33113   */\n      dup2\n        /* \"#utility.yul\":33098:33102   */\n      dup2\n        /* \"#utility.yul\":33094:33114   */\n      sub\n        /* \"#utility.yul\":33090:33091   */\n      0x00\n        /* \"#utility.yul\":33079:33088   */\n      dup4\n        /* \"#utility.yul\":33075:33092   */\n      add\n        /* \"#utility.yul\":33068:33115   */\n      mstore\n        /* \"#utility.yul\":33132:33263   */\n      tag_748\n        /* \"#utility.yul\":33258:33262   */\n      dup2\n        /* \"#utility.yul\":33132:33263   */\n      tag_464\n      jump\t// in\n    tag_748:\n        /* \"#utility.yul\":33124:33263   */\n      swap1\n      pop\n        /* \"#utility.yul\":32851:33270   */\n      swap2\n      swap1\n      pop\n      jump\t// out\n        /* \"#utility.yul\":33276:33423   */\n    tag_465:\n        /* \"#utility.yul\":33377:33388   */\n      0x00\n        /* \"#utility.yul\":33414:33417   */\n      dup2\n        /* \"#utility.yul\":33399:33417   */\n      swap1\n      pop\n        /* \"#utility.yul\":33276:33423   */\n      swap3\n      swap2\n      pop\n      pop\n      jump\t// out\n        /* \"#utility.yul\":33429:33543   */\n    tag_466:\n      pop\n      jump\t// out\n        /* \"#utility.yul\":33549:33947   */\n    tag_467:\n        /* \"#utility.yul\":33708:33711   */\n      0x00\n        /* \"#utility.yul\":33729:33812   */\n      tag_752\n        /* \"#utility.yul\":33810:33811   */\n      0x00\n        /* \"#utility.yul\":33805:33808   */\n      dup4\n        /* \"#utility.yul\":33729:33812   */\n      tag_465\n      jump\t// in\n    tag_752:\n        /* \"#utility.yul\":33722:33812   */\n      swap2\n      pop\n        /* \"#utility.yul\":33821:33914   */\n      tag_753\n        /* \"#utility.yul\":33910:33913   */\n      dup3\n        /* \"#utility.yul\":33821:33914   */\n      tag_466\n      jump\t// in\n    tag_753:\n        /* \"#utility.yul\":33939:33940   */\n      0x00\n        /* \"#utility.yul\":33934:33937   */\n      dup3\n        /* \"#utility.yul\":33930:33941   */\n      add\n        /* \"#utility.yul\":33923:33941   */\n      swap1\n      pop\n        /* \"#utility.yul\":33549:33947   */\n      swap2\n      swap1\n      pop\n      jump\t// out\n        /* \"#utility.yul\":33953:34332   */\n    tag_377:\n        /* \"#utility.yul\":34137:34140   */\n      0x00\n        /* \"#utility.yul\":34159:34306   */\n      tag_755\n        /* \"#utility.yul\":34302:34305   */\n      dup3\n        /* \"#utility.yul\":34159:34306   */\n      tag_467\n      jump\t// in\n    tag_755:\n        /* \"#utility.yul\":34152:34306   */\n      swap2\n      pop\n        /* \"#utility.yul\":34323:34326   */\n      dup2\n        /* \"#utility.yul\":34316:34326   */\n      swap1\n      pop\n        /* \"#utility.yul\":33953:34332   */\n      swap2\n      swap1\n      pop\n      jump\t// out\n        /* \"#utility.yul\":34338:34508   */\n    tag_468:\n        /* \"#utility.yul\":34478:34500   */\n      0x4661696c656420746f2073656e64206574686572000000000000000000000000\n        /* \"#utility.yul\":34474:34475   */\n      0x00\n        /* \"#utility.yul\":34466:34472   */\n      dup3\n        /* \"#utility.yul\":34462:34476   */\n      add\n        /* \"#utility.yul\":34455:34501   */\n      mstore\n        /* \"#utility.yul\":34338:34508   */\n      pop\n      jump\t// out\n        /* \"#utility.yul\":34514:34880   */\n    tag_469:\n        /* \"#utility.yul\":34656:34659   */\n      0x00\n        /* \"#utility.yul\":34677:34744   */\n      tag_758\n        /* \"#utility.yul\":34741:34743   */\n      0x14\n        /* \"#utility.yul\":34736:34739   */\n      dup4\n        /* \"#utility.yul\":34677:34744   */\n      tag_401\n      jump\t// in\n    tag_758:\n        /* \"#utility.yul\":34670:34744   */\n      swap2\n      pop\n        /* \"#utility.yul\":34753:34846   */\n      tag_759\n        /* \"#utility.yul\":34842:34845   */\n      dup3\n        /* \"#utility.yul\":34753:34846   */\n      tag_468\n      jump\t// in\n    tag_759:\n        /* \"#utility.yul\":34871:34873   */\n      0x20\n        /* \"#utility.yul\":34866:34869   */\n      dup3\n        /* \"#utility.yul\":34862:34874   */\n      add\n        /* \"#utility.yul\":34855:34874   */\n      swap1\n      pop\n        /* \"#utility.yul\":34514:34880   */\n      swap2\n      swap1\n      pop\n      jump\t// out\n        /* \"#utility.yul\":34886:35305   */\n    tag_383:\n        /* \"#utility.yul\":35052:35056   */\n      0x00\n        /* \"#utility.yul\":35090:35092   */\n      0x20\n        /* \"#utility.yul\":35079:35088   */\n      dup3\n        /* \"#utility.yul\":35075:35093   */\n      add\n        /* \"#utility.yul\":35067:35093   */\n      swap1\n      pop\n        /* \"#utility.yul\":35139:35148   */\n      dup2\n        /* \"#utility.yul\":35133:35137   */\n      dup2\n        /* \"#utility.yul\":35129:35149   */\n      sub\n        /* \"#utility.yul\":35125:35126   */\n      0x00\n        /* \"#utility.yul\":35114:35123   */\n      dup4\n        /* \"#utility.yul\":35110:35127   */\n      add\n        /* \"#utility.yul\":35103:35150   */\n      mstore\n        /* \"#utility.yul\":35167:35298   */\n      tag_761\n        /* \"#utility.yul\":35293:35297   */\n      dup2\n        /* \"#utility.yul\":35167:35298   */\n      tag_469\n      jump\t// in\n    tag_761:\n        /* \"#utility.yul\":35159:35298   */\n      swap1\n      pop\n        /* \"#utility.yul\":34886:35305   */\n      swap2\n      swap1\n      pop\n      jump\t// out\n\n    auxdata: 0xa264697066735822122060afc999de8fffcac3415a643fe288a236ba5bf483b4985191a4a789a8b8834a64736f6c63430008120033\n}\n",
				"bytecode": {
					"linkReferences": {},
					"object": "60806040526040518060600160405280602e815260200162003c60602e9139606e90816200002e919062000354565b506040518060a001604052806074815260200162003cbc60749139606f908162000059919062000354565b506040518060600160405280602e815260200162003c8e602e91396070908162000084919062000354565b503480156200009257600080fd5b5033607460006101000a81548173ffffffffffffffffffffffffffffffffffffffff021916908373ffffffffffffffffffffffffffffffffffffffff1602179055506200043b565b600081519050919050565b7f4e487b7100000000000000000000000000000000000000000000000000000000600052604160045260246000fd5b7f4e487b7100000000000000000000000000000000000000000000000000000000600052602260045260246000fd5b600060028204905060018216806200015c57607f821691505b60208210810362000172576200017162000114565b5b50919050565b60008190508160005260206000209050919050565b60006020601f8301049050919050565b600082821b905092915050565b600060088302620001dc7fffffffffffffffffffffffffffffffffffffffffffffffffffffffffffffffff826200019d565b620001e886836200019d565b95508019841693508086168417925050509392505050565b6000819050919050565b6000819050919050565b6000620002356200022f620002298462000200565b6200020a565b62000200565b9050919050565b6000819050919050565b620002518362000214565b6200026962000260826200023c565b848454620001aa565b825550505050565b600090565b6200028062000271565b6200028d81848462000246565b505050565b5b81811015620002b557620002a960008262000276565b60018101905062000293565b5050565b601f8211156200030457620002ce8162000178565b620002d9846200018d565b81016020851015620002e9578190505b62000301620002f8856200018d565b83018262000292565b50505b505050565b600082821c905092915050565b6000620003296000198460080262000309565b1980831691505092915050565b600062000344838362000316565b9150826002028217905092915050565b6200035f82620000da565b67ffffffffffffffff8111156200037b576200037a620000e5565b5b62000387825462000143565b62000394828285620002b9565b600060209050601f831160018114620003cc5760008415620003b7578287015190505b620003c3858262000336565b86555062000433565b601f198416620003dc8662000178565b60005b828110156200040657848901518255600182019150602085019450602081019050620003df565b8683101562000426578489015162000422601f89168262000316565b8355505b6001600288020188555050505b505050505050565b613815806200044b6000396000f3fe60806040526004361061011f5760003560e01c80636fe8e0bd116100a0578063caf7b75911610064578063caf7b759146103df578063d3cedf111461040a578063d921fa8214610433578063e61204131461045c578063ed88c68e146104855761011f565b80636fe8e0bd146102f65780637284e4161461031f5780637aea95aa1461034a5780638da5cb5b1461038b57806398f831b6146103b65761011f565b8063598e7f37116100e7578063598e7f37146102275780635b173a69146102505780635cea6a7c146102795780635d85a1f4146102a45780636426d4c3146102cd5761011f565b8063107046bd1461012457806310ef62c5146101655780632adf13b2146101a657806336eea422146101d15780635397c6ec146101fc575b600080fd5b34801561013057600080fd5b5061014b600480360381019061014691906127b1565b61048f565b60405161015c95949392919061287d565b60405180910390f35b34801561017157600080fd5b5061018c600480360381019061018791906127b1565b6106eb565b60405161019d95949392919061287d565b60405180910390f35b3480156101b257600080fd5b506101bb610947565b6040516101c89190612a86565b60405180910390f35b3480156101dd57600080fd5b506101e6610beb565b6040516101f39190612be9565b60405180910390f35b34801561020857600080fd5b50610211610e8f565b60405161021e9190612d4c565b60405180910390f35b34801561023357600080fd5b5061024e60048036038101906102499190612dd3565b611133565b005b34801561025c57600080fd5b5061027760048036038101906102729190612e20565b6111d9565b005b34801561028557600080fd5b5061028e611478565b60405161029b9190612f1c565b60405180910390f35b3480156102b057600080fd5b506102cb60048036038101906102c69190612f3e565b611506565b005b3480156102d957600080fd5b506102f460048036038101906102ef9190612f3e565b6117b5565b005b34801561030257600080fd5b5061031d60048036038101906103189190612e20565b6119d4565b005b34801561032b57600080fd5b50610334611be3565b6040516103419190612f1c565b60405180910390f35b34801561035657600080fd5b50610371600480360381019061036c91906127b1565b611c71565b60405161038295949392919061287d565b60405180910390f35b34801561039757600080fd5b506103a0611ecd565b6040516103ad9190613068565b60405180910390f35b3480156103c257600080fd5b506103dd60048036038101906103d89190612f3e565b611ef3565b005b3480156103eb57600080fd5b506103f46121a2565b6040516104019190612f1c565b60405180910390f35b34801561041657600080fd5b50610431600480360381019061042c9190612dd3565b612230565b005b34801561043f57600080fd5b5061045a60048036038101906104559190612e20565b6122d6565b005b34801561046857600080fd5b50610483600480360381019061047e9190612dd3565b612575565b005b61048d61258b565b005b600081600e811061049f57600080fd5b600502016000915090508060000154908060010180546104be906130b2565b80601f01602080910402602001604051908101604052809291908181526020018280546104ea906130b2565b80156105375780601f1061050c57610100808354040283529160200191610537565b820191906000526020600020905b81548152906001019060200180831161051a57829003601f168201915b50505050509080600201805461054c906130b2565b80601f0160208091040260200160405190810160405280929190818152602001828054610578906130b2565b80156105c55780601f1061059a576101008083540402835291602001916105c5565b820191906000526020600020905b8154815290600101906020018083116105a857829003601f168201915b5050505050908060030180546105da906130b2565b80601f0160208091040260200160405190810160405280929190818152602001828054610606906130b2565b80156106535780601f1061062857610100808354040283529160200191610653565b820191906000526020600020905b81548152906001019060200180831161063657829003601f168201915b505050505090806004018054610668906130b2565b80601f0160208091040260200160405190810160405280929190818152602001828054610694906130b2565b80156106e15780601f106106b6576101008083540402835291602001916106e1565b820191906000526020600020905b8154815290600101906020018083116106c457829003601f168201915b5050505050905085565b605a81600481106106fb57600080fd5b6005020160009150905080600001549080600101805461071a906130b2565b80601f0160208091040260200160405190810160405280929190818152602001828054610746906130b2565b80156107935780601f1061076857610100808354040283529160200191610793565b820191906000526020600020905b81548152906001019060200180831161077657829003601f168201915b5050505050908060020180546107a8906130b2565b80601f01602080910402602001604051908101604052809291908181526020018280546107d4906130b2565b80156108215780601f106107f657610100808354040283529160200191610821565b820191906000526020600020905b81548152906001019060200180831161080457829003601f168201915b505050505090806003018054610836906130b2565b80601f0160208091040260200160405190810160405280929190818152602001828054610862906130b2565b80156108af5780601f10610884576101008083540402835291602001916108af565b820191906000526020600020905b81548152906001019060200180831161089257829003601f168201915b5050505050908060040180546108c4906130b2565b80601f01602080910402602001604051908101604052809291908181526020018280546108f0906130b2565b801561093d5780601f106109125761010080835404028352916020019161093d565b820191906000526020600020905b81548152906001019060200180831161092057829003601f168201915b5050505050905085565b61094f61265c565b6000600e80602002604051908101604052809291906000905b82821015610be2578382600502016040518060a00160405290816000820154815260200160018201805461099b906130b2565b80601f01602080910402602001604051908101604052809291908181526020018280546109c7906130b2565b8015610a145780601f106109e957610100808354040283529160200191610a14565b820191906000526020600020905b8154815290600101906020018083116109f757829003601f168201915b50505050508152602001600282018054610a2d906130b2565b80601f0160208091040260200160405190810160405280929190818152602001828054610a59906130b2565b8015610aa65780601f10610a7b57610100808354040283529160200191610aa6565b820191906000526020600020905b815481529060010190602001808311610a8957829003601f168201915b50505050508152602001600382018054610abf906130b2565b80601f0160208091040260200160405190810160405280929190818152602001828054610aeb906130b2565b8015610b385780601f10610b0d57610100808354040283529160200191610b38565b820191906000526020600020905b815481529060010190602001808311610b1b57829003601f168201915b50505050508152602001600482018054610b51906130b2565b80601f0160208091040260200160405190810160405280929190818152602001828054610b7d906130b2565b8015610bca5780601f10610b9f57610100808354040283529160200191610bca565b820191906000526020600020905b815481529060010190602001808311610bad57829003601f168201915b50505050508152505081526020019060010190610968565b50505050905090565b610bf361268a565b605a600480602002604051908101604052809291906000905b82821015610e86578382600502016040518060a001604052908160008201548152602001600182018054610c3f906130b2565b80601f0160208091040260200160405190810160405280929190818152602001828054610c6b906130b2565b8015610cb85780601f10610c8d57610100808354040283529160200191610cb8565b820191906000526020600020905b815481529060010190602001808311610c9b57829003601f168201915b50505050508152602001600282018054610cd1906130b2565b80601f0160208091040260200160405190810160405280929190818152602001828054610cfd906130b2565b8015610d4a5780601f10610d1f57610100808354040283529160200191610d4a565b820191906000526020600020905b815481529060010190602001808311610d2d57829003601f168201915b50505050508152602001600382018054610d63906130b2565b80601f0160208091040260200160405190810160405280929190818152602001828054610d8f906130b2565b8015610ddc5780601f10610db157610100808354040283529160200191610ddc565b820191906000526020600020905b815481529060010190602001808311610dbf57829003601f168201915b50505050508152602001600482018054610df5906130b2565b80601f0160208091040260200160405190810160405280929190818152602001828054610e21906130b2565b8015610e6e5780601f10610e4357610100808354040283529160200191610e6e565b820191906000526020600020905b815481529060010190602001808311610e5157829003601f168201915b50505050508152505081526020019060010190610c0c565b50505050905090565b610e976126b7565b6046600480602002604051908101604052809291906000905b8282101561112a578382600502016040518060a001604052908160008201548152602001600182018054610ee3906130b2565b80601f0160208091040260200160405190810160405280929190818152602001828054610f0f906130b2565b8015610f5c5780601f10610f3157610100808354040283529160200191610f5c565b820191906000526020600020905b815481529060010190602001808311610f3f57829003601f168201915b50505050508152602001600282018054610f75906130b2565b80601f0160208091040260200160405190810160405280929190818152602001828054610fa1906130b2565b8015610fee5780601f10610fc357610100808354040283529160200191610fee565b820191906000526020600020905b815481529060010190602001808311610fd157829003601f168201915b50505050508152602001600382018054611007906130b2565b80601f0160208091040260200160405190810160405280929190818152602001828054611033906130b2565b80156110805780601f1061105557610100808354040283529160200191611080565b820191906000526020600020905b81548152906001019060200180831161106357829003601f168201915b50505050508152602001600482018054611099906130b2565b80601f01602080910402602001604051908101604052809291908181526020018280546110c5906130b2565b80156111125780601f106110e757610100808354040283529160200191611112565b820191906000526020600020905b8154815290600101906020018083116110f557829003601f168201915b50505050508152505081526020019060010190610eb0565b50505050905090565b3373ffffffffffffffffffffffffffffffffffffffff16607460009054906101000a900473ffffffffffffffffffffffffffffffffffffffff1673ffffffffffffffffffffffffffffffffffffffff16146111c3576040517f08c379a00000000000000000000000000000000000000000000000000000000081526004016111ba9061312f565b60405180910390fd5b8181606e91826111d4929190613335565b505050565b3373ffffffffffffffffffffffffffffffffffffffff16607460009054906101000a900473ffffffffffffffffffffffffffffffffffffffff1673ffffffffffffffffffffffffffffffffffffffff1614611269576040517f08c379a00000000000000000000000000000000000000000000000000000000081526004016112609061312f565b60405180910390fd5b6000811015801561127a5750600481105b6112b9576040517f08c379a00000000000000000000000000000000000000000000000000000000081526004016112b090613451565b60405180910390fd5b6040518060a001604052808281526020018a8a8080601f016020809104026020016040519081016040528093929190818152602001838380828437600081840152601f19601f82011690508083019250505050505050815260200188888080601f016020809104026020016040519081016040528093929190818152602001838380828437600081840152601f19601f82011690508083019250505050505050815260200186868080601f016020809104026020016040519081016040528093929190818152602001838380828437600081840152601f19601f82011690508083019250505050505050815260200184848080601f016020809104026020016040519081016040528093929190818152602001838380828437600081840152601f19601f820116905080830192505050505050508152506046826004811061140457611403613471565b5b6005020160008201518160000155602082015181600101908161142791906134a0565b50604082015181600201908161143d91906134a0565b50606082015181600301908161145391906134a0565b50608082015181600401908161146991906134a0565b50905050505050505050505050565b60708054611485906130b2565b80601f01602080910402602001604051908101604052809291908181526020018280546114b1906130b2565b80156114fe5780601f106114d3576101008083540402835291602001916114fe565b820191906000526020600020905b8154815290600101906020018083116114e157829003601f168201915b505050505081565b3373ffffffffffffffffffffffffffffffffffffffff16607460009054906101000a900473ffffffffffffffffffffffffffffffffffffffff1673ffffffffffffffffffffffffffffffffffffffff1614611596576040517f08c379a000000000000000000000000000000000000000000000000000000000815260040161158d9061312f565b60405180910390fd5b6003607354106115db576040517f08c379a00000000000000000000000000000000000000000000000000000000081526004016115d2906135be565b60405180910390fd5b6040518060a00160405280607354815260200189898080601f016020809104026020016040519081016040528093929190818152602001838380828437600081840152601f19601f82011690508083019250505050505050815260200187878080601f016020809104026020016040519081016040528093929190818152602001838380828437600081840152601f19601f82011690508083019250505050505050815260200185858080601f016020809104026020016040519081016040528093929190818152602001838380828437600081840152601f19601f82011690508083019250505050505050815260200183838080601f016020809104026020016040519081016040528093929190818152602001838380828437600081840152601f19601f82011690508083019250505050505050815250605a6073546004811061172a57611729613471565b5b6005020160008201518160000155602082015181600101908161174d91906134a0565b50604082015181600201908161176391906134a0565b50606082015181600301908161177991906134a0565b50608082015181600401908161178f91906134a0565b50905050607360008154809291906117a69061360d565b91905055505050505050505050565b600e607154106117fa576040517f08c379a00000000000000000000000000000000000000000000000000000000081526004016117f1906136a1565b60405180910390fd5b6040518060a00160405280607154815260200189898080601f016020809104026020016040519081016040528093929190818152602001838380828437600081840152601f19601f82011690508083019250505050505050815260200187878080601f016020809104026020016040519081016040528093929190818152602001838380828437600081840152601f19601f82011690508083019250505050505050815260200185858080601f016020809104026020016040519081016040528093929190818152602001838380828437600081840152601f19601f82011690508083019250505050505050815260200183838080601f016020809104026020016040519081016040528093929190818152602001838380828437600081840152601f19601f820116905080830192505050505050508152506000607154600e811061194957611948613471565b5b6005020160008201518160000155602082015181600101908161196c91906134a0565b50604082015181600201908161198291906134a0565b50606082015181600301908161199891906134a0565b5060808201518160040190816119ae91906134a0565b50905050607160008154809291906119c59061360d565b91905055505050505050505050565b600081101580156119e55750600e81105b611a24576040517f08c379a0000000000000000000000000000000000000000000000000000000008152600401611a1b906136a1565b60405180910390fd5b6040518060a001604052808281526020018a8a8080601f016020809104026020016040519081016040528093929190818152602001838380828437600081840152601f19601f82011690508083019250505050505050815260200188888080601f016020809104026020016040519081016040528093929190818152602001838380828437600081840152601f19601f82011690508083019250505050505050815260200186868080601f016020809104026020016040519081016040528093929190818152602001838380828437600081840152601f19601f82011690508083019250505050505050815260200184848080601f016020809104026020016040519081016040528093929190818152602001838380828437600081840152601f19601f82011690508083019250505050505050815250600082600e8110611b6f57611b6e613471565b5b60050201600082015181600001556020820151816001019081611b9291906134a0565b506040820151816002019081611ba891906134a0565b506060820151816003019081611bbe91906134a0565b506080820151816004019081611bd491906134a0565b50905050505050505050505050565b606f8054611bf0906130b2565b80601f0160208091040260200160405190810160405280929190818152602001828054611c1c906130b2565b8015611c695780601f10611c3e57610100808354040283529160200191611c69565b820191906000526020600020905b815481529060010190602001808311611c4c57829003601f168201915b505050505081565b60468160048110611c8157600080fd5b60050201600091509050806000015490806001018054611ca0906130b2565b80601f0160208091040260200160405190810160405280929190818152602001828054611ccc906130b2565b8015611d195780601f10611cee57610100808354040283529160200191611d19565b820191906000526020600020905b815481529060010190602001808311611cfc57829003601f168201915b505050505090806002018054611d2e906130b2565b80601f0160208091040260200160405190810160405280929190818152602001828054611d5a906130b2565b8015611da75780601f10611d7c57610100808354040283529160200191611da7565b820191906000526020600020905b815481529060010190602001808311611d8a57829003601f168201915b505050505090806003018054611dbc906130b2565b80601f0160208091040260200160405190810160405280929190818152602001828054611de8906130b2565b8015611e355780601f10611e0a57610100808354040283529160200191611e35565b820191906000526020600020905b815481529060010190602001808311611e1857829003601f168201915b505050505090806004018054611e4a906130b2565b80601f0160208091040260200160405190810160405280929190818152602001828054611e76906130b2565b8015611ec35780601f10611e9857610100808354040283529160200191611ec3565b820191906000526020600020905b815481529060010190602001808311611ea657829003601f168201915b5050505050905085565b607460009054906101000a900473ffffffffffffffffffffffffffffffffffffffff1681565b3373ffffffffffffffffffffffffffffffffffffffff16607460009054906101000a900473ffffffffffffffffffffffffffffffffffffffff1673ffffffffffffffffffffffffffffffffffffffff1614611f83576040517f08c379a0000000000000000000000000000000000000000000000000000000008152600401611f7a9061312f565b60405180910390fd5b600460725410611fc8576040517f08c379a0000000000000000000000000000000000000000000000000000000008152600401611fbf906135be565b60405180910390fd5b6040518060a00160405280607254815260200189898080601f016020809104026020016040519081016040528093929190818152602001838380828437600081840152601f19601f82011690508083019250505050505050815260200187878080601f016020809104026020016040519081016040528093929190818152602001838380828437600081840152601f19601f82011690508083019250505050505050815260200185858080601f016020809104026020016040519081016040528093929190818152602001838380828437600081840152601f19601f82011690508083019250505050505050815260200183838080601f016020809104026020016040519081016040528093929190818152602001838380828437600081840152601f19601f8201169050808301925050505050505081525060466072546004811061211757612116613471565b5b6005020160008201518160000155602082015181600101908161213a91906134a0565b50604082015181600201908161215091906134a0565b50606082015181600301908161216691906134a0565b50608082015181600401908161217c91906134a0565b50905050607260008154809291906121939061360d565b91905055505050505050505050565b606e80546121af906130b2565b80601f01602080910402602001604051908101604052809291908181526020018280546121db906130b2565b80156122285780601f106121fd57610100808354040283529160200191612228565b820191906000526020600020905b81548152906001019060200180831161220b57829003601f168201915b505050505081565b3373ffffffffffffffffffffffffffffffffffffffff16607460009054906101000a900473ffffffffffffffffffffffffffffffffffffffff1673ffffffffffffffffffffffffffffffffffffffff16146122c0576040517f08c379a00000000000000000000000000000000000000000000000000000000081526004016122b79061312f565b60405180910390fd5b8181607091826122d1929190613335565b505050565b3373ffffffffffffffffffffffffffffffffffffffff16607460009054906101000a900473ffffffffffffffffffffffffffffffffffffffff1673ffffffffffffffffffffffffffffffffffffffff1614612366576040517f08c379a000000000000000000000000000000000000000000000000000000000815260040161235d9061312f565b60405180910390fd5b600081101580156123775750600481105b6123b6576040517f08c379a00000000000000000000000000000000000000000000000000000000081526004016123ad9061370d565b60405180910390fd5b6040518060a001604052808281526020018a8a8080601f016020809104026020016040519081016040528093929190818152602001838380828437600081840152601f19601f82011690508083019250505050505050815260200188888080601f016020809104026020016040519081016040528093929190818152602001838380828437600081840152601f19601f82011690508083019250505050505050815260200186868080601f016020809104026020016040519081016040528093929190818152602001838380828437600081840152601f19601f82011690508083019250505050505050815260200184848080601f016020809104026020016040519081016040528093929190818152602001838380828437600081840152601f19601f82011690508083019250505050505050815250605a826004811061250157612500613471565b5b6005020160008201518160000155602082015181600101908161252491906134a0565b50604082015181600201908161253a91906134a0565b50606082015181600301908161255091906134a0565b50608082015181600401908161256691906134a0565b50905050505050505050505050565b8181606f9182612586929190613335565b505050565b6000607460009054906101000a900473ffffffffffffffffffffffffffffffffffffffff1673ffffffffffffffffffffffffffffffffffffffff16346040516125d39061375e565b60006040518083038185875af1925050503d8060008114612610576040519150601f19603f3d011682016040523d82523d6000602084013e612615565b606091505b5050905080612659576040517f08c379a0000000000000000000000000000000000000000000000000000000008152600401612650906137bf565b60405180910390fd5b50565b604051806101c00160405280600e905b6126746126e4565b81526020019060019003908161266c5790505090565b60405180608001604052806004905b6126a1612713565b8152602001906001900390816126995790505090565b60405180608001604052806004905b6126ce612742565b8152602001906001900390816126c65790505090565b6040518060a0016040528060008152602001606081526020016060815260200160608152602001606081525090565b6040518060a0016040528060008152602001606081526020016060815260200160608152602001606081525090565b6040518060a0016040528060008152602001606081526020016060815260200160608152602001606081525090565b600080fd5b600080fd5b6000819050919050565b61278e8161277b565b811461279957600080fd5b50565b6000813590506127ab81612785565b92915050565b6000602082840312156127c7576127c6612771565b5b60006127d58482850161279c565b91505092915050565b6127e78161277b565b82525050565b600081519050919050565b600082825260208201905092915050565b60005b8381101561282757808201518184015260208101905061280c565b60008484015250505050565b6000601f19601f8301169050919050565b600061284f826127ed565b61285981856127f8565b9350612869818560208601612809565b61287281612833565b840191505092915050565b600060a08201905061289260008301886127de565b81810360208301526128a48187612844565b905081810360408301526128b88186612844565b905081810360608301526128cc8185612844565b905081810360808301526128e08184612844565b90509695505050505050565b6000600e9050919050565b600081905092915050565b6000819050919050565b6129158161277b565b82525050565b600082825260208201905092915050565b6000612937826127ed565b612941818561291b565b9350612951818560208601612809565b61295a81612833565b840191505092915050565b600060a08301600083015161297d600086018261290c565b5060208301518482036020860152612995828261292c565b915050604083015184820360408601526129af828261292c565b915050606083015184820360608601526129c9828261292c565b915050608083015184820360808601526129e3828261292c565b9150508091505092915050565b60006129fc8383612965565b905092915050565b6000602082019050919050565b6000612a1c826128ec565b612a2681856128f7565b935083602082028501612a3885612902565b8060005b85811015612a745784840389528151612a5585826129f0565b9450612a6083612a04565b925060208a01995050600181019050612a3c565b50829750879550505050505092915050565b60006020820190508181036000830152612aa08184612a11565b905092915050565b600060049050919050565b600081905092915050565b6000819050919050565b600060a083016000830151612ae0600086018261290c565b5060208301518482036020860152612af8828261292c565b91505060408301518482036040860152612b12828261292c565b91505060608301518482036060860152612b2c828261292c565b91505060808301518482036080860152612b46828261292c565b9150508091505092915050565b6000612b5f8383612ac8565b905092915050565b6000602082019050919050565b6000612b7f82612aa8565b612b898185612ab3565b935083602082028501612b9b85612abe565b8060005b85811015612bd75784840389528151612bb88582612b53565b9450612bc383612b67565b925060208a01995050600181019050612b9f565b50829750879550505050505092915050565b60006020820190508181036000830152612c038184612b74565b905092915050565b600060049050919050565b600081905092915050565b6000819050919050565b600060a083016000830151612c43600086018261290c565b5060208301518482036020860152612c5b828261292c565b91505060408301518482036040860152612c75828261292c565b91505060608301518482036060860152612c8f828261292c565b91505060808301518482036080860152612ca9828261292c565b9150508091505092915050565b6000612cc28383612c2b565b905092915050565b6000602082019050919050565b6000612ce282612c0b565b612cec8185612c16565b935083602082028501612cfe85612c21565b8060005b85811015612d3a5784840389528151612d1b8582612cb6565b9450612d2683612cca565b925060208a01995050600181019050612d02565b50829750879550505050505092915050565b60006020820190508181036000830152612d668184612cd7565b905092915050565b600080fd5b600080fd5b600080fd5b60008083601f840112612d9357612d92612d6e565b5b8235905067ffffffffffffffff811115612db057612daf612d73565b5b602083019150836001820283011115612dcc57612dcb612d78565b5b9250929050565b60008060208385031215612dea57612de9612771565b5b600083013567ffffffffffffffff811115612e0857612e07612776565b5b612e1485828601612d7d565b92509250509250929050565b600080600080600080600080600060a08a8c031215612e4257612e41612771565b5b60008a013567ffffffffffffffff811115612e6057612e5f612776565b5b612e6c8c828d01612d7d565b995099505060208a013567ffffffffffffffff811115612e8f57612e8e612776565b5b612e9b8c828d01612d7d565b975097505060408a013567ffffffffffffffff811115612ebe57612ebd612776565b5b612eca8c828d01612d7d565b955095505060608a013567ffffffffffffffff811115612eed57612eec612776565b5b612ef98c828d01612d7d565b93509350506080612f0c8c828d0161279c565b9150509295985092959850929598565b60006020820190508181036000830152612f368184612844565b905092915050565b6000806000806000806000806080898b031215612f5e57612f5d612771565b5b600089013567ffffffffffffffff811115612f7c57612f7b612776565b5b612f888b828c01612d7d565b9850985050602089013567ffffffffffffffff811115612fab57612faa612776565b5b612fb78b828c01612d7d565b9650965050604089013567ffffffffffffffff811115612fda57612fd9612776565b5b612fe68b828c01612d7d565b9450945050606089013567ffffffffffffffff81111561300957613008612776565b5b6130158b828c01612d7d565b92509250509295985092959890939650565b600073ffffffffffffffffffffffffffffffffffffffff82169050919050565b600061305282613027565b9050919050565b61306281613047565b82525050565b600060208201905061307d6000830184613059565b92915050565b7f4e487b7100000000000000000000000000000000000000000000000000000000600052602260045260246000fd5b600060028204905060018216806130ca57607f821691505b6020821081036130dd576130dc613083565b5b50919050565b7f596f7520617265206e6f7420746865206f776e65720000000000000000000000600082015250565b60006131196015836127f8565b9150613124826130e3565b602082019050919050565b600060208201905081810360008301526131488161310c565b9050919050565b600082905092915050565b7f4e487b7100000000000000000000000000000000000000000000000000000000600052604160045260246000fd5b60008190508160005260206000209050919050565b60006020601f8301049050919050565b600082821b905092915050565b6000600883026131eb7fffffffffffffffffffffffffffffffffffffffffffffffffffffffffffffffff826131ae565b6131f586836131ae565b95508019841693508086168417925050509392505050565b6000819050919050565b600061323261322d6132288461277b565b61320d565b61277b565b9050919050565b6000819050919050565b61324c83613217565b61326061325882613239565b8484546131bb565b825550505050565b600090565b613275613268565b613280818484613243565b505050565b5b818110156132a45761329960008261326d565b600181019050613286565b5050565b601f8211156132e9576132ba81613189565b6132c38461319e565b810160208510156132d2578190505b6132e66132de8561319e565b830182613285565b50505b505050565b600082821c905092915050565b600061330c600019846008026132ee565b1980831691505092915050565b600061332583836132fb565b9150826002028217905092915050565b61333f838361314f565b67ffffffffffffffff8111156133585761335761315a565b5b61336282546130b2565b61336d8282856132a8565b6000601f83116001811461339c576000841561338a578287013590505b6133948582613319565b8655506133fc565b601f1984166133aa86613189565b60005b828110156133d2578489013582556001820191506020850194506020810190506133ad565b868310156133ef57848901356133eb601f8916826132fb565b8355505b6001600288020188555050505b50505050505050565b7f496e76616c696420656475636174696f6e436f756e7400000000000000000000600082015250565b600061343b6016836127f8565b915061344682613405565b602082019050919050565b6000602082019050818103600083015261346a8161342e565b9050919050565b7f4e487b7100000000000000000000000000000000000000000000000000000000600052603260045260246000fd5b6134a9826127ed565b67ffffffffffffffff8111156134c2576134c161315a565b5b6134cc82546130b2565b6134d78282856132a8565b600060209050601f83116001811461350a57600084156134f8578287015190505b6135028582613319565b86555061356a565b601f19841661351886613189565b60005b828110156135405784890151825560018201915060208501945060208101905061351b565b8683101561355d5784890151613559601f8916826132fb565b8355505b6001600288020188555050505b505050505050565b7f4f6e6c79203420656475636174696f6e2064657461696c7320616c6c6f776564600082015250565b60006135a86020836127f8565b91506135b382613572565b602082019050919050565b600060208201905081810360008301526135d78161359b565b9050919050565b7f4e487b7100000000000000000000000000000000000000000000000000000000600052601160045260246000fd5b60006136188261277b565b91507fffffffffffffffffffffffffffffffffffffffffffffffffffffffffffffffff820361364a576136496135de565b5b600182019050919050565b7f4f6e6c792031342070726f6a6563747320616c6c6f7765640000000000000000600082015250565b600061368b6018836127f8565b915061369682613655565b602082019050919050565b600060208201905081810360008301526136ba8161367e565b9050919050565b7f496e76616c696420657870657269656e6365436f756e74000000000000000000600082015250565b60006136f76017836127f8565b9150613702826136c1565b602082019050919050565b60006020820190508181036000830152613726816136ea565b9050919050565b600081905092915050565b50565b600061374860008361372d565b915061375382613738565b600082019050919050565b60006137698261373b565b9150819050919050565b7f4661696c656420746f2073656e64206574686572000000000000000000000000600082015250565b60006137a96014836127f8565b91506137b482613773565b602082019050919050565b600060208201905081810360008301526137d88161379c565b905091905056fea264697066735822122060afc999de8fffcac3415a643fe288a236ba5bf483b4985191a4a789a8b8834a64736f6c63430008120033516d61613533596451705842756346765338534a52574e724e6b343637576d55356577567a364e69647054344c67516d6344425153575354675164625a53656b31664e6b5841415a5362423844584336367374426567626b6b4467574f76657220736978206d6f6e746873206f662072656c6576616e7420657870657269656e636520616e6420736f6c69642065787065727469736520696e20626c6f636b636861696e20646576656c6f706d656e742e4920636f6e7472696275746520746f207765623320636f6d6d756e6974792e",
					"opcodes": "PUSH1 0x80 PUSH1 0x40 MSTORE PUSH1 0x40 MLOAD DUP1 PUSH1 0x60 ADD PUSH1 0x40 MSTORE DUP1 PUSH1 0x2E DUP2 MSTORE PUSH1 0x20 ADD PUSH3 0x3C60 PUSH1 0x2E SWAP2 CODECOPY PUSH1 0x6E SWAP1 DUP2 PUSH3 0x2E SWAP2 SWAP1 PUSH3 0x354 JUMP JUMPDEST POP PUSH1 0x40 MLOAD DUP1 PUSH1 0xA0 ADD PUSH1 0x40 MSTORE DUP1 PUSH1 0x74 DUP2 MSTORE PUSH1 0x20 ADD PUSH3 0x3CBC PUSH1 0x74 SWAP2 CODECOPY PUSH1 0x6F SWAP1 DUP2 PUSH3 0x59 SWAP2 SWAP1 PUSH3 0x354 JUMP JUMPDEST POP PUSH1 0x40 MLOAD DUP1 PUSH1 0x60 ADD PUSH1 0x40 MSTORE DUP1 PUSH1 0x2E DUP2 MSTORE PUSH1 0x20 ADD PUSH3 0x3C8E PUSH1 0x2E SWAP2 CODECOPY PUSH1 0x70 SWAP1 DUP2 PUSH3 0x84 SWAP2 SWAP1 PUSH3 0x354 JUMP JUMPDEST POP CALLVALUE DUP1 ISZERO PUSH3 0x92 JUMPI PUSH1 0x0 DUP1 REVERT JUMPDEST POP CALLER PUSH1 0x74 PUSH1 0x0 PUSH2 0x100 EXP DUP2 SLOAD DUP2 PUSH20 0xFFFFFFFFFFFFFFFFFFFFFFFFFFFFFFFFFFFFFFFF MUL NOT AND SWAP1 DUP4 PUSH20 0xFFFFFFFFFFFFFFFFFFFFFFFFFFFFFFFFFFFFFFFF AND MUL OR SWAP1 SSTORE POP PUSH3 0x43B JUMP JUMPDEST PUSH1 0x0 DUP2 MLOAD SWAP1 POP SWAP2 SWAP1 POP JUMP JUMPDEST PUSH32 0x4E487B7100000000000000000000000000000000000000000000000000000000 PUSH1 0x0 MSTORE PUSH1 0x41 PUSH1 0x4 MSTORE PUSH1 0x24 PUSH1 0x0 REVERT JUMPDEST PUSH32 0x4E487B7100000000000000000000000000000000000000000000000000000000 PUSH1 0x0 MSTORE PUSH1 0x22 PUSH1 0x4 MSTORE PUSH1 0x24 PUSH1 0x0 REVERT JUMPDEST PUSH1 0x0 PUSH1 0x2 DUP3 DIV SWAP1 POP PUSH1 0x1 DUP3 AND DUP1 PUSH3 0x15C JUMPI PUSH1 0x7F DUP3 AND SWAP2 POP JUMPDEST PUSH1 0x20 DUP3 LT DUP2 SUB PUSH3 0x172 JUMPI PUSH3 0x171 PUSH3 0x114 JUMP JUMPDEST JUMPDEST POP SWAP2 SWAP1 POP JUMP JUMPDEST PUSH1 0x0 DUP2 SWAP1 POP DUP2 PUSH1 0x0 MSTORE PUSH1 0x20 PUSH1 0x0 KECCAK256 SWAP1 POP SWAP2 SWAP1 POP JUMP JUMPDEST PUSH1 0x0 PUSH1 0x20 PUSH1 0x1F DUP4 ADD DIV SWAP1 POP SWAP2 SWAP1 POP JUMP JUMPDEST PUSH1 0x0 DUP3 DUP3 SHL SWAP1 POP SWAP3 SWAP2 POP POP JUMP JUMPDEST PUSH1 0x0 PUSH1 0x8 DUP4 MUL PUSH3 0x1DC PUSH32 0xFFFFFFFFFFFFFFFFFFFFFFFFFFFFFFFFFFFFFFFFFFFFFFFFFFFFFFFFFFFFFFFF DUP3 PUSH3 0x19D JUMP JUMPDEST PUSH3 0x1E8 DUP7 DUP4 PUSH3 0x19D JUMP JUMPDEST SWAP6 POP DUP1 NOT DUP5 AND SWAP4 POP DUP1 DUP7 AND DUP5 OR SWAP3 POP POP POP SWAP4 SWAP3 POP POP POP JUMP JUMPDEST PUSH1 0x0 DUP2 SWAP1 POP SWAP2 SWAP1 POP JUMP JUMPDEST PUSH1 0x0 DUP2 SWAP1 POP SWAP2 SWAP1 POP JUMP JUMPDEST PUSH1 0x0 PUSH3 0x235 PUSH3 0x22F PUSH3 0x229 DUP5 PUSH3 0x200 JUMP JUMPDEST PUSH3 0x20A JUMP JUMPDEST PUSH3 0x200 JUMP JUMPDEST SWAP1 POP SWAP2 SWAP1 POP JUMP JUMPDEST PUSH1 0x0 DUP2 SWAP1 POP SWAP2 SWAP1 POP JUMP JUMPDEST PUSH3 0x251 DUP4 PUSH3 0x214 JUMP JUMPDEST PUSH3 0x269 PUSH3 0x260 DUP3 PUSH3 0x23C JUMP JUMPDEST DUP5 DUP5 SLOAD PUSH3 0x1AA JUMP JUMPDEST DUP3 SSTORE POP POP POP POP JUMP JUMPDEST PUSH1 0x0 SWAP1 JUMP JUMPDEST PUSH3 0x280 PUSH3 0x271 JUMP JUMPDEST PUSH3 0x28D DUP2 DUP5 DUP5 PUSH3 0x246 JUMP JUMPDEST POP POP POP JUMP JUMPDEST JUMPDEST DUP2 DUP2 LT ISZERO PUSH3 0x2B5 JUMPI PUSH3 0x2A9 PUSH1 0x0 DUP3 PUSH3 0x276 JUMP JUMPDEST PUSH1 0x1 DUP2 ADD SWAP1 POP PUSH3 0x293 JUMP JUMPDEST POP POP JUMP JUMPDEST PUSH1 0x1F DUP3 GT ISZERO PUSH3 0x304 JUMPI PUSH3 0x2CE DUP2 PUSH3 0x178 JUMP JUMPDEST PUSH3 0x2D9 DUP5 PUSH3 0x18D JUMP JUMPDEST DUP2 ADD PUSH1 0x20 DUP6 LT ISZERO PUSH3 0x2E9 JUMPI DUP2 SWAP1 POP JUMPDEST PUSH3 0x301 PUSH3 0x2F8 DUP6 PUSH3 0x18D JUMP JUMPDEST DUP4 ADD DUP3 PUSH3 0x292 JUMP JUMPDEST POP POP JUMPDEST POP POP POP JUMP JUMPDEST PUSH1 0x0 DUP3 DUP3 SHR SWAP1 POP SWAP3 SWAP2 POP POP JUMP JUMPDEST PUSH1 0x0 PUSH3 0x329 PUSH1 0x0 NOT DUP5 PUSH1 0x8 MUL PUSH3 0x309 JUMP JUMPDEST NOT DUP1 DUP4 AND SWAP2 POP POP SWAP3 SWAP2 POP POP JUMP JUMPDEST PUSH1 0x0 PUSH3 0x344 DUP4 DUP4 PUSH3 0x316 JUMP JUMPDEST SWAP2 POP DUP3 PUSH1 0x2 MUL DUP3 OR SWAP1 POP SWAP3 SWAP2 POP POP JUMP JUMPDEST PUSH3 0x35F DUP3 PUSH3 0xDA JUMP JUMPDEST PUSH8 0xFFFFFFFFFFFFFFFF DUP2 GT ISZERO PUSH3 0x37B JUMPI PUSH3 0x37A PUSH3 0xE5 JUMP JUMPDEST JUMPDEST PUSH3 0x387 DUP3 SLOAD PUSH3 0x143 JUMP JUMPDEST PUSH3 0x394 DUP3 DUP3 DUP6 PUSH3 0x2B9 JUMP JUMPDEST PUSH1 0x0 PUSH1 0x20 SWAP1 POP PUSH1 0x1F DUP4 GT PUSH1 0x1 DUP2 EQ PUSH3 0x3CC JUMPI PUSH1 0x0 DUP5 ISZERO PUSH3 0x3B7 JUMPI DUP3 DUP8 ADD MLOAD SWAP1 POP JUMPDEST PUSH3 0x3C3 DUP6 DUP3 PUSH3 0x336 JUMP JUMPDEST DUP7 SSTORE POP PUSH3 0x433 JUMP JUMPDEST PUSH1 0x1F NOT DUP5 AND PUSH3 0x3DC DUP7 PUSH3 0x178 JUMP JUMPDEST PUSH1 0x0 JUMPDEST DUP3 DUP2 LT ISZERO PUSH3 0x406 JUMPI DUP5 DUP10 ADD MLOAD DUP3 SSTORE PUSH1 0x1 DUP3 ADD SWAP2 POP PUSH1 0x20 DUP6 ADD SWAP5 POP PUSH1 0x20 DUP2 ADD SWAP1 POP PUSH3 0x3DF JUMP JUMPDEST DUP7 DUP4 LT ISZERO PUSH3 0x426 JUMPI DUP5 DUP10 ADD MLOAD PUSH3 0x422 PUSH1 0x1F DUP10 AND DUP3 PUSH3 0x316 JUMP JUMPDEST DUP4 SSTORE POP JUMPDEST PUSH1 0x1 PUSH1 0x2 DUP9 MUL ADD DUP9 SSTORE POP POP POP JUMPDEST POP POP POP POP POP POP JUMP JUMPDEST PUSH2 0x3815 DUP1 PUSH3 0x44B PUSH1 0x0 CODECOPY PUSH1 0x0 RETURN INVALID PUSH1 0x80 PUSH1 0x40 MSTORE PUSH1 0x4 CALLDATASIZE LT PUSH2 0x11F JUMPI PUSH1 0x0 CALLDATALOAD PUSH1 0xE0 SHR DUP1 PUSH4 0x6FE8E0BD GT PUSH2 0xA0 JUMPI DUP1 PUSH4 0xCAF7B759 GT PUSH2 0x64 JUMPI DUP1 PUSH4 0xCAF7B759 EQ PUSH2 0x3DF JUMPI DUP1 PUSH4 0xD3CEDF11 EQ PUSH2 0x40A JUMPI DUP1 PUSH4 0xD921FA82 EQ PUSH2 0x433 JUMPI DUP1 PUSH4 0xE6120413 EQ PUSH2 0x45C JUMPI DUP1 PUSH4 0xED88C68E EQ PUSH2 0x485 JUMPI PUSH2 0x11F JUMP JUMPDEST DUP1 PUSH4 0x6FE8E0BD EQ PUSH2 0x2F6 JUMPI DUP1 PUSH4 0x7284E416 EQ PUSH2 0x31F JUMPI DUP1 PUSH4 0x7AEA95AA EQ PUSH2 0x34A JUMPI DUP1 PUSH4 0x8DA5CB5B EQ PUSH2 0x38B JUMPI DUP1 PUSH4 0x98F831B6 EQ PUSH2 0x3B6 JUMPI PUSH2 0x11F JUMP JUMPDEST DUP1 PUSH4 0x598E7F37 GT PUSH2 0xE7 JUMPI DUP1 PUSH4 0x598E7F37 EQ PUSH2 0x227 JUMPI DUP1 PUSH4 0x5B173A69 EQ PUSH2 0x250 JUMPI DUP1 PUSH4 0x5CEA6A7C EQ PUSH2 0x279 JUMPI DUP1 PUSH4 0x5D85A1F4 EQ PUSH2 0x2A4 JUMPI DUP1 PUSH4 0x6426D4C3 EQ PUSH2 0x2CD JUMPI PUSH2 0x11F JUMP JUMPDEST DUP1 PUSH4 0x107046BD EQ PUSH2 0x124 JUMPI DUP1 PUSH4 0x10EF62C5 EQ PUSH2 0x165 JUMPI DUP1 PUSH4 0x2ADF13B2 EQ PUSH2 0x1A6 JUMPI DUP1 PUSH4 0x36EEA422 EQ PUSH2 0x1D1 JUMPI DUP1 PUSH4 0x5397C6EC EQ PUSH2 0x1FC JUMPI JUMPDEST PUSH1 0x0 DUP1 REVERT JUMPDEST CALLVALUE DUP1 ISZERO PUSH2 0x130 JUMPI PUSH1 0x0 DUP1 REVERT JUMPDEST POP PUSH2 0x14B PUSH1 0x4 DUP1 CALLDATASIZE SUB DUP2 ADD SWAP1 PUSH2 0x146 SWAP2 SWAP1 PUSH2 0x27B1 JUMP JUMPDEST PUSH2 0x48F JUMP JUMPDEST PUSH1 0x40 MLOAD PUSH2 0x15C SWAP6 SWAP5 SWAP4 SWAP3 SWAP2 SWAP1 PUSH2 0x287D JUMP JUMPDEST PUSH1 0x40 MLOAD DUP1 SWAP2 SUB SWAP1 RETURN JUMPDEST CALLVALUE DUP1 ISZERO PUSH2 0x171 JUMPI PUSH1 0x0 DUP1 REVERT JUMPDEST POP PUSH2 0x18C PUSH1 0x4 DUP1 CALLDATASIZE SUB DUP2 ADD SWAP1 PUSH2 0x187 SWAP2 SWAP1 PUSH2 0x27B1 JUMP JUMPDEST PUSH2 0x6EB JUMP JUMPDEST PUSH1 0x40 MLOAD PUSH2 0x19D SWAP6 SWAP5 SWAP4 SWAP3 SWAP2 SWAP1 PUSH2 0x287D JUMP JUMPDEST PUSH1 0x40 MLOAD DUP1 SWAP2 SUB SWAP1 RETURN JUMPDEST CALLVALUE DUP1 ISZERO PUSH2 0x1B2 JUMPI PUSH1 0x0 DUP1 REVERT JUMPDEST POP PUSH2 0x1BB PUSH2 0x947 JUMP JUMPDEST PUSH1 0x40 MLOAD PUSH2 0x1C8 SWAP2 SWAP1 PUSH2 0x2A86 JUMP JUMPDEST PUSH1 0x40 MLOAD DUP1 SWAP2 SUB SWAP1 RETURN JUMPDEST CALLVALUE DUP1 ISZERO PUSH2 0x1DD JUMPI PUSH1 0x0 DUP1 REVERT JUMPDEST POP PUSH2 0x1E6 PUSH2 0xBEB JUMP JUMPDEST PUSH1 0x40 MLOAD PUSH2 0x1F3 SWAP2 SWAP1 PUSH2 0x2BE9 JUMP JUMPDEST PUSH1 0x40 MLOAD DUP1 SWAP2 SUB SWAP1 RETURN JUMPDEST CALLVALUE DUP1 ISZERO PUSH2 0x208 JUMPI PUSH1 0x0 DUP1 REVERT JUMPDEST POP PUSH2 0x211 PUSH2 0xE8F JUMP JUMPDEST PUSH1 0x40 MLOAD PUSH2 0x21E SWAP2 SWAP1 PUSH2 0x2D4C JUMP JUMPDEST PUSH1 0x40 MLOAD DUP1 SWAP2 SUB SWAP1 RETURN JUMPDEST CALLVALUE DUP1 ISZERO PUSH2 0x233 JUMPI PUSH1 0x0 DUP1 REVERT JUMPDEST POP PUSH2 0x24E PUSH1 0x4 DUP1 CALLDATASIZE SUB DUP2 ADD SWAP1 PUSH2 0x249 SWAP2 SWAP1 PUSH2 0x2DD3 JUMP JUMPDEST PUSH2 0x1133 JUMP JUMPDEST STOP JUMPDEST CALLVALUE DUP1 ISZERO PUSH2 0x25C JUMPI PUSH1 0x0 DUP1 REVERT JUMPDEST POP PUSH2 0x277 PUSH1 0x4 DUP1 CALLDATASIZE SUB DUP2 ADD SWAP1 PUSH2 0x272 SWAP2 SWAP1 PUSH2 0x2E20 JUMP JUMPDEST PUSH2 0x11D9 JUMP JUMPDEST STOP JUMPDEST CALLVALUE DUP1 ISZERO PUSH2 0x285 JUMPI PUSH1 0x0 DUP1 REVERT JUMPDEST POP PUSH2 0x28E PUSH2 0x1478 JUMP JUMPDEST PUSH1 0x40 MLOAD PUSH2 0x29B SWAP2 SWAP1 PUSH2 0x2F1C JUMP JUMPDEST PUSH1 0x40 MLOAD DUP1 SWAP2 SUB SWAP1 RETURN JUMPDEST CALLVALUE DUP1 ISZERO PUSH2 0x2B0 JUMPI PUSH1 0x0 DUP1 REVERT JUMPDEST POP PUSH2 0x2CB PUSH1 0x4 DUP1 CALLDATASIZE SUB DUP2 ADD SWAP1 PUSH2 0x2C6 SWAP2 SWAP1 PUSH2 0x2F3E JUMP JUMPDEST PUSH2 0x1506 JUMP JUMPDEST STOP JUMPDEST CALLVALUE DUP1 ISZERO PUSH2 0x2D9 JUMPI PUSH1 0x0 DUP1 REVERT JUMPDEST POP PUSH2 0x2F4 PUSH1 0x4 DUP1 CALLDATASIZE SUB DUP2 ADD SWAP1 PUSH2 0x2EF SWAP2 SWAP1 PUSH2 0x2F3E JUMP JUMPDEST PUSH2 0x17B5 JUMP JUMPDEST STOP JUMPDEST CALLVALUE DUP1 ISZERO PUSH2 0x302 JUMPI PUSH1 0x0 DUP1 REVERT JUMPDEST POP PUSH2 0x31D PUSH1 0x4 DUP1 CALLDATASIZE SUB DUP2 ADD SWAP1 PUSH2 0x318 SWAP2 SWAP1 PUSH2 0x2E20 JUMP JUMPDEST PUSH2 0x19D4 JUMP JUMPDEST STOP JUMPDEST CALLVALUE DUP1 ISZERO PUSH2 0x32B JUMPI PUSH1 0x0 DUP1 REVERT JUMPDEST POP PUSH2 0x334 PUSH2 0x1BE3 JUMP JUMPDEST PUSH1 0x40 MLOAD PUSH2 0x341 SWAP2 SWAP1 PUSH2 0x2F1C JUMP JUMPDEST PUSH1 0x40 MLOAD DUP1 SWAP2 SUB SWAP1 RETURN JUMPDEST CALLVALUE DUP1 ISZERO PUSH2 0x356 JUMPI PUSH1 0x0 DUP1 REVERT JUMPDEST POP PUSH2 0x371 PUSH1 0x4 DUP1 CALLDATASIZE SUB DUP2 ADD SWAP1 PUSH2 0x36C SWAP2 SWAP1 PUSH2 0x27B1 JUMP JUMPDEST PUSH2 0x1C71 JUMP JUMPDEST PUSH1 0x40 MLOAD PUSH2 0x382 SWAP6 SWAP5 SWAP4 SWAP3 SWAP2 SWAP1 PUSH2 0x287D JUMP JUMPDEST PUSH1 0x40 MLOAD DUP1 SWAP2 SUB SWAP1 RETURN JUMPDEST CALLVALUE DUP1 ISZERO PUSH2 0x397 JUMPI PUSH1 0x0 DUP1 REVERT JUMPDEST POP PUSH2 0x3A0 PUSH2 0x1ECD JUMP JUMPDEST PUSH1 0x40 MLOAD PUSH2 0x3AD SWAP2 SWAP1 PUSH2 0x3068 JUMP JUMPDEST PUSH1 0x40 MLOAD DUP1 SWAP2 SUB SWAP1 RETURN JUMPDEST CALLVALUE DUP1 ISZERO PUSH2 0x3C2 JUMPI PUSH1 0x0 DUP1 REVERT JUMPDEST POP PUSH2 0x3DD PUSH1 0x4 DUP1 CALLDATASIZE SUB DUP2 ADD SWAP1 PUSH2 0x3D8 SWAP2 SWAP1 PUSH2 0x2F3E JUMP JUMPDEST PUSH2 0x1EF3 JUMP JUMPDEST STOP JUMPDEST CALLVALUE DUP1 ISZERO PUSH2 0x3EB JUMPI PUSH1 0x0 DUP1 REVERT JUMPDEST POP PUSH2 0x3F4 PUSH2 0x21A2 JUMP JUMPDEST PUSH1 0x40 MLOAD PUSH2 0x401 SWAP2 SWAP1 PUSH2 0x2F1C JUMP JUMPDEST PUSH1 0x40 MLOAD DUP1 SWAP2 SUB SWAP1 RETURN JUMPDEST CALLVALUE DUP1 ISZERO PUSH2 0x416 JUMPI PUSH1 0x0 DUP1 REVERT JUMPDEST POP PUSH2 0x431 PUSH1 0x4 DUP1 CALLDATASIZE SUB DUP2 ADD SWAP1 PUSH2 0x42C SWAP2 SWAP1 PUSH2 0x2DD3 JUMP JUMPDEST PUSH2 0x2230 JUMP JUMPDEST STOP JUMPDEST CALLVALUE DUP1 ISZERO PUSH2 0x43F JUMPI PUSH1 0x0 DUP1 REVERT JUMPDEST POP PUSH2 0x45A PUSH1 0x4 DUP1 CALLDATASIZE SUB DUP2 ADD SWAP1 PUSH2 0x455 SWAP2 SWAP1 PUSH2 0x2E20 JUMP JUMPDEST PUSH2 0x22D6 JUMP JUMPDEST STOP JUMPDEST CALLVALUE DUP1 ISZERO PUSH2 0x468 JUMPI PUSH1 0x0 DUP1 REVERT JUMPDEST POP PUSH2 0x483 PUSH1 0x4 DUP1 CALLDATASIZE SUB DUP2 ADD SWAP1 PUSH2 0x47E SWAP2 SWAP1 PUSH2 0x2DD3 JUMP JUMPDEST PUSH2 0x2575 JUMP JUMPDEST STOP JUMPDEST PUSH2 0x48D PUSH2 0x258B JUMP JUMPDEST STOP JUMPDEST PUSH1 0x0 DUP2 PUSH1 0xE DUP2 LT PUSH2 0x49F JUMPI PUSH1 0x0 DUP1 REVERT JUMPDEST PUSH1 0x5 MUL ADD PUSH1 0x0 SWAP2 POP SWAP1 POP DUP1 PUSH1 0x0 ADD SLOAD SWAP1 DUP1 PUSH1 0x1 ADD DUP1 SLOAD PUSH2 0x4BE SWAP1 PUSH2 0x30B2 JUMP JUMPDEST DUP1 PUSH1 0x1F ADD PUSH1 0x20 DUP1 SWAP2 DIV MUL PUSH1 0x20 ADD PUSH1 0x40 MLOAD SWAP1 DUP2 ADD PUSH1 0x40 MSTORE DUP1 SWAP3 SWAP2 SWAP1 DUP2 DUP2 MSTORE PUSH1 0x20 ADD DUP3 DUP1 SLOAD PUSH2 0x4EA SWAP1 PUSH2 0x30B2 JUMP JUMPDEST DUP1 ISZERO PUSH2 0x537 JUMPI DUP1 PUSH1 0x1F LT PUSH2 0x50C JUMPI PUSH2 0x100 DUP1 DUP4 SLOAD DIV MUL DUP4 MSTORE SWAP2 PUSH1 0x20 ADD SWAP2 PUSH2 0x537 JUMP JUMPDEST DUP3 ADD SWAP2 SWAP1 PUSH1 0x0 MSTORE PUSH1 0x20 PUSH1 0x0 KECCAK256 SWAP1 JUMPDEST DUP2 SLOAD DUP2 MSTORE SWAP1 PUSH1 0x1 ADD SWAP1 PUSH1 0x20 ADD DUP1 DUP4 GT PUSH2 0x51A JUMPI DUP3 SWAP1 SUB PUSH1 0x1F AND DUP3 ADD SWAP2 JUMPDEST POP POP POP POP POP SWAP1 DUP1 PUSH1 0x2 ADD DUP1 SLOAD PUSH2 0x54C SWAP1 PUSH2 0x30B2 JUMP JUMPDEST DUP1 PUSH1 0x1F ADD PUSH1 0x20 DUP1 SWAP2 DIV MUL PUSH1 0x20 ADD PUSH1 0x40 MLOAD SWAP1 DUP2 ADD PUSH1 0x40 MSTORE DUP1 SWAP3 SWAP2 SWAP1 DUP2 DUP2 MSTORE PUSH1 0x20 ADD DUP3 DUP1 SLOAD PUSH2 0x578 SWAP1 PUSH2 0x30B2 JUMP JUMPDEST DUP1 ISZERO PUSH2 0x5C5 JUMPI DUP1 PUSH1 0x1F LT PUSH2 0x59A JUMPI PUSH2 0x100 DUP1 DUP4 SLOAD DIV MUL DUP4 MSTORE SWAP2 PUSH1 0x20 ADD SWAP2 PUSH2 0x5C5 JUMP JUMPDEST DUP3 ADD SWAP2 SWAP1 PUSH1 0x0 MSTORE PUSH1 0x20 PUSH1 0x0 KECCAK256 SWAP1 JUMPDEST DUP2 SLOAD DUP2 MSTORE SWAP1 PUSH1 0x1 ADD SWAP1 PUSH1 0x20 ADD DUP1 DUP4 GT PUSH2 0x5A8 JUMPI DUP3 SWAP1 SUB PUSH1 0x1F AND DUP3 ADD SWAP2 JUMPDEST POP POP POP POP POP SWAP1 DUP1 PUSH1 0x3 ADD DUP1 SLOAD PUSH2 0x5DA SWAP1 PUSH2 0x30B2 JUMP JUMPDEST DUP1 PUSH1 0x1F ADD PUSH1 0x20 DUP1 SWAP2 DIV MUL PUSH1 0x20 ADD PUSH1 0x40 MLOAD SWAP1 DUP2 ADD PUSH1 0x40 MSTORE DUP1 SWAP3 SWAP2 SWAP1 DUP2 DUP2 MSTORE PUSH1 0x20 ADD DUP3 DUP1 SLOAD PUSH2 0x606 SWAP1 PUSH2 0x30B2 JUMP JUMPDEST DUP1 ISZERO PUSH2 0x653 JUMPI DUP1 PUSH1 0x1F LT PUSH2 0x628 JUMPI PUSH2 0x100 DUP1 DUP4 SLOAD DIV MUL DUP4 MSTORE SWAP2 PUSH1 0x20 ADD SWAP2 PUSH2 0x653 JUMP JUMPDEST DUP3 ADD SWAP2 SWAP1 PUSH1 0x0 MSTORE PUSH1 0x20 PUSH1 0x0 KECCAK256 SWAP1 JUMPDEST DUP2 SLOAD DUP2 MSTORE SWAP1 PUSH1 0x1 ADD SWAP1 PUSH1 0x20 ADD DUP1 DUP4 GT PUSH2 0x636 JUMPI DUP3 SWAP1 SUB PUSH1 0x1F AND DUP3 ADD SWAP2 JUMPDEST POP POP POP POP POP SWAP1 DUP1 PUSH1 0x4 ADD DUP1 SLOAD PUSH2 0x668 SWAP1 PUSH2 0x30B2 JUMP JUMPDEST DUP1 PUSH1 0x1F ADD PUSH1 0x20 DUP1 SWAP2 DIV MUL PUSH1 0x20 ADD PUSH1 0x40 MLOAD SWAP1 DUP2 ADD PUSH1 0x40 MSTORE DUP1 SWAP3 SWAP2 SWAP1 DUP2 DUP2 MSTORE PUSH1 0x20 ADD DUP3 DUP1 SLOAD PUSH2 0x694 SWAP1 PUSH2 0x30B2 JUMP JUMPDEST DUP1 ISZERO PUSH2 0x6E1 JUMPI DUP1 PUSH1 0x1F LT PUSH2 0x6B6 JUMPI PUSH2 0x100 DUP1 DUP4 SLOAD DIV MUL DUP4 MSTORE SWAP2 PUSH1 0x20 ADD SWAP2 PUSH2 0x6E1 JUMP JUMPDEST DUP3 ADD SWAP2 SWAP1 PUSH1 0x0 MSTORE PUSH1 0x20 PUSH1 0x0 KECCAK256 SWAP1 JUMPDEST DUP2 SLOAD DUP2 MSTORE SWAP1 PUSH1 0x1 ADD SWAP1 PUSH1 0x20 ADD DUP1 DUP4 GT PUSH2 0x6C4 JUMPI DUP3 SWAP1 SUB PUSH1 0x1F AND DUP3 ADD SWAP2 JUMPDEST POP POP POP POP POP SWAP1 POP DUP6 JUMP JUMPDEST PUSH1 0x5A DUP2 PUSH1 0x4 DUP2 LT PUSH2 0x6FB JUMPI PUSH1 0x0 DUP1 REVERT JUMPDEST PUSH1 0x5 MUL ADD PUSH1 0x0 SWAP2 POP SWAP1 POP DUP1 PUSH1 0x0 ADD SLOAD SWAP1 DUP1 PUSH1 0x1 ADD DUP1 SLOAD PUSH2 0x71A SWAP1 PUSH2 0x30B2 JUMP JUMPDEST DUP1 PUSH1 0x1F ADD PUSH1 0x20 DUP1 SWAP2 DIV MUL PUSH1 0x20 ADD PUSH1 0x40 MLOAD SWAP1 DUP2 ADD PUSH1 0x40 MSTORE DUP1 SWAP3 SWAP2 SWAP1 DUP2 DUP2 MSTORE PUSH1 0x20 ADD DUP3 DUP1 SLOAD PUSH2 0x746 SWAP1 PUSH2 0x30B2 JUMP JUMPDEST DUP1 ISZERO PUSH2 0x793 JUMPI DUP1 PUSH1 0x1F LT PUSH2 0x768 JUMPI PUSH2 0x100 DUP1 DUP4 SLOAD DIV MUL DUP4 MSTORE SWAP2 PUSH1 0x20 ADD SWAP2 PUSH2 0x793 JUMP JUMPDEST DUP3 ADD SWAP2 SWAP1 PUSH1 0x0 MSTORE PUSH1 0x20 PUSH1 0x0 KECCAK256 SWAP1 JUMPDEST DUP2 SLOAD DUP2 MSTORE SWAP1 PUSH1 0x1 ADD SWAP1 PUSH1 0x20 ADD DUP1 DUP4 GT PUSH2 0x776 JUMPI DUP3 SWAP1 SUB PUSH1 0x1F AND DUP3 ADD SWAP2 JUMPDEST POP POP POP POP POP SWAP1 DUP1 PUSH1 0x2 ADD DUP1 SLOAD PUSH2 0x7A8 SWAP1 PUSH2 0x30B2 JUMP JUMPDEST DUP1 PUSH1 0x1F ADD PUSH1 0x20 DUP1 SWAP2 DIV MUL PUSH1 0x20 ADD PUSH1 0x40 MLOAD SWAP1 DUP2 ADD PUSH1 0x40 MSTORE DUP1 SWAP3 SWAP2 SWAP1 DUP2 DUP2 MSTORE PUSH1 0x20 ADD DUP3 DUP1 SLOAD PUSH2 0x7D4 SWAP1 PUSH2 0x30B2 JUMP JUMPDEST DUP1 ISZERO PUSH2 0x821 JUMPI DUP1 PUSH1 0x1F LT PUSH2 0x7F6 JUMPI PUSH2 0x100 DUP1 DUP4 SLOAD DIV MUL DUP4 MSTORE SWAP2 PUSH1 0x20 ADD SWAP2 PUSH2 0x821 JUMP JUMPDEST DUP3 ADD SWAP2 SWAP1 PUSH1 0x0 MSTORE PUSH1 0x20 PUSH1 0x0 KECCAK256 SWAP1 JUMPDEST DUP2 SLOAD DUP2 MSTORE SWAP1 PUSH1 0x1 ADD SWAP1 PUSH1 0x20 ADD DUP1 DUP4 GT PUSH2 0x804 JUMPI DUP3 SWAP1 SUB PUSH1 0x1F AND DUP3 ADD SWAP2 JUMPDEST POP POP POP POP POP SWAP1 DUP1 PUSH1 0x3 ADD DUP1 SLOAD PUSH2 0x836 SWAP1 PUSH2 0x30B2 JUMP JUMPDEST DUP1 PUSH1 0x1F ADD PUSH1 0x20 DUP1 SWAP2 DIV MUL PUSH1 0x20 ADD PUSH1 0x40 MLOAD SWAP1 DUP2 ADD PUSH1 0x40 MSTORE DUP1 SWAP3 SWAP2 SWAP1 DUP2 DUP2 MSTORE PUSH1 0x20 ADD DUP3 DUP1 SLOAD PUSH2 0x862 SWAP1 PUSH2 0x30B2 JUMP JUMPDEST DUP1 ISZERO PUSH2 0x8AF JUMPI DUP1 PUSH1 0x1F LT PUSH2 0x884 JUMPI PUSH2 0x100 DUP1 DUP4 SLOAD DIV MUL DUP4 MSTORE SWAP2 PUSH1 0x20 ADD SWAP2 PUSH2 0x8AF JUMP JUMPDEST DUP3 ADD SWAP2 SWAP1 PUSH1 0x0 MSTORE PUSH1 0x20 PUSH1 0x0 KECCAK256 SWAP1 JUMPDEST DUP2 SLOAD DUP2 MSTORE SWAP1 PUSH1 0x1 ADD SWAP1 PUSH1 0x20 ADD DUP1 DUP4 GT PUSH2 0x892 JUMPI DUP3 SWAP1 SUB PUSH1 0x1F AND DUP3 ADD SWAP2 JUMPDEST POP POP POP POP POP SWAP1 DUP1 PUSH1 0x4 ADD DUP1 SLOAD PUSH2 0x8C4 SWAP1 PUSH2 0x30B2 JUMP JUMPDEST DUP1 PUSH1 0x1F ADD PUSH1 0x20 DUP1 SWAP2 DIV MUL PUSH1 0x20 ADD PUSH1 0x40 MLOAD SWAP1 DUP2 ADD PUSH1 0x40 MSTORE DUP1 SWAP3 SWAP2 SWAP1 DUP2 DUP2 MSTORE PUSH1 0x20 ADD DUP3 DUP1 SLOAD PUSH2 0x8F0 SWAP1 PUSH2 0x30B2 JUMP JUMPDEST DUP1 ISZERO PUSH2 0x93D JUMPI DUP1 PUSH1 0x1F LT PUSH2 0x912 JUMPI PUSH2 0x100 DUP1 DUP4 SLOAD DIV MUL DUP4 MSTORE SWAP2 PUSH1 0x20 ADD SWAP2 PUSH2 0x93D JUMP JUMPDEST DUP3 ADD SWAP2 SWAP1 PUSH1 0x0 MSTORE PUSH1 0x20 PUSH1 0x0 KECCAK256 SWAP1 JUMPDEST DUP2 SLOAD DUP2 MSTORE SWAP1 PUSH1 0x1 ADD SWAP1 PUSH1 0x20 ADD DUP1 DUP4 GT PUSH2 0x920 JUMPI DUP3 SWAP1 SUB PUSH1 0x1F AND DUP3 ADD SWAP2 JUMPDEST POP POP POP POP POP SWAP1 POP DUP6 JUMP JUMPDEST PUSH2 0x94F PUSH2 0x265C JUMP JUMPDEST PUSH1 0x0 PUSH1 0xE DUP1 PUSH1 0x20 MUL PUSH1 0x40 MLOAD SWAP1 DUP2 ADD PUSH1 0x40 MSTORE DUP1 SWAP3 SWAP2 SWAP1 PUSH1 0x0 SWAP1 JUMPDEST DUP3 DUP3 LT ISZERO PUSH2 0xBE2 JUMPI DUP4 DUP3 PUSH1 0x5 MUL ADD PUSH1 0x40 MLOAD DUP1 PUSH1 0xA0 ADD PUSH1 0x40 MSTORE SWAP1 DUP2 PUSH1 0x0 DUP3 ADD SLOAD DUP2 MSTORE PUSH1 0x20 ADD PUSH1 0x1 DUP3 ADD DUP1 SLOAD PUSH2 0x99B SWAP1 PUSH2 0x30B2 JUMP JUMPDEST DUP1 PUSH1 0x1F ADD PUSH1 0x20 DUP1 SWAP2 DIV MUL PUSH1 0x20 ADD PUSH1 0x40 MLOAD SWAP1 DUP2 ADD PUSH1 0x40 MSTORE DUP1 SWAP3 SWAP2 SWAP1 DUP2 DUP2 MSTORE PUSH1 0x20 ADD DUP3 DUP1 SLOAD PUSH2 0x9C7 SWAP1 PUSH2 0x30B2 JUMP JUMPDEST DUP1 ISZERO PUSH2 0xA14 JUMPI DUP1 PUSH1 0x1F LT PUSH2 0x9E9 JUMPI PUSH2 0x100 DUP1 DUP4 SLOAD DIV MUL DUP4 MSTORE SWAP2 PUSH1 0x20 ADD SWAP2 PUSH2 0xA14 JUMP JUMPDEST DUP3 ADD SWAP2 SWAP1 PUSH1 0x0 MSTORE PUSH1 0x20 PUSH1 0x0 KECCAK256 SWAP1 JUMPDEST DUP2 SLOAD DUP2 MSTORE SWAP1 PUSH1 0x1 ADD SWAP1 PUSH1 0x20 ADD DUP1 DUP4 GT PUSH2 0x9F7 JUMPI DUP3 SWAP1 SUB PUSH1 0x1F AND DUP3 ADD SWAP2 JUMPDEST POP POP POP POP POP DUP2 MSTORE PUSH1 0x20 ADD PUSH1 0x2 DUP3 ADD DUP1 SLOAD PUSH2 0xA2D SWAP1 PUSH2 0x30B2 JUMP JUMPDEST DUP1 PUSH1 0x1F ADD PUSH1 0x20 DUP1 SWAP2 DIV MUL PUSH1 0x20 ADD PUSH1 0x40 MLOAD SWAP1 DUP2 ADD PUSH1 0x40 MSTORE DUP1 SWAP3 SWAP2 SWAP1 DUP2 DUP2 MSTORE PUSH1 0x20 ADD DUP3 DUP1 SLOAD PUSH2 0xA59 SWAP1 PUSH2 0x30B2 JUMP JUMPDEST DUP1 ISZERO PUSH2 0xAA6 JUMPI DUP1 PUSH1 0x1F LT PUSH2 0xA7B JUMPI PUSH2 0x100 DUP1 DUP4 SLOAD DIV MUL DUP4 MSTORE SWAP2 PUSH1 0x20 ADD SWAP2 PUSH2 0xAA6 JUMP JUMPDEST DUP3 ADD SWAP2 SWAP1 PUSH1 0x0 MSTORE PUSH1 0x20 PUSH1 0x0 KECCAK256 SWAP1 JUMPDEST DUP2 SLOAD DUP2 MSTORE SWAP1 PUSH1 0x1 ADD SWAP1 PUSH1 0x20 ADD DUP1 DUP4 GT PUSH2 0xA89 JUMPI DUP3 SWAP1 SUB PUSH1 0x1F AND DUP3 ADD SWAP2 JUMPDEST POP POP POP POP POP DUP2 MSTORE PUSH1 0x20 ADD PUSH1 0x3 DUP3 ADD DUP1 SLOAD PUSH2 0xABF SWAP1 PUSH2 0x30B2 JUMP JUMPDEST DUP1 PUSH1 0x1F ADD PUSH1 0x20 DUP1 SWAP2 DIV MUL PUSH1 0x20 ADD PUSH1 0x40 MLOAD SWAP1 DUP2 ADD PUSH1 0x40 MSTORE DUP1 SWAP3 SWAP2 SWAP1 DUP2 DUP2 MSTORE PUSH1 0x20 ADD DUP3 DUP1 SLOAD PUSH2 0xAEB SWAP1 PUSH2 0x30B2 JUMP JUMPDEST DUP1 ISZERO PUSH2 0xB38 JUMPI DUP1 PUSH1 0x1F LT PUSH2 0xB0D JUMPI PUSH2 0x100 DUP1 DUP4 SLOAD DIV MUL DUP4 MSTORE SWAP2 PUSH1 0x20 ADD SWAP2 PUSH2 0xB38 JUMP JUMPDEST DUP3 ADD SWAP2 SWAP1 PUSH1 0x0 MSTORE PUSH1 0x20 PUSH1 0x0 KECCAK256 SWAP1 JUMPDEST DUP2 SLOAD DUP2 MSTORE SWAP1 PUSH1 0x1 ADD SWAP1 PUSH1 0x20 ADD DUP1 DUP4 GT PUSH2 0xB1B JUMPI DUP3 SWAP1 SUB PUSH1 0x1F AND DUP3 ADD SWAP2 JUMPDEST POP POP POP POP POP DUP2 MSTORE PUSH1 0x20 ADD PUSH1 0x4 DUP3 ADD DUP1 SLOAD PUSH2 0xB51 SWAP1 PUSH2 0x30B2 JUMP JUMPDEST DUP1 PUSH1 0x1F ADD PUSH1 0x20 DUP1 SWAP2 DIV MUL PUSH1 0x20 ADD PUSH1 0x40 MLOAD SWAP1 DUP2 ADD PUSH1 0x40 MSTORE DUP1 SWAP3 SWAP2 SWAP1 DUP2 DUP2 MSTORE PUSH1 0x20 ADD DUP3 DUP1 SLOAD PUSH2 0xB7D SWAP1 PUSH2 0x30B2 JUMP JUMPDEST DUP1 ISZERO PUSH2 0xBCA JUMPI DUP1 PUSH1 0x1F LT PUSH2 0xB9F JUMPI PUSH2 0x100 DUP1 DUP4 SLOAD DIV MUL DUP4 MSTORE SWAP2 PUSH1 0x20 ADD SWAP2 PUSH2 0xBCA JUMP JUMPDEST DUP3 ADD SWAP2 SWAP1 PUSH1 0x0 MSTORE PUSH1 0x20 PUSH1 0x0 KECCAK256 SWAP1 JUMPDEST DUP2 SLOAD DUP2 MSTORE SWAP1 PUSH1 0x1 ADD SWAP1 PUSH1 0x20 ADD DUP1 DUP4 GT PUSH2 0xBAD JUMPI DUP3 SWAP1 SUB PUSH1 0x1F AND DUP3 ADD SWAP2 JUMPDEST POP POP POP POP POP DUP2 MSTORE POP POP DUP2 MSTORE PUSH1 0x20 ADD SWAP1 PUSH1 0x1 ADD SWAP1 PUSH2 0x968 JUMP JUMPDEST POP POP POP POP SWAP1 POP SWAP1 JUMP JUMPDEST PUSH2 0xBF3 PUSH2 0x268A JUMP JUMPDEST PUSH1 0x5A PUSH1 0x4 DUP1 PUSH1 0x20 MUL PUSH1 0x40 MLOAD SWAP1 DUP2 ADD PUSH1 0x40 MSTORE DUP1 SWAP3 SWAP2 SWAP1 PUSH1 0x0 SWAP1 JUMPDEST DUP3 DUP3 LT ISZERO PUSH2 0xE86 JUMPI DUP4 DUP3 PUSH1 0x5 MUL ADD PUSH1 0x40 MLOAD DUP1 PUSH1 0xA0 ADD PUSH1 0x40 MSTORE SWAP1 DUP2 PUSH1 0x0 DUP3 ADD SLOAD DUP2 MSTORE PUSH1 0x20 ADD PUSH1 0x1 DUP3 ADD DUP1 SLOAD PUSH2 0xC3F SWAP1 PUSH2 0x30B2 JUMP JUMPDEST DUP1 PUSH1 0x1F ADD PUSH1 0x20 DUP1 SWAP2 DIV MUL PUSH1 0x20 ADD PUSH1 0x40 MLOAD SWAP1 DUP2 ADD PUSH1 0x40 MSTORE DUP1 SWAP3 SWAP2 SWAP1 DUP2 DUP2 MSTORE PUSH1 0x20 ADD DUP3 DUP1 SLOAD PUSH2 0xC6B SWAP1 PUSH2 0x30B2 JUMP JUMPDEST DUP1 ISZERO PUSH2 0xCB8 JUMPI DUP1 PUSH1 0x1F LT PUSH2 0xC8D JUMPI PUSH2 0x100 DUP1 DUP4 SLOAD DIV MUL DUP4 MSTORE SWAP2 PUSH1 0x20 ADD SWAP2 PUSH2 0xCB8 JUMP JUMPDEST DUP3 ADD SWAP2 SWAP1 PUSH1 0x0 MSTORE PUSH1 0x20 PUSH1 0x0 KECCAK256 SWAP1 JUMPDEST DUP2 SLOAD DUP2 MSTORE SWAP1 PUSH1 0x1 ADD SWAP1 PUSH1 0x20 ADD DUP1 DUP4 GT PUSH2 0xC9B JUMPI DUP3 SWAP1 SUB PUSH1 0x1F AND DUP3 ADD SWAP2 JUMPDEST POP POP POP POP POP DUP2 MSTORE PUSH1 0x20 ADD PUSH1 0x2 DUP3 ADD DUP1 SLOAD PUSH2 0xCD1 SWAP1 PUSH2 0x30B2 JUMP JUMPDEST DUP1 PUSH1 0x1F ADD PUSH1 0x20 DUP1 SWAP2 DIV MUL PUSH1 0x20 ADD PUSH1 0x40 MLOAD SWAP1 DUP2 ADD PUSH1 0x40 MSTORE DUP1 SWAP3 SWAP2 SWAP1 DUP2 DUP2 MSTORE PUSH1 0x20 ADD DUP3 DUP1 SLOAD PUSH2 0xCFD SWAP1 PUSH2 0x30B2 JUMP JUMPDEST DUP1 ISZERO PUSH2 0xD4A JUMPI DUP1 PUSH1 0x1F LT PUSH2 0xD1F JUMPI PUSH2 0x100 DUP1 DUP4 SLOAD DIV MUL DUP4 MSTORE SWAP2 PUSH1 0x20 ADD SWAP2 PUSH2 0xD4A JUMP JUMPDEST DUP3 ADD SWAP2 SWAP1 PUSH1 0x0 MSTORE PUSH1 0x20 PUSH1 0x0 KECCAK256 SWAP1 JUMPDEST DUP2 SLOAD DUP2 MSTORE SWAP1 PUSH1 0x1 ADD SWAP1 PUSH1 0x20 ADD DUP1 DUP4 GT PUSH2 0xD2D JUMPI DUP3 SWAP1 SUB PUSH1 0x1F AND DUP3 ADD SWAP2 JUMPDEST POP POP POP POP POP DUP2 MSTORE PUSH1 0x20 ADD PUSH1 0x3 DUP3 ADD DUP1 SLOAD PUSH2 0xD63 SWAP1 PUSH2 0x30B2 JUMP JUMPDEST DUP1 PUSH1 0x1F ADD PUSH1 0x20 DUP1 SWAP2 DIV MUL PUSH1 0x20 ADD PUSH1 0x40 MLOAD SWAP1 DUP2 ADD PUSH1 0x40 MSTORE DUP1 SWAP3 SWAP2 SWAP1 DUP2 DUP2 MSTORE PUSH1 0x20 ADD DUP3 DUP1 SLOAD PUSH2 0xD8F SWAP1 PUSH2 0x30B2 JUMP JUMPDEST DUP1 ISZERO PUSH2 0xDDC JUMPI DUP1 PUSH1 0x1F LT PUSH2 0xDB1 JUMPI PUSH2 0x100 DUP1 DUP4 SLOAD DIV MUL DUP4 MSTORE SWAP2 PUSH1 0x20 ADD SWAP2 PUSH2 0xDDC JUMP JUMPDEST DUP3 ADD SWAP2 SWAP1 PUSH1 0x0 MSTORE PUSH1 0x20 PUSH1 0x0 KECCAK256 SWAP1 JUMPDEST DUP2 SLOAD DUP2 MSTORE SWAP1 PUSH1 0x1 ADD SWAP1 PUSH1 0x20 ADD DUP1 DUP4 GT PUSH2 0xDBF JUMPI DUP3 SWAP1 SUB PUSH1 0x1F AND DUP3 ADD SWAP2 JUMPDEST POP POP POP POP POP DUP2 MSTORE PUSH1 0x20 ADD PUSH1 0x4 DUP3 ADD DUP1 SLOAD PUSH2 0xDF5 SWAP1 PUSH2 0x30B2 JUMP JUMPDEST DUP1 PUSH1 0x1F ADD PUSH1 0x20 DUP1 SWAP2 DIV MUL PUSH1 0x20 ADD PUSH1 0x40 MLOAD SWAP1 DUP2 ADD PUSH1 0x40 MSTORE DUP1 SWAP3 SWAP2 SWAP1 DUP2 DUP2 MSTORE PUSH1 0x20 ADD DUP3 DUP1 SLOAD PUSH2 0xE21 SWAP1 PUSH2 0x30B2 JUMP JUMPDEST DUP1 ISZERO PUSH2 0xE6E JUMPI DUP1 PUSH1 0x1F LT PUSH2 0xE43 JUMPI PUSH2 0x100 DUP1 DUP4 SLOAD DIV MUL DUP4 MSTORE SWAP2 PUSH1 0x20 ADD SWAP2 PUSH2 0xE6E JUMP JUMPDEST DUP3 ADD SWAP2 SWAP1 PUSH1 0x0 MSTORE PUSH1 0x20 PUSH1 0x0 KECCAK256 SWAP1 JUMPDEST DUP2 SLOAD DUP2 MSTORE SWAP1 PUSH1 0x1 ADD SWAP1 PUSH1 0x20 ADD DUP1 DUP4 GT PUSH2 0xE51 JUMPI DUP3 SWAP1 SUB PUSH1 0x1F AND DUP3 ADD SWAP2 JUMPDEST POP POP POP POP POP DUP2 MSTORE POP POP DUP2 MSTORE PUSH1 0x20 ADD SWAP1 PUSH1 0x1 ADD SWAP1 PUSH2 0xC0C JUMP JUMPDEST POP POP POP POP SWAP1 POP SWAP1 JUMP JUMPDEST PUSH2 0xE97 PUSH2 0x26B7 JUMP JUMPDEST PUSH1 0x46 PUSH1 0x4 DUP1 PUSH1 0x20 MUL PUSH1 0x40 MLOAD SWAP1 DUP2 ADD PUSH1 0x40 MSTORE DUP1 SWAP3 SWAP2 SWAP1 PUSH1 0x0 SWAP1 JUMPDEST DUP3 DUP3 LT ISZERO PUSH2 0x112A JUMPI DUP4 DUP3 PUSH1 0x5 MUL ADD PUSH1 0x40 MLOAD DUP1 PUSH1 0xA0 ADD PUSH1 0x40 MSTORE SWAP1 DUP2 PUSH1 0x0 DUP3 ADD SLOAD DUP2 MSTORE PUSH1 0x20 ADD PUSH1 0x1 DUP3 ADD DUP1 SLOAD PUSH2 0xEE3 SWAP1 PUSH2 0x30B2 JUMP JUMPDEST DUP1 PUSH1 0x1F ADD PUSH1 0x20 DUP1 SWAP2 DIV MUL PUSH1 0x20 ADD PUSH1 0x40 MLOAD SWAP1 DUP2 ADD PUSH1 0x40 MSTORE DUP1 SWAP3 SWAP2 SWAP1 DUP2 DUP2 MSTORE PUSH1 0x20 ADD DUP3 DUP1 SLOAD PUSH2 0xF0F SWAP1 PUSH2 0x30B2 JUMP JUMPDEST DUP1 ISZERO PUSH2 0xF5C JUMPI DUP1 PUSH1 0x1F LT PUSH2 0xF31 JUMPI PUSH2 0x100 DUP1 DUP4 SLOAD DIV MUL DUP4 MSTORE SWAP2 PUSH1 0x20 ADD SWAP2 PUSH2 0xF5C JUMP JUMPDEST DUP3 ADD SWAP2 SWAP1 PUSH1 0x0 MSTORE PUSH1 0x20 PUSH1 0x0 KECCAK256 SWAP1 JUMPDEST DUP2 SLOAD DUP2 MSTORE SWAP1 PUSH1 0x1 ADD SWAP1 PUSH1 0x20 ADD DUP1 DUP4 GT PUSH2 0xF3F JUMPI DUP3 SWAP1 SUB PUSH1 0x1F AND DUP3 ADD SWAP2 JUMPDEST POP POP POP POP POP DUP2 MSTORE PUSH1 0x20 ADD PUSH1 0x2 DUP3 ADD DUP1 SLOAD PUSH2 0xF75 SWAP1 PUSH2 0x30B2 JUMP JUMPDEST DUP1 PUSH1 0x1F ADD PUSH1 0x20 DUP1 SWAP2 DIV MUL PUSH1 0x20 ADD PUSH1 0x40 MLOAD SWAP1 DUP2 ADD PUSH1 0x40 MSTORE DUP1 SWAP3 SWAP2 SWAP1 DUP2 DUP2 MSTORE PUSH1 0x20 ADD DUP3 DUP1 SLOAD PUSH2 0xFA1 SWAP1 PUSH2 0x30B2 JUMP JUMPDEST DUP1 ISZERO PUSH2 0xFEE JUMPI DUP1 PUSH1 0x1F LT PUSH2 0xFC3 JUMPI PUSH2 0x100 DUP1 DUP4 SLOAD DIV MUL DUP4 MSTORE SWAP2 PUSH1 0x20 ADD SWAP2 PUSH2 0xFEE JUMP JUMPDEST DUP3 ADD SWAP2 SWAP1 PUSH1 0x0 MSTORE PUSH1 0x20 PUSH1 0x0 KECCAK256 SWAP1 JUMPDEST DUP2 SLOAD DUP2 MSTORE SWAP1 PUSH1 0x1 ADD SWAP1 PUSH1 0x20 ADD DUP1 DUP4 GT PUSH2 0xFD1 JUMPI DUP3 SWAP1 SUB PUSH1 0x1F AND DUP3 ADD SWAP2 JUMPDEST POP POP POP POP POP DUP2 MSTORE PUSH1 0x20 ADD PUSH1 0x3 DUP3 ADD DUP1 SLOAD PUSH2 0x1007 SWAP1 PUSH2 0x30B2 JUMP JUMPDEST DUP1 PUSH1 0x1F ADD PUSH1 0x20 DUP1 SWAP2 DIV MUL PUSH1 0x20 ADD PUSH1 0x40 MLOAD SWAP1 DUP2 ADD PUSH1 0x40 MSTORE DUP1 SWAP3 SWAP2 SWAP1 DUP2 DUP2 MSTORE PUSH1 0x20 ADD DUP3 DUP1 SLOAD PUSH2 0x1033 SWAP1 PUSH2 0x30B2 JUMP JUMPDEST DUP1 ISZERO PUSH2 0x1080 JUMPI DUP1 PUSH1 0x1F LT PUSH2 0x1055 JUMPI PUSH2 0x100 DUP1 DUP4 SLOAD DIV MUL DUP4 MSTORE SWAP2 PUSH1 0x20 ADD SWAP2 PUSH2 0x1080 JUMP JUMPDEST DUP3 ADD SWAP2 SWAP1 PUSH1 0x0 MSTORE PUSH1 0x20 PUSH1 0x0 KECCAK256 SWAP1 JUMPDEST DUP2 SLOAD DUP2 MSTORE SWAP1 PUSH1 0x1 ADD SWAP1 PUSH1 0x20 ADD DUP1 DUP4 GT PUSH2 0x1063 JUMPI DUP3 SWAP1 SUB PUSH1 0x1F AND DUP3 ADD SWAP2 JUMPDEST POP POP POP POP POP DUP2 MSTORE PUSH1 0x20 ADD PUSH1 0x4 DUP3 ADD DUP1 SLOAD PUSH2 0x1099 SWAP1 PUSH2 0x30B2 JUMP JUMPDEST DUP1 PUSH1 0x1F ADD PUSH1 0x20 DUP1 SWAP2 DIV MUL PUSH1 0x20 ADD PUSH1 0x40 MLOAD SWAP1 DUP2 ADD PUSH1 0x40 MSTORE DUP1 SWAP3 SWAP2 SWAP1 DUP2 DUP2 MSTORE PUSH1 0x20 ADD DUP3 DUP1 SLOAD PUSH2 0x10C5 SWAP1 PUSH2 0x30B2 JUMP JUMPDEST DUP1 ISZERO PUSH2 0x1112 JUMPI DUP1 PUSH1 0x1F LT PUSH2 0x10E7 JUMPI PUSH2 0x100 DUP1 DUP4 SLOAD DIV MUL DUP4 MSTORE SWAP2 PUSH1 0x20 ADD SWAP2 PUSH2 0x1112 JUMP JUMPDEST DUP3 ADD SWAP2 SWAP1 PUSH1 0x0 MSTORE PUSH1 0x20 PUSH1 0x0 KECCAK256 SWAP1 JUMPDEST DUP2 SLOAD DUP2 MSTORE SWAP1 PUSH1 0x1 ADD SWAP1 PUSH1 0x20 ADD DUP1 DUP4 GT PUSH2 0x10F5 JUMPI DUP3 SWAP1 SUB PUSH1 0x1F AND DUP3 ADD SWAP2 JUMPDEST POP POP POP POP POP DUP2 MSTORE POP POP DUP2 MSTORE PUSH1 0x20 ADD SWAP1 PUSH1 0x1 ADD SWAP1 PUSH2 0xEB0 JUMP JUMPDEST POP POP POP POP SWAP1 POP SWAP1 JUMP JUMPDEST CALLER PUSH20 0xFFFFFFFFFFFFFFFFFFFFFFFFFFFFFFFFFFFFFFFF AND PUSH1 0x74 PUSH1 0x0 SWAP1 SLOAD SWAP1 PUSH2 0x100 EXP SWAP1 DIV PUSH20 0xFFFFFFFFFFFFFFFFFFFFFFFFFFFFFFFFFFFFFFFF AND PUSH20 0xFFFFFFFFFFFFFFFFFFFFFFFFFFFFFFFFFFFFFFFF AND EQ PUSH2 0x11C3 JUMPI PUSH1 0x40 MLOAD PUSH32 0x8C379A000000000000000000000000000000000000000000000000000000000 DUP2 MSTORE PUSH1 0x4 ADD PUSH2 0x11BA SWAP1 PUSH2 0x312F JUMP JUMPDEST PUSH1 0x40 MLOAD DUP1 SWAP2 SUB SWAP1 REVERT JUMPDEST DUP2 DUP2 PUSH1 0x6E SWAP2 DUP3 PUSH2 0x11D4 SWAP3 SWAP2 SWAP1 PUSH2 0x3335 JUMP JUMPDEST POP POP POP JUMP JUMPDEST CALLER PUSH20 0xFFFFFFFFFFFFFFFFFFFFFFFFFFFFFFFFFFFFFFFF AND PUSH1 0x74 PUSH1 0x0 SWAP1 SLOAD SWAP1 PUSH2 0x100 EXP SWAP1 DIV PUSH20 0xFFFFFFFFFFFFFFFFFFFFFFFFFFFFFFFFFFFFFFFF AND PUSH20 0xFFFFFFFFFFFFFFFFFFFFFFFFFFFFFFFFFFFFFFFF AND EQ PUSH2 0x1269 JUMPI PUSH1 0x40 MLOAD PUSH32 0x8C379A000000000000000000000000000000000000000000000000000000000 DUP2 MSTORE PUSH1 0x4 ADD PUSH2 0x1260 SWAP1 PUSH2 0x312F JUMP JUMPDEST PUSH1 0x40 MLOAD DUP1 SWAP2 SUB SWAP1 REVERT JUMPDEST PUSH1 0x0 DUP2 LT ISZERO DUP1 ISZERO PUSH2 0x127A JUMPI POP PUSH1 0x4 DUP2 LT JUMPDEST PUSH2 0x12B9 JUMPI PUSH1 0x40 MLOAD PUSH32 0x8C379A000000000000000000000000000000000000000000000000000000000 DUP2 MSTORE PUSH1 0x4 ADD PUSH2 0x12B0 SWAP1 PUSH2 0x3451 JUMP JUMPDEST PUSH1 0x40 MLOAD DUP1 SWAP2 SUB SWAP1 REVERT JUMPDEST PUSH1 0x40 MLOAD DUP1 PUSH1 0xA0 ADD PUSH1 0x40 MSTORE DUP1 DUP3 DUP2 MSTORE PUSH1 0x20 ADD DUP11 DUP11 DUP1 DUP1 PUSH1 0x1F ADD PUSH1 0x20 DUP1 SWAP2 DIV MUL PUSH1 0x20 ADD PUSH1 0x40 MLOAD SWAP1 DUP2 ADD PUSH1 0x40 MSTORE DUP1 SWAP4 SWAP3 SWAP2 SWAP1 DUP2 DUP2 MSTORE PUSH1 0x20 ADD DUP4 DUP4 DUP1 DUP3 DUP5 CALLDATACOPY PUSH1 0x0 DUP2 DUP5 ADD MSTORE PUSH1 0x1F NOT PUSH1 0x1F DUP3 ADD AND SWAP1 POP DUP1 DUP4 ADD SWAP3 POP POP POP POP POP POP POP DUP2 MSTORE PUSH1 0x20 ADD DUP9 DUP9 DUP1 DUP1 PUSH1 0x1F ADD PUSH1 0x20 DUP1 SWAP2 DIV MUL PUSH1 0x20 ADD PUSH1 0x40 MLOAD SWAP1 DUP2 ADD PUSH1 0x40 MSTORE DUP1 SWAP4 SWAP3 SWAP2 SWAP1 DUP2 DUP2 MSTORE PUSH1 0x20 ADD DUP4 DUP4 DUP1 DUP3 DUP5 CALLDATACOPY PUSH1 0x0 DUP2 DUP5 ADD MSTORE PUSH1 0x1F NOT PUSH1 0x1F DUP3 ADD AND SWAP1 POP DUP1 DUP4 ADD SWAP3 POP POP POP POP POP POP POP DUP2 MSTORE PUSH1 0x20 ADD DUP7 DUP7 DUP1 DUP1 PUSH1 0x1F ADD PUSH1 0x20 DUP1 SWAP2 DIV MUL PUSH1 0x20 ADD PUSH1 0x40 MLOAD SWAP1 DUP2 ADD PUSH1 0x40 MSTORE DUP1 SWAP4 SWAP3 SWAP2 SWAP1 DUP2 DUP2 MSTORE PUSH1 0x20 ADD DUP4 DUP4 DUP1 DUP3 DUP5 CALLDATACOPY PUSH1 0x0 DUP2 DUP5 ADD MSTORE PUSH1 0x1F NOT PUSH1 0x1F DUP3 ADD AND SWAP1 POP DUP1 DUP4 ADD SWAP3 POP POP POP POP POP POP POP DUP2 MSTORE PUSH1 0x20 ADD DUP5 DUP5 DUP1 DUP1 PUSH1 0x1F ADD PUSH1 0x20 DUP1 SWAP2 DIV MUL PUSH1 0x20 ADD PUSH1 0x40 MLOAD SWAP1 DUP2 ADD PUSH1 0x40 MSTORE DUP1 SWAP4 SWAP3 SWAP2 SWAP1 DUP2 DUP2 MSTORE PUSH1 0x20 ADD DUP4 DUP4 DUP1 DUP3 DUP5 CALLDATACOPY PUSH1 0x0 DUP2 DUP5 ADD MSTORE PUSH1 0x1F NOT PUSH1 0x1F DUP3 ADD AND SWAP1 POP DUP1 DUP4 ADD SWAP3 POP POP POP POP POP POP POP DUP2 MSTORE POP PUSH1 0x46 DUP3 PUSH1 0x4 DUP2 LT PUSH2 0x1404 JUMPI PUSH2 0x1403 PUSH2 0x3471 JUMP JUMPDEST JUMPDEST PUSH1 0x5 MUL ADD PUSH1 0x0 DUP3 ADD MLOAD DUP2 PUSH1 0x0 ADD SSTORE PUSH1 0x20 DUP3 ADD MLOAD DUP2 PUSH1 0x1 ADD SWAP1 DUP2 PUSH2 0x1427 SWAP2 SWAP1 PUSH2 0x34A0 JUMP JUMPDEST POP PUSH1 0x40 DUP3 ADD MLOAD DUP2 PUSH1 0x2 ADD SWAP1 DUP2 PUSH2 0x143D SWAP2 SWAP1 PUSH2 0x34A0 JUMP JUMPDEST POP PUSH1 0x60 DUP3 ADD MLOAD DUP2 PUSH1 0x3 ADD SWAP1 DUP2 PUSH2 0x1453 SWAP2 SWAP1 PUSH2 0x34A0 JUMP JUMPDEST POP PUSH1 0x80 DUP3 ADD MLOAD DUP2 PUSH1 0x4 ADD SWAP1 DUP2 PUSH2 0x1469 SWAP2 SWAP1 PUSH2 0x34A0 JUMP JUMPDEST POP SWAP1 POP POP POP POP POP POP POP POP POP POP POP JUMP JUMPDEST PUSH1 0x70 DUP1 SLOAD PUSH2 0x1485 SWAP1 PUSH2 0x30B2 JUMP JUMPDEST DUP1 PUSH1 0x1F ADD PUSH1 0x20 DUP1 SWAP2 DIV MUL PUSH1 0x20 ADD PUSH1 0x40 MLOAD SWAP1 DUP2 ADD PUSH1 0x40 MSTORE DUP1 SWAP3 SWAP2 SWAP1 DUP2 DUP2 MSTORE PUSH1 0x20 ADD DUP3 DUP1 SLOAD PUSH2 0x14B1 SWAP1 PUSH2 0x30B2 JUMP JUMPDEST DUP1 ISZERO PUSH2 0x14FE JUMPI DUP1 PUSH1 0x1F LT PUSH2 0x14D3 JUMPI PUSH2 0x100 DUP1 DUP4 SLOAD DIV MUL DUP4 MSTORE SWAP2 PUSH1 0x20 ADD SWAP2 PUSH2 0x14FE JUMP JUMPDEST DUP3 ADD SWAP2 SWAP1 PUSH1 0x0 MSTORE PUSH1 0x20 PUSH1 0x0 KECCAK256 SWAP1 JUMPDEST DUP2 SLOAD DUP2 MSTORE SWAP1 PUSH1 0x1 ADD SWAP1 PUSH1 0x20 ADD DUP1 DUP4 GT PUSH2 0x14E1 JUMPI DUP3 SWAP1 SUB PUSH1 0x1F AND DUP3 ADD SWAP2 JUMPDEST POP POP POP POP POP DUP2 JUMP JUMPDEST CALLER PUSH20 0xFFFFFFFFFFFFFFFFFFFFFFFFFFFFFFFFFFFFFFFF AND PUSH1 0x74 PUSH1 0x0 SWAP1 SLOAD SWAP1 PUSH2 0x100 EXP SWAP1 DIV PUSH20 0xFFFFFFFFFFFFFFFFFFFFFFFFFFFFFFFFFFFFFFFF AND PUSH20 0xFFFFFFFFFFFFFFFFFFFFFFFFFFFFFFFFFFFFFFFF AND EQ PUSH2 0x1596 JUMPI PUSH1 0x40 MLOAD PUSH32 0x8C379A000000000000000000000000000000000000000000000000000000000 DUP2 MSTORE PUSH1 0x4 ADD PUSH2 0x158D SWAP1 PUSH2 0x312F JUMP JUMPDEST PUSH1 0x40 MLOAD DUP1 SWAP2 SUB SWAP1 REVERT JUMPDEST PUSH1 0x3 PUSH1 0x73 SLOAD LT PUSH2 0x15DB JUMPI PUSH1 0x40 MLOAD PUSH32 0x8C379A000000000000000000000000000000000000000000000000000000000 DUP2 MSTORE PUSH1 0x4 ADD PUSH2 0x15D2 SWAP1 PUSH2 0x35BE JUMP JUMPDEST PUSH1 0x40 MLOAD DUP1 SWAP2 SUB SWAP1 REVERT JUMPDEST PUSH1 0x40 MLOAD DUP1 PUSH1 0xA0 ADD PUSH1 0x40 MSTORE DUP1 PUSH1 0x73 SLOAD DUP2 MSTORE PUSH1 0x20 ADD DUP10 DUP10 DUP1 DUP1 PUSH1 0x1F ADD PUSH1 0x20 DUP1 SWAP2 DIV MUL PUSH1 0x20 ADD PUSH1 0x40 MLOAD SWAP1 DUP2 ADD PUSH1 0x40 MSTORE DUP1 SWAP4 SWAP3 SWAP2 SWAP1 DUP2 DUP2 MSTORE PUSH1 0x20 ADD DUP4 DUP4 DUP1 DUP3 DUP5 CALLDATACOPY PUSH1 0x0 DUP2 DUP5 ADD MSTORE PUSH1 0x1F NOT PUSH1 0x1F DUP3 ADD AND SWAP1 POP DUP1 DUP4 ADD SWAP3 POP POP POP POP POP POP POP DUP2 MSTORE PUSH1 0x20 ADD DUP8 DUP8 DUP1 DUP1 PUSH1 0x1F ADD PUSH1 0x20 DUP1 SWAP2 DIV MUL PUSH1 0x20 ADD PUSH1 0x40 MLOAD SWAP1 DUP2 ADD PUSH1 0x40 MSTORE DUP1 SWAP4 SWAP3 SWAP2 SWAP1 DUP2 DUP2 MSTORE PUSH1 0x20 ADD DUP4 DUP4 DUP1 DUP3 DUP5 CALLDATACOPY PUSH1 0x0 DUP2 DUP5 ADD MSTORE PUSH1 0x1F NOT PUSH1 0x1F DUP3 ADD AND SWAP1 POP DUP1 DUP4 ADD SWAP3 POP POP POP POP POP POP POP DUP2 MSTORE PUSH1 0x20 ADD DUP6 DUP6 DUP1 DUP1 PUSH1 0x1F ADD PUSH1 0x20 DUP1 SWAP2 DIV MUL PUSH1 0x20 ADD PUSH1 0x40 MLOAD SWAP1 DUP2 ADD PUSH1 0x40 MSTORE DUP1 SWAP4 SWAP3 SWAP2 SWAP1 DUP2 DUP2 MSTORE PUSH1 0x20 ADD DUP4 DUP4 DUP1 DUP3 DUP5 CALLDATACOPY PUSH1 0x0 DUP2 DUP5 ADD MSTORE PUSH1 0x1F NOT PUSH1 0x1F DUP3 ADD AND SWAP1 POP DUP1 DUP4 ADD SWAP3 POP POP POP POP POP POP POP DUP2 MSTORE PUSH1 0x20 ADD DUP4 DUP4 DUP1 DUP1 PUSH1 0x1F ADD PUSH1 0x20 DUP1 SWAP2 DIV MUL PUSH1 0x20 ADD PUSH1 0x40 MLOAD SWAP1 DUP2 ADD PUSH1 0x40 MSTORE DUP1 SWAP4 SWAP3 SWAP2 SWAP1 DUP2 DUP2 MSTORE PUSH1 0x20 ADD DUP4 DUP4 DUP1 DUP3 DUP5 CALLDATACOPY PUSH1 0x0 DUP2 DUP5 ADD MSTORE PUSH1 0x1F NOT PUSH1 0x1F DUP3 ADD AND SWAP1 POP DUP1 DUP4 ADD SWAP3 POP POP POP POP POP POP POP DUP2 MSTORE POP PUSH1 0x5A PUSH1 0x73 SLOAD PUSH1 0x4 DUP2 LT PUSH2 0x172A JUMPI PUSH2 0x1729 PUSH2 0x3471 JUMP JUMPDEST JUMPDEST PUSH1 0x5 MUL ADD PUSH1 0x0 DUP3 ADD MLOAD DUP2 PUSH1 0x0 ADD SSTORE PUSH1 0x20 DUP3 ADD MLOAD DUP2 PUSH1 0x1 ADD SWAP1 DUP2 PUSH2 0x174D SWAP2 SWAP1 PUSH2 0x34A0 JUMP JUMPDEST POP PUSH1 0x40 DUP3 ADD MLOAD DUP2 PUSH1 0x2 ADD SWAP1 DUP2 PUSH2 0x1763 SWAP2 SWAP1 PUSH2 0x34A0 JUMP JUMPDEST POP PUSH1 0x60 DUP3 ADD MLOAD DUP2 PUSH1 0x3 ADD SWAP1 DUP2 PUSH2 0x1779 SWAP2 SWAP1 PUSH2 0x34A0 JUMP JUMPDEST POP PUSH1 0x80 DUP3 ADD MLOAD DUP2 PUSH1 0x4 ADD SWAP1 DUP2 PUSH2 0x178F SWAP2 SWAP1 PUSH2 0x34A0 JUMP JUMPDEST POP SWAP1 POP POP PUSH1 0x73 PUSH1 0x0 DUP2 SLOAD DUP1 SWAP3 SWAP2 SWAP1 PUSH2 0x17A6 SWAP1 PUSH2 0x360D JUMP JUMPDEST SWAP2 SWAP1 POP SSTORE POP POP POP POP POP POP POP POP POP JUMP JUMPDEST PUSH1 0xE PUSH1 0x71 SLOAD LT PUSH2 0x17FA JUMPI PUSH1 0x40 MLOAD PUSH32 0x8C379A000000000000000000000000000000000000000000000000000000000 DUP2 MSTORE PUSH1 0x4 ADD PUSH2 0x17F1 SWAP1 PUSH2 0x36A1 JUMP JUMPDEST PUSH1 0x40 MLOAD DUP1 SWAP2 SUB SWAP1 REVERT JUMPDEST PUSH1 0x40 MLOAD DUP1 PUSH1 0xA0 ADD PUSH1 0x40 MSTORE DUP1 PUSH1 0x71 SLOAD DUP2 MSTORE PUSH1 0x20 ADD DUP10 DUP10 DUP1 DUP1 PUSH1 0x1F ADD PUSH1 0x20 DUP1 SWAP2 DIV MUL PUSH1 0x20 ADD PUSH1 0x40 MLOAD SWAP1 DUP2 ADD PUSH1 0x40 MSTORE DUP1 SWAP4 SWAP3 SWAP2 SWAP1 DUP2 DUP2 MSTORE PUSH1 0x20 ADD DUP4 DUP4 DUP1 DUP3 DUP5 CALLDATACOPY PUSH1 0x0 DUP2 DUP5 ADD MSTORE PUSH1 0x1F NOT PUSH1 0x1F DUP3 ADD AND SWAP1 POP DUP1 DUP4 ADD SWAP3 POP POP POP POP POP POP POP DUP2 MSTORE PUSH1 0x20 ADD DUP8 DUP8 DUP1 DUP1 PUSH1 0x1F ADD PUSH1 0x20 DUP1 SWAP2 DIV MUL PUSH1 0x20 ADD PUSH1 0x40 MLOAD SWAP1 DUP2 ADD PUSH1 0x40 MSTORE DUP1 SWAP4 SWAP3 SWAP2 SWAP1 DUP2 DUP2 MSTORE PUSH1 0x20 ADD DUP4 DUP4 DUP1 DUP3 DUP5 CALLDATACOPY PUSH1 0x0 DUP2 DUP5 ADD MSTORE PUSH1 0x1F NOT PUSH1 0x1F DUP3 ADD AND SWAP1 POP DUP1 DUP4 ADD SWAP3 POP POP POP POP POP POP POP DUP2 MSTORE PUSH1 0x20 ADD DUP6 DUP6 DUP1 DUP1 PUSH1 0x1F ADD PUSH1 0x20 DUP1 SWAP2 DIV MUL PUSH1 0x20 ADD PUSH1 0x40 MLOAD SWAP1 DUP2 ADD PUSH1 0x40 MSTORE DUP1 SWAP4 SWAP3 SWAP2 SWAP1 DUP2 DUP2 MSTORE PUSH1 0x20 ADD DUP4 DUP4 DUP1 DUP3 DUP5 CALLDATACOPY PUSH1 0x0 DUP2 DUP5 ADD MSTORE PUSH1 0x1F NOT PUSH1 0x1F DUP3 ADD AND SWAP1 POP DUP1 DUP4 ADD SWAP3 POP POP POP POP POP POP POP DUP2 MSTORE PUSH1 0x20 ADD DUP4 DUP4 DUP1 DUP1 PUSH1 0x1F ADD PUSH1 0x20 DUP1 SWAP2 DIV MUL PUSH1 0x20 ADD PUSH1 0x40 MLOAD SWAP1 DUP2 ADD PUSH1 0x40 MSTORE DUP1 SWAP4 SWAP3 SWAP2 SWAP1 DUP2 DUP2 MSTORE PUSH1 0x20 ADD DUP4 DUP4 DUP1 DUP3 DUP5 CALLDATACOPY PUSH1 0x0 DUP2 DUP5 ADD MSTORE PUSH1 0x1F NOT PUSH1 0x1F DUP3 ADD AND SWAP1 POP DUP1 DUP4 ADD SWAP3 POP POP POP POP POP POP POP DUP2 MSTORE POP PUSH1 0x0 PUSH1 0x71 SLOAD PUSH1 0xE DUP2 LT PUSH2 0x1949 JUMPI PUSH2 0x1948 PUSH2 0x3471 JUMP JUMPDEST JUMPDEST PUSH1 0x5 MUL ADD PUSH1 0x0 DUP3 ADD MLOAD DUP2 PUSH1 0x0 ADD SSTORE PUSH1 0x20 DUP3 ADD MLOAD DUP2 PUSH1 0x1 ADD SWAP1 DUP2 PUSH2 0x196C SWAP2 SWAP1 PUSH2 0x34A0 JUMP JUMPDEST POP PUSH1 0x40 DUP3 ADD MLOAD DUP2 PUSH1 0x2 ADD SWAP1 DUP2 PUSH2 0x1982 SWAP2 SWAP1 PUSH2 0x34A0 JUMP JUMPDEST POP PUSH1 0x60 DUP3 ADD MLOAD DUP2 PUSH1 0x3 ADD SWAP1 DUP2 PUSH2 0x1998 SWAP2 SWAP1 PUSH2 0x34A0 JUMP JUMPDEST POP PUSH1 0x80 DUP3 ADD MLOAD DUP2 PUSH1 0x4 ADD SWAP1 DUP2 PUSH2 0x19AE SWAP2 SWAP1 PUSH2 0x34A0 JUMP JUMPDEST POP SWAP1 POP POP PUSH1 0x71 PUSH1 0x0 DUP2 SLOAD DUP1 SWAP3 SWAP2 SWAP1 PUSH2 0x19C5 SWAP1 PUSH2 0x360D JUMP JUMPDEST SWAP2 SWAP1 POP SSTORE POP POP POP POP POP POP POP POP POP JUMP JUMPDEST PUSH1 0x0 DUP2 LT ISZERO DUP1 ISZERO PUSH2 0x19E5 JUMPI POP PUSH1 0xE DUP2 LT JUMPDEST PUSH2 0x1A24 JUMPI PUSH1 0x40 MLOAD PUSH32 0x8C379A000000000000000000000000000000000000000000000000000000000 DUP2 MSTORE PUSH1 0x4 ADD PUSH2 0x1A1B SWAP1 PUSH2 0x36A1 JUMP JUMPDEST PUSH1 0x40 MLOAD DUP1 SWAP2 SUB SWAP1 REVERT JUMPDEST PUSH1 0x40 MLOAD DUP1 PUSH1 0xA0 ADD PUSH1 0x40 MSTORE DUP1 DUP3 DUP2 MSTORE PUSH1 0x20 ADD DUP11 DUP11 DUP1 DUP1 PUSH1 0x1F ADD PUSH1 0x20 DUP1 SWAP2 DIV MUL PUSH1 0x20 ADD PUSH1 0x40 MLOAD SWAP1 DUP2 ADD PUSH1 0x40 MSTORE DUP1 SWAP4 SWAP3 SWAP2 SWAP1 DUP2 DUP2 MSTORE PUSH1 0x20 ADD DUP4 DUP4 DUP1 DUP3 DUP5 CALLDATACOPY PUSH1 0x0 DUP2 DUP5 ADD MSTORE PUSH1 0x1F NOT PUSH1 0x1F DUP3 ADD AND SWAP1 POP DUP1 DUP4 ADD SWAP3 POP POP POP POP POP POP POP DUP2 MSTORE PUSH1 0x20 ADD DUP9 DUP9 DUP1 DUP1 PUSH1 0x1F ADD PUSH1 0x20 DUP1 SWAP2 DIV MUL PUSH1 0x20 ADD PUSH1 0x40 MLOAD SWAP1 DUP2 ADD PUSH1 0x40 MSTORE DUP1 SWAP4 SWAP3 SWAP2 SWAP1 DUP2 DUP2 MSTORE PUSH1 0x20 ADD DUP4 DUP4 DUP1 DUP3 DUP5 CALLDATACOPY PUSH1 0x0 DUP2 DUP5 ADD MSTORE PUSH1 0x1F NOT PUSH1 0x1F DUP3 ADD AND SWAP1 POP DUP1 DUP4 ADD SWAP3 POP POP POP POP POP POP POP DUP2 MSTORE PUSH1 0x20 ADD DUP7 DUP7 DUP1 DUP1 PUSH1 0x1F ADD PUSH1 0x20 DUP1 SWAP2 DIV MUL PUSH1 0x20 ADD PUSH1 0x40 MLOAD SWAP1 DUP2 ADD PUSH1 0x40 MSTORE DUP1 SWAP4 SWAP3 SWAP2 SWAP1 DUP2 DUP2 MSTORE PUSH1 0x20 ADD DUP4 DUP4 DUP1 DUP3 DUP5 CALLDATACOPY PUSH1 0x0 DUP2 DUP5 ADD MSTORE PUSH1 0x1F NOT PUSH1 0x1F DUP3 ADD AND SWAP1 POP DUP1 DUP4 ADD SWAP3 POP POP POP POP POP POP POP DUP2 MSTORE PUSH1 0x20 ADD DUP5 DUP5 DUP1 DUP1 PUSH1 0x1F ADD PUSH1 0x20 DUP1 SWAP2 DIV MUL PUSH1 0x20 ADD PUSH1 0x40 MLOAD SWAP1 DUP2 ADD PUSH1 0x40 MSTORE DUP1 SWAP4 SWAP3 SWAP2 SWAP1 DUP2 DUP2 MSTORE PUSH1 0x20 ADD DUP4 DUP4 DUP1 DUP3 DUP5 CALLDATACOPY PUSH1 0x0 DUP2 DUP5 ADD MSTORE PUSH1 0x1F NOT PUSH1 0x1F DUP3 ADD AND SWAP1 POP DUP1 DUP4 ADD SWAP3 POP POP POP POP POP POP POP DUP2 MSTORE POP PUSH1 0x0 DUP3 PUSH1 0xE DUP2 LT PUSH2 0x1B6F JUMPI PUSH2 0x1B6E PUSH2 0x3471 JUMP JUMPDEST JUMPDEST PUSH1 0x5 MUL ADD PUSH1 0x0 DUP3 ADD MLOAD DUP2 PUSH1 0x0 ADD SSTORE PUSH1 0x20 DUP3 ADD MLOAD DUP2 PUSH1 0x1 ADD SWAP1 DUP2 PUSH2 0x1B92 SWAP2 SWAP1 PUSH2 0x34A0 JUMP JUMPDEST POP PUSH1 0x40 DUP3 ADD MLOAD DUP2 PUSH1 0x2 ADD SWAP1 DUP2 PUSH2 0x1BA8 SWAP2 SWAP1 PUSH2 0x34A0 JUMP JUMPDEST POP PUSH1 0x60 DUP3 ADD MLOAD DUP2 PUSH1 0x3 ADD SWAP1 DUP2 PUSH2 0x1BBE SWAP2 SWAP1 PUSH2 0x34A0 JUMP JUMPDEST POP PUSH1 0x80 DUP3 ADD MLOAD DUP2 PUSH1 0x4 ADD SWAP1 DUP2 PUSH2 0x1BD4 SWAP2 SWAP1 PUSH2 0x34A0 JUMP JUMPDEST POP SWAP1 POP POP POP POP POP POP POP POP POP POP POP JUMP JUMPDEST PUSH1 0x6F DUP1 SLOAD PUSH2 0x1BF0 SWAP1 PUSH2 0x30B2 JUMP JUMPDEST DUP1 PUSH1 0x1F ADD PUSH1 0x20 DUP1 SWAP2 DIV MUL PUSH1 0x20 ADD PUSH1 0x40 MLOAD SWAP1 DUP2 ADD PUSH1 0x40 MSTORE DUP1 SWAP3 SWAP2 SWAP1 DUP2 DUP2 MSTORE PUSH1 0x20 ADD DUP3 DUP1 SLOAD PUSH2 0x1C1C SWAP1 PUSH2 0x30B2 JUMP JUMPDEST DUP1 ISZERO PUSH2 0x1C69 JUMPI DUP1 PUSH1 0x1F LT PUSH2 0x1C3E JUMPI PUSH2 0x100 DUP1 DUP4 SLOAD DIV MUL DUP4 MSTORE SWAP2 PUSH1 0x20 ADD SWAP2 PUSH2 0x1C69 JUMP JUMPDEST DUP3 ADD SWAP2 SWAP1 PUSH1 0x0 MSTORE PUSH1 0x20 PUSH1 0x0 KECCAK256 SWAP1 JUMPDEST DUP2 SLOAD DUP2 MSTORE SWAP1 PUSH1 0x1 ADD SWAP1 PUSH1 0x20 ADD DUP1 DUP4 GT PUSH2 0x1C4C JUMPI DUP3 SWAP1 SUB PUSH1 0x1F AND DUP3 ADD SWAP2 JUMPDEST POP POP POP POP POP DUP2 JUMP JUMPDEST PUSH1 0x46 DUP2 PUSH1 0x4 DUP2 LT PUSH2 0x1C81 JUMPI PUSH1 0x0 DUP1 REVERT JUMPDEST PUSH1 0x5 MUL ADD PUSH1 0x0 SWAP2 POP SWAP1 POP DUP1 PUSH1 0x0 ADD SLOAD SWAP1 DUP1 PUSH1 0x1 ADD DUP1 SLOAD PUSH2 0x1CA0 SWAP1 PUSH2 0x30B2 JUMP JUMPDEST DUP1 PUSH1 0x1F ADD PUSH1 0x20 DUP1 SWAP2 DIV MUL PUSH1 0x20 ADD PUSH1 0x40 MLOAD SWAP1 DUP2 ADD PUSH1 0x40 MSTORE DUP1 SWAP3 SWAP2 SWAP1 DUP2 DUP2 MSTORE PUSH1 0x20 ADD DUP3 DUP1 SLOAD PUSH2 0x1CCC SWAP1 PUSH2 0x30B2 JUMP JUMPDEST DUP1 ISZERO PUSH2 0x1D19 JUMPI DUP1 PUSH1 0x1F LT PUSH2 0x1CEE JUMPI PUSH2 0x100 DUP1 DUP4 SLOAD DIV MUL DUP4 MSTORE SWAP2 PUSH1 0x20 ADD SWAP2 PUSH2 0x1D19 JUMP JUMPDEST DUP3 ADD SWAP2 SWAP1 PUSH1 0x0 MSTORE PUSH1 0x20 PUSH1 0x0 KECCAK256 SWAP1 JUMPDEST DUP2 SLOAD DUP2 MSTORE SWAP1 PUSH1 0x1 ADD SWAP1 PUSH1 0x20 ADD DUP1 DUP4 GT PUSH2 0x1CFC JUMPI DUP3 SWAP1 SUB PUSH1 0x1F AND DUP3 ADD SWAP2 JUMPDEST POP POP POP POP POP SWAP1 DUP1 PUSH1 0x2 ADD DUP1 SLOAD PUSH2 0x1D2E SWAP1 PUSH2 0x30B2 JUMP JUMPDEST DUP1 PUSH1 0x1F ADD PUSH1 0x20 DUP1 SWAP2 DIV MUL PUSH1 0x20 ADD PUSH1 0x40 MLOAD SWAP1 DUP2 ADD PUSH1 0x40 MSTORE DUP1 SWAP3 SWAP2 SWAP1 DUP2 DUP2 MSTORE PUSH1 0x20 ADD DUP3 DUP1 SLOAD PUSH2 0x1D5A SWAP1 PUSH2 0x30B2 JUMP JUMPDEST DUP1 ISZERO PUSH2 0x1DA7 JUMPI DUP1 PUSH1 0x1F LT PUSH2 0x1D7C JUMPI PUSH2 0x100 DUP1 DUP4 SLOAD DIV MUL DUP4 MSTORE SWAP2 PUSH1 0x20 ADD SWAP2 PUSH2 0x1DA7 JUMP JUMPDEST DUP3 ADD SWAP2 SWAP1 PUSH1 0x0 MSTORE PUSH1 0x20 PUSH1 0x0 KECCAK256 SWAP1 JUMPDEST DUP2 SLOAD DUP2 MSTORE SWAP1 PUSH1 0x1 ADD SWAP1 PUSH1 0x20 ADD DUP1 DUP4 GT PUSH2 0x1D8A JUMPI DUP3 SWAP1 SUB PUSH1 0x1F AND DUP3 ADD SWAP2 JUMPDEST POP POP POP POP POP SWAP1 DUP1 PUSH1 0x3 ADD DUP1 SLOAD PUSH2 0x1DBC SWAP1 PUSH2 0x30B2 JUMP JUMPDEST DUP1 PUSH1 0x1F ADD PUSH1 0x20 DUP1 SWAP2 DIV MUL PUSH1 0x20 ADD PUSH1 0x40 MLOAD SWAP1 DUP2 ADD PUSH1 0x40 MSTORE DUP1 SWAP3 SWAP2 SWAP1 DUP2 DUP2 MSTORE PUSH1 0x20 ADD DUP3 DUP1 SLOAD PUSH2 0x1DE8 SWAP1 PUSH2 0x30B2 JUMP JUMPDEST DUP1 ISZERO PUSH2 0x1E35 JUMPI DUP1 PUSH1 0x1F LT PUSH2 0x1E0A JUMPI PUSH2 0x100 DUP1 DUP4 SLOAD DIV MUL DUP4 MSTORE SWAP2 PUSH1 0x20 ADD SWAP2 PUSH2 0x1E35 JUMP JUMPDEST DUP3 ADD SWAP2 SWAP1 PUSH1 0x0 MSTORE PUSH1 0x20 PUSH1 0x0 KECCAK256 SWAP1 JUMPDEST DUP2 SLOAD DUP2 MSTORE SWAP1 PUSH1 0x1 ADD SWAP1 PUSH1 0x20 ADD DUP1 DUP4 GT PUSH2 0x1E18 JUMPI DUP3 SWAP1 SUB PUSH1 0x1F AND DUP3 ADD SWAP2 JUMPDEST POP POP POP POP POP SWAP1 DUP1 PUSH1 0x4 ADD DUP1 SLOAD PUSH2 0x1E4A SWAP1 PUSH2 0x30B2 JUMP JUMPDEST DUP1 PUSH1 0x1F ADD PUSH1 0x20 DUP1 SWAP2 DIV MUL PUSH1 0x20 ADD PUSH1 0x40 MLOAD SWAP1 DUP2 ADD PUSH1 0x40 MSTORE DUP1 SWAP3 SWAP2 SWAP1 DUP2 DUP2 MSTORE PUSH1 0x20 ADD DUP3 DUP1 SLOAD PUSH2 0x1E76 SWAP1 PUSH2 0x30B2 JUMP JUMPDEST DUP1 ISZERO PUSH2 0x1EC3 JUMPI DUP1 PUSH1 0x1F LT PUSH2 0x1E98 JUMPI PUSH2 0x100 DUP1 DUP4 SLOAD DIV MUL DUP4 MSTORE SWAP2 PUSH1 0x20 ADD SWAP2 PUSH2 0x1EC3 JUMP JUMPDEST DUP3 ADD SWAP2 SWAP1 PUSH1 0x0 MSTORE PUSH1 0x20 PUSH1 0x0 KECCAK256 SWAP1 JUMPDEST DUP2 SLOAD DUP2 MSTORE SWAP1 PUSH1 0x1 ADD SWAP1 PUSH1 0x20 ADD DUP1 DUP4 GT PUSH2 0x1EA6 JUMPI DUP3 SWAP1 SUB PUSH1 0x1F AND DUP3 ADD SWAP2 JUMPDEST POP POP POP POP POP SWAP1 POP DUP6 JUMP JUMPDEST PUSH1 0x74 PUSH1 0x0 SWAP1 SLOAD SWAP1 PUSH2 0x100 EXP SWAP1 DIV PUSH20 0xFFFFFFFFFFFFFFFFFFFFFFFFFFFFFFFFFFFFFFFF AND DUP2 JUMP JUMPDEST CALLER PUSH20 0xFFFFFFFFFFFFFFFFFFFFFFFFFFFFFFFFFFFFFFFF AND PUSH1 0x74 PUSH1 0x0 SWAP1 SLOAD SWAP1 PUSH2 0x100 EXP SWAP1 DIV PUSH20 0xFFFFFFFFFFFFFFFFFFFFFFFFFFFFFFFFFFFFFFFF AND PUSH20 0xFFFFFFFFFFFFFFFFFFFFFFFFFFFFFFFFFFFFFFFF AND EQ PUSH2 0x1F83 JUMPI PUSH1 0x40 MLOAD PUSH32 0x8C379A000000000000000000000000000000000000000000000000000000000 DUP2 MSTORE PUSH1 0x4 ADD PUSH2 0x1F7A SWAP1 PUSH2 0x312F JUMP JUMPDEST PUSH1 0x40 MLOAD DUP1 SWAP2 SUB SWAP1 REVERT JUMPDEST PUSH1 0x4 PUSH1 0x72 SLOAD LT PUSH2 0x1FC8 JUMPI PUSH1 0x40 MLOAD PUSH32 0x8C379A000000000000000000000000000000000000000000000000000000000 DUP2 MSTORE PUSH1 0x4 ADD PUSH2 0x1FBF SWAP1 PUSH2 0x35BE JUMP JUMPDEST PUSH1 0x40 MLOAD DUP1 SWAP2 SUB SWAP1 REVERT JUMPDEST PUSH1 0x40 MLOAD DUP1 PUSH1 0xA0 ADD PUSH1 0x40 MSTORE DUP1 PUSH1 0x72 SLOAD DUP2 MSTORE PUSH1 0x20 ADD DUP10 DUP10 DUP1 DUP1 PUSH1 0x1F ADD PUSH1 0x20 DUP1 SWAP2 DIV MUL PUSH1 0x20 ADD PUSH1 0x40 MLOAD SWAP1 DUP2 ADD PUSH1 0x40 MSTORE DUP1 SWAP4 SWAP3 SWAP2 SWAP1 DUP2 DUP2 MSTORE PUSH1 0x20 ADD DUP4 DUP4 DUP1 DUP3 DUP5 CALLDATACOPY PUSH1 0x0 DUP2 DUP5 ADD MSTORE PUSH1 0x1F NOT PUSH1 0x1F DUP3 ADD AND SWAP1 POP DUP1 DUP4 ADD SWAP3 POP POP POP POP POP POP POP DUP2 MSTORE PUSH1 0x20 ADD DUP8 DUP8 DUP1 DUP1 PUSH1 0x1F ADD PUSH1 0x20 DUP1 SWAP2 DIV MUL PUSH1 0x20 ADD PUSH1 0x40 MLOAD SWAP1 DUP2 ADD PUSH1 0x40 MSTORE DUP1 SWAP4 SWAP3 SWAP2 SWAP1 DUP2 DUP2 MSTORE PUSH1 0x20 ADD DUP4 DUP4 DUP1 DUP3 DUP5 CALLDATACOPY PUSH1 0x0 DUP2 DUP5 ADD MSTORE PUSH1 0x1F NOT PUSH1 0x1F DUP3 ADD AND SWAP1 POP DUP1 DUP4 ADD SWAP3 POP POP POP POP POP POP POP DUP2 MSTORE PUSH1 0x20 ADD DUP6 DUP6 DUP1 DUP1 PUSH1 0x1F ADD PUSH1 0x20 DUP1 SWAP2 DIV MUL PUSH1 0x20 ADD PUSH1 0x40 MLOAD SWAP1 DUP2 ADD PUSH1 0x40 MSTORE DUP1 SWAP4 SWAP3 SWAP2 SWAP1 DUP2 DUP2 MSTORE PUSH1 0x20 ADD DUP4 DUP4 DUP1 DUP3 DUP5 CALLDATACOPY PUSH1 0x0 DUP2 DUP5 ADD MSTORE PUSH1 0x1F NOT PUSH1 0x1F DUP3 ADD AND SWAP1 POP DUP1 DUP4 ADD SWAP3 POP POP POP POP POP POP POP DUP2 MSTORE PUSH1 0x20 ADD DUP4 DUP4 DUP1 DUP1 PUSH1 0x1F ADD PUSH1 0x20 DUP1 SWAP2 DIV MUL PUSH1 0x20 ADD PUSH1 0x40 MLOAD SWAP1 DUP2 ADD PUSH1 0x40 MSTORE DUP1 SWAP4 SWAP3 SWAP2 SWAP1 DUP2 DUP2 MSTORE PUSH1 0x20 ADD DUP4 DUP4 DUP1 DUP3 DUP5 CALLDATACOPY PUSH1 0x0 DUP2 DUP5 ADD MSTORE PUSH1 0x1F NOT PUSH1 0x1F DUP3 ADD AND SWAP1 POP DUP1 DUP4 ADD SWAP3 POP POP POP POP POP POP POP DUP2 MSTORE POP PUSH1 0x46 PUSH1 0x72 SLOAD PUSH1 0x4 DUP2 LT PUSH2 0x2117 JUMPI PUSH2 0x2116 PUSH2 0x3471 JUMP JUMPDEST JUMPDEST PUSH1 0x5 MUL ADD PUSH1 0x0 DUP3 ADD MLOAD DUP2 PUSH1 0x0 ADD SSTORE PUSH1 0x20 DUP3 ADD MLOAD DUP2 PUSH1 0x1 ADD SWAP1 DUP2 PUSH2 0x213A SWAP2 SWAP1 PUSH2 0x34A0 JUMP JUMPDEST POP PUSH1 0x40 DUP3 ADD MLOAD DUP2 PUSH1 0x2 ADD SWAP1 DUP2 PUSH2 0x2150 SWAP2 SWAP1 PUSH2 0x34A0 JUMP JUMPDEST POP PUSH1 0x60 DUP3 ADD MLOAD DUP2 PUSH1 0x3 ADD SWAP1 DUP2 PUSH2 0x2166 SWAP2 SWAP1 PUSH2 0x34A0 JUMP JUMPDEST POP PUSH1 0x80 DUP3 ADD MLOAD DUP2 PUSH1 0x4 ADD SWAP1 DUP2 PUSH2 0x217C SWAP2 SWAP1 PUSH2 0x34A0 JUMP JUMPDEST POP SWAP1 POP POP PUSH1 0x72 PUSH1 0x0 DUP2 SLOAD DUP1 SWAP3 SWAP2 SWAP1 PUSH2 0x2193 SWAP1 PUSH2 0x360D JUMP JUMPDEST SWAP2 SWAP1 POP SSTORE POP POP POP POP POP POP POP POP POP JUMP JUMPDEST PUSH1 0x6E DUP1 SLOAD PUSH2 0x21AF SWAP1 PUSH2 0x30B2 JUMP JUMPDEST DUP1 PUSH1 0x1F ADD PUSH1 0x20 DUP1 SWAP2 DIV MUL PUSH1 0x20 ADD PUSH1 0x40 MLOAD SWAP1 DUP2 ADD PUSH1 0x40 MSTORE DUP1 SWAP3 SWAP2 SWAP1 DUP2 DUP2 MSTORE PUSH1 0x20 ADD DUP3 DUP1 SLOAD PUSH2 0x21DB SWAP1 PUSH2 0x30B2 JUMP JUMPDEST DUP1 ISZERO PUSH2 0x2228 JUMPI DUP1 PUSH1 0x1F LT PUSH2 0x21FD JUMPI PUSH2 0x100 DUP1 DUP4 SLOAD DIV MUL DUP4 MSTORE SWAP2 PUSH1 0x20 ADD SWAP2 PUSH2 0x2228 JUMP JUMPDEST DUP3 ADD SWAP2 SWAP1 PUSH1 0x0 MSTORE PUSH1 0x20 PUSH1 0x0 KECCAK256 SWAP1 JUMPDEST DUP2 SLOAD DUP2 MSTORE SWAP1 PUSH1 0x1 ADD SWAP1 PUSH1 0x20 ADD DUP1 DUP4 GT PUSH2 0x220B JUMPI DUP3 SWAP1 SUB PUSH1 0x1F AND DUP3 ADD SWAP2 JUMPDEST POP POP POP POP POP DUP2 JUMP JUMPDEST CALLER PUSH20 0xFFFFFFFFFFFFFFFFFFFFFFFFFFFFFFFFFFFFFFFF AND PUSH1 0x74 PUSH1 0x0 SWAP1 SLOAD SWAP1 PUSH2 0x100 EXP SWAP1 DIV PUSH20 0xFFFFFFFFFFFFFFFFFFFFFFFFFFFFFFFFFFFFFFFF AND PUSH20 0xFFFFFFFFFFFFFFFFFFFFFFFFFFFFFFFFFFFFFFFF AND EQ PUSH2 0x22C0 JUMPI PUSH1 0x40 MLOAD PUSH32 0x8C379A000000000000000000000000000000000000000000000000000000000 DUP2 MSTORE PUSH1 0x4 ADD PUSH2 0x22B7 SWAP1 PUSH2 0x312F JUMP JUMPDEST PUSH1 0x40 MLOAD DUP1 SWAP2 SUB SWAP1 REVERT JUMPDEST DUP2 DUP2 PUSH1 0x70 SWAP2 DUP3 PUSH2 0x22D1 SWAP3 SWAP2 SWAP1 PUSH2 0x3335 JUMP JUMPDEST POP POP POP JUMP JUMPDEST CALLER PUSH20 0xFFFFFFFFFFFFFFFFFFFFFFFFFFFFFFFFFFFFFFFF AND PUSH1 0x74 PUSH1 0x0 SWAP1 SLOAD SWAP1 PUSH2 0x100 EXP SWAP1 DIV PUSH20 0xFFFFFFFFFFFFFFFFFFFFFFFFFFFFFFFFFFFFFFFF AND PUSH20 0xFFFFFFFFFFFFFFFFFFFFFFFFFFFFFFFFFFFFFFFF AND EQ PUSH2 0x2366 JUMPI PUSH1 0x40 MLOAD PUSH32 0x8C379A000000000000000000000000000000000000000000000000000000000 DUP2 MSTORE PUSH1 0x4 ADD PUSH2 0x235D SWAP1 PUSH2 0x312F JUMP JUMPDEST PUSH1 0x40 MLOAD DUP1 SWAP2 SUB SWAP1 REVERT JUMPDEST PUSH1 0x0 DUP2 LT ISZERO DUP1 ISZERO PUSH2 0x2377 JUMPI POP PUSH1 0x4 DUP2 LT JUMPDEST PUSH2 0x23B6 JUMPI PUSH1 0x40 MLOAD PUSH32 0x8C379A000000000000000000000000000000000000000000000000000000000 DUP2 MSTORE PUSH1 0x4 ADD PUSH2 0x23AD SWAP1 PUSH2 0x370D JUMP JUMPDEST PUSH1 0x40 MLOAD DUP1 SWAP2 SUB SWAP1 REVERT JUMPDEST PUSH1 0x40 MLOAD DUP1 PUSH1 0xA0 ADD PUSH1 0x40 MSTORE DUP1 DUP3 DUP2 MSTORE PUSH1 0x20 ADD DUP11 DUP11 DUP1 DUP1 PUSH1 0x1F ADD PUSH1 0x20 DUP1 SWAP2 DIV MUL PUSH1 0x20 ADD PUSH1 0x40 MLOAD SWAP1 DUP2 ADD PUSH1 0x40 MSTORE DUP1 SWAP4 SWAP3 SWAP2 SWAP1 DUP2 DUP2 MSTORE PUSH1 0x20 ADD DUP4 DUP4 DUP1 DUP3 DUP5 CALLDATACOPY PUSH1 0x0 DUP2 DUP5 ADD MSTORE PUSH1 0x1F NOT PUSH1 0x1F DUP3 ADD AND SWAP1 POP DUP1 DUP4 ADD SWAP3 POP POP POP POP POP POP POP DUP2 MSTORE PUSH1 0x20 ADD DUP9 DUP9 DUP1 DUP1 PUSH1 0x1F ADD PUSH1 0x20 DUP1 SWAP2 DIV MUL PUSH1 0x20 ADD PUSH1 0x40 MLOAD SWAP1 DUP2 ADD PUSH1 0x40 MSTORE DUP1 SWAP4 SWAP3 SWAP2 SWAP1 DUP2 DUP2 MSTORE PUSH1 0x20 ADD DUP4 DUP4 DUP1 DUP3 DUP5 CALLDATACOPY PUSH1 0x0 DUP2 DUP5 ADD MSTORE PUSH1 0x1F NOT PUSH1 0x1F DUP3 ADD AND SWAP1 POP DUP1 DUP4 ADD SWAP3 POP POP POP POP POP POP POP DUP2 MSTORE PUSH1 0x20 ADD DUP7 DUP7 DUP1 DUP1 PUSH1 0x1F ADD PUSH1 0x20 DUP1 SWAP2 DIV MUL PUSH1 0x20 ADD PUSH1 0x40 MLOAD SWAP1 DUP2 ADD PUSH1 0x40 MSTORE DUP1 SWAP4 SWAP3 SWAP2 SWAP1 DUP2 DUP2 MSTORE PUSH1 0x20 ADD DUP4 DUP4 DUP1 DUP3 DUP5 CALLDATACOPY PUSH1 0x0 DUP2 DUP5 ADD MSTORE PUSH1 0x1F NOT PUSH1 0x1F DUP3 ADD AND SWAP1 POP DUP1 DUP4 ADD SWAP3 POP POP POP POP POP POP POP DUP2 MSTORE PUSH1 0x20 ADD DUP5 DUP5 DUP1 DUP1 PUSH1 0x1F ADD PUSH1 0x20 DUP1 SWAP2 DIV MUL PUSH1 0x20 ADD PUSH1 0x40 MLOAD SWAP1 DUP2 ADD PUSH1 0x40 MSTORE DUP1 SWAP4 SWAP3 SWAP2 SWAP1 DUP2 DUP2 MSTORE PUSH1 0x20 ADD DUP4 DUP4 DUP1 DUP3 DUP5 CALLDATACOPY PUSH1 0x0 DUP2 DUP5 ADD MSTORE PUSH1 0x1F NOT PUSH1 0x1F DUP3 ADD AND SWAP1 POP DUP1 DUP4 ADD SWAP3 POP POP POP POP POP POP POP DUP2 MSTORE POP PUSH1 0x5A DUP3 PUSH1 0x4 DUP2 LT PUSH2 0x2501 JUMPI PUSH2 0x2500 PUSH2 0x3471 JUMP JUMPDEST JUMPDEST PUSH1 0x5 MUL ADD PUSH1 0x0 DUP3 ADD MLOAD DUP2 PUSH1 0x0 ADD SSTORE PUSH1 0x20 DUP3 ADD MLOAD DUP2 PUSH1 0x1 ADD SWAP1 DUP2 PUSH2 0x2524 SWAP2 SWAP1 PUSH2 0x34A0 JUMP JUMPDEST POP PUSH1 0x40 DUP3 ADD MLOAD DUP2 PUSH1 0x2 ADD SWAP1 DUP2 PUSH2 0x253A SWAP2 SWAP1 PUSH2 0x34A0 JUMP JUMPDEST POP PUSH1 0x60 DUP3 ADD MLOAD DUP2 PUSH1 0x3 ADD SWAP1 DUP2 PUSH2 0x2550 SWAP2 SWAP1 PUSH2 0x34A0 JUMP JUMPDEST POP PUSH1 0x80 DUP3 ADD MLOAD DUP2 PUSH1 0x4 ADD SWAP1 DUP2 PUSH2 0x2566 SWAP2 SWAP1 PUSH2 0x34A0 JUMP JUMPDEST POP SWAP1 POP POP POP POP POP POP POP POP POP POP POP JUMP JUMPDEST DUP2 DUP2 PUSH1 0x6F SWAP2 DUP3 PUSH2 0x2586 SWAP3 SWAP2 SWAP1 PUSH2 0x3335 JUMP JUMPDEST POP POP POP JUMP JUMPDEST PUSH1 0x0 PUSH1 0x74 PUSH1 0x0 SWAP1 SLOAD SWAP1 PUSH2 0x100 EXP SWAP1 DIV PUSH20 0xFFFFFFFFFFFFFFFFFFFFFFFFFFFFFFFFFFFFFFFF AND PUSH20 0xFFFFFFFFFFFFFFFFFFFFFFFFFFFFFFFFFFFFFFFF AND CALLVALUE PUSH1 0x40 MLOAD PUSH2 0x25D3 SWAP1 PUSH2 0x375E JUMP JUMPDEST PUSH1 0x0 PUSH1 0x40 MLOAD DUP1 DUP4 SUB DUP2 DUP6 DUP8 GAS CALL SWAP3 POP POP POP RETURNDATASIZE DUP1 PUSH1 0x0 DUP2 EQ PUSH2 0x2610 JUMPI PUSH1 0x40 MLOAD SWAP2 POP PUSH1 0x1F NOT PUSH1 0x3F RETURNDATASIZE ADD AND DUP3 ADD PUSH1 0x40 MSTORE RETURNDATASIZE DUP3 MSTORE RETURNDATASIZE PUSH1 0x0 PUSH1 0x20 DUP5 ADD RETURNDATACOPY PUSH2 0x2615 JUMP JUMPDEST PUSH1 0x60 SWAP2 POP JUMPDEST POP POP SWAP1 POP DUP1 PUSH2 0x2659 JUMPI PUSH1 0x40 MLOAD PUSH32 0x8C379A000000000000000000000000000000000000000000000000000000000 DUP2 MSTORE PUSH1 0x4 ADD PUSH2 0x2650 SWAP1 PUSH2 0x37BF JUMP JUMPDEST PUSH1 0x40 MLOAD DUP1 SWAP2 SUB SWAP1 REVERT JUMPDEST POP JUMP JUMPDEST PUSH1 0x40 MLOAD DUP1 PUSH2 0x1C0 ADD PUSH1 0x40 MSTORE DUP1 PUSH1 0xE SWAP1 JUMPDEST PUSH2 0x2674 PUSH2 0x26E4 JUMP JUMPDEST DUP2 MSTORE PUSH1 0x20 ADD SWAP1 PUSH1 0x1 SWAP1 SUB SWAP1 DUP2 PUSH2 0x266C JUMPI SWAP1 POP POP SWAP1 JUMP JUMPDEST PUSH1 0x40 MLOAD DUP1 PUSH1 0x80 ADD PUSH1 0x40 MSTORE DUP1 PUSH1 0x4 SWAP1 JUMPDEST PUSH2 0x26A1 PUSH2 0x2713 JUMP JUMPDEST DUP2 MSTORE PUSH1 0x20 ADD SWAP1 PUSH1 0x1 SWAP1 SUB SWAP1 DUP2 PUSH2 0x2699 JUMPI SWAP1 POP POP SWAP1 JUMP JUMPDEST PUSH1 0x40 MLOAD DUP1 PUSH1 0x80 ADD PUSH1 0x40 MSTORE DUP1 PUSH1 0x4 SWAP1 JUMPDEST PUSH2 0x26CE PUSH2 0x2742 JUMP JUMPDEST DUP2 MSTORE PUSH1 0x20 ADD SWAP1 PUSH1 0x1 SWAP1 SUB SWAP1 DUP2 PUSH2 0x26C6 JUMPI SWAP1 POP POP SWAP1 JUMP JUMPDEST PUSH1 0x40 MLOAD DUP1 PUSH1 0xA0 ADD PUSH1 0x40 MSTORE DUP1 PUSH1 0x0 DUP2 MSTORE PUSH1 0x20 ADD PUSH1 0x60 DUP2 MSTORE PUSH1 0x20 ADD PUSH1 0x60 DUP2 MSTORE PUSH1 0x20 ADD PUSH1 0x60 DUP2 MSTORE PUSH1 0x20 ADD PUSH1 0x60 DUP2 MSTORE POP SWAP1 JUMP JUMPDEST PUSH1 0x40 MLOAD DUP1 PUSH1 0xA0 ADD PUSH1 0x40 MSTORE DUP1 PUSH1 0x0 DUP2 MSTORE PUSH1 0x20 ADD PUSH1 0x60 DUP2 MSTORE PUSH1 0x20 ADD PUSH1 0x60 DUP2 MSTORE PUSH1 0x20 ADD PUSH1 0x60 DUP2 MSTORE PUSH1 0x20 ADD PUSH1 0x60 DUP2 MSTORE POP SWAP1 JUMP JUMPDEST PUSH1 0x40 MLOAD DUP1 PUSH1 0xA0 ADD PUSH1 0x40 MSTORE DUP1 PUSH1 0x0 DUP2 MSTORE PUSH1 0x20 ADD PUSH1 0x60 DUP2 MSTORE PUSH1 0x20 ADD PUSH1 0x60 DUP2 MSTORE PUSH1 0x20 ADD PUSH1 0x60 DUP2 MSTORE PUSH1 0x20 ADD PUSH1 0x60 DUP2 MSTORE POP SWAP1 JUMP JUMPDEST PUSH1 0x0 DUP1 REVERT JUMPDEST PUSH1 0x0 DUP1 REVERT JUMPDEST PUSH1 0x0 DUP2 SWAP1 POP SWAP2 SWAP1 POP JUMP JUMPDEST PUSH2 0x278E DUP2 PUSH2 0x277B JUMP JUMPDEST DUP2 EQ PUSH2 0x2799 JUMPI PUSH1 0x0 DUP1 REVERT JUMPDEST POP JUMP JUMPDEST PUSH1 0x0 DUP2 CALLDATALOAD SWAP1 POP PUSH2 0x27AB DUP2 PUSH2 0x2785 JUMP JUMPDEST SWAP3 SWAP2 POP POP JUMP JUMPDEST PUSH1 0x0 PUSH1 0x20 DUP3 DUP5 SUB SLT ISZERO PUSH2 0x27C7 JUMPI PUSH2 0x27C6 PUSH2 0x2771 JUMP JUMPDEST JUMPDEST PUSH1 0x0 PUSH2 0x27D5 DUP5 DUP3 DUP6 ADD PUSH2 0x279C JUMP JUMPDEST SWAP2 POP POP SWAP3 SWAP2 POP POP JUMP JUMPDEST PUSH2 0x27E7 DUP2 PUSH2 0x277B JUMP JUMPDEST DUP3 MSTORE POP POP JUMP JUMPDEST PUSH1 0x0 DUP2 MLOAD SWAP1 POP SWAP2 SWAP1 POP JUMP JUMPDEST PUSH1 0x0 DUP3 DUP3 MSTORE PUSH1 0x20 DUP3 ADD SWAP1 POP SWAP3 SWAP2 POP POP JUMP JUMPDEST PUSH1 0x0 JUMPDEST DUP4 DUP2 LT ISZERO PUSH2 0x2827 JUMPI DUP1 DUP3 ADD MLOAD DUP2 DUP5 ADD MSTORE PUSH1 0x20 DUP2 ADD SWAP1 POP PUSH2 0x280C JUMP JUMPDEST PUSH1 0x0 DUP5 DUP5 ADD MSTORE POP POP POP POP JUMP JUMPDEST PUSH1 0x0 PUSH1 0x1F NOT PUSH1 0x1F DUP4 ADD AND SWAP1 POP SWAP2 SWAP1 POP JUMP JUMPDEST PUSH1 0x0 PUSH2 0x284F DUP3 PUSH2 0x27ED JUMP JUMPDEST PUSH2 0x2859 DUP2 DUP6 PUSH2 0x27F8 JUMP JUMPDEST SWAP4 POP PUSH2 0x2869 DUP2 DUP6 PUSH1 0x20 DUP7 ADD PUSH2 0x2809 JUMP JUMPDEST PUSH2 0x2872 DUP2 PUSH2 0x2833 JUMP JUMPDEST DUP5 ADD SWAP2 POP POP SWAP3 SWAP2 POP POP JUMP JUMPDEST PUSH1 0x0 PUSH1 0xA0 DUP3 ADD SWAP1 POP PUSH2 0x2892 PUSH1 0x0 DUP4 ADD DUP9 PUSH2 0x27DE JUMP JUMPDEST DUP2 DUP2 SUB PUSH1 0x20 DUP4 ADD MSTORE PUSH2 0x28A4 DUP2 DUP8 PUSH2 0x2844 JUMP JUMPDEST SWAP1 POP DUP2 DUP2 SUB PUSH1 0x40 DUP4 ADD MSTORE PUSH2 0x28B8 DUP2 DUP7 PUSH2 0x2844 JUMP JUMPDEST SWAP1 POP DUP2 DUP2 SUB PUSH1 0x60 DUP4 ADD MSTORE PUSH2 0x28CC DUP2 DUP6 PUSH2 0x2844 JUMP JUMPDEST SWAP1 POP DUP2 DUP2 SUB PUSH1 0x80 DUP4 ADD MSTORE PUSH2 0x28E0 DUP2 DUP5 PUSH2 0x2844 JUMP JUMPDEST SWAP1 POP SWAP7 SWAP6 POP POP POP POP POP POP JUMP JUMPDEST PUSH1 0x0 PUSH1 0xE SWAP1 POP SWAP2 SWAP1 POP JUMP JUMPDEST PUSH1 0x0 DUP2 SWAP1 POP SWAP3 SWAP2 POP POP JUMP JUMPDEST PUSH1 0x0 DUP2 SWAP1 POP SWAP2 SWAP1 POP JUMP JUMPDEST PUSH2 0x2915 DUP2 PUSH2 0x277B JUMP JUMPDEST DUP3 MSTORE POP POP JUMP JUMPDEST PUSH1 0x0 DUP3 DUP3 MSTORE PUSH1 0x20 DUP3 ADD SWAP1 POP SWAP3 SWAP2 POP POP JUMP JUMPDEST PUSH1 0x0 PUSH2 0x2937 DUP3 PUSH2 0x27ED JUMP JUMPDEST PUSH2 0x2941 DUP2 DUP6 PUSH2 0x291B JUMP JUMPDEST SWAP4 POP PUSH2 0x2951 DUP2 DUP6 PUSH1 0x20 DUP7 ADD PUSH2 0x2809 JUMP JUMPDEST PUSH2 0x295A DUP2 PUSH2 0x2833 JUMP JUMPDEST DUP5 ADD SWAP2 POP POP SWAP3 SWAP2 POP POP JUMP JUMPDEST PUSH1 0x0 PUSH1 0xA0 DUP4 ADD PUSH1 0x0 DUP4 ADD MLOAD PUSH2 0x297D PUSH1 0x0 DUP7 ADD DUP3 PUSH2 0x290C JUMP JUMPDEST POP PUSH1 0x20 DUP4 ADD MLOAD DUP5 DUP3 SUB PUSH1 0x20 DUP7 ADD MSTORE PUSH2 0x2995 DUP3 DUP3 PUSH2 0x292C JUMP JUMPDEST SWAP2 POP POP PUSH1 0x40 DUP4 ADD MLOAD DUP5 DUP3 SUB PUSH1 0x40 DUP7 ADD MSTORE PUSH2 0x29AF DUP3 DUP3 PUSH2 0x292C JUMP JUMPDEST SWAP2 POP POP PUSH1 0x60 DUP4 ADD MLOAD DUP5 DUP3 SUB PUSH1 0x60 DUP7 ADD MSTORE PUSH2 0x29C9 DUP3 DUP3 PUSH2 0x292C JUMP JUMPDEST SWAP2 POP POP PUSH1 0x80 DUP4 ADD MLOAD DUP5 DUP3 SUB PUSH1 0x80 DUP7 ADD MSTORE PUSH2 0x29E3 DUP3 DUP3 PUSH2 0x292C JUMP JUMPDEST SWAP2 POP POP DUP1 SWAP2 POP POP SWAP3 SWAP2 POP POP JUMP JUMPDEST PUSH1 0x0 PUSH2 0x29FC DUP4 DUP4 PUSH2 0x2965 JUMP JUMPDEST SWAP1 POP SWAP3 SWAP2 POP POP JUMP JUMPDEST PUSH1 0x0 PUSH1 0x20 DUP3 ADD SWAP1 POP SWAP2 SWAP1 POP JUMP JUMPDEST PUSH1 0x0 PUSH2 0x2A1C DUP3 PUSH2 0x28EC JUMP JUMPDEST PUSH2 0x2A26 DUP2 DUP6 PUSH2 0x28F7 JUMP JUMPDEST SWAP4 POP DUP4 PUSH1 0x20 DUP3 MUL DUP6 ADD PUSH2 0x2A38 DUP6 PUSH2 0x2902 JUMP JUMPDEST DUP1 PUSH1 0x0 JUMPDEST DUP6 DUP2 LT ISZERO PUSH2 0x2A74 JUMPI DUP5 DUP5 SUB DUP10 MSTORE DUP2 MLOAD PUSH2 0x2A55 DUP6 DUP3 PUSH2 0x29F0 JUMP JUMPDEST SWAP5 POP PUSH2 0x2A60 DUP4 PUSH2 0x2A04 JUMP JUMPDEST SWAP3 POP PUSH1 0x20 DUP11 ADD SWAP10 POP POP PUSH1 0x1 DUP2 ADD SWAP1 POP PUSH2 0x2A3C JUMP JUMPDEST POP DUP3 SWAP8 POP DUP8 SWAP6 POP POP POP POP POP POP SWAP3 SWAP2 POP POP JUMP JUMPDEST PUSH1 0x0 PUSH1 0x20 DUP3 ADD SWAP1 POP DUP2 DUP2 SUB PUSH1 0x0 DUP4 ADD MSTORE PUSH2 0x2AA0 DUP2 DUP5 PUSH2 0x2A11 JUMP JUMPDEST SWAP1 POP SWAP3 SWAP2 POP POP JUMP JUMPDEST PUSH1 0x0 PUSH1 0x4 SWAP1 POP SWAP2 SWAP1 POP JUMP JUMPDEST PUSH1 0x0 DUP2 SWAP1 POP SWAP3 SWAP2 POP POP JUMP JUMPDEST PUSH1 0x0 DUP2 SWAP1 POP SWAP2 SWAP1 POP JUMP JUMPDEST PUSH1 0x0 PUSH1 0xA0 DUP4 ADD PUSH1 0x0 DUP4 ADD MLOAD PUSH2 0x2AE0 PUSH1 0x0 DUP7 ADD DUP3 PUSH2 0x290C JUMP JUMPDEST POP PUSH1 0x20 DUP4 ADD MLOAD DUP5 DUP3 SUB PUSH1 0x20 DUP7 ADD MSTORE PUSH2 0x2AF8 DUP3 DUP3 PUSH2 0x292C JUMP JUMPDEST SWAP2 POP POP PUSH1 0x40 DUP4 ADD MLOAD DUP5 DUP3 SUB PUSH1 0x40 DUP7 ADD MSTORE PUSH2 0x2B12 DUP3 DUP3 PUSH2 0x292C JUMP JUMPDEST SWAP2 POP POP PUSH1 0x60 DUP4 ADD MLOAD DUP5 DUP3 SUB PUSH1 0x60 DUP7 ADD MSTORE PUSH2 0x2B2C DUP3 DUP3 PUSH2 0x292C JUMP JUMPDEST SWAP2 POP POP PUSH1 0x80 DUP4 ADD MLOAD DUP5 DUP3 SUB PUSH1 0x80 DUP7 ADD MSTORE PUSH2 0x2B46 DUP3 DUP3 PUSH2 0x292C JUMP JUMPDEST SWAP2 POP POP DUP1 SWAP2 POP POP SWAP3 SWAP2 POP POP JUMP JUMPDEST PUSH1 0x0 PUSH2 0x2B5F DUP4 DUP4 PUSH2 0x2AC8 JUMP JUMPDEST SWAP1 POP SWAP3 SWAP2 POP POP JUMP JUMPDEST PUSH1 0x0 PUSH1 0x20 DUP3 ADD SWAP1 POP SWAP2 SWAP1 POP JUMP JUMPDEST PUSH1 0x0 PUSH2 0x2B7F DUP3 PUSH2 0x2AA8 JUMP JUMPDEST PUSH2 0x2B89 DUP2 DUP6 PUSH2 0x2AB3 JUMP JUMPDEST SWAP4 POP DUP4 PUSH1 0x20 DUP3 MUL DUP6 ADD PUSH2 0x2B9B DUP6 PUSH2 0x2ABE JUMP JUMPDEST DUP1 PUSH1 0x0 JUMPDEST DUP6 DUP2 LT ISZERO PUSH2 0x2BD7 JUMPI DUP5 DUP5 SUB DUP10 MSTORE DUP2 MLOAD PUSH2 0x2BB8 DUP6 DUP3 PUSH2 0x2B53 JUMP JUMPDEST SWAP5 POP PUSH2 0x2BC3 DUP4 PUSH2 0x2B67 JUMP JUMPDEST SWAP3 POP PUSH1 0x20 DUP11 ADD SWAP10 POP POP PUSH1 0x1 DUP2 ADD SWAP1 POP PUSH2 0x2B9F JUMP JUMPDEST POP DUP3 SWAP8 POP DUP8 SWAP6 POP POP POP POP POP POP SWAP3 SWAP2 POP POP JUMP JUMPDEST PUSH1 0x0 PUSH1 0x20 DUP3 ADD SWAP1 POP DUP2 DUP2 SUB PUSH1 0x0 DUP4 ADD MSTORE PUSH2 0x2C03 DUP2 DUP5 PUSH2 0x2B74 JUMP JUMPDEST SWAP1 POP SWAP3 SWAP2 POP POP JUMP JUMPDEST PUSH1 0x0 PUSH1 0x4 SWAP1 POP SWAP2 SWAP1 POP JUMP JUMPDEST PUSH1 0x0 DUP2 SWAP1 POP SWAP3 SWAP2 POP POP JUMP JUMPDEST PUSH1 0x0 DUP2 SWAP1 POP SWAP2 SWAP1 POP JUMP JUMPDEST PUSH1 0x0 PUSH1 0xA0 DUP4 ADD PUSH1 0x0 DUP4 ADD MLOAD PUSH2 0x2C43 PUSH1 0x0 DUP7 ADD DUP3 PUSH2 0x290C JUMP JUMPDEST POP PUSH1 0x20 DUP4 ADD MLOAD DUP5 DUP3 SUB PUSH1 0x20 DUP7 ADD MSTORE PUSH2 0x2C5B DUP3 DUP3 PUSH2 0x292C JUMP JUMPDEST SWAP2 POP POP PUSH1 0x40 DUP4 ADD MLOAD DUP5 DUP3 SUB PUSH1 0x40 DUP7 ADD MSTORE PUSH2 0x2C75 DUP3 DUP3 PUSH2 0x292C JUMP JUMPDEST SWAP2 POP POP PUSH1 0x60 DUP4 ADD MLOAD DUP5 DUP3 SUB PUSH1 0x60 DUP7 ADD MSTORE PUSH2 0x2C8F DUP3 DUP3 PUSH2 0x292C JUMP JUMPDEST SWAP2 POP POP PUSH1 0x80 DUP4 ADD MLOAD DUP5 DUP3 SUB PUSH1 0x80 DUP7 ADD MSTORE PUSH2 0x2CA9 DUP3 DUP3 PUSH2 0x292C JUMP JUMPDEST SWAP2 POP POP DUP1 SWAP2 POP POP SWAP3 SWAP2 POP POP JUMP JUMPDEST PUSH1 0x0 PUSH2 0x2CC2 DUP4 DUP4 PUSH2 0x2C2B JUMP JUMPDEST SWAP1 POP SWAP3 SWAP2 POP POP JUMP JUMPDEST PUSH1 0x0 PUSH1 0x20 DUP3 ADD SWAP1 POP SWAP2 SWAP1 POP JUMP JUMPDEST PUSH1 0x0 PUSH2 0x2CE2 DUP3 PUSH2 0x2C0B JUMP JUMPDEST PUSH2 0x2CEC DUP2 DUP6 PUSH2 0x2C16 JUMP JUMPDEST SWAP4 POP DUP4 PUSH1 0x20 DUP3 MUL DUP6 ADD PUSH2 0x2CFE DUP6 PUSH2 0x2C21 JUMP JUMPDEST DUP1 PUSH1 0x0 JUMPDEST DUP6 DUP2 LT ISZERO PUSH2 0x2D3A JUMPI DUP5 DUP5 SUB DUP10 MSTORE DUP2 MLOAD PUSH2 0x2D1B DUP6 DUP3 PUSH2 0x2CB6 JUMP JUMPDEST SWAP5 POP PUSH2 0x2D26 DUP4 PUSH2 0x2CCA JUMP JUMPDEST SWAP3 POP PUSH1 0x20 DUP11 ADD SWAP10 POP POP PUSH1 0x1 DUP2 ADD SWAP1 POP PUSH2 0x2D02 JUMP JUMPDEST POP DUP3 SWAP8 POP DUP8 SWAP6 POP POP POP POP POP POP SWAP3 SWAP2 POP POP JUMP JUMPDEST PUSH1 0x0 PUSH1 0x20 DUP3 ADD SWAP1 POP DUP2 DUP2 SUB PUSH1 0x0 DUP4 ADD MSTORE PUSH2 0x2D66 DUP2 DUP5 PUSH2 0x2CD7 JUMP JUMPDEST SWAP1 POP SWAP3 SWAP2 POP POP JUMP JUMPDEST PUSH1 0x0 DUP1 REVERT JUMPDEST PUSH1 0x0 DUP1 REVERT JUMPDEST PUSH1 0x0 DUP1 REVERT JUMPDEST PUSH1 0x0 DUP1 DUP4 PUSH1 0x1F DUP5 ADD SLT PUSH2 0x2D93 JUMPI PUSH2 0x2D92 PUSH2 0x2D6E JUMP JUMPDEST JUMPDEST DUP3 CALLDATALOAD SWAP1 POP PUSH8 0xFFFFFFFFFFFFFFFF DUP2 GT ISZERO PUSH2 0x2DB0 JUMPI PUSH2 0x2DAF PUSH2 0x2D73 JUMP JUMPDEST JUMPDEST PUSH1 0x20 DUP4 ADD SWAP2 POP DUP4 PUSH1 0x1 DUP3 MUL DUP4 ADD GT ISZERO PUSH2 0x2DCC JUMPI PUSH2 0x2DCB PUSH2 0x2D78 JUMP JUMPDEST JUMPDEST SWAP3 POP SWAP3 SWAP1 POP JUMP JUMPDEST PUSH1 0x0 DUP1 PUSH1 0x20 DUP4 DUP6 SUB SLT ISZERO PUSH2 0x2DEA JUMPI PUSH2 0x2DE9 PUSH2 0x2771 JUMP JUMPDEST JUMPDEST PUSH1 0x0 DUP4 ADD CALLDATALOAD PUSH8 0xFFFFFFFFFFFFFFFF DUP2 GT ISZERO PUSH2 0x2E08 JUMPI PUSH2 0x2E07 PUSH2 0x2776 JUMP JUMPDEST JUMPDEST PUSH2 0x2E14 DUP6 DUP3 DUP7 ADD PUSH2 0x2D7D JUMP JUMPDEST SWAP3 POP SWAP3 POP POP SWAP3 POP SWAP3 SWAP1 POP JUMP JUMPDEST PUSH1 0x0 DUP1 PUSH1 0x0 DUP1 PUSH1 0x0 DUP1 PUSH1 0x0 DUP1 PUSH1 0x0 PUSH1 0xA0 DUP11 DUP13 SUB SLT ISZERO PUSH2 0x2E42 JUMPI PUSH2 0x2E41 PUSH2 0x2771 JUMP JUMPDEST JUMPDEST PUSH1 0x0 DUP11 ADD CALLDATALOAD PUSH8 0xFFFFFFFFFFFFFFFF DUP2 GT ISZERO PUSH2 0x2E60 JUMPI PUSH2 0x2E5F PUSH2 0x2776 JUMP JUMPDEST JUMPDEST PUSH2 0x2E6C DUP13 DUP3 DUP14 ADD PUSH2 0x2D7D JUMP JUMPDEST SWAP10 POP SWAP10 POP POP PUSH1 0x20 DUP11 ADD CALLDATALOAD PUSH8 0xFFFFFFFFFFFFFFFF DUP2 GT ISZERO PUSH2 0x2E8F JUMPI PUSH2 0x2E8E PUSH2 0x2776 JUMP JUMPDEST JUMPDEST PUSH2 0x2E9B DUP13 DUP3 DUP14 ADD PUSH2 0x2D7D JUMP JUMPDEST SWAP8 POP SWAP8 POP POP PUSH1 0x40 DUP11 ADD CALLDATALOAD PUSH8 0xFFFFFFFFFFFFFFFF DUP2 GT ISZERO PUSH2 0x2EBE JUMPI PUSH2 0x2EBD PUSH2 0x2776 JUMP JUMPDEST JUMPDEST PUSH2 0x2ECA DUP13 DUP3 DUP14 ADD PUSH2 0x2D7D JUMP JUMPDEST SWAP6 POP SWAP6 POP POP PUSH1 0x60 DUP11 ADD CALLDATALOAD PUSH8 0xFFFFFFFFFFFFFFFF DUP2 GT ISZERO PUSH2 0x2EED JUMPI PUSH2 0x2EEC PUSH2 0x2776 JUMP JUMPDEST JUMPDEST PUSH2 0x2EF9 DUP13 DUP3 DUP14 ADD PUSH2 0x2D7D JUMP JUMPDEST SWAP4 POP SWAP4 POP POP PUSH1 0x80 PUSH2 0x2F0C DUP13 DUP3 DUP14 ADD PUSH2 0x279C JUMP JUMPDEST SWAP2 POP POP SWAP3 SWAP6 SWAP9 POP SWAP3 SWAP6 SWAP9 POP SWAP3 SWAP6 SWAP9 JUMP JUMPDEST PUSH1 0x0 PUSH1 0x20 DUP3 ADD SWAP1 POP DUP2 DUP2 SUB PUSH1 0x0 DUP4 ADD MSTORE PUSH2 0x2F36 DUP2 DUP5 PUSH2 0x2844 JUMP JUMPDEST SWAP1 POP SWAP3 SWAP2 POP POP JUMP JUMPDEST PUSH1 0x0 DUP1 PUSH1 0x0 DUP1 PUSH1 0x0 DUP1 PUSH1 0x0 DUP1 PUSH1 0x80 DUP10 DUP12 SUB SLT ISZERO PUSH2 0x2F5E JUMPI PUSH2 0x2F5D PUSH2 0x2771 JUMP JUMPDEST JUMPDEST PUSH1 0x0 DUP10 ADD CALLDATALOAD PUSH8 0xFFFFFFFFFFFFFFFF DUP2 GT ISZERO PUSH2 0x2F7C JUMPI PUSH2 0x2F7B PUSH2 0x2776 JUMP JUMPDEST JUMPDEST PUSH2 0x2F88 DUP12 DUP3 DUP13 ADD PUSH2 0x2D7D JUMP JUMPDEST SWAP9 POP SWAP9 POP POP PUSH1 0x20 DUP10 ADD CALLDATALOAD PUSH8 0xFFFFFFFFFFFFFFFF DUP2 GT ISZERO PUSH2 0x2FAB JUMPI PUSH2 0x2FAA PUSH2 0x2776 JUMP JUMPDEST JUMPDEST PUSH2 0x2FB7 DUP12 DUP3 DUP13 ADD PUSH2 0x2D7D JUMP JUMPDEST SWAP7 POP SWAP7 POP POP PUSH1 0x40 DUP10 ADD CALLDATALOAD PUSH8 0xFFFFFFFFFFFFFFFF DUP2 GT ISZERO PUSH2 0x2FDA JUMPI PUSH2 0x2FD9 PUSH2 0x2776 JUMP JUMPDEST JUMPDEST PUSH2 0x2FE6 DUP12 DUP3 DUP13 ADD PUSH2 0x2D7D JUMP JUMPDEST SWAP5 POP SWAP5 POP POP PUSH1 0x60 DUP10 ADD CALLDATALOAD PUSH8 0xFFFFFFFFFFFFFFFF DUP2 GT ISZERO PUSH2 0x3009 JUMPI PUSH2 0x3008 PUSH2 0x2776 JUMP JUMPDEST JUMPDEST PUSH2 0x3015 DUP12 DUP3 DUP13 ADD PUSH2 0x2D7D JUMP JUMPDEST SWAP3 POP SWAP3 POP POP SWAP3 SWAP6 SWAP9 POP SWAP3 SWAP6 SWAP9 SWAP1 SWAP4 SWAP7 POP JUMP JUMPDEST PUSH1 0x0 PUSH20 0xFFFFFFFFFFFFFFFFFFFFFFFFFFFFFFFFFFFFFFFF DUP3 AND SWAP1 POP SWAP2 SWAP1 POP JUMP JUMPDEST PUSH1 0x0 PUSH2 0x3052 DUP3 PUSH2 0x3027 JUMP JUMPDEST SWAP1 POP SWAP2 SWAP1 POP JUMP JUMPDEST PUSH2 0x3062 DUP2 PUSH2 0x3047 JUMP JUMPDEST DUP3 MSTORE POP POP JUMP JUMPDEST PUSH1 0x0 PUSH1 0x20 DUP3 ADD SWAP1 POP PUSH2 0x307D PUSH1 0x0 DUP4 ADD DUP5 PUSH2 0x3059 JUMP JUMPDEST SWAP3 SWAP2 POP POP JUMP JUMPDEST PUSH32 0x4E487B7100000000000000000000000000000000000000000000000000000000 PUSH1 0x0 MSTORE PUSH1 0x22 PUSH1 0x4 MSTORE PUSH1 0x24 PUSH1 0x0 REVERT JUMPDEST PUSH1 0x0 PUSH1 0x2 DUP3 DIV SWAP1 POP PUSH1 0x1 DUP3 AND DUP1 PUSH2 0x30CA JUMPI PUSH1 0x7F DUP3 AND SWAP2 POP JUMPDEST PUSH1 0x20 DUP3 LT DUP2 SUB PUSH2 0x30DD JUMPI PUSH2 0x30DC PUSH2 0x3083 JUMP JUMPDEST JUMPDEST POP SWAP2 SWAP1 POP JUMP JUMPDEST PUSH32 0x596F7520617265206E6F7420746865206F776E65720000000000000000000000 PUSH1 0x0 DUP3 ADD MSTORE POP JUMP JUMPDEST PUSH1 0x0 PUSH2 0x3119 PUSH1 0x15 DUP4 PUSH2 0x27F8 JUMP JUMPDEST SWAP2 POP PUSH2 0x3124 DUP3 PUSH2 0x30E3 JUMP JUMPDEST PUSH1 0x20 DUP3 ADD SWAP1 POP SWAP2 SWAP1 POP JUMP JUMPDEST PUSH1 0x0 PUSH1 0x20 DUP3 ADD SWAP1 POP DUP2 DUP2 SUB PUSH1 0x0 DUP4 ADD MSTORE PUSH2 0x3148 DUP2 PUSH2 0x310C JUMP JUMPDEST SWAP1 POP SWAP2 SWAP1 POP JUMP JUMPDEST PUSH1 0x0 DUP3 SWAP1 POP SWAP3 SWAP2 POP POP JUMP JUMPDEST PUSH32 0x4E487B7100000000000000000000000000000000000000000000000000000000 PUSH1 0x0 MSTORE PUSH1 0x41 PUSH1 0x4 MSTORE PUSH1 0x24 PUSH1 0x0 REVERT JUMPDEST PUSH1 0x0 DUP2 SWAP1 POP DUP2 PUSH1 0x0 MSTORE PUSH1 0x20 PUSH1 0x0 KECCAK256 SWAP1 POP SWAP2 SWAP1 POP JUMP JUMPDEST PUSH1 0x0 PUSH1 0x20 PUSH1 0x1F DUP4 ADD DIV SWAP1 POP SWAP2 SWAP1 POP JUMP JUMPDEST PUSH1 0x0 DUP3 DUP3 SHL SWAP1 POP SWAP3 SWAP2 POP POP JUMP JUMPDEST PUSH1 0x0 PUSH1 0x8 DUP4 MUL PUSH2 0x31EB PUSH32 0xFFFFFFFFFFFFFFFFFFFFFFFFFFFFFFFFFFFFFFFFFFFFFFFFFFFFFFFFFFFFFFFF DUP3 PUSH2 0x31AE JUMP JUMPDEST PUSH2 0x31F5 DUP7 DUP4 PUSH2 0x31AE JUMP JUMPDEST SWAP6 POP DUP1 NOT DUP5 AND SWAP4 POP DUP1 DUP7 AND DUP5 OR SWAP3 POP POP POP SWAP4 SWAP3 POP POP POP JUMP JUMPDEST PUSH1 0x0 DUP2 SWAP1 POP SWAP2 SWAP1 POP JUMP JUMPDEST PUSH1 0x0 PUSH2 0x3232 PUSH2 0x322D PUSH2 0x3228 DUP5 PUSH2 0x277B JUMP JUMPDEST PUSH2 0x320D JUMP JUMPDEST PUSH2 0x277B JUMP JUMPDEST SWAP1 POP SWAP2 SWAP1 POP JUMP JUMPDEST PUSH1 0x0 DUP2 SWAP1 POP SWAP2 SWAP1 POP JUMP JUMPDEST PUSH2 0x324C DUP4 PUSH2 0x3217 JUMP JUMPDEST PUSH2 0x3260 PUSH2 0x3258 DUP3 PUSH2 0x3239 JUMP JUMPDEST DUP5 DUP5 SLOAD PUSH2 0x31BB JUMP JUMPDEST DUP3 SSTORE POP POP POP POP JUMP JUMPDEST PUSH1 0x0 SWAP1 JUMP JUMPDEST PUSH2 0x3275 PUSH2 0x3268 JUMP JUMPDEST PUSH2 0x3280 DUP2 DUP5 DUP5 PUSH2 0x3243 JUMP JUMPDEST POP POP POP JUMP JUMPDEST JUMPDEST DUP2 DUP2 LT ISZERO PUSH2 0x32A4 JUMPI PUSH2 0x3299 PUSH1 0x0 DUP3 PUSH2 0x326D JUMP JUMPDEST PUSH1 0x1 DUP2 ADD SWAP1 POP PUSH2 0x3286 JUMP JUMPDEST POP POP JUMP JUMPDEST PUSH1 0x1F DUP3 GT ISZERO PUSH2 0x32E9 JUMPI PUSH2 0x32BA DUP2 PUSH2 0x3189 JUMP JUMPDEST PUSH2 0x32C3 DUP5 PUSH2 0x319E JUMP JUMPDEST DUP2 ADD PUSH1 0x20 DUP6 LT ISZERO PUSH2 0x32D2 JUMPI DUP2 SWAP1 POP JUMPDEST PUSH2 0x32E6 PUSH2 0x32DE DUP6 PUSH2 0x319E JUMP JUMPDEST DUP4 ADD DUP3 PUSH2 0x3285 JUMP JUMPDEST POP POP JUMPDEST POP POP POP JUMP JUMPDEST PUSH1 0x0 DUP3 DUP3 SHR SWAP1 POP SWAP3 SWAP2 POP POP JUMP JUMPDEST PUSH1 0x0 PUSH2 0x330C PUSH1 0x0 NOT DUP5 PUSH1 0x8 MUL PUSH2 0x32EE JUMP JUMPDEST NOT DUP1 DUP4 AND SWAP2 POP POP SWAP3 SWAP2 POP POP JUMP JUMPDEST PUSH1 0x0 PUSH2 0x3325 DUP4 DUP4 PUSH2 0x32FB JUMP JUMPDEST SWAP2 POP DUP3 PUSH1 0x2 MUL DUP3 OR SWAP1 POP SWAP3 SWAP2 POP POP JUMP JUMPDEST PUSH2 0x333F DUP4 DUP4 PUSH2 0x314F JUMP JUMPDEST PUSH8 0xFFFFFFFFFFFFFFFF DUP2 GT ISZERO PUSH2 0x3358 JUMPI PUSH2 0x3357 PUSH2 0x315A JUMP JUMPDEST JUMPDEST PUSH2 0x3362 DUP3 SLOAD PUSH2 0x30B2 JUMP JUMPDEST PUSH2 0x336D DUP3 DUP3 DUP6 PUSH2 0x32A8 JUMP JUMPDEST PUSH1 0x0 PUSH1 0x1F DUP4 GT PUSH1 0x1 DUP2 EQ PUSH2 0x339C JUMPI PUSH1 0x0 DUP5 ISZERO PUSH2 0x338A JUMPI DUP3 DUP8 ADD CALLDATALOAD SWAP1 POP JUMPDEST PUSH2 0x3394 DUP6 DUP3 PUSH2 0x3319 JUMP JUMPDEST DUP7 SSTORE POP PUSH2 0x33FC JUMP JUMPDEST PUSH1 0x1F NOT DUP5 AND PUSH2 0x33AA DUP7 PUSH2 0x3189 JUMP JUMPDEST PUSH1 0x0 JUMPDEST DUP3 DUP2 LT ISZERO PUSH2 0x33D2 JUMPI DUP5 DUP10 ADD CALLDATALOAD DUP3 SSTORE PUSH1 0x1 DUP3 ADD SWAP2 POP PUSH1 0x20 DUP6 ADD SWAP5 POP PUSH1 0x20 DUP2 ADD SWAP1 POP PUSH2 0x33AD JUMP JUMPDEST DUP7 DUP4 LT ISZERO PUSH2 0x33EF JUMPI DUP5 DUP10 ADD CALLDATALOAD PUSH2 0x33EB PUSH1 0x1F DUP10 AND DUP3 PUSH2 0x32FB JUMP JUMPDEST DUP4 SSTORE POP JUMPDEST PUSH1 0x1 PUSH1 0x2 DUP9 MUL ADD DUP9 SSTORE POP POP POP JUMPDEST POP POP POP POP POP POP POP JUMP JUMPDEST PUSH32 0x496E76616C696420656475636174696F6E436F756E7400000000000000000000 PUSH1 0x0 DUP3 ADD MSTORE POP JUMP JUMPDEST PUSH1 0x0 PUSH2 0x343B PUSH1 0x16 DUP4 PUSH2 0x27F8 JUMP JUMPDEST SWAP2 POP PUSH2 0x3446 DUP3 PUSH2 0x3405 JUMP JUMPDEST PUSH1 0x20 DUP3 ADD SWAP1 POP SWAP2 SWAP1 POP JUMP JUMPDEST PUSH1 0x0 PUSH1 0x20 DUP3 ADD SWAP1 POP DUP2 DUP2 SUB PUSH1 0x0 DUP4 ADD MSTORE PUSH2 0x346A DUP2 PUSH2 0x342E JUMP JUMPDEST SWAP1 POP SWAP2 SWAP1 POP JUMP JUMPDEST PUSH32 0x4E487B7100000000000000000000000000000000000000000000000000000000 PUSH1 0x0 MSTORE PUSH1 0x32 PUSH1 0x4 MSTORE PUSH1 0x24 PUSH1 0x0 REVERT JUMPDEST PUSH2 0x34A9 DUP3 PUSH2 0x27ED JUMP JUMPDEST PUSH8 0xFFFFFFFFFFFFFFFF DUP2 GT ISZERO PUSH2 0x34C2 JUMPI PUSH2 0x34C1 PUSH2 0x315A JUMP JUMPDEST JUMPDEST PUSH2 0x34CC DUP3 SLOAD PUSH2 0x30B2 JUMP JUMPDEST PUSH2 0x34D7 DUP3 DUP3 DUP6 PUSH2 0x32A8 JUMP JUMPDEST PUSH1 0x0 PUSH1 0x20 SWAP1 POP PUSH1 0x1F DUP4 GT PUSH1 0x1 DUP2 EQ PUSH2 0x350A JUMPI PUSH1 0x0 DUP5 ISZERO PUSH2 0x34F8 JUMPI DUP3 DUP8 ADD MLOAD SWAP1 POP JUMPDEST PUSH2 0x3502 DUP6 DUP3 PUSH2 0x3319 JUMP JUMPDEST DUP7 SSTORE POP PUSH2 0x356A JUMP JUMPDEST PUSH1 0x1F NOT DUP5 AND PUSH2 0x3518 DUP7 PUSH2 0x3189 JUMP JUMPDEST PUSH1 0x0 JUMPDEST DUP3 DUP2 LT ISZERO PUSH2 0x3540 JUMPI DUP5 DUP10 ADD MLOAD DUP3 SSTORE PUSH1 0x1 DUP3 ADD SWAP2 POP PUSH1 0x20 DUP6 ADD SWAP5 POP PUSH1 0x20 DUP2 ADD SWAP1 POP PUSH2 0x351B JUMP JUMPDEST DUP7 DUP4 LT ISZERO PUSH2 0x355D JUMPI DUP5 DUP10 ADD MLOAD PUSH2 0x3559 PUSH1 0x1F DUP10 AND DUP3 PUSH2 0x32FB JUMP JUMPDEST DUP4 SSTORE POP JUMPDEST PUSH1 0x1 PUSH1 0x2 DUP9 MUL ADD DUP9 SSTORE POP POP POP JUMPDEST POP POP POP POP POP POP JUMP JUMPDEST PUSH32 0x4F6E6C79203420656475636174696F6E2064657461696C7320616C6C6F776564 PUSH1 0x0 DUP3 ADD MSTORE POP JUMP JUMPDEST PUSH1 0x0 PUSH2 0x35A8 PUSH1 0x20 DUP4 PUSH2 0x27F8 JUMP JUMPDEST SWAP2 POP PUSH2 0x35B3 DUP3 PUSH2 0x3572 JUMP JUMPDEST PUSH1 0x20 DUP3 ADD SWAP1 POP SWAP2 SWAP1 POP JUMP JUMPDEST PUSH1 0x0 PUSH1 0x20 DUP3 ADD SWAP1 POP DUP2 DUP2 SUB PUSH1 0x0 DUP4 ADD MSTORE PUSH2 0x35D7 DUP2 PUSH2 0x359B JUMP JUMPDEST SWAP1 POP SWAP2 SWAP1 POP JUMP JUMPDEST PUSH32 0x4E487B7100000000000000000000000000000000000000000000000000000000 PUSH1 0x0 MSTORE PUSH1 0x11 PUSH1 0x4 MSTORE PUSH1 0x24 PUSH1 0x0 REVERT JUMPDEST PUSH1 0x0 PUSH2 0x3618 DUP3 PUSH2 0x277B JUMP JUMPDEST SWAP2 POP PUSH32 0xFFFFFFFFFFFFFFFFFFFFFFFFFFFFFFFFFFFFFFFFFFFFFFFFFFFFFFFFFFFFFFFF DUP3 SUB PUSH2 0x364A JUMPI PUSH2 0x3649 PUSH2 0x35DE JUMP JUMPDEST JUMPDEST PUSH1 0x1 DUP3 ADD SWAP1 POP SWAP2 SWAP1 POP JUMP JUMPDEST PUSH32 0x4F6E6C792031342070726F6A6563747320616C6C6F7765640000000000000000 PUSH1 0x0 DUP3 ADD MSTORE POP JUMP JUMPDEST PUSH1 0x0 PUSH2 0x368B PUSH1 0x18 DUP4 PUSH2 0x27F8 JUMP JUMPDEST SWAP2 POP PUSH2 0x3696 DUP3 PUSH2 0x3655 JUMP JUMPDEST PUSH1 0x20 DUP3 ADD SWAP1 POP SWAP2 SWAP1 POP JUMP JUMPDEST PUSH1 0x0 PUSH1 0x20 DUP3 ADD SWAP1 POP DUP2 DUP2 SUB PUSH1 0x0 DUP4 ADD MSTORE PUSH2 0x36BA DUP2 PUSH2 0x367E JUMP JUMPDEST SWAP1 POP SWAP2 SWAP1 POP JUMP JUMPDEST PUSH32 0x496E76616C696420657870657269656E6365436F756E74000000000000000000 PUSH1 0x0 DUP3 ADD MSTORE POP JUMP JUMPDEST PUSH1 0x0 PUSH2 0x36F7 PUSH1 0x17 DUP4 PUSH2 0x27F8 JUMP JUMPDEST SWAP2 POP PUSH2 0x3702 DUP3 PUSH2 0x36C1 JUMP JUMPDEST PUSH1 0x20 DUP3 ADD SWAP1 POP SWAP2 SWAP1 POP JUMP JUMPDEST PUSH1 0x0 PUSH1 0x20 DUP3 ADD SWAP1 POP DUP2 DUP2 SUB PUSH1 0x0 DUP4 ADD MSTORE PUSH2 0x3726 DUP2 PUSH2 0x36EA JUMP JUMPDEST SWAP1 POP SWAP2 SWAP1 POP JUMP JUMPDEST PUSH1 0x0 DUP2 SWAP1 POP SWAP3 SWAP2 POP POP JUMP JUMPDEST POP JUMP JUMPDEST PUSH1 0x0 PUSH2 0x3748 PUSH1 0x0 DUP4 PUSH2 0x372D JUMP JUMPDEST SWAP2 POP PUSH2 0x3753 DUP3 PUSH2 0x3738 JUMP JUMPDEST PUSH1 0x0 DUP3 ADD SWAP1 POP SWAP2 SWAP1 POP JUMP JUMPDEST PUSH1 0x0 PUSH2 0x3769 DUP3 PUSH2 0x373B JUMP JUMPDEST SWAP2 POP DUP2 SWAP1 POP SWAP2 SWAP1 POP JUMP JUMPDEST PUSH32 0x4661696C656420746F2073656E64206574686572000000000000000000000000 PUSH1 0x0 DUP3 ADD MSTORE POP JUMP JUMPDEST PUSH1 0x0 PUSH2 0x37A9 PUSH1 0x14 DUP4 PUSH2 0x27F8 JUMP JUMPDEST SWAP2 POP PUSH2 0x37B4 DUP3 PUSH2 0x3773 JUMP JUMPDEST PUSH1 0x20 DUP3 ADD SWAP1 POP SWAP2 SWAP1 POP JUMP JUMPDEST PUSH1 0x0 PUSH1 0x20 DUP3 ADD SWAP1 POP DUP2 DUP2 SUB PUSH1 0x0 DUP4 ADD MSTORE PUSH2 0x37D8 DUP2 PUSH2 0x379C JUMP JUMPDEST SWAP1 POP SWAP2 SWAP1 POP JUMP INVALID LOG2 PUSH5 0x6970667358 0x22 SLT KECCAK256 PUSH1 0xAF 0xC9 SWAP10 0xDE DUP16 SELFDESTRUCT 0xCA 0xC3 COINBASE GAS PUSH5 0x3FE288A236 0xBA JUMPDEST DELEGATECALL DUP4 0xB4 SWAP9 MLOAD SWAP2 LOG4 0xA7 DUP10 0xA8 0xB8 DUP4 0x4A PUSH5 0x736F6C6343 STOP ADDMOD SLT STOP CALLER MLOAD PUSH14 0x6161353359645170584275634676 MSTORE8 CODESIZE MSTORE8 0x4A MSTORE JUMPI 0x4E PUSH19 0x4E6B343637576D55356577567A364E69647054 CALLVALUE 0x4C PUSH8 0x516D634442515357 MSTORE8 SLOAD PUSH8 0x5164625A53656B31 PUSH7 0x4E6B5841415A53 PUSH3 0x423844 PC NUMBER CALLDATASIZE CALLDATASIZE PUSH20 0x74426567626B6B4467574F76657220736978206D PUSH16 0x6E746873206F662072656C6576616E74 KECCAK256 PUSH6 0x787065726965 PUSH15 0x636520616E6420736F6C6964206578 PUSH17 0x65727469736520696E20626C6F636B6368 PUSH2 0x696E KECCAK256 PUSH5 0x6576656C6F PUSH17 0x6D656E742E4920636F6E74726962757465 KECCAK256 PUSH21 0x6F207765623320636F6D6D756E6974792E00000000 "
				},
				"gasEstimates": {
					"creation": {
						"codeDepositCost": "2871400",
						"executionCost": "infinite",
						"totalCost": "infinite"
					},
					"external": {
						"allEducationDetails()": "infinite",
						"allExperienceDetails()": "infinite",
						"allProjects()": "infinite",
						"changeDescription(string)": "infinite",
						"changeEducation(string,string,string,string,uint256)": "infinite",
						"changeExperience(string,string,string,string,uint256)": "infinite",
						"changeImageLink(string)": "infinite",
						"changeProject(string,string,string,string,uint256)": "infinite",
						"changeResumeLink(string)": "infinite",
						"description()": "infinite",
						"donate()": "infinite",
						"educationDetails(uint256)": "infinite",
						"experienceDetails(uint256)": "infinite",
						"imageLink()": "infinite",
						"insertEducation(string,string,string,string)": "infinite",
						"insertExperience(string,string,string,string)": "infinite",
						"insertProject(string,string,string,string)": "infinite",
						"owner()": "2603",
						"projects(uint256)": "infinite",
						"resumeLink()": "infinite"
					}
				},
				"methodIdentifiers": {
					"allEducationDetails()": "5397c6ec",
					"allExperienceDetails()": "36eea422",
					"allProjects()": "2adf13b2",
					"changeDescription(string)": "e6120413",
					"changeEducation(string,string,string,string,uint256)": "5b173a69",
					"changeExperience(string,string,string,string,uint256)": "d921fa82",
					"changeImageLink(string)": "598e7f37",
					"changeProject(string,string,string,string,uint256)": "6fe8e0bd",
					"changeResumeLink(string)": "d3cedf11",
					"description()": "7284e416",
					"donate()": "ed88c68e",
					"educationDetails(uint256)": "7aea95aa",
					"experienceDetails(uint256)": "10ef62c5",
					"imageLink()": "caf7b759",
					"insertEducation(string,string,string,string)": "98f831b6",
					"insertExperience(string,string,string,string)": "5d85a1f4",
					"insertProject(string,string,string,string)": "6426d4c3",
					"owner()": "8da5cb5b",
					"projects(uint256)": "107046bd",
					"resumeLink()": "5cea6a7c"
				}
			},
			"storageLayout": {
				"storage": [
					{
						"astId": 39,
						"contract": "contracts/Portfolio.sol:Portfolio",
						"label": "projects",
						"offset": 0,
						"slot": "0",
						"type": "t_array(t_struct(Project)12_storage)14_storage"
					},
					{
						"astId": 44,
						"contract": "contracts/Portfolio.sol:Portfolio",
						"label": "educationDetails",
						"offset": 0,
						"slot": "70",
						"type": "t_array(t_struct(Education)23_storage)4_storage"
					},
					{
						"astId": 49,
						"contract": "contracts/Portfolio.sol:Portfolio",
						"label": "experienceDetails",
						"offset": 0,
						"slot": "90",
						"type": "t_array(t_struct(Experience)34_storage)4_storage"
					},
					{
						"astId": 52,
						"contract": "contracts/Portfolio.sol:Portfolio",
						"label": "imageLink",
						"offset": 0,
						"slot": "110",
						"type": "t_string_storage"
					},
					{
						"astId": 55,
						"contract": "contracts/Portfolio.sol:Portfolio",
						"label": "description",
						"offset": 0,
						"slot": "111",
						"type": "t_string_storage"
					},
					{
						"astId": 58,
						"contract": "contracts/Portfolio.sol:Portfolio",
						"label": "resumeLink",
						"offset": 0,
						"slot": "112",
						"type": "t_string_storage"
					},
					{
						"astId": 60,
						"contract": "contracts/Portfolio.sol:Portfolio",
						"label": "projectCount",
						"offset": 0,
						"slot": "113",
						"type": "t_uint256"
					},
					{
						"astId": 62,
						"contract": "contracts/Portfolio.sol:Portfolio",
						"label": "educationCount",
						"offset": 0,
						"slot": "114",
						"type": "t_uint256"
					},
					{
						"astId": 64,
						"contract": "contracts/Portfolio.sol:Portfolio",
						"label": "experienceCount",
						"offset": 0,
						"slot": "115",
						"type": "t_uint256"
					},
					{
						"astId": 66,
						"contract": "contracts/Portfolio.sol:Portfolio",
						"label": "owner",
						"offset": 0,
						"slot": "116",
						"type": "t_address"
					}
				],
				"types": {
					"t_address": {
						"encoding": "inplace",
						"label": "address",
						"numberOfBytes": "20"
					},
					"t_array(t_struct(Education)23_storage)4_storage": {
						"base": "t_struct(Education)23_storage",
						"encoding": "inplace",
						"label": "struct Portfolio.Education[4]",
						"numberOfBytes": "640"
					},
					"t_array(t_struct(Experience)34_storage)4_storage": {
						"base": "t_struct(Experience)34_storage",
						"encoding": "inplace",
						"label": "struct Portfolio.Experience[4]",
						"numberOfBytes": "640"
					},
					"t_array(t_struct(Project)12_storage)14_storage": {
						"base": "t_struct(Project)12_storage",
						"encoding": "inplace",
						"label": "struct Portfolio.Project[14]",
						"numberOfBytes": "2240"
					},
					"t_string_storage": {
						"encoding": "bytes",
						"label": "string",
						"numberOfBytes": "32"
					},
					"t_struct(Education)23_storage": {
						"encoding": "inplace",
						"label": "struct Portfolio.Education",
						"members": [
							{
								"astId": 14,
								"contract": "contracts/Portfolio.sol:Portfolio",
								"label": "id",
								"offset": 0,
								"slot": "0",
								"type": "t_uint256"
							},
							{
								"astId": 16,
								"contract": "contracts/Portfolio.sol:Portfolio",
								"label": "date",
								"offset": 0,
								"slot": "1",
								"type": "t_string_storage"
							},
							{
								"astId": 18,
								"contract": "contracts/Portfolio.sol:Portfolio",
								"label": "degree",
								"offset": 0,
								"slot": "2",
								"type": "t_string_storage"
							},
							{
								"astId": 20,
								"contract": "contracts/Portfolio.sol:Portfolio",
								"label": "knowledgeAcquired",
								"offset": 0,
								"slot": "3",
								"type": "t_string_storage"
							},
							{
								"astId": 22,
								"contract": "contracts/Portfolio.sol:Portfolio",
								"label": "instutionName",
								"offset": 0,
								"slot": "4",
								"type": "t_string_storage"
							}
						],
						"numberOfBytes": "160"
					},
					"t_struct(Experience)34_storage": {
						"encoding": "inplace",
						"label": "struct Portfolio.Experience",
						"members": [
							{
								"astId": 25,
								"contract": "contracts/Portfolio.sol:Portfolio",
								"label": "id",
								"offset": 0,
								"slot": "0",
								"type": "t_uint256"
							},
							{
								"astId": 27,
								"contract": "contracts/Portfolio.sol:Portfolio",
								"label": "date",
								"offset": 0,
								"slot": "1",
								"type": "t_string_storage"
							},
							{
								"astId": 29,
								"contract": "contracts/Portfolio.sol:Portfolio",
								"label": "post",
								"offset": 0,
								"slot": "2",
								"type": "t_string_storage"
							},
							{
								"astId": 31,
								"contract": "contracts/Portfolio.sol:Portfolio",
								"label": "knowledgeAcquired",
								"offset": 0,
								"slot": "3",
								"type": "t_string_storage"
							},
							{
								"astId": 33,
								"contract": "contracts/Portfolio.sol:Portfolio",
								"label": "compamyName",
								"offset": 0,
								"slot": "4",
								"type": "t_string_storage"
							}
						],
						"numberOfBytes": "160"
					},
					"t_struct(Project)12_storage": {
						"encoding": "inplace",
						"label": "struct Portfolio.Project",
						"members": [
							{
								"astId": 3,
								"contract": "contracts/Portfolio.sol:Portfolio",
								"label": "id",
								"offset": 0,
								"slot": "0",
								"type": "t_uint256"
							},
							{
								"astId": 5,
								"contract": "contracts/Portfolio.sol:Portfolio",
								"label": "name",
								"offset": 0,
								"slot": "1",
								"type": "t_string_storage"
							},
							{
								"astId": 7,
								"contract": "contracts/Portfolio.sol:Portfolio",
								"label": "description",
								"offset": 0,
								"slot": "2",
								"type": "t_string_storage"
							},
							{
								"astId": 9,
								"contract": "contracts/Portfolio.sol:Portfolio",
								"label": "image",
								"offset": 0,
								"slot": "3",
								"type": "t_string_storage"
							},
							{
								"astId": 11,
								"contract": "contracts/Portfolio.sol:Portfolio",
								"label": "githubLink",
								"offset": 0,
								"slot": "4",
								"type": "t_string_storage"
							}
						],
						"numberOfBytes": "160"
					},
					"t_uint256": {
						"encoding": "inplace",
						"label": "uint256",
						"numberOfBytes": "32"
					}
				}
			},
			"userdoc": {
				"kind": "user",
				"methods": {},
				"version": 1
			}
		}
	}
}